:020000040800F2
:1000000038050020CD010008D1010008D301000807
:10001000D5010008D7010008D90100080000000040
:10002000000000000000000000000000DB010008EC
:10003000DD01000800000000DF010008E101000808
:10004000E3010008E3010008E3010008E301000800
:10005000E3010008E301000841030008E301000890
:10006000E301000875030008A9030008E301000884
:10007000E3010008E3010008E3010008E3010008D0
:10008000E3010008E3010008E3010008E3010008C0
:10009000E3010008E3010008E3010008E3010008B0
:1000A000E3010008E3010008E3010008E3010008A0
:1000B000E3010008E3010008E3010008E301000890
:1000C000E3010008E3010008E3010008E301000880
:1000D000E30100085D070008E3010008E3010008F0
:1000E000E3010008E3010008E3010008E301000860
:1000F000E3010008E3010008E3010008E301000850
:10010000E3010008E3010008E3010008E30100083F
:10011000E3010008E3010008E3010008E30100082F
:10012000E3010008E3010008E3010008E30100081F
:1001300000F002F800F03AF80AA090E8000C8244BF
:100140008344AAF10107DA4501D100F02FF8AFF29C
:10015000090EBAE80F0013F0010F18BFFB1A43F0A5
:1001600001031847880D0000A80D0000103A24BFB5
:1001700078C878C1FAD8520724BF30C830C144BF0C
:1001800004680C607047000000230024002500264E
:10019000103A28BF78C1FBD8520728BF30C148BFEA
:1001A0000B6070471FB51FBD10B510BD00F068F89B
:1001B0001146FFF7F7FF00F063FB00F09AF803B475
:1001C000FFF7F2FF03BC00F00BFB000008480047FC
:1001D000FEE7FEE7FEE7FEE7FEE7FEE7FEE7FEE7F7
:1001E000FEE7FEE703480449024A044B704700005B
:1001F00031010008380100203805002038010020B6
:10020000704700000FB4044910B503AA029800F02B
:1002100009F810BC5DF814FB04000020704770471B
:1002200070477047074B70B50D467B4400F011F8DE
:100230000446284600F020F810B14FF0FF3070BDA2
:10024000204670BD3706000001694A1C026108782B
:10025000704700B58FB0CDE9013100210591054906
:100260007944CDE903101146684600F02EF80FB02E
:1002700000BD0000E5FFFFFF007B00F0800070473D
:10028000754600F03DF8AE4605006946534620F03D
:100290000700854618B020B5FFF7A4FFBDE8204051
:1002A0004FF000064FF000074FF000084FF0000B32
:1002B00021F00701AC46ACE8C009ACE8C009ACE8E5
:1002C000C009ACE8C0098D4670472DE9F0410646EB
:1002D0000024D6E90170F5688046304603E04146C7
:1002E000B847641C3046A8470028F8D12046BDE82E
:1002F000F0810446AFF300802046FFF760FF000066
:1003000000487047D40000200A48806940F0080087
:10031000084988610848006820F00F000649086015
:100320000846006840F003000860002003490860A8
:100330007047000000100240040C0140A0812142DF
:1003400010B50A2000F070FA07480068012807D1AC
:100350000648006808B9012000E000200349086051
:1003600001200349086010BD00012142A081214203
:100370001404014010B50A2000F056FA084800683D
:1003800048B907488830006808B9012000E000201B
:1003900003498831086008200249086010BD000048
:1003A0000C0123421404014010B50A2000F03CFA6D
:1003B0000C48006888B90C48006808B9012000E0C2
:1003C0000020094908600948D0F8940108B90120C3
:1003D00000E00020034984310860102004490860CF
:1003E00010BD0000100123429481214200002342ED
:1003F0001404014010B500F073F8022200210846F1
:1004000000F01EF801220321042000F019F8012257
:100410000421084600F014F802230622032118469E
:1004200000F0FAF8022309220121184600F0F4F83E
:1004300002230A220021184600F0EEF810BD000049
:1004400070B504460B46CE1701EB9676C6F38700CF
:10045000CE1701EB9676B610A1EB8606B606350EE2
:100460001C4B9B6943F001031A4EB3614FEAB6334C
:1004700053F820300F26AE40B343174E46F82030D5
:10048000334653F8203004FA05F61E43124B43F866
:100490002060124B1B6801268E4033430F4E3360A1
:1004A00002F0010343B10D4B0C331B6801268E4053
:1004B00033430A4E0C36336002F0020343B1074B5C
:1004C00008331E6801238B401E43044B08331E6013
:1004D00070BD00000010024008000140000401400F
:1004E0001448806940F00400124988610846806918
:1004F00040F0400088611048006820F00F000E496D
:1005000008600846006840F0080008600B48006872
:1005100020F47F20094908600846006840F408205C
:10052000086006480C30006840F0180003490C31A0
:1005300008607047001002400008014000180140A8
:100540001848806940F008001649886108468069AB
:1005500040F0400088611448006820F4700012499F
:1005600008600846006840F4401008600E480C30EF
:10057000006840F020000C490C3108600B4800680E
:1005800020F47000094908600846006840F44010F3
:10059000086006480C30006840F0200003490C3128
:1005A0000860704700100240000C01400018014034
:1005B00000B5002015490861C8601420486100207A
:1005C0008861C8610846006840F00100086008467C
:1005D00040680F4908400D494860084600680D49C9
:1005E00008400A4908600846006820F48020086036
:1005F0000846406820F4FE00486000208860002122
:100600004FF0006000F058F800BD000000100240FC
:100610000000FFF8FFFFF6FE2DE9F041074688468F
:1006200014461D46284600F033F8C5F1040007FAC9
:1006300000F60F20284100EA0800064306F00F06E6
:10064000E21704EBD2625211920002F1E022D2F8DA
:1006500000212146E31704EBD3635B11A4EB431C99
:10066000012303FA0CF31A432046E31704EBD36388
:100670005B119B0003F1E023C3F800210348005DF8
:1006800040EA061001490855BDE8F08100E400E0A9
:100690000146072323EA01021202054B18684FF6B0
:1006A000FF031840034B18431043014B1860704779
:1006B0000CED00E00000FA05024A0A400243024B3A
:1006C0001A60704780FFFF1F08ED00E030B5044658
:1006D0000025FFF76DFF1F48006840F480301D497A
:1006E000086000BF1B480068400C0028FAD04FF497
:1006F000806018494860A01EC4B20846406840EABD
:10070000844048600846406840F4803048601248A1
:10071000006840F03200104908600E48006840F060
:1007200080700C49086000BF0A480068400E00282D
:10073000FAD00848406840F002000649486005E0E9
:1007400004484068C0F3870505F00305022DF7D182
:1007500030BD000000100240002002401D49098801
:1007600001F0200111B31B49091D0988C8B21A49BB
:10077000098801F40041C9B91749098801F4804189
:1007800061B10A2803D00021134A118020E01249E8
:10079000098841F40041104A118019E00D2806D162
:1007A0000D49098841F480410B4A118010E00A4943
:1007B0000988C1F30D01094A505407490988491CA9
:1007C000054A118011460988C72901DD00211180E1
:1007D0007047000000380140080000200C00002095
:1007E000014600BF704700004FF0E021096921F089
:1007F00004014FF0E0221161C21700EB5272C2F304
:10080000C702074B1A701946097801EB4102C2EB87
:10081000C1114FF6FF7202EAC101024A118070470E
:10082000000000200200002001460D4A12884A43C1
:100830004FF0E0235A6100229A6101221A6100BF41
:100840004FF0E022106900F001021AB100F480328A
:10085000002AF5D000224FF0E0231A619A61704718
:100860000200002000BF054A128802F04002002A60
:10087000F9D0C2B2014B1B1D1A80704700380140ED
:100880000920FFF723FF4FF4E131482000F01CF866
:100890004820FFF7A9FFFFF753FEFFF735FDFFF7ED
:1008A000A9FD00200549086006E005A0FFF7AAFCA5
:1008B0004FF47A70FFF7B8FFF7E700009481214208
:1008C0004F4B0D0A000000002DE9F05F05460E4673
:1008D000300100F0ABF981462E4905FB01F000F034
:1008E000A5F98246494600F0BFF80746384600F0B1
:1008F0007DF984B2204600F099F98346394600F02C
:1009000075FA82464FF0834100F0A4F9814600F069
:100910006DF980464FF6FF7000EA041404EB0800FE
:1009200084B21D48806940F004001B498861084674
:10093000806940F4804088611848006820F47F6036
:10094000164908600846006840F40B6008601248C9
:10095000C06840F480401049C8600846C06820F470
:100960008040C8600E480480001D008842F20C01DF
:1009700008430B49091D08800846008840F0200004
:1009800008800223252203210846FFF745FEBDE823
:10099000F09F000040420F00001002400408014098
:1009A0000838014090EA010F48BF81F0004100F192
:1009B0002E82421A3CBF801A89184FEAD0524FF05B
:1009C0007F4C1CEA410FA2EBD15318BF9CEA026F87
:1009D00000F03B804FF0004C4CEA00204CEA012133
:1009E00021FA03FC10EB0C0C1ED202F1FF325FEA7D
:1009F0001C2040EBC25038BF70471CF07F0F4FEAFD
:100A0000400C18BFBCF17F4F38BF7047C3F12003C3
:100A1000994008BF20F00100BCF17F4F38BF7047FC
:100A2000A0F1C04000F0DDB94FEA3C00000A40EB05
:100A3000C25028BF1CF0FF0F4FEA400CE6D018BF91
:100A4000BCF17F4F38BF7047EAE79CEA026F05D0E0
:100A500010EA5C0F08BF00F00040704710B500F0CE
:100A60007AF900BF64FBBE3E4FF47F0C1CEAD01243
:100A70001EBF1CEAD11392EA0C0F93EA0C0F00F090
:100A8000858090EA010F48BF42F4807240F4000C68
:100A900041F400002CF07F4120F07F4000B58142FE
:100AA000A2EB03020FF2081CACEB504EC0F10000A9
:100AB0009EF800E04FEA4E0E00FB0EFC38BF4900E6
:100AC0004FEA2C1C02F5FA020CFB0EF34FEACE1E85
:100AD0004FEA112C4FEAC1210EEB635E42EB22423A
:100AE0000EFB0CFC4FEA1C5300FB03114FEA112CC8
:100AF0004FEA01310EFB0CFC4FEADC4C00FB0C1101
:100B0000C14228BF09184CEB03335DF804EB10EB2E
:100B1000410143EBC250B2F57C0F38BF704729D575
:100B200012F0F00F1CBF00F1C04000F00040704711
:100B3000008182838485868788898B8C8D8E8F91B6
:100B40009293959697999A9C9D9FA0A2A3A5A7A8DA
:100B5000AAACAEB0B2B3B5B7B9BCBEC0C2C5C7C906
:100B6000CCCED1D4D7D9DCDFE2E6E9ECF0F3F7FA6A
:100B7000FE0000004FEA400C0CF1807CBCF17E4F7F
:100B800028BF7047B0F1C04000F02BB990EA010FC8
:100B90000CEAD11348BF42F48072624538BF634506
:100BA00007D213F47F0F16D080EA010000F0004056
:100BB000704710B500F0CFF8097EFC3E00F005B894
:100BC00080EA010000F00040704780EA010000F078
:100BD000004000F006B912F47F0F04BF02487047CE
:100BE00080EA010000F0FDB80000C07FC10DD1F126
:100BF0009E0206DB4FEA002343F0004323FA02F093
:100C00007047004207D54FEA4001B1F1FE4F02D2D2
:100C10004FF00000704710B500F09DF84992248015
:100C2000002070476FEA200070470000B0FA80F3A0
:100C300010FA03F2C3F19D030AD0D90501EB12208B
:100C4000530638BF704700F1010008BF20F00100D3
:100C5000704700004FF47F0C1CEAD0121EBF1CEA44
:100C6000D11392EA0C0F93EA0C0F00F0478090EA40
:100C7000010F48BF42F480724FF0004C4CEA002054
:100C80004CEA012102EB0302A0FB0113A2F50002D2
:100C9000002918BF43F001035B0028BF4FEA33036C
:100CA00042EB22425FEA132C4CEBC2502EBFBCEB4E
:100CB000436FB2F57C0F70474FEA036CBCF1004FF5
:100CC00008BF20F00100B2F57C0F38BF70470BD58C
:100CD00082F0FF0212F5803FC8BF704700F1C040AC
:100CE000D8BF00F00040704700F5000C5FEA4C0CE4
:100CF00048BF7047B0F1C04000F073B890EA010FF0
:100D00000CEAD11348BF42F48072624538BF634594
:100D100004D280EA010000F00040704710B500F0F6
:100D20001AF800BF8900013E00F007B800F009B8CA
:100D30005FEA410C5FEA1C6C08D080EA010000F019
:100D400050B85FEA400C5FEA1C6CF6D14FF00040EF
:100D5000A0F5800070470EF1020E2EF0030E5EF833
:100D6000044B244204D44FEA4102B2F17F4F11D820
:100D70004FEA4003B3F17F4F0CD80ED14FEAD07C3D
:100D8000B2F17F4F0CEB4C0C0CF1020C08BF4CEB9A
:100D9000D17C04E04FF0080C01E04FEAD17C0CEB71
:100DA0004C0324FA03F404F00704B4F1040C06D253
:100DB0000EEB840CBDE810404CF0010C6047DFE8FE
:100DC0000CF0070802024FF00040A0F5800010BDB3
:100DD0000846420018BFD2F1807288BF00F0004080
:100DE00010BDFF2141EAD050C005704780F000409F
:100DF00090EA010F7FF5DDAD81F0004100F007B80A
:100E000090EA010F48BF81F000413FF5D2AD421A90
:100E100004D882F00042A0EB020011444FEAD05205
:100E20004FF07F4C1CEA410FA2EBD15318BF9CEA54
:100E3000026F4AD04FF0004C4CEA00204CEA0121EE
:100E400021FA03FCB0EB0C0C0FD412F0FE0F36D0DD
:100E50005FEA4C001DD5001240EBC25038BF70470E
:100E60001CF03F0F18BF70470BE0A2F101025FEAD0
:100E70001C2040EBC25038BF70471CF07F0F18BFDA
:100E80007047C3F12003994014BF401E20F00100B9
:100E9000704780084FEA122308BF7047B0FA80FC01
:100EA000A2EB0C02CCF1280C60FA0CF093EA122FA2
:100EB00004BF00EBC25070474FEAC3707047130A7B
:100EC0005FEADC1008BF7047F6E79CEA026F04D0C7
:100ED00010EA5C0F08BF0020704710B5FFF73BFF1A
:100EE00040DFF63E81F00040704700000C0F000824
:100EF000000000200C0000006C010008180F000822
:100F00000C0000202C0500008801000800000000F3
:080F10000000000000000000D9
:0400000508000131BD
:00000001FF
