:020000040800F2
:10000000880900202D020008D9530008E7240008C1
:10001000D55300084D0800083D59000800000000B5
:10002000000000000000000000000000055400086F
:100030005108000800000000DB5300085D54000870
:10004000470200084702000847020008470200086C
:10005000470200084702000847020008470200085C
:10006000470200084702000847020008470200084C
:10007000470200084702000847020008470200083C
:10008000470200084702000847020008470200082C
:10009000470200084702000847020008470200081C
:1000A000470200084702000847020008470200080C
:1000B0004702000847020008BD5400084702000834
:1000C00047020008470200084702000847020008EC
:1000D00047020008FD5800084702000847020008D0
:1000E00047020008470200084702000847020008CC
:1000F00047020008470200084702000847020008BC
:1001000047020008470200084702000847020008AB
:10011000470200084702000847020008470200089B
:10012000470200084702000847020008470200088B
:1001300000F002F800F06BF80AA090E8000C82448E
:100140008344AAF10107DA4501D100F060F8AFF26B
:10015000090EBAE80F0013F0010F18BFFB1A43F0A5
:100160000103184714B6000034B600000A444FF0EB
:10017000000C10F8013B13F0070408BF10F8014B06
:100180001D1108BF10F8015B641E05D010F8016B4B
:10019000641E01F8016BF9D113F0080F1EBF10F8AF
:1001A000014BAD1C0C1B09D16D1E58BF01F801CBD2
:1001B000FAD505E014F8016B01F8016B6D1EF9D555
:1001C0009142D6D37047000000230024002500266A
:1001D000103A28BF78C1FBD8520728BF30C148BFAA
:1001E0000B607047642900F09F80752900F09C80A7
:1001F000782900F0D580632900F02982732900F066
:100200002E82002070471FB51FBD10B510BD00F035
:1002100059FA1146FFF7F7FF05F000FC00F077FAF6
:1002200003B4FFF7F2FF03BC05F0ADFB09488047BC
:1002300009480047FEE7FEE7FEE7FEE7FEE7FEE7C8
:10024000FEE7FEE7FEE7FEE704480549054A064BE0
:100250007047000065540008310100088803002041
:1002600088090020880500208805002070470000CC
:100270000FB4044910B503AA029800F0F5F910BCB8
:100280005DF814FB1400002070B504468569006811
:10029000C10601D5302600E02026C00707D070BD7A
:1002A000D4E9012130469047206A401C20626D1E2F
:1002B000F6D570BD70B5044685690078C00707D1D2
:1002C00070BDD4E9012120209047206A401C2062A3
:1002D0006D1EF6D570BD70B50C460546012A05D0D9
:1002E0002878800600D5EA69002302E0012305E0B2
:1002F0005B1C934202D2E05C0028F9D1A869E618A1
:10030000C01AA861286A184428622846FFF7BCFF73
:1003100004E0D5E9012114F8010B9047B442F8D369
:100320002846FFF7C7FF70BD2DE9F04106460024BF
:1003300010687529314616A510D0AFF3008000284B
:1003400002DA404213A507E031688A0701D512A5F9
:1003500002E0490704D511A5012401E0AFF30080B4
:1003600000210A2206F1240709E0B0FBF2FCB0FBF1
:10037000F2F302FB1C00303078541846491C002868
:10038000F3D123462A463046BDE8F04100F0FCB8E0
:10039000000000002D0000002B00000020000000E5
:1003A00070B504460D4621461068AFF300802188E1
:1003B000090502D50F4A7A4402E00E4A7A440E3209
:1003C000002104F1240305E000F00F060009965D0A
:1003D0005E54491C0028F7D120780023000704D57B
:1003E000702D02D009B1022311322046BDE87040C1
:1003F00000F0CAB8EEB200002DE9F05F894604466D
:100400004FF0000ADFF874B1FB44C0F820A020468A
:10041000E1688847002874D0252806D0D4E9012156
:100420009047206A401C2062F1E700265F46204684
:10043000E16888472028054607DB312D05D2781969
:1004400010F8200C08B10643F1E7B00701D526F0FB
:100450000406C4F81CA00027C4F818A02A2D09D04F
:10046000284605F089FA38B304EB8708303DC8F810
:10047000185019E059F8041B204604EB87029161DB
:10048000E1688847012F054618D1E069002820DA85
:1004900026F020061DE0D8F8180000EB800005EBE0
:1004A00040003038C8F818002046E1688847054603
:1004B00005F062FA0028EED1012F0AD02E2D08D1C6
:1004C0002046E16888477F1C0546022F46F020063B
:1004D000C4DBA069002803DA404246F00106A061AF
:1004E000F00701D026F010066C2D0BD0682D09D036
:1004F0004C2D39D06A2D35D0742D35D07A2D33D08E
:1005000016E038E0E1682F4620468847B8420546A5
:1005100009D16C2F26D04FF48060E1680643204655
:100520008847054604E06C2F1AD04FF480700643CC
:100530000DB3A5F14100192802D8203546F4006614
:100540004A462946204626604E46FFF74BFE80B1BC
:1005500001280BD0F61D26F0070000F1080956E728
:100560004020E4E78020D8E70020D6E706F1040920
:100570004DE7284652E7206ABDE8F09FC4B200006C
:1005800070477047704770472DE9F0470D46994610
:100590009246044600F124080168880604D5E06903
:1005A00021F01001216000E00120A84201DD471B7D
:1005B00000E00027A1697A1902EB0900081AA0617E
:1005C0002078C00602D42046FFF75EFE002608E031
:1005D000D4E901211AF806009047206A401C761CD5
:1005E00020624E45F4DB2078C0060AD52046FFF78E
:1005F0004BFE06E0D4E9012130209047206A401CE0
:100600002062381EA7F10107F4DC07E0D4E90121DC
:1006100018F805009047206A401C2062281EA5F1AA
:100620000105F3DC2046FFF745FE2078000602D5E1
:100630000220BDE8F0870120FBE710B5436913B144
:10064000AFF3008001E0FFF746FE012010BD1278F5
:1006500000F124010A7000224A700122EDE71168BE
:100660004FF0FF32E9E70000074B70B50D467B44C1
:1006700000F011F80446284600F020F810B14FF0C1
:10068000FF3070BD204670BD8F53000001694A1CC9
:1006900002610878704700B58FB0CDE901310021C3
:1006A000059105497944CDE9031011466846FFF7E5
:1006B000A3FE0FB000BD0000E5FFFFFF007B00F0D0
:1006C00080007047754600F02BF8AE46050069467D
:1006D000534620F00700854618B020B5FFF7B4FD5B
:1006E000BDE820404FF000064FF000074FF0000833
:1006F0004FF0000B21F00701AC46ACE8C009ACE8B4
:10070000C009ACE8C009ACE8C0098D46704710B517
:100710000446AFF300802046BDE81040FFF780BDDF
:10072000004870472403002000B587B002200190E4
:100730008003039001A801F02FF80C480C490860D1
:100740000020486000210A48816001730121016195
:100750000021017581614FF46021C16100F046FA0A
:10076000034800F00DF907B000BD0000003C014057
:10077000B402002070B5044600252068806800F0AF
:100780000100F0B12068806820F0010021688860D5
:1007900000F0B8FE05460EE000F0B4FE401B022853
:1007A00009D9A06A40F01000A062E06A40F00100A0
:1007B000E062012070BD2068806800F00100002820
:1007C000EAD10020F6E7000038B5044600250020F5
:1007D00000902068806800F0010080BB206880687D
:1007E00040F0010021688860164800681649B0FB97
:1007F000F1F0009002E00098401E00900098002860
:10080000F9D100F07FFE054613E000F07BFE401BAF
:1008100002280ED9A06A40F01000A062E06A40F001
:100820000100E06200BF002084F8240000BF012026
:1008300038BD2068806800F001000028E5D0002065
:10084000F6E700000000002040420F0000BFFEE776
:100850007047000070B50446B3F5804F13D1D1E95D
:10086000000540EA05108D6840EA05208D6928439F
:100870008D8940EA054054F82250064E3540284301
:1008800044F8220003E06FF0704044F8220000209A
:1008900070BD00000000F0CF30B50246086852F885
:1008A000200020F001000C6842F824008868082825
:1008B00001D1402300E00023486818438C6820439E
:1008C000CC6820430C6920434C6920438C69204349
:1008D000CC6920430C6A20434C6A20438C6A204335
:1008E000CC6A20430C6B20434C6B20430C6852F8BD
:1008F0002440044D2C4020430C6842F82400002082
:1009000030BD00008000F0FF10B50346D1E90004BF
:1009100040EA04108C6840EA04208C8940EA0444D0
:10092000088A401E44EA0054087D801E44EA0060A4
:100930008C692043541C53F8244004F04044204365
:10094000541C43F82400002010BD00003EB50446AE
:10095000009401200190072002906946074800F0AA
:1009600091F8064800F0BCFA0A21044800F000FAA9
:10097000024800F037F980B23EBD0000B40200200A
:10098000F8B5044600260020009000BF94F824002B
:10099000012801D10220F8BD012084F8240000BF05
:1009A0002046FFF7E7FE0646002E62D1A06A20F43B
:1009B000885040F00200A062022000F053FE30494F
:1009C0000968B1FBF0F04000009002E00098401E82
:1009D000009000980028F9D12046FFF7F5FE206826
:1009E000806840F008002168886000F08BFD0546B3
:1009F00011E000F087FD401B0A280CD9A06A20F006
:100A0000020040F01000A06200BF002084F8240023
:100A100000BF0120BFE72068806800F008000028C0
:100A2000E7D12068806840F004002168886000F009
:100A300069FD054611E000F065FD401B0A280CD950
:100A4000A06A20F0020040F01000A06200BF002069
:100A500084F8240000BF01209DE72068806800F032
:100A600004000028E7D1A06A20F0020040F0010055
:100A7000A06200BF002084F8240000BF30468AE74F
:100A80000000002038B5024600230020009000BF7F
:100A900092F82400012801D1022038BD012082F8FB
:100AA000240000BF4868072812D21068406B0C79F8
:100AB000641E04EB84051F24AC40A0430D796D1E19
:100AC00005EB85050C68AC4020431468606327E0A3
:100AD00048680D2812D21068006B0C79E41F04EBF3
:100AE00084051F24AC40A0430D79ED1F05EB85055F
:100AF0000C68AC4020431468206311E01068C06AA1
:100B00000C790D3C04EB84051F24AC40A0430D7907
:100B10000D3D05EB85050C68AC4020431468E06290
:100B200008680A2812D31068C0680C780A3C04EBE5
:100B300044050724AC40A0430D780A3D05EB45056C
:100B40008C68AC4020431468E0600FE010680069D6
:100B50000C7804EB44050724AC40A0430D7805EB6A
:100B600045058C68AC402043146820610868102853
:100B700002D00868112827D1174C1068A0421ED156
:100B80001068806800F40000F0B91068806840F4D4
:100B900000001468A0600868102815D10F4800688C
:100BA0000F4CB0FBF4F000EB80004000009002E03E
:100BB0000098401E009000980028F9D104E0906A47
:100BC00040F020009062012300BF002082F8240042
:100BD00000BF184661E7000000240140000000202B
:100BE00040420F0001460868C06C70472DE9F04193
:100BF0000446002700250026A84614B90120BDE8B8
:100C0000F081A06810B1207D00B100BFA06A30B9AA
:100C10000020E06284F82400204600F097F8204687
:100C2000FFF7A8FD0746A06A00F01000002873D166
:100C3000002F7ED1A06A20F4885040F00200A0620C
:100C40003F4AD4E90001904208D1E069B0F5402F55
:100C500002D14FF4002002E0E06900E0E0690143C6
:100C6000207B41EA40000643A068B0F5807F02D0B7
:100C7000A068012802D14FF4807000E000200543F5
:100C8000207D012811D1207B38B9A069401E4FF486
:100C9000006141EA4030054307E0A06A40F02000CF
:100CA000A062E06A40F00100E0622068406820F441
:100CB00069402843216848602068806821490840CD
:100CC000304321688860A068B0F5807F02D0A068BA
:100CD000012802D14FF4807000E00020B0F5807F41
:100CE00003D1208A401E4FEA00582068C06A20F4D1
:100CF000700040EA08002168C862206880681249D4
:100D00000840B04209D10020E062A06A20F0020051
:100D100040F00100A06211E00BE0A06A20F00200A8
:100D200040F01000A062E06A40F00100E06201279C
:100D300004E0A06A40F01000A062012738465EE798
:100D4000003C0140FDF7E1FFFE0E1FFF08B500BFAC
:100D50000649896941F40041044A91611146896953
:100D600001F40041009100BF00BF08BD0010024027
:100D7000F8B504460D46002600200090002700F03C
:100D8000C1FB06462068806800F4807050B1A06AFC
:100D900040F02000A06200BF002084F8240000BFC3
:100DA0000120F8BD2068406800F48070F8B9206820
:100DB000C06A00F47000D0B912E0681C80B125B19F
:100DC00000F0A0FB801BA8420AD9A06A40F00400F2
:100DD000A06200BF002084F8240000BF0320E0E7E9
:100DE0002068006800F002000028E6D050E00220F1
:100DF00000F038FC36490968B1FBF0F02168096958
:100E0000344A114091B92168C9689211114069B9F9
:100E100021680969304A114031B92168C9689211C5
:100E2000114009B9142117E0292115E02168096949
:100E3000294A114021B92168C9689211114041B174
:100E400021680969254A114029B92168C9681140FA
:100E500009B9542100E0FC2100FB01F715E0681CF2
:100E600080B125B100F04EFB801BA8420AD9A06AD0
:100E700040F00400A06200BF002084F8240000BFFE
:100E800003208EE70098401C00900098B842E6D3FB
:100E90006FF0120021680860A06A40F40070A06240
:100EA0002068806800F46020B0F5602F0DD1207BB1
:100EB00058B9A06A20F48070A062A06A00F4805043
:100EC00018B9A06A40F00100A062002069E70000A4
:100ED00000000020244992249224491249922400BF
:100EE00070B50446002500BF94F82400012801D104
:100EF000022070BD012084F8240000BF2046FFF7C7
:100F000063FC0546002D77D1A06A40F20121884399
:100F100040F48070A0623C492068884208D13B4878
:100F2000006800F4702008B9012002E0002000E011
:100F3000012078B1A06A20F48010A0622068406887
:100F400000F4806000B3A06A20F4005040F48050A8
:100F5000A06219E0A06A40F48010A0622B49091F2A
:100F60002068884203D028492068884204D1274855
:100F7000006800F4806000E0002028B1A06A20F43E
:100F8000005040F48050A062A06A00F4805020B16C
:100F9000E06A20F00600E06201E00020E06200BFAD
:100FA000002084F8240000BFC01E2168086020686B
:100FB000806800F46020B0F5602F16D112492068D7
:100FC000884208D11148006800F4702008B9012057
:100FD00002E0002000E0012038B12068806840F481
:100FE000A000216888600CE006E02068806840F47A
:100FF00080102168886004E000BF002084F824008D
:1010000000BF284675E70000002801400424014085
:1010100070B50446002594F82100022803D004206E
:10102000A0630125C1E02068006820F00E0021685F
:1010300008602068006820F00100216808605C49B1
:101040002068884252D95A4978392068884201D1AB
:10105000012047E0564964392068884201D11020B8
:1010600040E0534950392068884201D1801539E069
:101070004F493C392068884201D1801432E04C4904
:1010800028392068884202D14FF480302AE048494C
:1010900014392068884202D14FF4801022E044497C
:1010A0002068884201D140041CE0424920688842FF
:1010B00001D1012016E03F4914312068884201D156
:1010C00010200FE03B4928312068884201D180156B
:1010D00008E038493C312068884201D1801401E0A1
:1010E0004FF480303349091F086051E030497839A6
:1010F0002068884201D1012047E02D4964392068E9
:10110000884201D1102040E02949503920688842A6
:1011100001D1801539E026493C392068884201D147
:10112000801432E0224928392068884202D14FF4E5
:1011300080302AE01E4914392068884202D14FF4D9
:10114000801022E01A492068884201D140041CE046
:1011500018492068884201D1012016E01549143150
:101160002068884201D110200FE012492831206800
:10117000884201D1801508E00E493C312068884240
:1011800001D1801401E04FF4803009498039486072
:10119000012084F8210000BF002084F8200000BF57
:1011A000606B10B12046616B8847284670BD000017
:1011B00080000240080402402DE9F847024600235F
:1011C0009C467BE14FF0010808FA03F4D1F8008057
:1011D00008EA0400A0427DD1DFF8F4A2D1F804802F
:1011E000A8EB0A09D0453AD014DCB8F1030F50D06F
:1011F00009DCB8F1000F31D0B8F1010F1CD0B8F103
:10120000020F49D120E0B8F1110F18D0B8F1120F38
:1012100042D11EE0B9F5881F25D006DCB9F5803F24
:1012200020D0B9F5801F37D11AE0B9F5001F18D0CA
:10123000B9F5041F30D117E0D1F80CC02DE0D1F87A
:101240000C8008F1040C28E0D1F80C8008F1080C9F
:1012500023E0D1F80C8008F10C0C1EE000BF00BFA9
:1012600000BF00BF00BF00BFD1F80880B8F1000F79
:1012700002D14FF0040C0BE0D1F80880B8F1010F57
:1012800003D14FF0080C146102E04FF0080C5461D8
:1012900003E04FF0000C00E000BF00BFFF2801D8C2
:1012A000904601E002F104084646FF2802D84FEAC2
:1012B000830803E0A3F108084FEA88084746D6F8F8
:1012C00000804FF00F0909FA07F928EA09080CFA1B
:1012D00007F900E07AE048EA0908C6F80080D1F88A
:1012E000048008F08058B8F1805F6FD100BFDFF84C
:1012F000E481D8F8188048F00108DFF8D891C9F8DF
:101300001880C846D8F8188008F00108CDF8008089
:1013100000BF00BF4FEAB9384FEA930958F8295087
:101320004FEA83784FEA18794FF00F0808FA09F866
:1013300025EA0805DFF8A081424502D14FF00008F8
:1013400024E0DFF89881424502D14FF001081DE00A
:10135000DFF88C81424502D14FF0020816E0DFF839
:101360008481424502D14FF003080FE0DFF8788115
:10137000424502D14FF0040808E0DFF87081424591
:1013800002D14FF0050801E04FF006084FEA8379DB
:101390004FEA197908FA09F848EA0505DFF850819B
:1013A0004FEA930948F82950D1F8048008F48038AE
:1013B000B8F5803F0BD1DFF83C81D8F8008048EACF
:1013C0000008DFF83091C9F800800AE075E0DFF826
:1013D0002481D8F8008028EA0008DFF81891C9F8BD
:1013E0000080D1F8048008F40038B8F5003F0ED131
:1013F000DFF8008108F10408D8F8008048EA000806
:10140000DFF8F09009F10409C9F800800DE0DFF879
:10141000E48008F10408D8F8008028EA0008DFF822
:10142000D49009F10409C9F80080D1F8048008F4C7
:101430008018B8F5801F0ED1DFF8B88008F10808D1
:10144000D8F8008048EA0008DFF8A89009F10809F8
:10145000C9F800800DE0DFF89C8008F10808D8F892
:10146000008028EA0008DFF88C9009F10809C9F823
:101470000080D1F8048008F40018B8F5001F0ED1E0
:10148000DFF8708008F10C08D8F8008048EA0008FE
:10149000DFF8609009F10C09C9F800800DE0DFF871
:1014A000548008F10C08D8F8008028EA0008DFF81A
:1014B000449009F10C09C9F800805B1CD1F8008048
:1014C00028FA03F8B8F1000F7FF47CAEBDE8F88786
:1014D000000011100010024000080140000C014003
:1014E000001001400014014000180140001C0140A0
:1014F00008000140000401400AB1016101E00B0451
:101500000361704701480068704700000400002034
:101510000348006803490978084401490860704796
:10152000040000200C00002010B50848006840F0BE
:10153000100006490860052000F080F80F2000F038
:1015400007F800F02BF8002010BD0000002002403A
:1015500070B504460E4800784FF47A71B1FBF0F094
:101560000C490968B1FBF0F5284600F0B5FD08B15B
:10157000012070BD102C07D200222146501E00F021
:101580001EF80548046001E00120F2E70020F0E7C2
:101590000C000020000000200800002070470146D9
:1015A0000846002809DB00F01F0301229A40430986
:1015B0009B0003F1E023C3F8002100BF70472DE931
:1015C000F05F80460D461646002704F0B9F907463D
:1015D00039462A46334601F00700C0F1070ABAF13E
:1015E000040F02D94FF0040A01E0C0F1070AD14606
:1015F00000F1040ABAF1070F02D24FF0000A01E02D
:10160000A0F1030AD4464FF0010A0AFA09FAAAF136
:10161000010A0AEA020A0AFA0CFA4FF0010B0BFA65
:101620000CFBABF1010B0BEA030B4AEA0B0421465E
:10163000404604F08DF9BDE8F09F000000BF00F0C7
:101640000702064B19684FF6FF031940044B0B4382
:1016500043EA0221014B196000BF70470CED00E026
:101660000000FA052DE9F04385B0064642A30FCBF2
:1016700001AC0FC444A0006800904FF000080025A2
:1016800000270024A146042E36D004DC012E3BD0D6
:10169000022E6BD15FE0082E32D0102E66D13B486F
:1016A0004468006800F0807000B301A8C4F383416F
:1016B000475C04F4803070B134484068C0F3404067
:1016C0001DF8008004F4803040B13148B0FBF8F0E0
:1016D00000FB07F502E02F4807FB00F52B484068A8
:1016E00000F48000B0F5800F01D1A94603E0680046
:1016F0000321B0FBF1F93AE000F0D0F9814636E081
:1017000000F0CCF9814632E02048046A04F44070CD
:10171000B0F5807F05D104F0020010B14FF400490C
:1017200018E004F44070B0F5007F07D11748406A14
:1017300000F0020010B149F640490BE004F440709B
:10174000B0F5407F06D11148006800F4003008B1C0
:101750004FF224490BE000F091F90C494968C1F3BC
:101760008131491C4900B0FBF1F900E000BF00BF26
:10177000484605B0BDE8F0830203040506070809E2
:101780000A0B0C0D0E0F1010010200000010024099
:1017900000127A0000093D00F8B504460027002633
:1017A0000025207800F00100002869D04248C06977
:1017B00000F0805070B900BF3F48C06940F08050D1
:1017C0003D49C8610846C06900F08050009000BFE4
:1017D00000BF01273948006800F48070B0B937486D
:1017E000006840F4807035490860FFF78BFE0646BC
:1017F00006E0FFF787FE801B642801D90320F8BDAF
:101800002E48006800F480700028F2D02A48006A50
:1018100000F440752DB3A08800F44070A84220D099
:101820002548006A20F44075012025490860002001
:1018300008602148056205F0010090B1FFF762FEE3
:10184000064608E0FFF75EFE801B41F288318842C1
:1018500001D90320D3E71848006A00F002000028ED
:10186000F0D01548006A20F44070616808431249BE
:101870000862012F04D10846C06920F08050C86179
:10188000207800F00200022807D10B48406820F4BD
:101890004040A168084308494860207800F01000E3
:1018A000102807D10448406820F48000616908438B
:1018B000014948600020A2E700100240007000408B
:1018C0004004424270B504460D460CB9012070BD7B
:1018D0005A48006800F00700A8420ED25748006836
:1018E00020F007002843554908600846006800F0CA
:1018F0000700A84201D00120E9E7207800F00200AB
:1019000002281DD1207800F00400042805D14C489D
:10191000406840F4E0604A494860207800F00800E0
:10192000082805D14648406840F460504449486062
:101930004348406820F0F000A168084340494860EF
:10194000207800F0010078B36068012806D13C4897
:10195000006800F4003090B90120B8E76068022800
:1019600006D13748006800F0007040B90120AEE7AA
:101970003348006800F0020008B90120A7E73048AA
:10198000406820F00300616808432D494860FFF774
:10199000B9FD064609E0FFF7B5FD801B41F288312D
:1019A000884202D9032092E707E02548406800F00A
:1019B0000C006168B0EB810FEDD12048006800F0A9
:1019C0000700A8420ED91D48006820F007002843F0
:1019D0001A4908600846006800F00700A84201D0D4
:1019E000012074E7207800F00400042807D114488F
:1019F000406820F4E060E1680843114948602078BD
:101A000000F00800082808D10D48406820F4605014
:101A1000216940EAC1000A49486000F03FF80849DE
:101A20004968C1F30311074A515CC8400649086080
:101A300006480068FFF78CFD002048E700200240C0
:101A400000100240506F0008000000200800002035
:101A500001480068704700000000002000B5FFF753
:101A6000F7FF04494968C1F30221034A515CC840A9
:101A700000BD000000100240606F000800B5FFF7D5
:101A8000E7FF04494968C1F3C221034A515CC840D9
:101A900000BD000000100240606F0008F0B585B086
:101AA0000FF26C0C9CE8E01001A8A0E8E0101CA567
:101AB0002D68009500210022002300240020194DEC
:101AC000696801F00C05F5B1042D02D0082D19D17B
:101AD00001E0154819E001ADC1F38346AC5D01F4A6
:101AE000803555B10F4D6D68C5F340451DF8052093
:101AF0000D4D6543B5FBF2F302E00C4D04FB05F31D
:101B0000184602E000BF084800BF00BF05B0F0BDA6
:101B100002030405060708090A0B0C0D0E0F10102E
:101B2000010200000010024000127A0000093D008E
:101B3000F8B504460CB90120F8BD207800F001008A
:101B4000002878D0F848406800F00C0004280CD039
:101B5000F548406800F00C00082811D1F2484068B0
:101B600000F48030B0F5803F0AD1EF48006800F4FF
:101B7000003000285FD0606800285CD10120DBE7DE
:101B800000BF6068B0F5803F06D1E748006840F4C8
:101B90008030E549086028E0606858B9E24800688C
:101BA00020F48030E04908600846006820F4802076
:101BB00008601AE06068B0F5A02F0BD1DA48006821
:101BC00040F48020D84908600846006840F480301E
:101BD00008600AE0D448006820F48030D2490860E8
:101BE0000846006820F48020086000BF606888B163
:101BF000FFF788FC054606E0FFF784FC401B6428DD
:101C000001D9032098E7C848006800F40030002894
:101C1000F2D010E0FFF776FC054606E0FFF772FC15
:101C2000401B642801D9032086E7BF48006800F400
:101C300000300028F2D1207800F00200022857D1AD
:101C4000B948406800F00C0050B1B748406800F057
:101C50000C00082818D1B448406800F4803098B9C6
:101C6000B148006800F0020020B12069012801D0CD
:101C7000012061E7AC48006820F0F800616940EAA3
:101C8000C100A949086033E02069E8B10120A749F3
:101C90000860FFF737FC054606E0FFF733FC401B02
:101CA000022801D9032047E79F48006800F002009E
:101CB0000028F2D09C48006820F0F800616940EAF2
:101CC000C1009949086013E0002098490860FFF7B7
:101CD00019FC054606E0FFF715FC401B022801D958
:101CE000032029E79048006800F002000028F2D1A4
:101CF000207800F0080008282DD1A069B8B1012093
:101D00008B490860FFF7FEFB054606E0FFF7FAFB8C
:101D1000401B022801D903200EE78348406A00F0E7
:101D200002000028F2D0012003F058FB13E000204D
:101D30007F490860FFF7E6FB054606E0FFF7E2FB98
:101D4000401B022801D90320F6E67748406A00F0DC
:101D500002000028F2D1207800F00400042873D19A
:101D600000277148C06900F0805070B900BF6E480C
:101D7000C06940F080506C49C8610846C06900F0F5
:101D80008050009000BF00BF01276A48006800F43F
:101D90008070B0B96748006840F480706549086099
:101DA000FFF7B0FB054606E0FFF7ACFB401B6428DD
:101DB00001D90320C0E65F48006800F48070002865
:101DC000F2D000BFE068012806D15748006A40F011
:101DD00001005549086227E0E06858B95248006A96
:101DE00020F00100504908620846006A20F0040013
:101DF000086219E0E06805280BD14B48006A40F002
:101E00000400494908620846006A40F0010008627F
:101E10000AE04548006A20F001004349086208468C
:101E2000006A20F00400086200BFE068A0B1FFF77C
:101E300069FB054609E0FFF765FB401B41F288316D
:101E4000884202D9032077E622E03748006A00F092
:101E500002000028EFD012E0FFF754FB054608E02F
:101E6000FFF750FB401B41F28831884201D9032023
:101E700062E62D48006A00F002000028F0D1012F30
:101E800005D12948C06920F080502749C86100BFAA
:101E9000E069C8B32448406800F00C00082860D00E
:101EA000E069022848D1002020490866FFF72AFB94
:101EB000054606E0FFF726FB401B022801D9032058
:101EC0003AE61948006800F000700028F2D1206A54
:101ED000B0F5803F07D11448406820F40030A16875
:101EE000084311494860D4E9080108430E4949688C
:101EF00021F4741108430C49486001200B4908661D
:101F0000FFF700FB054607E03DE0FFF7FBFA401B4B
:101F1000022801D903200FE60348006800F0007092
:101F20000028F2D02FE000000010024000004242E2
:101F30008004424200700040002014490866FFF708
:101F4000E1FA054606E0FFF7DDFA401B022801D959
:101F50000320F1E50E48006800F000700028F2D17F
:101F600011E0E069012800D1E6E50948466806F479
:101F70008031206A814204D106F47011606A814286
:101F800001D00120D8E50020D6E500000000424243
:101F90000010024070B504460E4615460CB90120EB
:101FA00070BD94F8410028B9002084F84000204614
:101FB00000F020F804F108012068FEF76DFC3146BE
:101FC000A2682068FEF7A0FC2946236BD4E9010231
:101FD000FEF740FCA168206850F8210040F00100A5
:101FE000A268216841F82200012084F84100002005
:101FF000D6E7000010B586B0044600BF2848406907
:1020000040F48070264948610846406900F48070B9
:10201000019000BF00BF00BF0846806940F020006B
:1020200088610846806900F02000019000BF00BF71
:1020300000BF0846806940F040008861084680691A
:1020400000F04000019000BF00BF00BF084680695B
:1020500040F4807088610846806900F480700190C7
:1020600000BF00BF4CF233700290022003900120A9
:1020700004900320059002A90A48FFF79DF84FF647
:102080008070029002A90848FFF796F841F201001B
:10209000029002A90548FFF78FF806B010BD0000B6
:1020A00000100240001401400018014000200140CF
:1020B000042808D14FF0E021096941F004014FF0F4
:1020C000E022116107E04FF0E021096921F00401ED
:1020D0004FF0E0221161704770B504462546681E36
:1020E000B0F1807F01D301200FE0681E4FF0E021A6
:1020F00048610F214FF0FF3003F02AFC00204FF021
:10210000E021886107200861002070BD10B50446F9
:102110000CB9012010BD94F83D0028B9002084F8C6
:102120003C00204600F00CF8022084F83D00211D00
:10213000206803F0E5F9012084F83D000020E9E77C
:10214000704701460868C06840F001000B68D8601D
:102150000868806800F00702062A05D00868006851
:1021600040F001000B68186000207047704701467E
:102170000022002391F8392091F83A3042EA030016
:10218000704700002DE9F047044620680568206884
:10219000C668206847694FF00008C14605F00F087F
:1021A000B8F1000F0AD105F0200038B106F0200088
:1021B00020B1204603F04AFABDE8F087B8F1000FDD
:1021C0006DD007F0010018B906F49070002866D0B1
:1021D00005F0010030B106F4807018B1E06B40F0FA
:1021E0000100E06305F0040030B107F0010018B110
:1021F000E06B40F00200E06305F0020030B107F050
:10220000010018B1E06B40F00400E06305F0080045
:1022100030B107F0010018B1E06B40F00800E06356
:10222000E06B68B305F0200028B106F0200010B183
:10223000204603F00BFA20684069C0F38019E06B78
:1022400000F0080010B9B9F1000F22D0204603F0C9
:10225000DDF92068406900F04000B0B120684069B5
:1022600020F0400021684861606B50B11748616BF5
:102270004863606BFEF7CCFE10B1606B416B884722
:102280000CE02046FFF772FF08E02046FFF76EFFE4
:1022900004E02046FFF76AFF0020E0638CE705F0CA
:1022A000800030B106F0800018B1204603F0F2FA49
:1022B00082E705F0400030B106F0400018B120463A
:1022C00003F0B4F978E700BF76E70000F95500089D
:1022D00010B504460CB9012010BDA06900B100E0A2
:1022E00000BF94F8390028B9002084F8380020464F
:1022F00000F028F8242084F839002068C06820F411
:1023000000502168C860204603F0F4F92068006995
:1023100020F49040216808612068406920F02A007C
:10232000216848612068C06840F400502168C86096
:102330000020E063202084F8390084F83A0000206F
:10234000CAE7000010B586B00446254920688842D7
:1023500044D100BF2348806940F0040021498861CE
:102360000846806900F00400019000BF00BF00BF74
:102370000846806940F4804088610846806900F41E
:102380008040019000BF00BF00BF0846806940F058
:10239000010088610846806900F00100019000BFDB
:1023A00000BF4815029002200390012004900320F2
:1023B000059002A90C48FEF7FFFE4FF480600290E2
:1023C0000020039002A90848FEF7F6FE2520FFF73B
:1023D000E6F8032211462520FFF7F1F806B010BDFC
:1023E00000380140001002400008014010B50346CB
:1023F00093F83A0020282FD101B10AB9012010BD6D
:1024000000BF93F83800012801D10220F7E701202E
:1024100083F8380000BF99629A85DA850020D86376
:10242000222083F83A0000BF002083F8380000BF64
:102430001868C06840F480701C68E06018684069E3
:1024400040F001001C6860611868C06840F020001E
:102450001C68E0600020D2E70220D0E71D4A016836
:10246000914236D11C49098801F4004189BB1A49BF
:10247000098801F4804171B1184909780A2903D00B
:102480000021154A118024E01349098841F40041D4
:10249000114A11801DE0114909780D2906D10E4914
:1024A000098841F480410C4A118012E00B490978F7
:1024B000094A1288C2F30D02094B9954064909884A
:1024C000491C054A118011460988C72901DD0021F0
:1024D0001180704700380140180000201A000020C9
:1024E00054010020704700BFFEE7000070B50446AD
:1024F000002609480588408845430021084602F027
:10250000F3FC02F0D5FE00BF02E004490C80761C0B
:10251000AE42FAD370BD0000A40200200008006C97
:1025200010B5044655488471002C51D1F020534910
:1025300008804FF4A07048800846808849F24131F5
:10254000884205D04D48808845F21031884214D128
:102550002C204A4908812A2048812B20888108465E
:10256000808845F21031884206D14FF4A07043496B
:1025700008804FF4F07048807BE04048808845F246
:102580001051884210D14FF430503C4908814FF42B
:10259000285048814FF42C5088814FF4F070088007
:1025A0004FF44870488064E03448808841F66311F5
:1025B00088425ED12C20314908812B2048812A2075
:1025C00088814FF4F07008804FF44870488050E0E4
:1025D0004FF4A07029490880F02048800846808880
:1025E00049F24131884205D02448808845F21031B3
:1025F000884207D12C20214908812A2048812B209C
:10260000888129E01D48808845F21051884210D108
:102610004FF43050194908814FF4285048814FF445
:102620002C5088814FF4487008804FF4F070488037
:1026300012E01248808841F6631188420CD12C20A8
:102640000E4908812A2048812B2088814FF4487048
:1026500008804FF4F07048800848808845F21031B7
:10266000884206D14FF4F070044908804FF4A070FE
:102670004880002002F0FEFA10BD0000A4020020F5
:1026800030B504460D463E48808849F241318842C3
:1026900005D03B48808845F21031884214D1384932
:1026A000488902F0F9FD201202F0EAFDE0B202F0E2
:1026B000E7FD3349888902F0EFFD281202F0E0FDC2
:1026C000E8B202F0DDFD54E02D48808845F210515B
:1026D000884220D12A49488902F0DEFD201202F00A
:1026E000CFFD27494989491C88B202F0D5FDE0B2E7
:1026F00002F0C6FD2249888902F0CEFD281202F0C0
:10270000BFFD1F498989491C88B202F0C5FDE8B2A6
:1027100002F0B6FD2DE01A48808841F66311884228
:1027200027D11748807920B915480088401E001B22
:1027300084B21349488902F0AFFD201202F0A0FDD7
:10274000E0B202F09DFD201202F09AFDE0B202F02C
:1027500097FD0B49888902F09FFD281202F090FD39
:10276000E8B202F08DFD281202F08AFDE8B202F014
:1027700087FD0348008903490880891C0A8030BD11
:10278000A4020020FE07006C00B593B000BFFE4815
:10279000806940F00800FC4988610846806900F0C3
:1027A0000800009000BF00BF01200F901090119012
:1027B000032012900FA9F548FEF7FEFC4FF02040D1
:1027C000F3490860F3484860062088600021F0481B
:1027D000C16001611021416100218161C1614162DB
:1027E0004FF4805181620021C1624FF48041016346
:1027F00000214163816306200890002009901A207F
:102800000A9000200E900490032001900020029076
:10281000062003900020079001AA08A9DC48FFF7D2
:10282000B9FB322003F0BCF8D32002F035FD02F0F2
:10283000EDF9D949888002F0E9F9D749888002F09A
:10284000E5F9D5498880084680884FF6FF7101EA8E
:102850000020D149888002F0D9F9CF4989880843FE
:10286000CD4988800846808849F24131884278D035
:10287000D42002F011FD02F0C9F9C749888002F0A6
:10288000C5F9C549888002F0C1F9C3498880084666
:1028900080884FF6FF7101EA0020BF49888002F06E
:1028A000B5F9BD4989880843BB49888008468088B6
:1028B00045F21031884254D04FF45A4002F0ECFCFB
:1028C00002F0A4F9B44988804FF45B4002F0E4FCC4
:1028D00002F09CF9B0498880084680884FF6FF7165
:1028E00001EA0020AC4988804FF45C4002F0D4FC3F
:1028F00002F08CF9A84989880843A74988800846CE
:102900008088B0F5004F02D145F210508880A2486F
:10291000808845F21051884223D0A12002F0BCFCEF
:1029200002F074F99C49888002F070F99A49888015
:10293000084680884FF6FF7101EA0020964988809A
:1029400002F064F9944989880843934988800846CD
:10295000808845F26171884203D141F663108E4947
:1029600088808D4881888DA0FDF782FC8A48808808
:1029700049F2413188427CD1CF2002F08DFC002009
:1029800002F07EFCC12002F07BFC302002F078FCDB
:10299000ED2002F081FC642002F072FC032002F0C2
:1029A0006FFC122002F06CFC812002F069FCE82030
:1029B00002F072FC852002F063FC102002F060FC43
:1029C0007A2002F05DFCCB2002F066FC392002F098
:1029D00057FC2C2002F054FC002002F051FC342063
:1029E00002F04EFC022002F04BFCF72002F054FCF7
:1029F000202002F045FCEA2002F04EFC002002F00C
:102A00003FFC002002F03CFCC02002F045FC1B20F3
:102A100002F036FCC12002F03FFC012002F030FC45
:102A2000C52002F039FC302002F02AFC302002F0F0
:102A300027FCC72002F030FCB72002F021FC362032
:102A400002F02AFC482002F01BFC3A2002F024FC91
:102A5000552002F015FCB12002F01EFC002002F00F
:102A60000FFC1A2002F00CFCB62002F015FC0A2024
:102A700000E0ACE002F004FCA22002F001FCF22035
:102A800002F00AFC002002F0FBFB262002F004FC0E
:102A9000012002F0F5FBE02002F0FEFB0F2002F027
:102AA000EFFB2A2002F0ECFB282002F0E9FB0820D3
:102AB00002F0E6FB0E2002F0E3FB082002F0E0FB50
:102AC000542002F0DDFBA92002F0DAFB432002F0E3
:102AD000D7FB0A2002F0D4FB0F2002F0D1FB00202C
:102AE00002F0CEFB002002F0CBFB002002F0C8FB7E
:102AF000002002F0C5FBE12002F0CEFB002002F036
:102B0000BFFB152002F0BCFB172002F0B9FB072029
:102B100002F0B6FB112002F0B3FB062002F0B0FB7E
:102B20002B2002F0ADFB562002F0AAFB3C2002F065
:102B3000A7FB052002F0A4FB102002F0A1FB0F2050
:102B400002F09EFB3F2002F09BFB3F2002F098FB2F
:102B50000F2002F095FB2B2002F09EFB002002F0DC
:102B60008FFB002002F08CFB012002F089FB3F204C
:102B700002F086FB2A2002F08FFB002002F080FB8F
:102B8000002002F07DFB11E000100240000C01402B
:102B90005C020020040100A0A4020020204C434459
:102BA0002049443A25780D0A00000000002002F078
:102BB00067FBEF2002F064FB112002F06DFB782030
:102BC00002F0EEFE292002F067FB01F0CBBFFE48C9
:102BD000808845F21031884240F07C87ED2002F079
:102BE0005BFB012002F04CFBFE2002F049FBEE20D3
:102BF00002F052FBDE2002F043FB212002F040FBFA
:102C0000F12002F049FB012002F03AFBDF2002F044
:102C100043FB102002F034FBC42002F03DFB8F2068
:102C200002F02EFBC62002F037FB002002F028FB4A
:102C3000E22002F025FBE22002F022FBE22002F07B
:102C40001FFBBF2002F028FBAA2002F019FBB020D6
:102C500002F022FB0D2002F013FB002002F010FB1B
:102C60000D2002F00DFB002002F00AFB112002F003
:102C700007FB002002F004FB192002F001FB0020FA
:102C800002F0FEFA212002F0FBFA002002F0F8FA2E
:102C90002D2002F0F5FA002002F0F2FA3D2002F0B9
:102CA000EFFA002002F0ECFA5D2002F0E9FA0020D1
:102CB00002F0E6FA5D2002F0E3FA002002F0E0FA0A
:102CC000B12002F0E9FA802002F0DAFA002002F0E6
:102CD000D7FA8B2002F0D4FA002002F0D1FA962025
:102CE00002F0CEFA002002F0CBFAB22002F0D4FAC1
:102CF000002002F0C5FA002002F0C2FA022002F021
:102D0000BFFA002002F0BCFA032002F0B9FA00205A
:102D100002F0B6FAB32002F0BFFA002002F0B0FAD7
:102D2000002002F0ADFA002002F0AAFA002002F022
:102D3000A7FA002002F0A4FA002002F0A1FA002075
:102D400002F09EFA002002F09BFA002002F098FAAE
:102D5000002002F095FA002002F092FA002002F022
:102D60008FFA002002F08CFA002002F089FA00208D
:102D700002F086FA002002F083FA002002F080FAC6
:102D8000002002F07DFA002002F07AFA002002F022
:102D900077FA002002F074FA002002F071FA0020A5
:102DA00002F06EFA002002F06BFAB42002F074FA1E
:102DB0008B2002F065FA002002F062FA962002F001
:102DC0005FFA002002F05CFAA12002F059FA00201C
:102DD00002F056FAB52002F05FFA022002F050FA33
:102DE000002002F04DFA032002F04AFA002002F01F
:102DF00047FA042002F044FA002002F041FAB6201B
:102E000002F04AFA002002F03BFA002002F038FA01
:102E1000B72002F041FA002002F032FA002002F05E
:102E20002FFA3F2002F02CFA002002F029FA5E204F
:102E300002F026FA002002F023FA642002F020FAC1
:102E4000002002F01DFA8C2002F01AFA002002F095
:102E500017FAAC2002F014FA002002F011FADC207C
:102E600002F00EFA002002F00BFA702002F008FACD
:102E7000002002F005FA902002F002FA002002F091
:102E8000FFF9EB2002F0FCF9002002F0F9F9DC2058
:102E900002F0F6F9002002F0F3F9B82002F0FCF994
:102EA000002002F0EDF9002002F0EAF9002002F023
:102EB000E7F9002002F0E4F9002002F0E1F9002037
:102EC00002F0DEF9002002F0DBF9002002F0D8F970
:102ED000BA2002F0E1F9242002F0D2F9002002F039
:102EE000CFF9002002F0CCF9002002F0C9F9C1208E
:102EF00002F0D2F9202002F0C3F9002002F0C0F95C
:102F0000542002F0BDF9002002F0BAF9FF2002F0CF
:102F1000B7F9002002F0B4F9C22002F0BDF90A208E
:102F200002F0AEF9002002F0ABF9042002F0A8F99B
:102F3000002002F0A5F9C32002F0AEF93C2002F017
:102F40009FF9002002F09CF93A2002F099F9002044
:102F500002F096F9392002F093F9002002F090F97E
:102F6000372002F08DF9002002F08AF93C2002F0AF
:102F700087F9002002F084F9362002F081F9002060
:102F800002F07EF9322002F07BF9002002F078F99D
:102F90002F2002F075F9002002F072F92C2002F0C7
:102FA0006FF9002002F06CF9292002F069F9002085
:102FB00002F066F9262002F063F9002002F060F9C1
:102FC000242002F05DF901E0A4020020002002F0BC
:102FD00057F9242002F054F9002002F051F923207F
:102FE00002F04EF9002002F04BF93C2002F048F9C3
:102FF000002002F045F9362002F042F9002002F0EC
:103000003FF9322002F03CF9002002F039F92F207C
:1030100002F036F9002002F033F92C2002F030F9EA
:10302000002002F02DF9292002F02AF9002002F0F8
:1030300027F9262002F024F9002002F021F92420AB
:1030400002F01EF9002002F01BF9242002F018F90A
:10305000002002F015F9232002F012F9002002F0FE
:103060000FF9C42002F018F9622002F009F90020DB
:1030700002F006F9052002F003F9002002F000F941
:10308000842002F0FDF8002002F0FAF8F02002F0AF
:10309000F7F8002002F0F4F8182002F0F1F8002010
:1030A00002F0EEF8A42002F0EBF8002002F0E8F8BD
:1030B000182002F0E5F8002002F0E2F8502002F0BB
:1030C000DFF8002002F0DCF80C2002F0D9F8002034
:1030D00002F0D6F8172002F0D3F8002002F0D0F862
:1030E000952002F0CDF8002002F0CAF8F32002F09B
:1030F000C7F8002002F0C4F8E62002F0C1F8002072
:1031000002F0BEF8C52002F0C7F8322002F0B8F88D
:10311000002002F0B5F8442002F0B2F8002002F0DE
:10312000AFF8652002F0ACF8002002F0A9F8762094
:1031300002F0A6F8002002F0A3F8882002F0A0F820
:10314000002002F09DF8C62002F0A6F8202002F030
:1031500097F8002002F094F8172002F091F8002070
:1031600002F08EF8012002F08BF8002002F088F8BF
:10317000C72002F091F8002002F082F8002002F04F
:103180007FF8002002F07CF8002002F079F8C820D7
:1031900002F082F8002002F073F8002002F070F8CC
:1031A000002002F06DF8002002F06AF8C92002F059
:1031B00073F8002002F064F8002002F061F80020AB
:1031C00002F05EF8002002F05BF8002002F058F8F0
:1031D000002002F055F8002002F052F8002002F022
:1031E0004FF8002002F04CF8002002F049F80020CF
:1031F00002F046F8002002F043F8002002F040F808
:10320000002002F03DF8002002F03AF8002002F021
:1032100037F8E02002F040F8162002F031F80020E4
:1032200002F02EF81C2002F02BF8002002F028F803
:10323000212002F025F8002002F022F8362002F0CA
:103240001FF8002002F01CF8462002F019F80020B8
:1032500002F016F8522002F013F8002002F010F8E5
:10326000642002F00DF8002002F00AF87A2002F043
:1032700007F8002002F004F88B2002F001F800208B
:1032800001F0FEFF992001F0FBFF002001F0F8FFA4
:10329000A82001F0F5FF002001F0F2FFB92001F0B5
:1032A000EFFF002001F0ECFFC42001F0E9FF002057
:1032B00001F0E6FFCA2001F0E3FF002001F0E0FF8B
:1032C000D22001F0DDFF002001F0DAFFD92001F06B
:1032D000D7FF002001F0D4FFE02001F0D1FF002053
:1032E00001F0CEFFF32001F0CBFF002001F0C8FF7A
:1032F000E12001F0D1FF162001F0C2FF002001F013
:10330000BFFF1C2001F0BCFF002001F0B9FF22200C
:1033100001F0B6FF002001F0B3FF362001F0B0FF4E
:10332000002001F0ADFF452001F0AAFF002001F0D0
:10333000A7FF522001F0A4FF002001F0A1FF6420AC
:1033400001F09EFF002001F09BFF7A2001F098FF22
:10335000002001F095FF8B2001F092FF002001F08A
:103360008FFF992001F08CFF002001F089FFA82039
:1033700001F086FF002001F083FFB92001F080FFFB
:10338000002001F07DFFC42001F07AFF002001F051
:1033900077FFCA2001F074FF002001F071FFD220F6
:1033A00001F06EFF002001F06BFFD82001F068FFF4
:1033B000002001F065FFE02001F062FF002001F035
:1033C0005FFFF32001F05CFF002001F059FFE220D5
:1033D00001F062FF052001F053FF002001F050FFD3
:1033E0000B2001F04DFF002001F04AFF1B2001F0EF
:1033F00047FF002001F044FF342001F041FF00208E
:1034000001F03EFF442001F03BFF002001F038FFB7
:103410004F2001F035FF002001F032FF612001F064
:103420002FFF002001F02CFF792001F029FF002060
:1034300001F026FF882001F023FF002001F020FF8B
:10344000972001F01DFF002001F01AFFA62001F0D7
:1034500017FF002001F014FFB72001F011FF00203A
:1034600001F00EFFC22001F00BFF002001F008FF69
:10347000C72001F005FF002001F002FFD12001F07C
:10348000FFFE002001F0FCFED62001F0F9FE002036
:1034900001F0F6FEDD2001F0F3FE002001F0F0FE69
:1034A000F32001F0EDFE002001F0EAFEE32001F040
:1034B000F3FE052001F0E4FE002001F0E1FE0A2009
:1034C00001F0DEFE002001F0DBFE1C2001F0D8FE42
:1034D000002001F0D5FE332001F0D2FE002001F0E3
:1034E000CFFE442001F0CCFE002001F0C9FE5020A8
:1034F00001F0C6FE002001F0C3FE622001F0C0FE14
:10350000002001F0BDFE782001F0BAFE002001F09D
:10351000B7FE882001F0B4FE002001F0B1FE972034
:1035200001F0AEFE002001F0ABFEA62001F0A8FEE7
:10353000002001F0A5FEB72001F0A2FE002001F05E
:103540009FFEC22001F09CFE002001F099FEC720E2
:1035500001F096FE002001F093FED12001F090FED4
:10356000002001F08DFED52001F08AFE002001F040
:1035700087FEDD2001F084FE002001F081FEF320B3
:1035800001F07EFE002001F07BFEE42001F084FECD
:10359000012001F075FE002001F072FE012001F013
:1035A0006FFE002001F06CFE022001F069FE002099
:1035B00001F066FE2A2001F063FE002001F060FEAB
:1035C0003C2001F05DFE002001F05AFE4B2001F08E
:1035D00057FE002001F054FE5D2001F051FE002056
:1035E00001F04EFE742001F04BFE002001F048FE79
:1035F000842001F045FE002001F042FE932001F0FE
:103600003FFE002001F03CFEA22001F039FE002028
:1036100001F036FEB32001F033FE002001F030FE51
:10362000BE2001F02DFE002001F02AFEC42001F092
:1036300027FE002001F024FECD2001F021FE002015
:1036400001F01EFED32001F01BFE002001F018FE49
:10365000DD2001F015FE002001F012FEF32001F044
:103660000FFE002001F00CFEE52001F015FE002009
:1036700001F006FE002001F003FE002001F000FE34
:10368000002001F0FDFD022001F0FAFD002001F014
:10369000F7FD292001F0F4FD002001F0F1FD3C20B0
:1036A00001F0EEFD002001F0EBFD4B2001F0E8FD04
:1036B000002001F0E5FD5D2001F0E2FD002001F0B9
:1036C000DFFD742001F0DCFD002001F0D9FD842035
:1036D00001F0D6FD002001F0D3FD932001F0D0FDD4
:1036E000002001F0CDFDA22001F0CAFD002001F074
:1036F000C7FDB32001F0C4FD002001F0C1FDBE20D4
:1037000001F0BEFD002001F0BBFDC42001F0B8FDBA
:10371000002001F0B5FDCD2001F0B2FD002001F048
:10372000AFFDD32001F0ACFD002001F0A9FDDC20AD
:1037300001F0A6FD002001F0A3FDF32001F0A0FDA3
:10374000002001F09DFDE62001F0A6FD112001F012
:1037500097FD002001F094FD342001F091FD002040
:1037600001F08EFD562001F08BFD002001F088FD58
:10377000762001F085FD002001F082FD772001F028
:103780007FFD002001F07CFD662001F079FD002026
:1037900001F076FD882001F073FD002001F070FD3E
:1037A000992001F06DFD002001F06AFDBB2001F0C1
:1037B00067FD002001F064FD992001F061FD00200B
:1037C00001F05EFD662001F05BFD002001F058FD78
:1037D000552001F055FD002001F052FD552001F06B
:1037E0004FFD002001F04CFD452001F049FD002077
:1037F00001F046FD432001F043FD002001F040FDB3
:10380000442001F03DFD002001F03AFDE72001F0E9
:1038100043FD322001F034FD002001F031FD552040
:1038200001F02EFD002001F02BFD762001F028FD97
:10383000002001F025FD662001F022FD002001F0AE
:103840001FFD672001F01CFD002001F019FD67201D
:1038500001F016FD002001F013FD872001F010FD9E
:10386000002001F00DFD992001F00AFD002001F07B
:1038700007FDBB2001F004FD002001F001FD9920AF
:1038800001F0FEFC002001F0FBFC772001F0F8FCC9
:10389000002001F0F5FC442001F0F2FC002001F0D2
:1038A000EFFC562001F0ECFC002001F0E9FC2320A5
:1038B00001F0E6FC002001F0E3FC332001F0E0FC25
:1038C000002001F0DDFC452001F0DAFC002001F0D1
:1038D000D7FCE82001F0E0FC002001F0D1FC002042
:1038E00001F0CEFC992001F0CBFC002001F0C8FCD7
:1038F000872001F0C5FC002001F0C2FC882001F007
:10390000BFFC002001F0BCFC772001F0B9FC0020D6
:1039100001F0B6FC662001F0B3FC002001F0B0FC21
:10392000882001F0ADFC002001F0AAFCAA2001F0E3
:10393000A7FC002001F0A4FCBB2001F0A1FC0020AA
:1039400001F09EFC992001F09BFC002001F098FC06
:10395000662001F095FC002001F092FC552001F05A
:103960008FFC002001F08CFC552001F089FC002028
:1039700001F086FC442001F083FC002001F080FC73
:10398000442001F07DFC002001F07AFC552001F07C
:1039900077FC002001F074FCE92001F07DFCAA20F6
:1039A00001F06EFC002001F06BFC002001F068FCCF
:1039B000002001F065FC002001F06EFCAA2001F05F
:1039C0005FFCCF2001F068FC002001F059FC0020D2
:1039D00001F056FC002001F053FC002001F050FCE7
:1039E000002001F04DFC002001F04AFC002001F015
:1039F00047FC002001F044FC002001F041FC0020C5
:103A000001F03EFC002001F03BFC002001F038FCFE
:103A1000002001F035FC002001F032FC002001F014
:103A20002FFC002001F02CFC002001F029FCF020EC
:103A300001F032FC002001F023FC502001F020FCBA
:103A4000002001F01DFC002001F01AFC002001F014
:103A500017FCF32001F020FC002001F011FCF920FC
:103A600001F01AFC062001F00BFC102001F008FC0C
:103A7000292001F005FC002001F002FC3A2001F0B1
:103A80000BFC552001F0FCFB112001F005FC64202B
:103A900001F086FF292001F0FFFB352001F0FCFB3F
:103AA000002001F0EDFB512001F0F6FBFF2001F0BA
:103AB000E7FB532001F0F0FB2C2001F0E1FB552047
:103AC00001F0EAFB822001F0DBFB2C2001F0E4FB9B
:103AD00001F048B8FE48808845F2105188427DD1F7
:103AE00055214FF4704001F0EDFBAA214FF2010087
:103AF00001F0E8FB52214FF2020001F0E3FB082144
:103B00004FF2030001F0DEFB01214FF2040001F04F
:103B1000D9FB0D214FF4304001F0D4FB0D214BF2C5
:103B2000010001F0CFFB0D214BF2020001F0CAFBB6
:103B300034214FF4364001F0C5FB34214BF20160D3
:103B400001F0C0FB34214BF2026001F0BBFB0D2100
:103B50004FF4314001F0B6FB0D214BF2011001F0A2
:103B6000B1FB0D214BF2021001F0ACFB34214FF4FC
:103B7000374001F0A7FB34214BF2017001F0A2FBAA
:103B800034214BF2027001F09DFB00214FF43240D2
:103B900001F098FB00214BF2012001F093FB002182
:103BA0004BF2022001F08EFB24214FF4384001F04B
:103BB00089FB24214BF6010001F084FB24214BF604
:103BC000020001F07FFB01214FF43F4001F07AFB3E
:103BD0000F214FF4334001F075FB00E0FDE30F21AE
:103BE0004BF2013001F06EFB0F214BF2023001F07D
:103BF00069FB34214FF4394001F064FB34214BF66A
:103C0000011001F05FFB34214BF6021001F05AFB6A
:103C100008214FF4354001F055FB08214BF20150CB
:103C200001F050FB08214BF2025001F04BFB032145
:103C30004FF4424001F046FB24214FF43A4001F09A
:103C400041FB24214BF6012001F03CFB24214BF6E3
:103C5000022001F037FB00214FF43C4001F032FB21
:103C600078214BF6014001F02DFB00214BF602407C
:103C700001F028FB00214FF43D4001F023FB7821A7
:103C80004BF6015001F01EFB00214BF6025001F0F3
:103C900019FB00214FF43E4001F014FB64214BF668
:103CA000016001F00FFB00214FF4514001F00AFBCD
:103CB00033214DF2011001F005FB00214DF20210FD
:103CC00001F000FB34214DF2031001F0FBFA00215A
:103CD0004DF2041001F0F6FA3A214DF2051001F010
:103CE000F1FA00214DF2061001F0ECFA4A214DF2F2
:103CF000071001F0E7FA00214DF2081001F0E2FA96
:103D00005C214DF2091001F0DDFA00214DF20A109C
:103D100001F0D8FA81214DF20B1001F0D3FA002105
:103D20004DF20C1001F0CEFAA6214DF20D1001F06B
:103D3000C9FA00214DF20E1001F0C4FAE5214DF24E
:103D40000F1001F0BFFA01214DF2101001F0BAFA84
:103D500013214DF2111001F0B5FA01214DF21210AC
:103D600001F0B0FA54214DF2131001F0ABFA012129
:103D70004DF2141001F0A6FA82214DF2151001F057
:103D8000A1FA01214DF2161001F09CFACA214DF260
:103D9000171001F097FA02214DF2181001F092FA73
:103DA00000214DF2191001F08DFA02214DF21A1086
:103DB00001F088FA01214DF21B1001F083FA022173
:103DC0004DF21C1001F07EFA34214DF21D1001F06D
:103DD00079FA02214DF21E1001F074FA67214DF2BA
:103DE0001F1001F06FFA02214DF2201001F06AFA63
:103DF00084214DF2211001F065FA02214DF22210CA
:103E000001F060FAA4214DF2231001F05BFA0221C7
:103E10004DF2241001F056FAB7214DF2251001F0B1
:103E200051FA02214DF2261001F04CFACF214DF249
:103E3000271001F047FA02214DF2281001F042FA52
:103E4000DE214DF2291001F03DFA02214DF22A1037
:103E500001F038FAF2214DF22B1001F033FA022171
:103E60004DF22C1001F02EFAFE214DF22D1001F032
:103E700029FA03214DF22E1001F024FA10214DF2FF
:103E80002F1001F01FFA03214DF2301001F01AFA41
:103E900033214DF2311001F015FA03214DF23210A9
:103EA00001F010FA6D214DF2331001F00BFA0021F0
:103EB0004FF4524001F006FA33214DF2012001F097
:103EC00001FA00214DF2022001F0FCF9342101E059
:103ED000A40200204DF2032001F0F4F900214DF27C
:103EE000042001F0EFF93A214DF2052001F0EAF942
:103EF00000214DF2062001F0E5F94A214DF207209C
:103F000001F0E0F900214DF2082001F0DBF95C211D
:103F10004DF2092001F0D6F900214DF20A2001F0FE
:103F2000D1F981214DF20B2001F0CCF900214DF2A5
:103F30000C2001F0C7F9A6214DF20D2001F0C2F9C5
:103F400000214DF20E2001F0BDF9E5214DF20F20C8
:103F500001F0B8F901214DF2102001F0B3F913215D
:103F60004DF2112001F0AEF901214DF2122001F0C5
:103F7000A9F954214DF2132001F0A4F901214DF2C9
:103F8000142001F09FF982214DF2152001F09AF9D9
:103F900001214DF2162001F095F9CA214DF21720AA
:103FA00001F090F902214DF2182001F08BF9002167
:103FB0004DF2192001F086F902214DF21A2001F08C
:103FC00081F901214DF21B2001F07CF902214DF213
:103FD0001C2001F077F934214DF21D2001F072F917
:103FE00002214DF21E2001F06DF967214DF21F20D4
:103FF00001F068F902214DF2202001F063F98421DB
:104000004DF2212001F05EF902214DF2222001F053
:1040100059F9A4214DF2232001F054F902214DF267
:10402000242001F04FF9B7214DF2252001F04AF983
:1040300002214DF2262001F045F9CF214DF2272033
:1040400001F040F902214DF2282001F03BF9DE2178
:104050004DF2292001F036F902214DF22A2001F01B
:1040600031F9F2214DF22B2001F02CF902214DF211
:104070002C2001F027F9FE214DF22D2001F022F92C
:1040800003214DF22E2001F01DF910214DF22F20B9
:1040900001F018F903214DF2302001F013F933211A
:1040A0004DF2312001F00EF903214DF2322001F0E2
:1040B00009F96D214DF2332001F004F900214FF48C
:1040C000534001F0FFF833214DF2013001F0FAF8CE
:1040D00000214DF2023001F0F5F834214DF20330A9
:1040E00001F0F0F800214DF2043001F0EBF83A2134
:1040F0004DF2053001F0E6F800214DF2063001F0F6
:10410000E1F84A214DF2073001F0DCF800214DF2D0
:10411000083001F0D7F85C214DF2093001F0D2F8F7
:1041200000214DF20A3001F0CDF881214DF20B3023
:1041300001F0C8F800214DF20C3001F0C3F8A621BF
:104140004DF20D3001F0BEF800214DF20E3001F0BD
:10415000B9F8E5214DF20F3001F0B4F801214DF22C
:10416000103001F0AFF813214DF2113001F0AAF830
:1041700001214DF2123001F0A5F854214DF2133017
:1041800001F0A0F801214DF2143001F09BF88221DA
:104190004DF2153001F096F801214DF2163001F084
:1041A00091F8CA214DF2173001F08CF802214DF23E
:1041B000183001F087F800214DF2193001F082F833
:1041C00002214DF21A3001F07DF801214DF21B3031
:1041D00001F078F802214DF21C3001F073F834211F
:1041E0004DF21D3001F06EF802214DF21E3001F04B
:1041F00069F867214DF21F3001F064F802214DF299
:10420000203001F05FF884214DF2213001F05AF89E
:1042100002214DF2223001F055F8A4214DF2233055
:1042200001F050F802214DF2243001F04BF8B72193
:104230004DF2253001F046F802214DF2263001F012
:1042400041F8CF214DF2273001F03CF802214DF228
:10425000283001F037F8DE214DF2293001F032F834
:1042600002214DF22A3001F02DF8F2214DF22B30CF
:1042700001F028F802214DF22C3001F023F8FE2144
:104280004DF22D3001F01EF803214DF22E3001F0D9
:1042900019F810214DF22F3001F014F803214DF2DE
:1042A000303001F00FF833214DF2313001F00AF8CF
:1042B00003214DF2323001F005F86D214DF233301B
:1042C00001F000F800214FF4544000F0FBFF3321CF
:1042D0004DF2014000F0F6FF00214DF2024000F0E7
:1042E000F1FF34214DF2034000F0ECFF00214DF2CC
:1042F000044000F0E7FF3A214DF2054000F0E2FFF4
:1043000000214DF2064000F0DDFF4A214DF207404A
:1043100000F0D8FF00214DF2084000F0D3FF5C21EF
:104320004DF2094000F0CEFF00214DF20A4000F0AE
:10433000C9FF81214DF20B4000F0C4FF00214DF276
:104340000C4000F0BFFFA6214DF20D4000F0BAFF77
:1043500000214DF20E4000F0B5FFE5214DF20F4077
:1043600000F0B0FF01214DF2104000F0ABFF13212F
:104370004DF2114000F0A6FF01214DF2124000F075
:10438000A1FF54214DF2134000F09CFF01214DF29A
:10439000144000F097FF82214DF2154000F092FF8B
:1043A00001214DF2164000F08DFFCA214DF2174059
:1043B00000F088FF02214DF2184000F083FF002139
:1043C0004DF2194000F07EFF02214DF21A4000F03C
:1043D00079FF01214DF21B4000E005E300F072FF80
:1043E00002214DF21C4000F06DFF34214DF21D40C2
:1043F00000F068FF02214DF21E4000F063FF6721CC
:104400004DF21F4000F05EFF02214DF2204000F00F
:1044100059FF84214DF2214000F054FF02214DF25A
:10442000224000F04FFFA4214DF2234000F04AFF4C
:1044300002214DF2244000F045FFB7214DF2254006
:1044400000F040FF02214DF2264000F03BFFCF215B
:104450004DF2274000F036FF02214DF2284000F0D7
:1044600031FFDE214DF2294000F02CFF02214DF2F8
:104470002A4000F027FFF2214DF22B4000F022FFEE
:1044800002214DF22C4000F01DFFFE214DF22D4087
:1044900000F018FF03214DF22E4000F013FF102111
:1044A0004DF22F4000F00EFF03214DF2304000F09E
:1044B00009FF33214DF2314000F004FF03214DF29A
:1044C000324000F0FFFE6D214DF2334000F0FAFE65
:1044D00000214FF4554000F0F5FE33214DF201501C
:1044E00000F0F0FE00214DF2025000F0EBFE34210E
:1044F0004DF2035000F0E6FE00214DF2045000F0B2
:10450000E1FE3A214DF2055000F0DCFE00214DF2B3
:10451000065000F0D7FE4A214DF2075000F0D2FEBF
:1045200000214DF2085000F0CDFE5C214DF2095003
:1045300000F0C8FE00214DF20A5000F0C3FE8121B8
:104540004DF20B5000F0BEFE00214DF20C5000F079
:10455000B9FEA6214DF20D5000F0B4FE00214DF23F
:104560000E5000F0AFFEE5214DF20F5000F0AAFE14
:1045700001214DF2105000F0A5FE13214DF2115013
:1045800000F0A0FE01214DF2125000F09BFE5421DC
:104590004DF2135000F096FE01214DF2145000F040
:1045A00091FE82214DF2155000F08CFE01214DF25A
:1045B000165000F087FECA214DF2175000F082FE1F
:1045C00002214DF2185000F07DFE00214DF21950ED
:1045D00000F078FE02214DF21A5000F073FE012126
:1045E0004DF21B5000F06EFE02214DF21C5000F007
:1045F00069FE34214DF21D5000F064FE02214DF29F
:104600001E5000F05FFE67214DF21F5000F05AFE71
:1046100002214DF2205000F055FE84214DF2215030
:1046200000F050FE02214DF2225000F04BFEA4217A
:104630004DF2235000F046FE02214DF2245000F0CE
:1046400041FEB7214DF2255000F03CFE02214DF213
:10465000265000F037FECF214DF2275000F032FEF9
:1046600002214DF2285000F02DFEDE214DF229509E
:1046700000F028FE02214DF22A5000F023FEF22124
:104680004DF22B5000F01EFE02214DF22C5000F096
:1046900019FEFE214DF22D5000F014FE03214DF2C3
:1046A0002E5000F00FFE10214DF22F5000F00AFEA8
:1046B00003214DF2305000F005FE33214DF2315010
:1046C00000F000FE03214DF2325000F0FBFD6D21A1
:1046D0004DF2335000F0F6FD00214FF4564000F04B
:1046E000F1FD33214DF2016000F0ECFD00214DF2AF
:1046F000026000F0E7FD34214DF2036000F0E2FDBE
:1047000000214DF2046000F0DDFD3A214DF205601C
:1047100000F0D8FD00214DF2066000F0D3FD4A21E3
:104720004DF2076000F0CEFD00214DF2086000F070
:10473000C9FD5C214DF2096000F0C4FD00214DF27D
:104740000A6000F0BFFD81214DF20B6000F0BAFD60
:1047500000214DF20C6000F0B5FDA6214DF20D6078
:1047600000F0B0FD00214DF20E6000F0ABFDE52140
:104770004DF20F6000F0A6FD01214DF2106000F037
:10478000A1FD13214DF2116000F09CFD01214DF2BD
:10479000126000F097FD54214DF2136000F092FD7D
:1047A00001214DF2146000F08DFD82214DF2156063
:1047B00000F088FD01214DF2166000F083FDCA2152
:1047C0004DF2176000F07EFD02214DF2186000F0FE
:1047D00079FD00214DF2196000F074FD02214DF2C7
:1047E0001A6000F06FFD01214DF21B6000F06AFDC0
:1047F00002214DF21C6000F065FD34214DF21D6078
:1048000000F060FD02214DF21E6000F05BFD6721AB
:104810004DF21F6000F056FD02214DF2206000F0C5
:1048200051FD84214DF2216000F04CFD02214DF23A
:10483000226000F047FDA4214DF2236000F042FD0C
:1048400002214DF2246000F03DFDB7214DF22560BC
:1048500000F038FD02214DF2266000F033FDCF213B
:104860004DF2276000F02EFD02214DF2286000F08D
:1048700029FDDE214DF2296000F024FD02214DF2D8
:104880002A6000F01FFDF2214DF22B6000F01AFDAE
:1048900002214DF22C6000F015FDFE214DF22D603D
:1048A00000F010FD03214DF22E6000F00BFD1021F1
:1048B0004DF22F6000F006FD03214DF2306000F054
:1048C00001FD33214DF2316000F0FCFC03214DF27B
:1048D000326000F0F7FC6D214DF2336000F0F2FC25
:1048E00055214FF4704000F0EDFCAA214FF2010079
:1048F00000F0E8FC52214FF2020000F0E3FC082136
:104900004FF2030000F0DEFC00214FF2040000F043
:10491000D9FCCC214FF4314000F0D4FC00214BF203
:10492000011000F0CFFC05214FF4364000F0CAFC26
:1049300070214FF4374000F0C5FC70214BF201703C
:1049400000F0C0FC01214FF4384000F0BBFC032113
:104950004BF6010000F0B6FC03214BF6020000F01C
:10496000B1FC03214BF6030000F0ACFC02214FF434
:104970003C4000F0A7FC00214BF6014000F0A2FCF7
:1049800000214BF6024000F09DFCD0214FF449403D
:1049900000F098FC02214CF6011000F093FC50212D
:1049A0004CF6021000F08EFC50214CF6031000F083
:1049B00089FC50214CF6041000F084FC00214FF4D7
:1049C000545000F07FFC55214FF4685000F07AFC01
:1049D0004FF4885000F060FC782000F0EDFF4FF4B9
:1049E000245000F059FCBDE07F48808841F66311F7
:1049F0008842F8D1E22000F04FFC1D2000F040FC7E
:104A0000022000F03DFC042000F03AFC642000F09D
:104A1000D3FFE02000F040FC012000F031FC0A2030
:104A200000F0BEFFE02000F037FC032000F028FC7F
:104A30000C2000F0B5FF012000F02EFC0A2000F051
:104A4000AFFFE62000F028FC2F2000F019FCFF202B
:104A500000F016FCFF2000F013FCB02000F01CFC5E
:104A6000202000F00DFC002000F00AFC032000F0E4
:104A700007FC40F21F3000F003FC012000F000FCB6
:104A800040F2DF1000F0FCFB002000F0F9FBB42046
:104A900000F002FC042000F0F3FB40F21F4000F0A5
:104AA000EFFB002000F0ECFB2E2000F0E9FB0020E3
:104AB00000F0E6FB002000F0E3FB002000F0E0FB4C
:104AC000002000F0DDFBB62000F0E6FB022000F045
:104AD000D7FB4FF4037000F0D3FB002000F0D0FBB5
:104AE000172000F0CDFB152000F0CAFB002000F0DD
:104AF000C7FB002000F0C4FBF02000F0CDFB03203A
:104B000000F0BEFB292000F0C7FBD02000F0C4FB62
:104B1000002000F0B5FBBE2000F0BEFB052000F039
:104B2000AFFBFE2000F0ACFB012000F0A9FB002051
:104B300000F0A6FB002000F0A3FB002000F0A0FB8B
:104B4000B82000F0A9FB032000F09AFB012000F040
:104B500097FBBA2000F0A0FB012000F091FB64203D
:104B600000F05EF82048808849F24131884211D037
:104B70001D48808845F2103188420BD01A48808841
:104B800045F21051884205D01748808841F66311DC
:104B900088421CD11548006820F00F004FF02041DA
:104BA000C1F81C010846D0F81C0120F47060C1F85F
:104BB0001C010846D0F81C0140F00100C1F81C019E
:104BC0000846D0F81C0140F48070C1F81C01002098
:104BD000FDF7A6FC0120064908604FF6FF70FDF7BF
:104BE00085FC13B000BD0000A40200201C0100A041
:104BF0008081214210B50246012000E050430B1E87
:104C0000A1F10104E1B2F9D110BD000008B50348DB
:104C100000880090BDF8000008BD00000008006C8E
:104C20002DE9F0470446BE2000F036FB052000F0D9
:104C300027FB204602F07BF807464FF066320C4B0C
:104C400002F088F8054602F045F81FFA80F9484658
:104C500000F016FB012000F013FBFF2000F010FB1A
:104C6000002000F00DFB002000F00AFBBDE8F087FB
:104C700066660440F0B5054600240027994880790F
:104C8000012805D19748808841F66311884208D1F0
:104C900094488079F0B99348808841F6631188423E
:104CA00018D1082D15D2DFE805F00406080A0C0E0D
:104CB000101206250DE007250BE0042509E0052567
:104CC00007E0012505E0002503E0032501E00225BA
:104CD00000BF00BF8348808849F24131884211D02B
:104CE0008048808845F2103188420BD07D4880880A
:104CF00045F21051884205D07A48808841F6631108
:104D000088427DD1082D1CD2DFE805F00406090C8D
:104D10000F12151800BF14E044F0800411E044F0B5
:104D200040040EE044F0C0040BE044F0200408E02E
:104D300044F0600405E044F0A00402E044F0E00424
:104D400000BF00BF6748808845F21051884202D1F9
:104D50004FF4585700E036276248808845F21031FA
:104D600088420DD05F48808845F21051884207D0B4
:104D70005C48808841F66311884201D044F0080401
:104D80002146384600F09EFA5648808841F6631165
:104D900088421DD004F0200068B152480088514973
:104DA0004988884214DA4F48068840884D4908806F
:104DB000084646800CE04B4800884A4949888842AA
:104DC00006DD4848068840884649088008464680EF
:104DD0004448808845F21051884254D1414948895D
:104DE00000F05AFA002000F04BFA3E494989491C6C
:104DF00088B200F051FA002000F042FA394900E090
:104E00006FE04989891C88B200F046FA3549098863
:104E1000491EC1F30F2000F033FA32494989C91CF9
:104E200088B200F039FA2F490978491EC8B200F05B
:104E300027FA2C49888900F02FFA002000F020FA88
:104E400028498989491C88B200F026FA002000F020
:104E500017FA24498989891C88B200F01DFA214972
:104E60004988491EC1F30F2000F00AFA1D498989BB
:104E7000C91C88B200F010FA1A498978491EC8B2D4
:104E800000F0FEF92DE01749488900F005FA0020EE
:104E900000F0F6F9002000F0F3F912490988491EE4
:104EA000C1F30F2000F0ECF90E490978491EC8B291
:104EB00000F0E6F90B49888900F0EEF9002000F0D7
:104EC000DFF9002000F0DCF906494988491EC1F3EA
:104ED0000F2000F0D5F903498978491EC8B200F0C7
:104EE000CFF9F0BDA402002010B502460C464B4895
:104EF000808849F24131884205D04848808845F28F
:104F00001031884214D14549488900F0C5F9101282
:104F100000F0B6F9D0B200F0B3F94049888900F04A
:104F2000BBF9201200F0ACF9E0B200F0A9F973E08F
:104F30003A48808841F66311884247D137488079E2
:104F4000A8B936480088401E801A82B23349488981
:104F500000F0A2F9002000F093F9002000F090F991
:104F6000101200F08DF9D0B200F08AF916E02B494A
:104F7000488900F091F9101200F082F9D0B200F0E7
:104F80007FF926490988491EC1F30F2000F078F9FE
:104F900022490978491EC8B200F072F91F49888970
:104FA00000F07AF9201200F06BF9E0B200F068F935
:104FB0001A494988491EC1F30F2000F061F91749C9
:104FC0008978491EC8B200F05BF925E01348808853
:104FD00045F2105188421FD11049488900F05CF910
:104FE000101200F04DF90D494989491C88B200F0B2
:104FF00053F9D0B200F044F90849888900F04CF91F
:10500000201200F03DF905498989491C88B200F059
:1050100043F9E0B200F034F910BD0000A402002012
:105020002DE9F84F80460F4616461C46BB462046E3
:10503000E31704EB5373DB1021464FEAE47C04EBE7
:105040005C7C4FEAEC0CA4EBCC0CBCF1000F02D062
:105050004FF0010C01E04FF0000C6344224604EBDA
:10506000D27C4FEA6C0C03FB0CF3DBB20093A6F18D
:105070002000C6B200255EE00C2C07D106EB4600EE
:105080002F4901EB800010F805901BE0102C05D192
:105090002C4800EB061010F8059013E0182C07D1EF
:1050A00006EBC600284901EB800010F8059009E0E6
:1050B000202C05D1254800EBC61010F8059001E022
:1050C000BDE8F88F4FF0000A2FE009F0800030B102
:1050D0001F48394602684046FDF7D2FA07E00A98B1
:1050E00028B91C48394602684046FDF7C9FA4FEA1C
:1050F00049604FEA1069781C87B217484088B84267
:1051000000DCDDE7A7EB0B00A0420AD15F4608F107
:1051100001001FFA80F810480088404500DCCFE706
:1051200006E00AF1010000F0FF0ABAF1080FCCDB3B
:1051300000BF681CC5B2009885429DDB00BFBFE779
:10514000686F0008DC730008CC7900082887000825
:105150001C00002020000020A40200202DE9F847B8
:1051600004460D4690469946DDE9096704F0FF0ABA
:1051700008EB04001FFA80F809EB05001FFA80F91C
:1051800016E0444502DB5446A81985B24D4500DBC4
:1051900014E0002000903A78334629462046FFF775
:1051A0003FFF304606EBD07104EB61018CB27F1CEF
:1051B00038787E2802DC38782028E2DA00BFBDE8A3
:1051C000F8872DE9FF4F82B0064692461F46DDE97B
:1051D0000F480020019000254DE0781B401EC1B211
:1051E0000A20FFF707FDBAFBF0F00A21B0FBF1F24D
:1051F00001FB1209019850BB781EA84227DDB9F1C6
:10520000000F22D108F0800078B108F00100A34619
:1052100004EBDB71491001FB0561009088B2234665
:1052200030220399FFF7FCFE0EE008F00100A346D0
:1052300004EBDB71491001FB0561009088B2234645
:1052400020220399FFF7ECFE13E00120019008F003
:105250000100A34604EBDB71491001FB05610090DE
:1052600088B209F13001CAB223460399FFF7D8FE8C
:1052700000BF681CC5B2BD42AFDB06B0BDE8F08F11
:1052800001B5BDF800000090BDF80000014908809C
:1052900008BD00000008006C01B5BDF800000090DA
:1052A000BDF800000149088008BD0000FE07006C41
:1052B000024800890249088070470000A4020020CB
:1052C000FE07006C024A1080921C1180704700009B
:1052D000FE07006C00B585B000BF1B48806940F038
:1052E0000800194988610846806900F008000090AC
:1052F00000BF00BF00BF0846806940F040008861E1
:105300000846806900F04000009000BF00BF2020E8
:1053100001900120029003900320049001A90B4802
:10532000FBF74AFF2020019001A90948FBF744FF41
:10533000012220210548FCF7DFF801222021044842
:10534000FCF7DAF805B000BD00100240000C014087
:105350000018014070B50024002508E00620FBF786
:10536000F5FA0444052000F01BFB681CC5B20A2DA9
:10537000F4DB0A20B4FBF0F4B4F57A6F01D94FF4F2
:105380007A642820B4FBF0F0C0F16400C0B270BDB4
:1053900000B585B000BF0D48806940F080000B4922
:1053A00088610846806900F08000009000BF00BF5F
:1053B00088150190032002900020039001A9044861
:1053C000FBF7FAFEFBF7B0F905B000BD0010024094
:1053D000001C014000BFFEE77047704708B5084950
:1053E0000968C9084FF47A72B1FBF2F141430091A8
:1053F00000BF00BF00994A1E00920029F9D108BDE4
:1054000000000020704730B58FB005460024012011
:105410000590000406900020079002200C90C10324
:105420000D910E9505A8FCF783FB04460CB100BF57
:10543000FEE70F20009002200190002002904FF420
:10544000806003900020049002216846FCF73AFA3D
:1054500004460CB100BFFEE70FB030BD10B5FCF73D
:1054600057F810BD1148006840F001000F4908606E
:10547000084640680E4908400C49486008460068E4
:105480000C490840094908600846006820F480205B
:1054900008600846406820F4FE0048604FF41F0092
:1054A0008860C8030449086070470000001002408B
:1054B0000000FFF8FFFFF6FE08ED00E010B50E4813
:1054C0000068C06800F0010078B10C4908698047A5
:1054D000002009490968486200BF6420064909683C
:1054E000C86264210448C16000BF6FF00100024936
:1054F0000968086110BD0000E4020020600000207F
:1055000010B50268204B98420ED0204B98420BD029
:10551000B0F1804F08D01E4B984205D01D4B9842E9
:1055200002D01D4B984203D122F070024B681A43FF
:10553000154B98420ED0154B98420BD0B0F1804FCE
:1055400008D0134B984205D0124B984202D0124B10
:10555000984203D122F44072CB681A4322F08003B0
:105560004C6943EA040202608B68C3620B68836281
:10557000054B984202D0054B984201D10B69036359
:105580000123436110BD0000002C014000340140A4
:105590000004004000080040000C004038B50446FC
:1055A0000D4600BF1148C06940F004000F49C861B2
:1055B0000846C06900F00400009000BF00BF03224D
:1055C00011461E20FBF7FBFF1E20FBF7E8FF0848F3
:1055D000084908600846456000218160C460016197
:1055E000FCF794FD0348FCF7ACFD38BD0010024009
:1055F00000080040E402002070B505466C6A0020F7
:10560000E085E0842046FCF7B1FD70BD0168C96803
:1056100021F490710268D1600168496921F00101AB
:1056200002685161202180F83A10704710B5044695
:105630002068C06820F040002168C860202084F8FD
:1056400039002046FCF74EFF002010BD70B504461F
:1056500094F83A0022284AD1A068B0F5805F13D1AF
:10566000A56A206940B920684068C0F30800288016
:10567000A06A801CA06219E020684068C0B228803F
:10568000A06A401CA06211E0206938B92068406817
:10569000C1B2A26A501CA062117007E02068406885
:1056A00000F07F01A26A501CA0621170E08D401EC4
:1056B00080B2E085C8B92068C06820F02000216869
:1056C000C8602068C06820F480702168C8602068C5
:1056D000406920F0010021684861202084F83A00E8
:1056E0002046FCF7BBFE002070BD0020FCE7022036
:1056F000FAE7000070B504462168096921F44051B9
:10570000E2681143226811612269A168114362694C
:1057100041EA02052168C96841F20C6291432943BC
:105720002268D1602168496921F44071A26911435E
:1057300022685161564A2168914254D1FCF79EF982
:1057400000EBC00101EB001162689200B1FBF2F1C5
:1057500000EBC00202EB001263689B00B2FBF3F2A5
:105760006423B2FBF3F202EBC20303EB0212A1EBE0
:105770008201322202EB01116422B1FBF2F101F04D
:10578000F00100EBC00202EB001263689B00B2FB69
:10579000F3F26423B2FBF3F201EB021200EBC0015F
:1057A00001EB001163689B00B1FBF3F100EBC00358
:1057B00003EB00136668B600B3FBF6F36426B3FB95
:1057C000F6F303EBC30606EB0313A1EB83013223CD
:1057D00003EB01116423B1FBF3F101F00F0111445C
:1057E0002268916053E0FCF739F900EBC00101EB4E
:1057F000001162689200B1FBF2F100EBC00202EB13
:10580000001263689B00B2FBF3F26423B2FBF3F275
:1058100002EBC20303EB0212A1EB8201322202EB84
:1058200001116422B1FBF2F101F0F00100EBC002C2
:1058300002EB001263689B00B2FBF3F26423B2FB3D
:10584000F3F201EB021200EBC00101EB00116368FF
:105850009B00B1FBF3F100EBC00303EB00136668A0
:10586000B600B3FBF6F36426B3FBF6F303EBC30613
:1058700006EB0313A1EB8301322303EB0111642335
:10588000B1FBF3F101F00F0111442268916070BD8A
:1058900000380140014691F8390021282CD1886850
:1058A000B0F5805F0FD10A6A1088C0F308000B685A
:1058B0005860086918B9086A801C086209E0086A1B
:1058C000401C086205E00B6A581C086218780B68D7
:1058D0005860C88C401E80B2C88458B90868C06837
:1058E00020F080000B68D8600868C06840F0400075
:1058F0000B68D860002070470220FCE710B5002438
:105900000C48FCF73FFC00BF01E0641C00BF0948E5
:10591000FCF72DFC2028F8D100BF002401E0641C16
:1059200000BF012204490348FCF760FD0028F6D1BE
:1059300000BF10BD1C0200201A00002000BFFEE7BF
:1059400002480068C0F30220704700000CED00E040
:1059500010B5002804DB0A07130E054A135406E0AD
:105960000A07140E034A00F00F031B1FD45410BD86
:1059700000E400E018ED00E030380A2801D20120F0
:1059800070470020704700BF7047000010B5044604
:105990000420FCF78DFB0148046010BD10000020BE
:1059A00030B50446002504E04FF47A7000F004F8A6
:1059B0006D1CA542F8D330BD70B5034600224FF0F0
:1059C000E02675690D4E366803FB06F44FF0E026BD
:1059D000B16910E04FF0E026B06988420BD08842F0
:1059E00002D20E1A324402E02E1A0E44324401460C
:1059F000A24200D300E0EDE700BF70BD1000002020
:105A000000BF054A126802F04002002AF9D0C2B273
:105A1000014B1B1D1A607047003801401CB5FBF795
:105A200083FD4FF4E010FFF7EEFC4820FFF7AEFFD8
:105A30004FF4E13000F088F82E4841685420884740
:105A4000FFF748FCFCF7A0FEFFF7A2FC4FF47840FC
:105A50002949086029A010210B46C822CDE9001071
:105A600032211E20FFF77AFB27A010210B46C82207
:105A7000CDE9001046211E20FFF770FB25A0102164
:105A80000B46C822CDE900105A211E20FFF766FB05
:105A900024A010210B46C822CDE900106E211E2043
:105AA000FFF75CFB1F201449086021A010210B4662
:105AB000C822CDE9001082211E20FFF74FFB17E01E
:105AC000FFF748FC04460020102103232246CDE9BD
:105AD000001082216E20FFF774FB1848006808B997
