:020000040800F2
:10000000A0080020E1010008DF450008631800088F
:10001000DD450008A50500089D540008000000000B
:100020000000000000000000000000006F4E00080B
:10003000A705000800000000A54B0008B54E000809
:10004000FB010008FB010008FB010008FB010008A0
:10005000FB010008FB010008FB010008FB01000890
:10006000FB010008FB010008FB010008FB01000880
:10007000FB010008FB010008FB010008FB01000870
:10008000FB010008FB010008FB010008FB01000860
:10009000FB010008FB010008FB010008F505000852
:1000A000FB010008FB010008FB010008FB01000840
:1000B000FB010008FB010008FB010008FB01000830
:1000C000FB010008FB010008FB010008FB01000820
:1000D000FB01000871540008FB010008FB01000847
:1000E000FB010008FB010008FB010008FB01000800
:1000F000FB010008FB010008FB010008FB010008F0
:10010000FB010008FB010008FB010008FB010008DF
:10011000FB010008FB010008414F0008FB0100083B
:10012000FB010008FB010008FB010008FB010008BF
:1001300000F002F800F045F80AA090E8000C8244B4
:100140008344AAF10107DA4501D100F03AF8AFF291
:10015000090EBAE80F0013F0010F18BFFB1A43F0A5
:1001600001031847D4A20000F4A20000103A24BFF3
:1001700078C878C1FAD8520724BF30C830C144BF0C
:1001800004680C607047000000230024002500264E
:10019000103A28BF78C1FBD8520728BF30C148BFEA
:1001A0000B607047642900F0BB80782900F0F48070
:1001B000732900F0AA81002070471FB51FBD10B53C
:1001C00010BD00F0BDF91146FFF7F7FF05F0B6F9D5
:1001D00000F0DBF903B4FFF7F2FF03BC05F06FF9A1
:1001E0000948804709480047FEE7FEE7FEE7FEE7CB
:1001F000FEE7FEE7FEE7FEE7FEE7FEE70448054907
:10020000054A064B70470000B94E0008310100084E
:10021000A0020020A0080020A0040020A0040020CC
:10022000704700000FB4044910B503AA029800F00B
:1002300071F910BC5DF814FB4C0000200FB41CB524
:10024000074B06AA7B4469460090059800F033F9F5
:100250000020694600F042F91CBC5DF814FB000068
:10026000950200002DE9F0410E4604460020206270
:100270002046E168884730B3252805D0D4E901211C
:100280009047206A401CF2E7E16820460027884733
:10029000050018D0A5F14100192802D820354FF4E7
:1002A00000673246294620462760FFF77BFF40B1B2
:1002B000012804D0F61D26F007060836D8E7361DBB
:1002C000D6E72846DAE7206ABDE8F08170B50C462B
:1002D0000546012A05D02878800600D5EA69002362
:1002E00002E0012305E05B1C934202D2E05C00289F
:1002F000F9D1A869E618C01AA861286A18442862CA
:100300002846AFF3008004E0D5E9012114F8010B81
:100310009047B442F8D32846AFF3008070BD000088
:100320002DE9F0410646002410687529314616A5CE
:1003300010D0AFF30080002802DA404213A507E096
:1003400031688A0701D512A502E0490704D511A535
:10035000012401E0AFF3008000210A2206F1240706
:1003600009E0B0FBF2FCB0FBF2F302FB1C00303002
:1003700078541846491C0028F3D123462A463046B3
:10038000BDE8F04100F038B8000000002D0000008A
:100390002B0000002000000070B504460D462146E9
:1003A0001068AFF300802188090502D50F4A7A440E
:1003B00002E00E4A7A440E32002104F1240305E0E3
:1003C00000F00F060009965D5E54491C0028F7D125
:1003D00020780023000704D5702D02D009B1022334
:1003E00011322046BDE8704000F006B8F09F0000D2
:1003F00070477047704770472DE9F0470D469946A2
:100400009246044600F124080168880604D5E06994
:1004100021F01001216000E00120A84201DD471B0E
:1004200000E00027A1697A1902EB0900081AA0610F
:100430002078C00602D42046AFF30080002608E0F2
:10044000D4E901211AF806009047206A401C761C66
:1004500020624E45F4DB2078C0060AD52046AFF373
:10046000008006E0D4E9012130209047206A401C3A
:100470002062381EA7F10107F4DC07E0D4E901216E
:1004800018F805009047206A401C2062281EA5F13C
:100490000105F3DC2046AFF300802078000602D58A
:1004A0000220BDE8F0870120FBE7000001694A1C3B
:1004B00002610878704700B58FB0CDE901310021A5
:1004C000059105497944CDE9031011466846FFF7C7
:1004D000C9FE0FB000BD0000E5FFFFFF0A6802F88B
:1004E000010B0A60704710B5436913B1AFF3008088
:1004F00001E0FFF7EBFE012010BD127800F12401AE
:100500000A7000224A700122EDE711684FF0FF32B5
:10051000E9E70000074B70B50D467B44FFF7CBFFC2
:100520000446284600F008F810B14FF0FF3070BDC7
:10053000204670BD07500000007B00F0800070472F
:10054000754600F02BF8AE4605006946534620F08C
:100550000700854618B020B5FFF750FEBDE82040E3
:100560004FF000064FF000074FF000084FF0000B6F
:1005700021F00701AC46ACE8C009ACE8C009ACE822
:10058000C009ACE8C0098D46704710B50446AFF30A
:1005900000802046BDE81040FFF71CBE00487047B1
:1005A00040020020FEE770470F4800B5816985B022
:1005B00041F0040181618069694600F00400049003
:1005C0004FF4807000900948019002200290084882
:1005D00000F044F900221146172000F08FFA17208E
:1005E00000F07FFA05B000BD0010024000001110BD
:1005F000000801404FF4807000F024B930B5B3F525
:10060000804F05D06FF0704140F82210002030BDBF
:100610008C690B688D6823434C688989240144EAFE
:100620000524234343EA014150F82230014C234082
:100630001943E9E70000F0CF10B50A6850F82230FE
:1006400023F0010340F822308B68082B23D00022CE
:100650004C681C43CB6813430A691C4314434A6922
:1006600014438A691443CA6914430A6A14434A6AE0
:1006700014438A6A1443CA6A14430A6B14434A6BCC
:100680000968144350F82120044B1A40144340F8E1
:100690002140002010BD4022DAE700008000F0FF7A
:1006A00030B5D1E9003443EA04138C688D89240203
:1006B00044EA054423430C8A094D00EB820005EB14
:1006C000045423430C7D6D0105EB046489692343C5
:1006D0000B43416801F040410B434360002030BDB3
:1006E0000000F0FF2DE9F05F90F8211000240229AE
:1006F00003D004218163012485E001680A6822F0A7
:100700000E020A6001680A6822F001020A603F4E88
:100710003E4FB215DFF8F4C0DFF8F090DFF8ECA040
:10072000DFF8E8B0DFF8E4E00168783F1301150274
:10073000ACF1640CA9F15009AAF13C0AABF1280B09
:10074000AEF1140E4FF48018B14227D9B9420ED041
:10075000614512D049451DD0514518D0594518D092
:10076000714501D1424615E0294EB14201D1012225
:1007700010E0274E1436B14201D110220AE0244E77
:100780002836B14206D0224A3C32914201D11A4663
:1007900000E02A461E49091F0A602BE0B94213D027
:1007A000614517D0494522D051451DD059451DD02E
:1007B000714501D142461AE0B14202D14FF0807238
:1007C00015E0134EB14201D1012210E0104E143653
:1007D000B14201D110220AE00D4E2836B14206D0B6
:1007E0000B4A3C32914201D11A4600E02A460749A1
:1007F00080394A60012180F82110002180F8201002
:10080000416B01B188472046BDE8F09F800002405F
:1008100008040240084B094900201A7812B1C1F8B7
:100820008C017047064AC2F898010120C2F898016D
:10083000C1F88C01187070475900002000802142D7
:1008400000802242044910B50A68024202D00860C2
:10085000FFF7E0FF10BD0000140401402DE9F84F40
:10086000DFF8C091002409F1040A0AF1040B2346C1
:100870004FF00F080BF1040ECCE00127A7403A40DF
:10088000BA4272D1DFF8A0C14D68A5EB0C066545F0
:100890002BD00DDC032D34D005DC35B3012D19D060
:1008A000022D2FD11BE0112D16D0122D2AD119E0C7
:1008B000B6F5881F19D006DCB6F5803F15D0B6F521
:1008C000801F1FD111E0B6F5001F0ED0B6F5041F32
:1008D00018D10AE0CB6815E0CB681B1D12E0CB688D
:1008E00008330FE0CB680C330CE08B682BB1012B85
:1008F0004FF0080303D0476104E0042302E00761DE
:1009000000E00023FF2A01D8064601E000F10406BA
:100910004FEA840501D9A5F12005376808FA05FCDE
:1009200027EA0C0703FA05F547EA050737604D6823
:10093000ED006ED53D4DAE6946F00106AE61AD6984
:1009400024F0030605F001050095394D7719BE68BE
:10095000A5072D0F08FA05FC26EA0C06DFF8D4C01F
:10096000604503D14FF0000C25E052E0DFF8C8C02D
:10097000604502D14FF0010C1DE0DFF8C0C06045BA
:1009800002D14FF0020C16E0DFF8B4C0604502D18E
:100990004FF0030C0FE0DFF8ACC0604502D14FF020
:1009A000040C08E0DFF8A0C0604502D14FF0050C50
:1009B00001E04FF0060C0CFA05FC4CEA060CC7F8F7
:1009C00008C04D68D9F80060ED034D4601D51643C7
:1009D00000E096432E604D68DAF80060AD0355469E
:1009E00001D5164300E096432E604D68DBF80060A9
:1009F000ED025D4601D5164300E096432E604D683A
:100A0000DEF80060AD02754601D5164300E096435E
:100A10002E60641C0A6832FA04F57FF42EAFBDE83C
:100A2000F88F000000040140000011100010024087
:100A30000000014000080140000C0140001001408E
:100A40000014014000180140001C0140806808406B
:100A500000D0012070470AB1016170470904FBE72B
:100A60000148806870470000380000200248816813
:100A7000027811448160704738000020074810B5A3
:100A8000016841F010010160052000F057F80F20C7
:100A900000F006F800F024F8002010BD002002400D
:100AA00070B50D4D04464FF47A712878B1FBF0F023
:100AB0000A490968B1FBF0F000F052FB48B9102C6C
:100AC00007D200222146501E00F018F800206C606A
:100AD00070BD012070BD00003800002034000020EF
:100AE0007047002809DB00F01F02012191404009F6
:100AF000800000F1E020C0F800117047F0B40E4B08
:100B00001B68C3F30223C3F10704042C00D9042497
:100B10001D1D072D01D2002300E0DB1E012606FA71
:100B200004F56D1E0D409D409E40761E164045EA20
:100B30000601F0BC04F0B3BC0CED00E0064A00F086
:100B4000070110684FF6FF03184040EA01200349EF
:100B500008431060704700000CED00E00000FA054B
:100B60002DE9F0470D46040067D0DFF81881D8F86A
:100B7000000000F00700A8420CD2D8F8001021F0C5
:100B800007012943C8F80010D8F8000000F007005A
:100B9000A84252D120683C4E810712D5400703D5A8
:100BA000706840F4E06070602078000703D57068DA
:100BB00040F4605070607068A16820F0F000084355
:100BC00070602078C00727D06068012810D0316895
:100BD000022810D0890700292FDA716821F003015B
:100BE00001437160FFF73CFF074641F288390CE092
:100BF00031688903EFE78901EDE7FFF731FFC11B9A
:100C0000494502D90320BDE8F0877068616800F0AB
:100C10000C00B0EB810FF0D1D8F80010404601F085
:100C20000701A9420BD9016821F00701294301609E
:100C3000006800F00700A84201D00120E3E7207817
:100C4000400705D57068E16820F4E06008437060F3
:100C50002078000706D57068216920F4605040EACA
:100C6000C100706000F038F87168084AC1F30311E0
:100C7000515CC8400649086006480068FFF710FF4D
:100C80000020C0E70020024000100240C85B0008BE
:100C9000340000203C0000200448054900684968F1
:100CA000044AC1F30221515CC8407047340000205F
:100CB00000100240D85B00080448054900684968F4
:100CC000044AC1F3C221515CC8407047340000207F
:100CD00000100240D85B000812A085B00FC88DE854
:100CE0000F0014A0144B006804905968134801F0D9
:100CF0000C02042A10D0082A0ED1C1F38342C90382
:100D00001DF802000AD5596804AAC1F34041515C9C
:100D10000A4A5043B0FBF1F005B070470849484318
:100D2000FAE7000002030405060708090A0B0C0D88
:100D30000E0F1010010200000010024000127A0095
:100D400000093D002DE9F84F04006FD02078BE4D1A
:100D5000C00747D06868C0F38100012807D06868E1
:100D6000C0F38100022809D16868C00306D528684D
:100D7000800337D560680028E7D033E06068B0F5BD
:100D8000803F0BD010B1B0F5A02F11D0286820F40F
:100D900080302860286820F4802002E0286840F431
:100DA00080302860606888B1FFF75AFE064609E087
:100DB000286840F480202860F0E7FFF751FE801B90
:100DC000642873D828688003F7D50BE0FFF748FE46
:100DD000064604E0FFF744FE801B6428F1D828682B
:100DE0008003F7D42078DFF8648280074FF0010A8F
:100DF0004FF0000939D5686810F00C0F07D068680B
:100E0000C0F38100022809D16868C00306D42868AD
:100E1000800714D52069012808D110E02069B0B1FD
:100E2000C8F800A0FFF71CFE064605E007E1FFF743
:100E300017FE801B0228C4D828688007F7D52868C9
:100E4000616920F0F80040EAC10028600DE0C8F8B0
:100E50000090FFF705FE064604E0FFF701FE801B49
:100E6000022823D828688007F7D4207800072CD5DB
:100E70007748A169D9B1C0F800A0FFF7F1FD064697
:100E800004E0FFF7EDFD801B02280FD8686A800799
:100E9000F7D570484FF4FA510068B0FBF1F00090BC
:100EA00000BF0098411E0091FAD20EE07CE0C0F82D
:100EB0000090FFF7D5FD064604E0FFF7D1FD801B4B
:100EC000022871D8686A8007F7D4207840075BD57C
:100ED000E8690027C00008D4E86940F08050E86164
:100EE000E869012700F0805000905B480168C9055F
:100EF00011D40168834641F480710160FFF7B0FDB1
:100F0000064604E0FFF7ACFD801B64284CD8DBF8F4
:100F10000000C005F6D5E06801280AD008B1052810
:100F200013D0286A20F001002862286A20F004000B
:100F300002E0286A40F001002862E06841F2883B44
:100F400088B1FFF78DFD064609E0286A40F00400ED
:100F50002862EEE7FFF784FD811B59455BD8286ABC
:100F60008007F7D50BE0FFF77BFD064604E0FFF7AF
:100F700077FD811B59454ED8286A8007F7D41FB1E9
:100F8000E86920F08050E861E069A8B36968C1F3BE
:100F90008101022946D00228484606D0C8F86000E0
:100FA000FFF75EFD044639E035E04746C8F86000CB
:100FB000FFF756FD064604E0FFF752FD801B0228AE
:100FC00029D828688001F7D4206AB0F5803F05D180
:100FD0006868A16820F4003008436860D4E908011B
:100FE0000843696821F4741108436860C7F860A079
:100FF000FFF736FD044605E023E0FFF731FD001B57
:10100000022808D828688001F7D51AE0FFF728FDE4
:10101000001B022802D90320BDE8F88F2868800150
:10102000F4D40EE00128F7D06868226A00F4803119
:10103000914204D1616A00F47010884201D001200D
:10104000EAE70020E8E7000000100240000042420A
:1010500080044242340000200070004070B5154604
:101060000E46040003D094F8410010B107E00120BF
:1010700070BD002084F84000204600F01DF804F107
:1010800008012068FFF7D8FA3146A2682068FFF708
:1010900007FBD4E901022946236BFFF7AFFAA168E9
:1010A000206850F8212042F0010240F82120012060
:1010B00084F84100002070BD1F4800B5416985B02B
:1010C00041F480714161416901F480710491816949
:1010D00041F020018161816901F020010491816961
:1010E00041F040018161816901F040010491816911
:1010F00041F4807181618069694600F480700490D8
:101100004CF23370009002200190012002900320E5
:1011100003900A48FFF7A2FB4FF6807000906946E3
:101120000748FFF79BFB41F2010000906946054824
:10113000FFF794FB05B000BD001002400014014011
:1011400000180140002001404FF0E0210428086908
:1011500003D020F004000861704740F00400FAE773
:1011600010B5401EB0F1807F01D3012010BD4FF0BB
:10117000E02460610F21601704F091F90020A06164
:1011800007202061002010BD7047704710B5040093
:1011900003D094F83D0010B107E0012010BD0020FD
:1011A00084F83C00204600F00DF8022084F83D0051
:1011B000211D206803F0E0FE012084F83D0000209E
:1011C00010BD000008B500680B49884212D10B48D9
:1011D000C16941F01001C161C069032200F0100033
:1011E000009001213620FFF789FCBDE80840362039
:1011F000FFF777BC08BD000000100040001002405F
:101200000168CA6842F00102CA600068816801F0A2
:101210000701062903D0016841F0010101600020A7
:10122000704770472DE9F041044690F83C000D46A8
:1012300001283BD0012684F83C60022084F83D0060
:101240009AB3042A44D02068082A53D0D5E900274D
:10125000E968036A23F480530362D0F81CC0036A70
:101260002CF4407C4CEA07274FF6FF7C27F47047AC
:101270000CEA01313943770323F4005307EA0232C1
:101280001A43C16102622068C16921F44061C161F1
:101290002068C169AA6841EA0221C16184F83D6001
:1012A000002084F83C00BDE8F08101E00220FAE76C
:1012B000D5E90012EB68206803F0B2FE206881696E
:1012C00021F00C01816120688169AA6811430FE057
:1012D000D5E90012EB68206803F0D8FE2068816928
:1012E00021F44061816120688169AA6841EA022194
:1012F0008161D3E7D5E9002C2F7B016A21F480714D
:101300000162C169036A21F0030141EA0C0121F085
:10131000F00C39074FF400774CEA116123F40073A5
:1013200007EA02221A43C16102622068C16921F002
:101330000C01C1612068C169AA681143ADE710B50D
:10134000040003D094F83D0010B107E0012010BD67
:10135000002084F83C00204600F00CF8022084F8BD
:101360003D00211D206803F007FE012084F83D00A8
:10137000002010BD0F4800B5C16985B041F00801DB
:10138000C161C16901F008010491816941F0040162
:1013900081618069694600F0040004900220009099
:1013A000002001900290032003900348FFF756FAB3
:1013B00005B000BD001002400008014010B5044611
:1013C0000068012203F01EFE2068816801F0070119
:1013D000062903D0016841F001010160002010BD21
:1013E00070B50446006801694FF00005C9438907DC
:1013F00015D4C168C943890711D4E91E01610120D0
:101400002077206880698007204602D0FFF709FF17
:1014100004E000F098F8204600F096F82577206860
:101420000169C943490717D4C168C943490713D49F
:101430006FF004010161022020772068806910F4B8
:10144000407F204602D0FFF7ECFE04E000F07BF87E
:10145000204600F079F8257720680169C94309071B
:1014600016D4C168C943090712D46FF0080101619D
:10147000042020772068C0698007204602D0FFF74B
:10148000D0FE04E000F05FF8204600F05DF825771C
:1014900020680169C943C90617D4C168C943C90690
:1014A00013D46FF010010161082020772068C06913
:1014B00010F4407F204602D0FFF7B3FE04E000F0B6
:1014C00042F8204600F040F8257720680169C943BA
:1014D000C90708D1C168C943C90704D1891E016180
:1014E000204600F033F820680169C943090609D491
:1014F000C168C943090605D46FF080010161204627
:10150000FFF742FE20680169C943490609D4C16852
:10151000C943490605D46FF040010161204600F03F
:1015200042F820680169C94389060BD4C168C943E0
:10153000890607D46FF0200101612046BDE87040A4
:10154000FFF723BE70BD70477047000010B5054916
:10155000884206D1044C05A02178FEF763FE0020E6
:10156000207010BDC00100205A0000206672616D1D
:10157000653A25646670730D0A000000024600207B
:1015800041B1042909D008290AD00C2901D11068D9
:10159000006C70471068406B70471068806B704734
:1015A0001068C06B70477047704710F8391F40785B
:1015B0000843704770B5026804461068D1685369E3
:1015C00010F00F0F50D003F0010501F49076354371
:1015D0005DD0C20705D0CA0503D5E26B42F0010217
:1015E000E263420705D5DA0703D0E26B42F002025C
:1015F000E263820705D5DA0703D0E26B42F004020A
:10160000E263020705D5DA0703D0E26B42F0080275
:10161000E263E26B002A33D0800604D5880602D547
:10162000204603F04BFE20684069E16BC0F3801058
:10163000090700D428B3204603F032FE2068416930
:1016400049061AD5416921F040014161606BA0B1A2
:101650001B494163606BFFF745F8002810D0606BB1
:10166000416BBDE870400847830610D58B060ED548
:101670002046BDE8704003F021BE2046FFF794FFEE
:1016800070BD2046FFF790FF0020E06370BD0306A9
:1016900006D50B0604D52046BDE8704003F0B6BE63
:1016A0004006F3D54806F1D5D168204621F0400127
:1016B000D160202184F8391000F0D2F870BD00000C
:1016C0009152000870B5040004D094F83900002548
:1016D00010B106E0012070BD84F83850204600F0BB
:1016E00023F8242084F839002068C16821F40051CF
:1016F000C160204603F02EFE2068016921F490416C
:1017000001612068416921F02A0141612068C168B6
:1017100041F40051C160E563202084F8390084F869
:101720003A00002070BD000010B500681E4986B068
:10173000884236D11D48816941F004018161816987
:1017400001F004010491816941F480418161816962
:1017500001F480410491816941F001018161806956
:10176000134C00F0010004904FF400700090022030
:101770000190012002900320039069462046FFF764
:101780006DF8211500910021019169462046FFF76F
:1017900065F82520FFF7A5F9032211462520FFF75C
:1017A000ADF906B010BD0000003801400010024045
:1017B0000008014090F83A30202B22D1F9B1F2B163
:1017C00090F83830012B1CD081628285C2850021BF
:1017D000C163222280F83A2080F838100168CA6874
:1017E00042F48072CA6001684A6942F001024A61AB
:1017F0000068C16841F02001C160002070470120ED
:10180000704702207047000030B5006811498842D7
:101810000CD1114A5088010408D4114644040978B7
:101820004FF0000306D50A2901D0538030BD40F4A3
:1018300000400DE00D2909D0C0F30D04074D401CF8
:1018400080B229555080C728EFD830BD40F4804081
:10185000508030BD0038014048000020600000206A
:101860007047FEE770B5144886B0816941F0040105
:101870008161816901F004010491816941F04001B5
:1018800081618069032400F0400004900220012659
:101890000025CDE90204CDE9006569460748FEF759
:1018A000DDFF182003948DE8610069460448FEF7C7
:1018B000D5FF06B070BD00000010024000080140D6
:1018C000001801402DE9F04101262E4C2E4F2F4DDE
:1018D00001281DD02078A0B110212846FFF7B6F8C6
:1018E000C0B108212846FFF7B1F898B10421284675
:1018F000FFF7ACF870B101213846FFF7A7F80128CF
:1019000008D010212846FFF7A1F8012826D037E09B
:101910002670E1E70A2003F0DDFD00202070102191
:101920002846FFF793F880B108212846FFF78EF884
:1019300070B104212846FFF789F858B101213846D3
:10194000FFF784F8012807D01AE00120BDE8F081F4
:101950000220FBE70320F9E70420F7E708212846E7
:10196000FFF774F801280BD104212846FFF76EF821
:10197000012805D101213846FFF768F800B9267023
:101980000020E3E758000020000801400018014053
:1019900070B50646094800240188458820464D4315
:1019A000214602F0EBFB02F0CFFDB1B2044801E0AA
:1019B0000180641CAC42FBD370BD0000B00100206C
:1019C0000008006C2DE9F04F334B2C241946987118
:1019D0002A2589882B2645F2105B4FF4305E4FF4A0
:1019E00048774FF0F00949F2413A4FF4A07845F2B8
:1019F000103C4FF4F07258B1A3F80080A3F80290A5
:101A0000514501D0614529D11C815D819E8139E01C
:101A1000A3F80090A3F80280514501D0614508D198
:101A20001C815D819E81614531D1A3F800805A807F
:101A30002DE0594508D1A3F808E04FF4285058810B
:101A40004FF42C50988106E0A1F5C85063381ED1A0
:101A50001C815E819D811A805F8018E0594508D104
:101A6000A3F808E04FF4285058814FF42C50988187
:101A700006E0A1F5C850633804D11C815D819E81C8
:101A80001F805A80614502D11A80A3F80280BDE808
:101A9000F04F002002F096BAB00100202DE9F0418D
:101AA000364D90460C4602460F0AA8882946160A6B
:101AB0004989A0F51343413B0CD0A0F5A643103B48
:101AC00008D0A0F5AA43103B11D0A0F5C853633B42
:101AD00027D04BE0084602F02BFD304602F01CFDFB
:101AE000D0B202F019FDA88902F022FD38E00846C4
:101AF00002F01EFD304602F00FFD6889401C80B2E6
:101B000002F016FDD0B202F007FDA88902F010FD28
:101B1000384602F001FDA889401C80B202F008FDA1
:101B200021E0A87918B92888801A401E82B2084698
:101B300002F0FEFC160A304602F0EEFCD0B202F0D3
:101B4000EBFC304602F0E8FCD0B202F0E5FCA889DC
:101B500002F0EEFC384602F0DFFCE0B202F0DCFC02
:101B6000384602F0D9FCE0B202F0D6FC04492889DC
:101B70000880891CA1F80080BDE8F081B001002038
:101B8000FE07006C2DE9F0431F468146A2EB0900D9
:101B9000079B401C0C4686B29DB2DFF82C800FE0FC
:101BA0002146484602F0EAFA02F0CEFC0020414607
:101BB00002E00D80401C80B2B042FAD3641CA4B293
:101BC000BC42EDD9BDE8F0830008006C2DE9F04F70
:101BD000FE4895B0816941F00801816180694FF04C
:101BE000010900F008000090CDF844900325CDF8DD
:101BF0004890CDE9139511A9F548FEF72FFEF54859
:101C00004FF02044F44906220460C0E9011200218B
:101C10001023C160C0E9041381611B02C161C0E9E6
:101C200009139B00C0E90B13416381631A200A92D8
:101C3000CDE90B10CDE9041210910691099103959D
:101C400003AA0AA9E348FFF709FA322003F042FC8D
:101C5000D32002F06DFC02F085F9DE4A4832908014
:101C600002F080F9908002F07DF94FF6FF7B0BEADD
:101C70000020908002F076F9918849F2413A0843B9
:101C8000908045F2103645F2105541F663175045E5
:101C900048D0D42002F04CFC02F064F9908002F0AD
:101CA00061F9908002F05EF90BEA0020D84690803E
:101CB00002F058F9918808439080B04232D04FF436
:101CC0005A4002F035FC02F04DF990804FF45B4031
:101CD00002F02EFC02F046F908EA002090804FF452
:101CE0005C4002F025FC02F03DF9918808439080A9
:101CF000B0F5004F7ED0A84214D0A12002F018FC0D
:101D000002F030F9908002F02DF908EA002090806E
:101D100002F028F991880843A0F5AE41908061391E
:101D200000D1978090469188ACA0FEF77BFAB8F876
:101D3000040050457ED1CF2002F0FAFB002002F0D3
:101D4000EBFBC12002F0E8FB302002F0E5FBED20C8
:101D500002F0EEFB642002F0DFFB032002F0DCFB6C
:101D6000122002F0D9FB812002F0D6FBE82002F01D
:101D7000DFFB852002F0D0FB102002F0CDFB7A20A3
:101D800002F0CAFBCB2002F0D3FB392002F0C4FBE7
:101D90002C2002F0C1FB002002F0BEFB342002F038
:101DA000BBFB022002F0B8FBF72002F0C1FB2020B1
:101DB00002F0B2FBEA2002F0BBFB002002F0ACFB19
:101DC000002002F0A9FBC02002F0B2FB1B2002F0B1
:101DD000A3FBC12002F0ACFB012002F09DFBC5205B
:101DE00002F0A6FB302002F097FB302002F094FBBB
:101DF000C72000E0B7E002F09BFBB72002F08CFBAD
:101E0000362002F095FB482002F086FB3A2002F0D3
:101E10008FFB552002F080FBB12002F089FB0020EF
:101E200002F07AFB1A2002F077FBB62002F080FB6A
:101E30000A2000E099E002F06FFBA22002F06CFBA8
:101E4000F22002F075FB002002F066FB262002F073
:101E50006FFB012002F060FBE02002F069FB0F2025
:101E600002F05AFB2A2002F057FB282002F054FB14
:101E7000082002F051FB0E2002F04EFB082002F079
:101E80004BFB542002F048FBA92002F045FB432005
:101E900002F042FB0A2002F03FFB0F2002F03CFB65
:101EA000002002F039FB002002F036FB002002F097
:101EB00033FB002002F030FBE12002F039FB002070
:101EC00002F02AFB152002F027FB172002F024FB6A
:101ED000072002F021FB112002F01EFB062002F079
:101EE0001BFB2B2002F018FB562002F015FB3C20B8
:101EF00002F012FB052002F00FFB102002F00CFB99
:101F00000F2002F009FB3F2002F006FB3F2002F009
:101F100003FB0F2002F000FB2B2002F009FB002046
:101F200002F0FAFA002002F0F7FA012002F0F4FAC7
:101F30003F2002F0F1FA2A2002F0FAFA002002F023
:101F4000EBFA002002F0E8FA002002F0E5FAEF20B8
:101F500002F0E2FA112002F0EBFA782003F0BAFA6C
:101F6000292001F011BF9580DCE6B0427ED1ED2042
:101F700002F0DEFA012002F0CFFAFE2002F0CCFAE5
:101F8000EE2002F0D5FADE2002F0C6FA212002F09F
:101F9000C3FAF12002F0CCFA012002F0BDFADF20F2
:101FA00002F0C6FA102002F0B7FAC42002F0C0FA1C
:101FB0008F2002F0B1FAC62002F0BAFA002002F037
:101FC000ABFAE22002F0A8FAE2200FE00010024093
:101FD000000C014068010020040100A0204C434493
:101FE0002049443A25780D0A0000000002F094FAD6
:101FF000E22002F091FABF2002F09AFAAA2002F041
:102000008BFAB02002F094FA0D2002F085FA00203D
:1020100002F082FA0D2002F07FFA002002F07CFA32
:10202000112002F079FA002002F076FA192002F06D
:1020300073FA002002F070FA212002F06DFA0020FD
:1020400002F06AFA2D2002F067FA002002F064FA2A
:102050003D2002F061FA002002F05EFA5D2002F0FD
:102060005BFA002002F058FA5D2000E0FEE302F087
:1020700053FA002002F050FAB12002F059FA802001
:1020800002F04AFA002002F047FA8B2002F044FAEC
:10209000002002F041FA962002F03EFA002002F001
:1020A0003BFAB22002F044FA002002F035FA002098
:1020B00002F032FA022002F02FFA002002F02CFA8D
:1020C000032002F029FA002002F026FAB32002F0E1
:1020D0002FFA002002F020FA002002F01DFA002062
:1020E00002F01AFA002002F017FA002002F014FAA7
:1020F000002002F011FA002002F00EFA002002F097
:102100000BFA002002F008FA002002F005FA002085
:1021100002F002FA002002F0FFF9002002F0FCF9C0
:10212000002002F0F9F9002002F0F6F9002002F098
:10213000F3F9002002F0F0F9002002F0EDF90020A0
:1021400002F0EAF9002002F0E7F9002002F0E4F9D9
:10215000002002F0E1F9002002F0DEF9002002F098
:10216000DBF9B42002F0E4F98B2002F0D5F900206D
:1021700002F0D2F9962002F0CFF9002002F0CCF95B
:10218000A12002F0C9F9002002F0C6F9B52002F042
:10219000CFF9022002F0C0F9002002F0BDF90320BF
:1021A00002F0BAF9002002F0B7F9042002F0B4F905
:1021B000002002F0B1F9B62002F0BAF9002002F0D6
:1021C000ABF9002002F0A8F9B72002F0B1F9002025
:1021D00002F0A2F9002002F09FF93F2002F09CF9E2
:1021E000002002F099F95E2002F096F9002002F03A
:1021F00093F9642002F090F9002002F08DF98C2010
:1022000002F08AF9002002F087F9AC2002F084F98C
:10221000002002F081F9DC2002F07EF9002002F0BB
:102220007BF9702002F078F9002002F075F9902017
:1022300002F072F9002002F06FF9EB2002F06CF965
:10224000002002F069F9DC2002F066F9002002F0BB
:1022500063F9B82002F06CF9002002F05DF900206B
:1022600002F05AF9002002F057F9002002F054F968
:10227000002002F051F9002002F04EF9002002F097
:102280004BF9002002F048F9BA2002F051F924205D
:1022900002F042F9002002F03FF9002002F03CF980
:1022A000002002F039F9C12002F042F9202002F0AA
:1022B00033F9002002F030F9542002F02DF900200B
:1022C00002F02AF9FF2002F027F9002002F024F999
:1022D000C22002F02DF90A2002F01EF9002002F0BF
:1022E0001BF9042002F018F9002002F015F9C320B0
:1022F00002F01EF93C2002F00FF9002002F00CF968
:102300003A2002F009F9002002F006F9392002F023
:1023100003F9002002F000F9372002F0FDF8002058
:1023200002F0FAF83C2002F0F7F8002002F0F4F88E
:10233000362002F0F1F8002002F0EEF8322002F030
:10234000EBF8002002F0E8F82F2002F0E5F800207A
:1023500002F0E2F82C2002F0DFF8002002F0DCF8B6
:10236000292002F0D9F8002002F0D6F8262002F049
:10237000D3F8002002F0D0F8242002F0CDF800209D
:1023800002F0CAF8242002F0C7F8002002F0C4F8D6
:10239000232002F0C1F8002002F0BEF83C2002F039
:1023A000BBF8002002F0B8F8362002F0B5F80020A3
:1023B00002F0B2F8322002F0AFF8002002F0ACF8E0
:1023C0002F2002F0A9F8002002F0A6F82C2002F03D
:1023D000A3F8002002F0A0F8292002F09DF80020C8
:1023E00002F09AF8262002F097F8002002F094F804
:1023F000242002F091F8002002F08EF8242002F050
:102400008BF8002002F088F8232002F085F80020E5
:1024100002F082F8C42002F08BF8622002F07CF80F
:10242000002002F079F8052002F076F8002002F092
:1024300073F8842002F070F8002002F06DF8F020AC
:1024400002F06AF8002002F067F8182002F064F841
:10245000002002F061F8A42002F05EF8002002F0F3
:102460005BF8182002F058F8002002F055F85020D0
:1024700002F052F8002002F04FF80C2002F04CF865
:10248000002002F049F8172002F046F8002002F080
:1024900043F8952002F040F8002002F03DF8F320C8
:1024A00002F03AF8002002F037F8E62002F034F8A3
:1024B000002002F031F8C52002F03AF8322002F094
:1024C0002BF8002002F028F8442002F025F8002024
:1024D00002F022F8652002F01FF8002002F01CF83C
:1024E000762002F019F8002002F016F8882002F099
:1024F00013F8002002F010F8C62002F019F820208E
:1025000002F00AF8002002F007F8172002F004F8A1
:10251000002002F001F8012001F0FEFF002001F090
:10252000FBFFC72002F004F8002001F0F5FF0020B7
:1025300001F0F2FF002001F0EFFF002001F0ECFFBE
:10254000C82001F0F5FF002001F0E6FF002001F0B7
:10255000E3FF002001F0E0FF002001F0DDFFC920D3
:1025600001F0E6FF002001F0D7FF002001F0D4FFCA
:10257000002001F0D1FF002001F0CEFF002001F08B
:10258000CBFF002001F0C8FF002001F0C5FF0020B4
:1025900001F0C2FF002001F0BFFF002001F0BCFFEE
:1025A000002001F0B9FF002001F0B6FF002001F08B
:1025B000B3FF002001F0B0FF002001F0ADFF0020CC
:1025C00001F0AAFFE02001F0B3FF162001F0A4FF04
:1025D000002001F0A1FF1C2001F09EFF002001F06F
:1025E0009BFF212001F098FF002001F095FF36208D
:1025F00001F092FF002001F08FFF462001F08CFFD8
:10260000002001F089FF522001F086FF002001F038
:1026100083FF642001F080FF002001F07DFF7A201D
:1026200001F07AFF002001F077FF8B2001F074FFAA
:10263000002001F071FF992001F06EFF002001F0F1
:102640006BFFA82001F068FF002001F065FFB920B2
:1026500001F062FF002001F05FFFC42001F05CFF89
:10266000002001F059FFCA2001F056FF002001F0C0
:1026700053FFD22001F050FF002001F04DFFD92080
:1026800001F04AFF002001F047FFE02001F044FF85
:10269000002001F041FFF32001F03EFF002001F097
:1026A0003BFFE12001F044FF162001F035FF002040
:1026B00001F032FF1C2001F02FFF002001F02CFF61
:1026C000222001F029FF002001F026FF362001F032
:1026D00023FF002001F020FF452001F01DFF002016
:1026E00001F01AFF522001F017FF002001F014FF43
:1026F000642001F011FF002001F00EFF7A2001F0AC
:102700000BFF002001F008FF8B2001F005FF0020E7
:1027100001F002FF992001F0FFFE002001F0FCFE15
:10272000A82001F0F9FE002001F0F6FEB92001F02A
:10273000F3FE002001F0F0FEC42001F0EDFE0020C9
:1027400001F0EAFECA2001F0E7FE002001F0E4FEFD
:10275000D22001F0E1FE002001F0DEFED82001F0E1
:10276000DBFE002001F0D8FEE02001F0D5FE0020C5
:1027700001F0D2FEF32001F0CFFE002001F0CCFEEC
:10278000E22001F0D5FE052001F0C6FE002001F098
:10279000C3FE0B2001F0C0FE002001F0BDFE1B2097
:1027A00001F0BAFE002001F0B7FE342001F0B4FEC3
:1027B000002001F0B1FE442001F0AEFE002001F047
:1027C000ABFE4F2001F0A8FE002001F0A5FE612025
:1027D00001F0A2FE002001F09FFE792001F09CFE96
:1027E000002001F099FE882001F096FE002001F003
:1027F00093FE972001F090FE002001F08DFEA620B0
:1028000001F08AFE002001F087FEB72001F084FE6F
:10281000002001F081FEC22001F07EFE002001F0C8
:102820007BFEC72001F078FE002001F075FED1206C
:1028300001F072FE002001F06FFED62001F06CFE68
:10284000002001F069FEDD2001F066FE002001F0AD
:1028500063FEF32001F060FE002001F05DFEE32046
:1028600001F066FE052001F057FE00E00AE30020BB
:1028700001F052FE0A2001F04FFE002001F04CFE54
:102880001C2001F049FE002001F046FE332001F03B
:1028900043FE002001F040FE442001F03DFE0020F8
:1028A00001F03AFE502001F037FE002001F034FE26
:1028B000622001F031FE002001F02EFE782001F0B0
:1028C0002BFE002001F028FE882001F025FE0020CC
:1028D00001F022FE972001F01FFE002001F01CFEF7
:1028E000A62001F019FE002001F016FEB72001F02D
:1028F00013FE002001F010FEC22001F00DFE0020AA
:1029000001F00AFEC72001F007FE002001F004FEDE
:10291000D12001F001FE002001F0FEFDD52001F0E4
:10292000FBFD002001F0F8FDDD2001F0F5FD0020A9
:1029300001F0F2FDF32001F0EFFD002001F0ECFDCD
:10294000E42001F0F5FD012001F0E6FD002001F09A
:10295000E3FD012001F0E0FD002001F0DDFD02209B
:1029600001F0DAFD002001F0D7FD2A2001F0D4FDAE
:10297000002001F0D1FD3C2001F0CEFD002001F04F
:10298000CBFD4B2001F0C8FD002001F0C5FD5D200E
:1029900001F0C2FD002001F0BFFD742001F0BCFD7C
:1029A000002001F0B9FD842001F0B6FD002001F007
:1029B000B3FD932001F0B0FD002001F0ADFDA22099
:1029C00001F0AAFD002001F0A7FDB32001F0A4FD55
:1029D000002001F0A1FDBE2001F09EFD002001F0CD
:1029E0009BFDC42001F098FD002001F095FDCD2055
:1029F00001F092FD002001F08FFDD32001F08CFD4D
:102A0000002001F089FDDD2001F086FD002001F0AD
:102A100083FDF32001F080FD002001F07DFDE52025
:102A200001F086FD002001F077FD002001F074FD2B
:102A3000002001F071FD002001F06EFD022001F088
:102A40006BFD002001F068FD292001F065FD0020EC
:102A500001F062FD3C2001F05FFD002001F05CFD13
:102A60004B2001F059FD002001F056FD5D2001F0E2
:102A700053FD002001F050FD742001F04DFD0020B9
:102A800001F04AFD842001F047FD002001F044FDE3
:102A9000932001F041FD002001F03EFDA22001F055
:102AA0003BFD002001F038FDB32001F035FD002092
:102AB00001F032FDBE2001F02FFD002001F02CFDC1
:102AC000C42001F029FD002001F026FDCD2001F0F9
:102AD00023FD002001F020FDD32001F01DFD00208A
:102AE00001F01AFDDC2001F017FD002001F014FDBB
:102AF000F32001F011FD002001F00EFDE62001F0B1
:102B000017FD112001F008FD002001F005FD342023
:102B100001F002FD002001F0FFFC562001F0FCFC5A
:102B2000002001F0F9FC762001F0F6FC002001F015
:102B3000F3FC772001F0F0FC002001F0EDFC6620B2
:102B400001F0EAFC002001F0E7FC882001F0E4FC41
:102B5000002001F0E1FC992001F0DEFC002001F0F2
:102B6000DBFCBB2001F0D8FC002001F0D5FC992053
:102B700001F0D2FC002001F0CFFC662001F0CCFC7B
:102B8000002001F0C9FC552001F0C6FC002001F036
:102B9000C3FC552001F0C0FC002001F0BDFC452025
:102BA00001F0BAFC002001F0B7FC432001F0B4FCB6
:102BB000002001F0B1FC442001F0AEFC002001F047
:102BC000ABFCE72001F0B4FC322001F0A5FC0020B2
:102BD00001F0A2FC552001F09FFC002001F09CFCBC
:102BE000762001F099FC002001F096FC662001F0AF
:102BF00093FC002001F090FC672001F08DFC002088
:102C000001F08AFC672001F087FC002001F084FCC1
:102C1000872001F081FC002001F07EFC992001F06A
:102C20007BFC002001F078FCBB2001F075FC00204B
:102C300001F072FC992001F06FFC002001F06CFCA7
:102C4000772001F069FC002001F066FC442001F0CF
:102C500063FC002001F060FC562001F05DFC0020C8
:102C600001F05AFC232001F057FC002001F054FC35
:102C7000332001F051FC002001F04EFC452001F012
:102C80004BFC002001F048FCE82001F051FC002042
:102C900001F042FC002001F03FFC992001F03CFCD7
:102CA000002001F039FC872001F036FC002001F003
:102CB00033FC882001F030FC002001F02DFC77204F
:102CC00001F02AFC002001F027FC662001F024FC22
:102CD000002001F021FC882001F01EFC002001F002
:102CE0001BFCAA2001F018FC002001F015FCBB2001
:102CF00001F012FC002001F00FFC992001F00CFC07
:102D0000002001F009FC662001F006FC002001F023
:102D100003FC552001F000FC002001F0FDFB5520D4
:102D200001F0FAFB002001F0F7FB442001F0F4FB76
:102D3000002001F0F1FB442001F0EEFB002001F047
:102D4000EBFB552001F0E8FB002001F0E5FBE9205A
:102D500001F0EEFBAA2001F0DFFB002001F0DCFB1C
:102D6000002001F0D9FB002001F0D6FB002001F08B
:102D7000DFFBAA2001F0D0FBCF2001F0D9FB00201F
:102D800001F0CAFB002001F0C7FB002001F0C4FBEA
:102D9000002001F0C1FB002001F0BEFB002001F08B
:102DA000BBFB002001F0B8FB002001F0B5FB0020C8
:102DB00001F0B2FB002001F0AFFB002001F0ACFB02
:102DC000002001F0A9FB002001F0A6FB002001F08B
:102DD000A3FB002001F0A0FB002001F09DFB0020E0
:102DE00001F09AFBF02001F0A3FB002001F094FB1E
:102DF000502001F091FB002001F08EFB002001F03B
:102E00008BFB002001F088FBF32001F091FB0020F8
:102E100001F082FBF92001F08BFB062001F07CFB26
:102E2000102001F079FB292001F076FB002001F051
:102E300073FB3A2001F07CFB552001F06DFB112063
:102E400001F076FB642002F045FB292001F070FBC5
:102E5000352001F06DFB002001F05EFB512001F0F8
:102E600067FBFF2001F058FB532001F061FB2C2091
:102E700001F052FB552001F05BFB822001F04CFB7E
:102E80002C20FDE3A8427CD14FF470435521184615
:102E900001F064FBAA214FF2010001F05FFB522117
:102EA0004FF2020001F05AFB08214FF2030001F03B
:102EB00055FB01214FF2040001F050FB0D214FF4AE
:102EC000304001F04BFB0D214BF2010001F046FBBD
:102ED0000D214BF2020001F041FB34214FF436404A
:102EE00001F03CFB34214BF2016001F037FB34214F
:102EF0004BF2026001F032FB0D214FF4314001F042
:102F00002DFB0D214BF2011001F028FB0D214BF29E
:102F1000021001F023FB34214FF4374001F01EFB77
:102F200034214BF2017001F019FB34214BF2027095
:102F300001F014FB00214FF4324001F00FFB00219F
:102F40004BF2012001F00AFB00214BF2022001F0BC
:102F500005FB24214FF4384001F000FB24214BF6FF
:102F6000010001F0FBFA24214BF6020001F0F6FA11
:102F700001214FF43F4001F0F1FA0F214FF43340AB
:102F800000E0FCE301F0EAFA0F214BF2013001F01E
:102F9000E5FA0F214BF2023001F0E0FA34214FF450
:102FA000394001F0DBFA34214BF6011001F0D6FA7A
:102FB00034214BF6021001F0D1FA08214FF43540CC
:102FC00001F0CCFA08214BF2015001F0C7FA0821B8
:102FD0004BF2025001F0C2FA03214FF4424001F0DB
:102FE000BDFA24214FF43A4001F0B8FA24214BF6FF
:102FF000012001F0B3FA24214BF6022001F0AEFAD1
:1030000000214FF43C4001F0A9FA78214BF6014031
:1030100001F0A4FA00214BF6024001F09FFA0021D2
:103020004FF43D4001F09AFA78214BF6015001F03F
:1030300095FA00214BF6025001F090FA00214FF46E
:103040003E4001F08BFA64214BF6016001F086FAF4
:1030500000214FF4514001F081FA33214DF201106B
:1030600001F07CFA00214DF2021001F077FA3421D0
:103070004DF2031001F072FA00214DF2041001F03C
:103080006DFA3A214DF2051001F068FA00214DF277
:10309000061001F063FA4A214DF2071001F05EFAC2
:1030A00000214DF2081001F059FA5C214DF209108F
:1030B00001F054FA00214DF20A1001F04FFA81217B
:1030C0004DF20B1001F04AFA00214DF20C1001F004
:1030D00045FAA6214DF20D1001F040FA00214DF203
:1030E0000E1001F03BFAE5214DF20F1001F036FA17
:1030F00001214DF2101001F031FA13214DF211109F
:1031000001F02CFA01214DF2121001F027FA54219E
:103110004DF2131001F022FA01214DF2141001F0CA
:103120001DFA82214DF2151001F018FA01214DF21D
:10313000161001F013FACA214DF2171001F00EFA21
:1031400002214DF2181001F009FA00214DF2191078
:1031500001F004FA02214DF21A1001F0FFF90121E9
:103160004DF21B1001F0FAF902214DF21C1001F092
:10317000F5F934214DF21D1001F0F0F902214DF264
:103180001E1001F0EBF967214DF21F1001F0E6F976
:1031900002214DF2201001F0E1F984214DF22110BD
:1031A00001F0DCF902214DF2221001F0D7F9A4213F
:1031B0004DF2231001F0D2F902214DF2241001F05A
:1031C000CDF9B7214DF2251001F0C8F902214DF2D9
:1031D000261001F0C3F9CF214DF2271001F0BEF9FE
:1031E00002214DF2281001F0B9F9DE214DF229102B
:1031F00001F0B4F902214DF22A1001F0AFF9F221E9
:103200004DF22B1001F0AAF902214DF22C1001F021
:10321000A5F9FE214DF22D1001F0A0F903214DF288
:103220002E1001F09BF910214DF22F1001F096F9AC
:1032300003214DF2301001F091F933214DF231109C
:1032400001F08CF903214DF2321001F087F96D2164
:103250004DF2331001F082F900214FF4524001F099
:103260007DF933214DF2012001F078F900214DF272
:10327000022001F073F934214DF2032001F06EF9C0
:1032800000214DF2042001F069F93A214DF20520A8
:1032900001F064F900214DF2062001F05FF94A21A6
:1032A0004DF2072001F05AF900214DF2082001F0FB
:1032B00055F95C214DF2092001F050F900214DF241
:1032C0000A2001F04BF981214DF20B2001F046F963
:1032D00000214DF20C2001F041F9A6214DF20D2004
:1032E00001F03CF900214DF20E2001F037F9E52103
:1032F0004DF20F2001F032F901214DF2102001F0C2
:103300002DF913214DF2112001F028F901214DF280
:10331000122001F023F954214DF2132001F01EF97F
:1033200001214DF2142001F019F982214DF21520EE
:1033300001F014F901214DF2162001F00FF9CA2114
:103340004DF2172001F00AF902214DF2182001F088
:1033500005F900214DF2192001F000F902214DF28A
:103360001A2001F0FBF801214DF21B2001F0F6F8C4
:1033700002214DF21C2001F0F1F834214DF21D2004
:1033800001F0ECF802214DF21E2001F0E7F8672170
:103390004DF21F2001F0E2F802214DF2202001F051
:1033A000DDF884214DF2212001F0D8F802214DF200
:1033B000222001F0D3F8A4214DF2232001F0CEF811
:1033C00002214DF2242001F0C9F8B7214DF2252049
:1033D00001F0C4F802214DF2262001F0BFF8CF2100
:1033E0004DF2272001F0BAF802214DF2282001F019
:1033F000B5F8DE214DF2292001F0B0F802214DF29E
:103400002A2001F0ABF8F2214DF22B2001F0A6F8B2
:1034100002214DF22C2001F0A1F8FE214DF22D20C9
:1034200001F09CF803214DF22E2001F097F81021B5
:103430004DF22F2001F092F803214DF2302001F0DF
:103440008DF833214DF2312001F088F803214DF23F
:10345000322001F083F86D214DF2332001F07EF827
:1034600000214FF4534001F079F833214DF201303F
:1034700001F074F800214DF2023001F06FF83421B0
:103480004DF2033001F06AF800214DF2043001F0F2
:1034900065F83A214DF2053001F060F800214DF257
:1034A000063001F05BF84A214DF2073001F056F882
:1034B00000214DF2083001F051F85C214DF2093045
:1034C00001F04CF800214DF20A3001F047F881215B
:1034D0004DF20B3001F042F800214DF20C3001F0BA
:1034E0003DF8A6214DF20D3001F038F800214DF2E3
:1034F0000E3001F033F8E5214DF20F3001F02EF8D7
:1035000001214DF2103001F029F813214DF2113054
:1035100001F024F801214DF2123001F01FF854217E
:103520004DF2133001F01AF801214DF2143001F080
:1035300015F882214DF2153001F010F801214DF2FD
:10354000163001F00BF8CA214DF2173001F006F8E1
:1035500002214DF2183001F001F800214DF219302E
:1035600000F0FCFF02214DF21A3000F0F7FF0121BC
:103570004DF21B3000F0F2FF02214DF21C3000F042
:10358000EDFF34214DF21D3000F0E8FF02214DF235
:103590001E3000F0E3FF67214DF21F3000F0DEFF28
:1035A00002214DF2203000F0D9FF84214DF221306C
:1035B00000F0D4FF02214DF2223000F0CFFFA42111
:1035C0004DF2233000F0CAFF02214DF2243000F00A
:1035D000C5FFB7214DF2253000F0C0FF02214DF2AA
:1035E000263000F0BBFFCF214DF2273000F0B6FFB0
:1035F00002214DF2283000F0B1FFDE214DF22930DA
:1036000000F0ACFF02214DF22A3000F0A7FFF221BA
:103610004DF22B3000F0A2FF02214DF22C3000F0D1
:103620009DFFFE214DF22D3000F098FF03214DF259
:103630002E3000F093FF10214DF22F3000F08EFF5E
:1036400003214DF2303000F089FF33214DF231304B
:1036500000F084FF03214DF2323000F07FFF6D2136
:103660004DF2333000F07AFF00214FF4544000F067
:1036700075FF33214DF2014000F070FF002100E0A2
:1036800082E34DF2024000F069FF34214DF2034025
:1036900000F064FF00214DF2044000F05FFF3A218A
:1036A0004DF2054000F05AFF00214DF2064000F0B7
:1036B00055FF4A214DF2074000F050FF00214DF226
:1036C000084000F04BFF5C214DF2094000F046FF3E
:1036D00000214DF20A4000F041FF81214DF20B40E4
:1036E00000F03CFF00214DF20C4000F037FFA62116
:1036F0004DF20D4000F032FF00214DF20E4000F07F
:103700002DFFE5214DF20F4000F028FF01214DF281
:10371000104000F023FF13214DF2114000F01EFF76
:1037200001214DF2124000F019FF54214DF21340D7
:1037300000F014FF01214DF2144000F00FFF822130
:103740004DF2154000F00AFF01214DF2164000F045
:1037500005FFCA214DF2174000F000FF02214DF293
:10376000184000F0FBFE00214DF2194000F0F6FE7B
:1037700002214DF21A4000F0F1FE012100E006E3C3
:103780004DF21B4000F0EAFE02214DF21C4000F019
:10379000E5FE34214DF21D4000F0E0FE02214DF225
:1037A0001E4000F0DBFE67214DF21F4000F0D6FE08
:1037B00002214DF2204000F0D1FE84214DF2214043
:1037C00000F0CCFE02214DF2224000F0C7FEA42101
:1037D0004DF2234000F0C2FE02214DF2244000F0E1
:1037E000BDFEB7214DF2254000F0B8FE02214DF29A
:1037F000264000F0B3FECF214DF2274000F0AEFE90
:1038000002214DF2284000F0A9FEDE214DF22940B0
:1038100000F0A4FE02214DF22A4000F09FFEF221AA
:103820004DF22B4000F09AFE02214DF22C4000F0A8
:1038300095FEFE214DF22D4000F090FE03214DF249
:103840002E4000F08BFE10214DF22F4000F086FE3E
:1038500003214DF2304000F081FE33214DF2314022
:1038600000F07CFE03214DF2324000F077FE6D2126
:103870004DF2334000F072FE00214FF4554000F04D
:103880006DFE33214DF2015000F068FE00214DF233
:10389000025000F063FE34214DF2035000F05EFE52
:1038A00000214DF2045000F059FE3A214DF205502E
:1038B00000F054FE00214DF2065000F04FFE4A2168
:1038C0004DF2075000F04AFE00214DF2085000F082
:1038D00045FE5C214DF2095000F040FE00214DF202
:1038E0000A5000F03BFE81214DF20B5000F036FEF5
:1038F00000214DF20C5000F031FEA6214DF20D508A
:1039000000F02CFE00214DF20E5000F027FEE521C4
:103910004DF20F5000F022FE01214DF2105000F048
:103920001DFE13214DF2115000F018FE01214DF241
:10393000125000F013FE54214DF2135000F00EFE11
:1039400001214DF2145000F009FE82214DF2155074
:1039500000F004FE01214DF2165000F0FFFDCA21D7
:103960004DF2175000F0FAFD02214DF2185000F010
:10397000F5FD00214DF2195000F0F0FD02214DF24D
:103980001A5000F0EBFD01214DF21B5000F0E6FD56
:1039900002214DF21C5000F0E1FD34214DF21D508A
:1039A00000F0DCFD02214DF21E5000F0D7FD672132
:1039B0004DF21F5000F0D2FD02214DF2205000F0D8
:1039C000CDFD84214DF2215000F0C8FD02214DF2C1
:1039D000225000F0C3FDA4214DF2235000F0BEFDA3
:1039E00002214DF2245000F0B9FDB7214DF22550CF
:1039F00000F0B4FD02214DF2265000F0AFFDCF21C2
:103A00004DF2275000F0AAFD02214DF2285000F09F
:103A1000A5FDDE214DF2295000F0A0FD02214DF25E
:103A20002A5000F09BFDF2214DF22B5000F096FD44
:103A300002214DF22C5000F091FDFE214DF22D504F
:103A400000F08CFD03214DF22E5000F087FD102177
:103A50004DF22F5000F082FD03214DF2305000F066
:103A60007DFD33214DF2315000F078FD03214DF200
:103A7000325000F073FD6D214DF2335000F06EFDB9
:103A800000214FF4564000F069FD33214DF20160F2
:103A900000F064FD00214DF2026000F05FFD342172
:103AA0004DF2036000F05AFD00214DF2046000F079
:103AB00055FD3A214DF2056000F050FD00214DF218
:103AC000066000F04BFD4A214DF2076000F046FD14
:103AD00000214DF2086000F041FD5C214DF20960CB
:103AE00000F03CFD00214DF20A6000F037FD81211D
:103AF0004DF20B6000F032FD00214DF20C6000F041
:103B00002DFDA6214DF20D6000F028FD00214DF2A3
:103B10000E6000F023FDE5214DF20F6000F01EFD68
:103B200001214DF2106000F019FD13214DF21160DA
:103B300000F014FD01214DF2126000F00FFD542140
:103B40004DF2136000F00AFD01214DF2146000F007
:103B500005FD82214DF2156000F000FD01214DF2BE
:103B6000166000F0FBFCCA214DF2176000F0F6FC75
:103B700002214DF2186000F0F1FC00214DF21960B5
:103B800000F0ECFC02214DF21A6000F0E7FC01218C
:103B90004DF21B6000F0E2FC02214DF21C6000F0CF
:103BA000DDFC34214DF21D6000F0D8FC02214DF205
:103BB0001E6000F0D3FC67214DF21F6000F0CEFCC8
:103BC00002214DF2206000F0C9FC84214DF22160F9
:103BD00000F0C4FC02214DF2226000F0BFFCA421E1
:103BE0004DF2236000F0BAFC02214DF2246000F097
:103BF000B5FCB7214DF2256000F0B0FC02214DF27A
:103C0000266000F0ABFCCF214DF2276000F0A6FC4F
:103C100002214DF2286000F0A1FCDE214DF2296066
:103C200000F09CFC02214DF22A6000F097FCF2218A
:103C30004DF22B6000F092FC02214DF22C6000F05E
:103C40008DFCFE214DF22D6000F088FC03214DF229
:103C50002E6000F083FC10214DF22F6000F07EFCFE
:103C600003214DF2306000F079FC33214DF23160D8
:103C700000F074FC03214DF2326000F06FFC6D2106
:103C80004DF2336000F06AFC5521184600F066FCE6
:103C9000AA214FF2010000F061FC52214FF2020014
:103CA00000F05CFC08214FF2030000F057FC0021FB
:103CB0004FF2040000F052FCCC214FF4314000F0F0
:103CC0004DFC00214BF2011000F048FC05214FF49F
:103CD000364000F043FC70214FF4374000F03EFCCA
:103CE00070214BF2017000F039FC01214FF4384093
:103CF00000F034FC03214BF6010000F02FFC0321FF
:103D00004BF6020000F02AFC03214BF6030000F002
:103D100025FC02214FF43C4000F020FC00214BF632
:103D2000014000F01BFC00214BF6024000F016FCA5
:103D3000D0214FF4494000F011FC02214CF6011053
:103D400000F00CFC50214CF6021000F007FC502152
:103D50004CF6031000F002FC50214CF6041000F069
:103D6000FDFB00214FF4545000F0F8FB55214FF4B7
:103D7000685000F0F3FB4FF4885000F0D9FB782036
:103D800001F0B6FB4FF4245000F0D2FBB9E0B8428A
:103D9000FCD1E22000F0CCFB1D2000F0BDFB022096
:103DA00000F0BAFB042000F0B7FB642001F0A0FB98
:103DB000E02000F0BDFB012000F0AEFB0A2001F086
:103DC00089FBE02000F0B4FB032000F0A5FB0C20F1
:103DD00001F080FB012000F0ABFB0A2001F07AFB30
:103DE000E62000F0A5FB2F2000F096FBFF2000F05E
:103DF00093FBFF2000F090FBB02000F099FB202007
:103E000000F08AFB002000F087FB032000F084FB19
:103E100040F21F3000F080FB012000F07DFB40F2FB
:103E2000DF1000F079FB002000F076FBB42000F0FA
:103E30007FFB042000F070FB40F21F4000F06CFBA1
:103E4000002000F069FB2E2000F066FB002000F04F
:103E500063FB002000F060FB002000F05DFB002011
:103E600000F05AFBB62000F063FB022000F054FB88
:103E70004FF4037000F050FB002000F04DFB1720C2
:103E800000F04AFB152000F047FB002000F044FB47
:103E9000002000F041FBF02000F04AFB032000F07E
:103EA0003BFB292000F044FBD02000F041FB002028
:103EB00000F032FBBE2000F03BFB052000F02CFBA5
:103EC000FE2000F029FB012000F026FB002000F07E
:103ED00023FB002000F020FB002000F01DFBB82099
:103EE00000F026FB032000F017FB012000F014FB7C
:103EF000BA2000F01DFB012000F00EFB642000F052
:103F00003BF8B8F80400504505D0B04203D0A842B1
:103F100001D0B84217D1D4F81C0120F00F00C4F82A
:103F20001C01D4F81C0120F47060C4F81C01D4F802
:103F30001C0140F00100C4F81C01D4F81C0140F43D
:103F40008070C4F81C010020FDF73CFD0449C1F855
:103F500080915846FDF71CFD15B0BDE8F08F0000BC
:103F600000802142034808B50088ADF80000BDF884
:103F7000000008BD0008006C10B50246BE2000F02D
:103F8000D7FA052000F0C8FA104601F00CFD4FF0FA
:103F900066320B4B01F01AFD01F0D8FC80B200F044
:103FA000BBFA012000F0B8FAFF2000F0B5FA0020BB
:103FB00000F0B2FABDE81040002000F0ADBA0000F9
:103FC00066660440F0B56C4D00232946AA798988BD
:103FD00041F66314012A01D01AB11BE0A14202D1BB
:103FE00018E0A14216D1082814D2DFE800F0040638
:103FF000080A0C0E101206200CE007200AE004202C
:1040000008E0052006E0012004E0002002E0032093
:1040100000E00220A1F5134745F2103245F2105698
:10402000413F05D0914203D0B14201D0A14277D1A6
:10403000082812D2DFE800F0110406080A0C0E105E
:1040400080230AE0402308E0C02306E0202304E0A8
:10405000602302E0A02300E0E023B14202D14FF44C
:10406000585000E03620914205D0B14203D0A14221
:1040700001D043F00803194600F070FAAA88A24262
:104080000AD098062888698802D5884202D303E0BE
:10409000884201D9298068806889B24241D100F004
:1040A00047FA002000F038FA6889401C80B200F01E
:1040B0003FFA002000F030FA6889801C80B200F0DE
:1040C00037FA2888401EC0F30F2000F025FA6889CF
:1040D000C01C80B200F02CFA2878401EC0B200F05C
:1040E0001BFAA88900F024FA002000F015FAA8892C
:1040F000401C80B200F01CFA002000F00DFAA889E4
:10410000801C80B200F014FA6888401EC0F30F20B3
:1041100000F002FAA889C01C80B200F009FA22E07F
:1041200028E000F005FA002000F0F6F9002000F089
:10413000F3F92888401EC0F30F2000F0EDF928782D
:10414000401EC0B200F0E8F9A88900F0F1F90020A3
:1041500000F0E2F9002000F0DFF96888401EC0F3AB
:104160000F2000F0D9F9A878BDE8F040401EC0B299
:1041700000F0D2B9F0BD0000B0010020F0B53F4D15
:104180000C460246060AA9882846270A4089A1F556
:104190001343413B28D0A1F5A643103B24D0A1F501
:1041A000C853633B2FD0A1F5AA43103B64D100F064
:1041B000BFF9304600F0B0F96889401C80B200F0C9
:1041C000B7F9D0B200F0A8F9A88900F0B1F93846E3
:1041D00000F0A2F9A889401C80B200F0A9F9E0B271
:1041E000BDE8F04000F098B900F0A2F9304600F0C8
:1041F00093F9D0B200F090F9A88900F099F9384607
:1042000000F08AF9EBE7A97929B300F091F930467B
:1042100000F082F9D0B200F07FF92888401EC0F388
:104220000F2000F079F92878401EC0B200F074F930
:10423000A88900F07DF9384600F06EF9E0B200F090
:104240006BF96888401EC0F30F2000F065F9A8786C
:10425000401EC0B2C4E72988891A491E8AB200F0FC
:1042600067F9002000F058F9002000F055F9100A15
:1042700000F052F9D0B2D9E7F0BD0000B001002043
:104280002DE9FC4F0D46044619441044DFF85491C3
:10429000401E1FFA80F8491EB9F80430C1F3072008
:1042A0000190280A0090A018401EC0F3072B484632
:1042B000A3F5134640898FB24FEA142A413E0BD032
:1042C000A3F5A646103E07D099F8066041F6631C98
:1042D000012E1CD163451AD14A4600F029F95046F7
:1042E00000F01AF9E0B200F017F9584600F014F99E
:1042F00008F0FF0000F010F9908900F019F900981B
:1043000000F00AF9E8B200F007F9019822E04E4601
:10431000634522D133888FB29B1A1B1B9CB200F0DD
:1043200007F9200A00F0F8F8E0B200F0F5F82244AE
:10433000521EC2F30F2000F0EFF8D0B200F0ECF8FC
:10434000B08900F0F5F8009800F0E6F8E8B200F067
:10435000E3F8380A00F0E0F83CE0A3F5AA41103990
:104360003DD100F0E5F8504600F0D6F87089401CC9
:1043700080B200F0DDF8E0B200F0CEF87089801C69
:1043800080B200F0D5F8584600F0C6F87089C01C1D
:1043900080B200F0CDF808F0FF0000F0BDF8B08961
:1043A00000F0C6F8009800F0B7F8B089401C80B261
:1043B00000F0BEF8E8B200F0AFF8B089801C80B21F
:1043C00000F0B6F8019800F0A7F8B089C01C80B2E0
:1043D00000F0AEF8F8B2BDE8FC4F00F09DB8BDE8C3
:1043E000FC8F0000B00100202DE9F84F82461F46E7
:1043F0000E468B46580700D0012000EBD700790805
:104400004843203AC0B202F0FF090025009047E07F
:104410000C2F10D0102F12D0182F14D0202F42D1D3
:10442000224901EBC9104FF00008445D200610D569
:104430001F48026811E009EB49001E4906E01E49C9
:1044400001EB0910EFE71D4909EBC90001EB800002
:10445000E9E70A9828B91648426831465046FDF700
:104460001DFB6006040E1648761CB6B24088B042AA
:1044700019D9A6EB0B00B84209D10AF101001FFAC5
:1044800080FA0F485E46018851450CD906E008F1D4
:10449000010000F0FF08B8F1080FC7D36D1CEDB2A2
:1044A00000988542B4D3BDE8F88F0000A0730008DF
:1044B00050000020E05B00085460000844660008DB
:1044C000B00100202DE9F84F044600F0FF08101954
:1044D0000D46DDE90A761FFA80FA58191FFA80F9AD
:1044E0004FF0000B11E0544502D3E819444685B261
:1044F0004D450FD23B4629462046CDF800B0FFF788
:1045000073FF04EB570084B2761C3278A2F12000CE
:104510005E28E8D9BDE8F88F01B5BDF80000ADF818
:104520000000BDF800000149088008BD0008006CCB
:1045300001B5BDF80000ADF80000BDF8000001496C
:10454000088008BDFE07006C024803490089088006
:1045500070470000B0010020FE07006C024A108086
:10456000901C018070470000FE07006C30B51848B1
:1045700085B0816941F008018161816901F008011C
:104580000491816941F0400181618069202400F03B
:10459000400004900120CDE90040029003200D4D21
:1045A000039069462846FCF759F900940A4C69467D
:1045B0002046FCF753F9012220212846FCF74BFA4C
:1045C000012220212046FCF746FA05B030BD00004C
:1045D00000100240000C014000180140FEE7704747
:1045E00010B5001D092815D2DFE800F01F1D1210BC
:1045F0000E0C0A070500482100E03821062409E0D6
:104600002821FBE71821F9E70821F7E7082100E056
:1046100018210E249B2000F00BFC2146BDE8104021
:10462000AB2000F005BC2821F3E73821F1E710B5F5
:10463000011D08290BD804014034E1B2A72000F085
:10464000F7FBE1B2BDE81040A82000F0F1BB10BDBF
:10465000011D082906D8202101EB8000C1B29C2051
:1046600000F0E6BB704700002DE9F043664885B0D6
:104670000024816941F004018161816901F0040134
:104680000491816941F008018161816901F00801AB
:104690000491816941F010018161816901F010018B
:1046A0000491816941F020018161816901F020015B
:1046B0000491816941F480718161816901F48071A3
:1046C0000491816941F00101816180694FF4807634
:1046D00000F001004FF003080096CDE903800027A9
:1046E0000125DFF82891CDE9017569464846FCF7B8
:1046F000B5F8012231464846FCF7ADF91820CDE95E
:104700000005434E69463046FCF7A8F8012208210F
:104710003046FCF7A0F9012210213046FCF79BF946
:10472000FF20CDE90007CDE9025869463948FCF77A
:1047300095F84020CDE90005374E69463046FCF734
:104740008DF8012240213046FCF785F94FF44040B6
:10475000CDE90005314D69462846FCF77FF8012276
:1047600091032846FCF777F90122D1032846FCF78C
:1047700072F92B49486820F0E06040F080604860A2
:1047800000F012FA8021122000F052FB18B1012033
:1047900005B0BDE8F083322000F09CFE1C2000F044
:1047A000A3FA4FF6FF7505EA00261D2000F09CFADB
:1047B00040EA0601A1F5FE40A23803D019A0FBF79C
:1047C00031FDE4E70A2000F08FFA05EA00250B200E
:1047D00000F08AFA40EA0501A1F5EE40213804D044
:1047E00013A0FBF71FFD0220D2E7144D05EB440098
:1047F000417815F8140000F01BFB641CA4B2412C96
:10480000F4D30020C4E7000000100240000801407B
:10481000000C014000100140001401400020014044
:10482000000001404D49443A25640D0A0000000093
:104830004849443A25640D0A0000000020A30008FE
:1048400010B5062847D2DFE800F003061D27313CEB
:10485000FF21132009E0FD21132000F0E9FA5A217D
:10486000012000F0E5FA5C2129E000F0E1FA652181
:104870000E2000F0DDFA00212D2000F0D9FA0021F1
:104880002E2024E0FD21132000F0D2FA582101202F
:1048900000F0CEFA602112E0FD21132000F0C8FAEA
:1048A0008421012000F0C4FA4C2108E0FD211320EE
:1048B00000F0BEFA9621012000F0BAFA4021022051
:1048C000D3E7FF21132000F0B3FAE5210E20BDE865
:1048D000104000F0ADBA10BD10B5072840D2DFE897
:1048E00000F0040609131D273100062103E04621CC
:1048F000A62031E02621A62000F09AFA802160202F
:1049000000F096FA802126E01E21A62000F090FA01
:104910008021602000F08CFAC0211CE01E21A6201E
:1049200000F086FA6021084600F082FA602112E069
:104930001E21A62000F07CFAA021602000F078FA69
:10494000402108E01E21A62000F072FA40216020DC
:1049500000F06EFAA0216120BDE8104000F068BAB6
:1049600010BD2DE9F0470C4605464AB3C5F5207049
:1049700000EBD070C0F34F07C4F5F07000EBD070BF
:10498000C0F34F060621122000F052FA232117200F
:1049900000F04EFAA021182000F04AFA0721192051
:1049A00000F046FAF0211A2000F042FA00213220ED
:1049B00000F03EFAA021292000F03AFAF02128E088
:1049C000C5F5A07000EBD070C0F34F07C4F1F00044
:1049D00000EBD070C0F34F064621122000F028FAF9
:1049E0003F21172000F024FA5021182000F020FA6F
:1049F0000321192000F01CFA78211A2000F018FA7F
:104A00000021322000F014FA5021292000F010FA81
:104A100078212C2000F00CFA172000F065F900EB4B
:104A20009700C1B2172000F003FAC5F387018A4648
:104A3000182000F0FDF9192000F056F900EB56009F
:104A4000C1B2192000F0F4F9C4F3470189461A20D5
:104A500000F0EEF9322000F047F98046F007400EF2
:104A600007F0030104F0010640EA011040EA860164
:104A700005F00304214341EA0801322000F0D8F98F
:104A80005146292000F0D4F949462C2000F0D0F9F5
:104A90002A2000F029F944EA080444EA8601BDE826
:104AA000F0472A2000F0C4B92DE9F05FDFF8D8B054
:104AB0009BF80000002865D00420FFF783FA334CF0
:104AC0004FF4A075F02320886188A0F5A070F0391C
:104AD00001EBD17100EBD070C1F34F01C0F34F0077
:104AE0002A46FFF7CDFBA088A0F5C851633910D145
:104AF00020886188A0F5A070F03901EBD17100EB3E
:104B0000D070C1F34F01C0F34F002B46F022FFF7E6
:104B1000B7FBFFF719FD1E484FF0000AC0F8B8A117
:104B20001C4E10213160371F396031600122C0F8FE
:104B3000B8213960A946184DDFF8608054464FF619
:104B4000FF7300203160AA68396003EA02223160F5
:104B5000D5F808C039600CF0FF0C4CEA020CA8F83C
:104B600000C0401C4845EDD3641CF02CE9D30C4830
:104B70008BF800A00178491C0170BDE8F05F0020AF
:104B8000FFF720BABDE8F09F59000020B0010020D7
:104B900000002442140C0140001001400008006C89
:104BA0005A0000207047000070B51E4886B0816929
:104BB00041F020018161816901F020010491816946
:104BC00041F48071816180694FF4005600F4807077
:104BD0000490009600200125CDE901050320124C28
:104BE000039069462046FBF739FE0820CDE9000511
:104BF0000E4D69462846FBF731FE0122314620461C
:104C0000FBF729FF012208212846FBF724FF6068F3
:104C100020F470006060606840F44010606006B08E
:104C200070BD00000010024000200140001401404F
:104C300070B5322000F05CFC0C4D0120C5F8B401C9
:104C40000B4EC6F88C01322005F5DA7506F5C676EE
:104C500000F04EFC00243460322000F049FC2C604F
:104C6000BDE87040322000F043BC00000000244248
:104C7000008022422DE9F047184F0024786820F484
:104C800070007860786840F400007860DFF8509039
:104C9000144E08254FF00108A246322000F028FCEF
:104CA000C6F88C816006040ED9F8340108B1641C82
:104CB000E4B2322000F01CFCC6F88CA16D1E15F089
:104CC000FF05EAD1786820F470007860786840F4D5
:104CD000401078602046BDE8F087000000200140C9
:104CE000000024420080224210B5044600F022F861
:104CF000422000F055F8642000F0FAFB204600F056
:104D00004FF8642000F0F4FB00F02EF8642000F06F
:104D1000EFFB00F00FF8432000F042F8642000F0B1
:104D2000E7FBFFF7A7FF0446FFF782FF00F01CF840
:104D3000204610BD70B50A4E0120C6F8B401094DD9
:104D4000C5F88C01322005F5C67506F5DA7600F057
:104D5000CFFB00243460322000F0CAFB2C6070BD11
:104D6000000024420080224270B50B4C0020C4F8A1
:104D7000B401322004F5DA7400F0BAFB07480125CB
:104D8000C0F88C51322000F0B3FB2560BDE87040C4
:104D9000322000F0ADBB000000002442008022421F
:104DA0002DE9F04700241F4E1F4F0546A0464FF047
:104DB0000109280601D5484600E04046C6F8B4017E
:104DC0006806050E322000F093FBC7F88C91322064
:104DD00000F08EFBC7F88C81641CE4B2082CE8D389
:104DE000124C606820F470006060606840F400005D
:104DF0006060322000F07CFBC7F88C91322000F01C
:104E000077FBD6F8340100B10120C7F88C816168C6
:104E100021F470016160616841F440116160BDE896
:104E2000F087000000002442008022420020014060
:104E300070B50D4606460024FFF77CFF4220FFF7C1
:104E4000AFFF00B10124642000F052FB3046FFF7B1
:104E5000A7FF00B10124642000F04AFB2846FFF7B9
:104E60009FFF00B10124FFF77FFF204670BD704710
:104E700030B58FB001210091022509040024079567
:104E8000CDE90114CDE908106846FBF75BFF00B1DE
:104E9000FEE70F20CDE90A054FF48060CDE90C4014
:104EA00002210AA80E94FBF75BFE002800D0FEE763
:104EB0000FB030BDFBF7DABD0D48016841F00101CC
:104EC000016041680B4A1140416001680A4A114083
:104ED0000160016821F480210160416821F4FE0134
:104EE00041604FF41F0181600449C00308607047AE
:104EF000001002400000FFF8FFFFF6FE08ED00E0A2
:104F00001FB50E4A00240C4BC2E902401461C2E9ED
:104F100000311046FCF713FA0120CDE9004002945D
:104F20000422694605480394FCF77CF904210348F0
:104F3000FCF744FA1FBD0000000C004000020020F6
:104F40000148FCF74DBA0000C0010020094A10B525
:104F5000074BC2E900310021C2E90210104611617D
:104F6000FCF714F9BDE810400248FCF749B900000D
:104F700000100040C0010020F0B502681C4D1D4E1D
:104F80001D4FDFF878C01E4B4FF0804EA84209D06D
:104F9000984207D0704505D0B04203D0B84201D046
:104FA000604503D122F070044A682243A84209D028
:104FB000984207D0704505D0B04203D0B84201D026
:104FC000604503D122F44074CA6822434C6922F040
:104FD0008002224302608A68C2620A688262A84232
:104FE00001D0984201D10969016301214161F0BDFD
:104FF000002C01400004004000080040000C00406C
:105000000034014010B501F01F010123046A8B40F8
:105010009C430462036A8A401343036210BD00008C
:1050200070B5046A24F0010404628469056A124EB2
:10503000B0420ED0114EB0420BD0B0F1804F08D02C
:105040000F4EB04205D00F4EB04202D00E4EB042CD
:1050500003D124F00304144301E044F001041A07CF
:1050600024F0F00444EA126225F00A0301F00A0178
:1050700019438261016270BD002C0140003401407F
:105080000004004000080040000C004030B5046AF5
:1050900024F0100404628569046A25F4407545EA29
:1050A000022222F470454FF6FF7202EA033224F026
:1050B000A0032A43A02404EA01111943826101627A
:1050C00030BD00002DE9F0410446002640000321D8
:1050D000B0FBF1F0C7B23546DFF834800DE000F0E8
:1050E00019F8B8F8021001EB8101B0EB910F01D96A
:1050F0006D1CEDB2B04200D90646641EE4B2EED299
:10510000BD4202D33046BDE8F0810020FBE700003D
:105110005C00002010B500F06BF80A484FF60B61F8
:10512000006805E0426A8A4202D9406A80B210BD36
:105130000269D2435207F5D404210248FCF71EFA53
:10514000F4E700000002002030B5401E81B285B0B7
:105150004FF6FF70FFF7D4FE00246D46FFF7DAFF2D
:1051600025F814000A2000F0B5F9641CE4B20A2CFA
:10517000F4D300214C1CE0B20BE035F8113035F8C7
:105180001020934203D925F8112025F81030401C37
:10519000C0B20A28F1D3E1B20929EBD300210220E1
:1051A00035F81020401C1144C0B289B20828F7D34A
:1051B0000620B1FBF0F0074C6080618806A0FBF789
:1051C00031F86088B0F5004F02D3012005B030BD42
:1051D0000020FBE75C000020747061645F6465661A
:1051E00061756C745F76616C3A25640D0A0000008D
:1051F0001FB502200121CDE90001029003200E4CD1
:10520000039069462046FBF729FB00220221204635
:10521000FBF721FC052000F05DF9084A6FF005005E
:10522000116808611068002141620191029169468C
:105230002046FBF713FB1FBD0008014000020020C1
:1052400070B50100114C4FF000054FF0030002D083
:10525000002106202170FFF735FF618803228900B5
:10526000B1FBF2F181420AD2618801EB8101B0EB1E
:10527000410F04D2207800B90125227001E0207886
:1052800010B12078401E2070284670BD5C000020C0
:1052900010B5406A0021C185C184FCF785F910BDB5
:1052A0000168CA6822F49072CA6001684A6922F0F3
:1052B00001024A61202180F83A10704710B590F839
:1052C0003A10222901D0022010BD8168B1F5805F1B
:1052D00011D00169002901681FD0496801F07F03DE
:1052E000816A4A1C82620B70C18D491E0904090C37
:1052F000C18518D02BE00269816A002A02685268D1
:1053000005D0D2B20A80816A491C8162ECE7C2F3FF
:1053100008020A80816A891CF7E74A68816A4B1C87
:1053200083620A70E0E70168CA6822F02002CA605E
:105330000168CA6822F48072CA6001684A6922F072
:1053400001024A61202180F83A10FCF75DFA002042
:1053500010BD00002DE9F041044600680169E268D3
:1053600021F4405111430161A16820690143606942
:1053700001432068C26841F20C639A430A43C26049
:1053800020684169A26921F44071114341611E49BD
:10539000206864253226884202D1FBF78DFC01E0AB
:1053A000FBF77AFC00EBC00101EB001160686FF0C5
:1053B00018078000B1FBF0F2B2FBF5F2B1FBF0F39D
:1053C0007A4303EB8202B1FBF0F306EB0212B2FB6D
:1053D000F5F2B3FBF5F302F0F00202EB0312B1FBBE
:1053E000F0F3B1FBF0F0B0FBF5F0784303EB800095
:1053F00006EB0010B0FBF5F0216800F00F00104440
:105400008860BDE8F08100000038014090F8391054
:10541000212901D0022070478168B1F5805F016ABF
:105420000BD04A1C0262026809785160C18C491E87
:105430000904090CC1840ED017E009880268C1F381
:105440000801516001690029016A02D0491C01620A
:10545000ECE7891CFBE70168CA6822F08002CA6099
:105460000068C16841F04001C16000207047000041
:1054700010B50848FCF79EF80648FCF796F8202877
:10548000FAD1012204490348FCF794F90028F8D125
:1054900010BD00002801002048000020FEE7090799
:1054A000090E002804DB00F1E02080F800147047AA
:1054B00000F00F0000F1E02080F8141D70477047E5
:1054C00010B504460420FBF73FFE0148046010BD00
:1054D0004400002070B5054600244FF47A7603E0BE
:1054E000304600F005F8641CAC42F9D370BD0000F2
:1054F00070B54FF0E02500216C69094AAB6912686C
:105500005043AA699A42FCD002D2A3EB020302E004
:10551000A4EB02063344194413468142F1D370BD13
:105520004400002004490A685206FCD5024AC1B270
:10553000121D1160704700000038014088B000243F
:10554000A146A0462746264625460694FBF796FA2E
:105550004FF4E010FFF78CFC4820FFF7B1FF4FF449
:10556000E13000F0D7F9FFF701F8FCF77BF9FCF721
:105570002DFB0620FFF7E8FDA8494FF478404FF0D7
:10558000100A0860A6A1CDE900A15346C822322125
:105590001E20FEF797FFA6A1CDE900A11023C82287
:1055A00046211E20FEF78EFFA4A1CDE900A1102305
:1055B000C8225A211E20FEF785FFA4A1CDE900A133
:1055C0001023C8226E211E20FEF77CFFA2A1CDE988
:1055D00000A11023C82282211E20FEF773FFA2A182
:1055E000CDE900A11023C82296211E20FEF76AFFF4
:1055F000A1A1CDE900A11023C822AA211E20FEF7F7
:1056000061FFA1A1CDE900A11023C822D2211E2053
:10561000FEF758FFA0A1CDE900A11023C822E62182
:105620001E20FEF74FFF4FF6FF7BFFF71DF8B8B1C6
:105630009DA1CDE900A11023C822D2211E20FEF792
:1056400041FFC820FFF746FFF623EF22D2211E209C
:10565000CDF800B0FCF796FAC820FFF73BFFE4E76F
:1056600095A1CDE900A11023C822D2211E20FEF76A
:1056700029FFD3460020FCF725F9012808D002288D
:1056800008D0641CE4B2642C2BD0C82C33D03DE08D
:10569000002200E00122F0214FF4A070FFF761F931
:1056A0004046FFF7CDF83046FEF7C1FF0698FEF7FB
:1056B00097FF2846FEF7CCFF3846FFF70DF98449DF
:1056C0000020C1F8BC0141F61F4142F21070FFF703
:1056D0003DFCFAF769FF0020FCF75AF96FF0030A66
:1056E00018E07CA1CDE900B11023D222E6211E20D2
:1056F000FEF7E8FE0AE04FF6FF7000904FF4857366
:10570000D222E6211E20FCF73DFA00240520FFF7F7
:10571000E1FEAFE70020FCF7D5F8B8B34FF014096D
:10572000012804D0022811D004282FD11DE008F14F
:105730000100C0B28046052801D900208046FFF74D
:105740007FF8694951F8282068A11CE0761C76B2E0
:10575000042E01DD564602E0564500DA04263046A6
:10576000FEF765FF324662A10DE06D1C6DB2042D9F
:1057700001DD554602E0554500DA04252846FEF7CE
:1057800067FF2A465EA102A8FAF758FD0020FFF73E
:1057900057FD88B17F1CFFB2062F00D9002738467D
:1057A000FFF79AF8504851A1183050F8272002A866
:1057B000FAF744FD4FF01409FFF776F9B9F1000F3D
:1057C0001CD052493C2202AB08884988F038A1F528
:1057D000A07101EBD17102EB610100EBD0701E22D0
:1057E000CDE900B302EB600089B280B21023C82279
:1057F000FEF768FEA9F1010000F0FF09641CE4B2A5
:105800000F2C87D342490024D1F8940118B100200D
:10581000C1F894017EE70120FAE700005000002063
:10582000454C4954452053544D3332205E5F5E0051
:105830004F563737323520544553540041544F4D5D
:1058400040414C49454E54454B00000032303139FF
:105850002F392F31390000004B4559303A4C6967D8
:105860006874204D6F6465004B4559313A5361743B
:1058700075726174696F6E004B45595F55503A43BC
:105880006F6E747261737400545041443A45666699
:1058900065637473000000004F5637373235204976
:1058A0006E69742E2E2E00004F5637373235204544
:1058B00072726F72212100004F56373732352049FE
:1058C0006E6974204F4B20202020202020000000F3
:1058D000000024424B4559303A5156474120204B55
:1058E0004559313A56474100000000202573000019
:1058F00053617475726174696F6E3A2564000000BB
:10590000436F6E74726173743A256400B0010020B5
:10591000008021420B4910B5094AC1E9002000204E
:105920008860C860086188610C2048610846FBF700
:10593000C9FEBDE81040012203490248FBF73ABF07
:105940000038014028010020480000204FEA115390
:10595000A3F58063D3F11E03A8BFD3F1200C08DBAD
:105960004FF0004242EAC12252EA505232FA03F0AA
:10597000704709420BD4102BC4BF0020704703F5B9
:10598000787CBCF1FF3F05D04FF0FF3070474FF0FF
:105990000000704770B500F0C3F800BF4992248042
:1059A00000207047F0E7B0FA80F310FA03F10AD054
:1059B000C3F11D0303F580634FEA41504FEA0352E0
:1059C00002EBD12170474FF000007047DFF848C16B
:1059D00070B51CEA111E1EBF1CEA13159EEA0C0FBF
:1059E00095EA0C0F00F06F8081EA030423EA4C1360
:1059F0004EEAD47E21EA4C1141F4801143F4801325
:105A0000AE44A1FB024CA0FB0365AEF17F7E3619CC
:105A100055EB0C05A1FB034C4CF10003A0FB021C51
:105A200016EB0C06654153F10003094218BF46F01E
:105A3000010613F4007F0BD14FEA03314FEA053022
:105A4000340341EA155140EA16506FF003020AE0B0
:105A50004FEAC3214FEAC520F40241EA555140EA1A
:105A600056506FF0020202EB2E4201EB025585EA1E
:105A7000CE710AD05FEA440C18BF24F0004450F104
:105A8000000041F1000120EAD47040F2FE7C624542
:105A900000D270BDA84214BF4FF080444FF0404484
:105AA000002E08BF0024BEF1806FA8BFA1F1C04145
:105AB000BDE8704080F282804FF0000001F1C041EB
:105AC00001F0004170479EEA0C0F0CEA131518BF55
:105AD00095EA0C0F06D04FF0000081EA030E0EF09D
