:020000040800F2
:100000007006002089010008ED0600082706000898
:100010002B06000829040008690D000800000000F4
:10002000000000000000000000000000190C0008A3
:100030002D04000800000000650A0008050D0008F6
:10004000A3010008A3010008A3010008A301000800
:10005000A3010008A3010008A3010008A3010008F0
:10006000A3010008A3010008A3010008A3010008E0
:10007000A3010008A3010008A3010008A3010008D0
:10008000A3010008A3010008A3010008A3010008C0
:10009000A3010008A3010008A3010008A3010008B0
:1000A000A3010008A3010008A3010008A3010008A0
:1000B000A3010008A3010008A3010008A301000890
:1000C000A3010008A3010008A3010008A301000880
:1000D000A3010008A3010008A3010008A301000870
:1000E000A3010008A3010008A301000800F002F822
:1000F00000F03AF80AA090E8000C82448344AAF188
:100100000107DA4501D100F02FF8AFF2090EBAE885
:100110000F0013F0010F18BFFB1A43F0010318473B
:100120003C1300005C130000103A24BF78C878C16B
:10013000FAD8520724BF30C830C144BF04680C60ED
:10014000704700000023002400250026103A28BF35
:1001500078C1FBD8520728BF30C148BF0B60704739
:100160001FB51FBD10B510BD00F007F91146FFF710
:10017000F7FF00F0FBFD00F025F903B4FFF7F2FFF5
:1001800003BC00F02DF900000948804709480047EA
:10019000FEE7FEE7FEE7FEE7FEE7FEE7FEE7FEE737
:1001A000FEE7FEE704480549054A064B7047000094
:1001B000090D0008ED000008700000207006002006
:1001C000700200207002002010B503681C1404EBBC
:1001D00021449BB289B2194494FBF2F302FB13430E
:1001E00094FBF2F401EB034393FBF2F102FB1131B8
:1001F00093FBF2F301E05B1E11440029FBDB01607D
:1002000003EB044010BDF0B504464FF0FF3585B058
:100210000068049060680290A0680390E068019014
:1002200020690090666906F18040B0F1004F7CD8EB
:100230003C22002104A8FFF7C7FF3C22014602A888
:10024000FFF7C2FF1822014603A8FFF7BDFF411EBA
:1002500040F2B55201A8FFF7B7FF0C2207466846E7
:100260000021FFF7B1FF414B00EB8700304400262F
:100270007B4411E0511A01910099491C0229009117
:1002800002D00C2908D105E0810705D00199491C4D
:10029000019101E0401C00960099019A595C91423D
:1002A000E8DD0099012906D11C2A04D1810702D07A
:1002B0000221CDE90016A0F146018B293CD2DDE9EF
:1002C0000061002202E09F5C521C3944B242FADB1A
:1002D000012E02DD820700D0491E40F2B55340F2E4
:1002E0006D16C21700EB927292105A4300F003038E
:1002F00003FB062283070A4400D1521E039E02EB31
:100300004203049F06EBC303029EC3EB031306EBF9
:100310008303174E33441E149BB2C6EB0616C3EB81
:100320000313B60007EB830300E005E006EB13467A
:1003300066F31F43360C02D0284605B0F0BD80C4DA
:10034000029E40C4039E40C4019E761C44F80C6B80
:10035000009E44E902600720521C92FBF0F600FB6D
:10036000162084E823001846E7E70000DC110000AF
:10037000A039CEFD704770477047754600F02CF8E5
:10038000AE4605006946534620F00700854618B082
:1003900020B5FFF707FFBDE820404FF000064FF003
:1003A00000074FF000084FF0000B21F00701AC46AA
:1003B000ACE8C009ACE8C009ACE8C009ACE8C009C9
:1003C0008D46704710B50446AFF300802046BDE867
:1003D0001040FFF7D2BE0000004870470C0000201C
:1003E00001491820ABBEFEE726000200704700005E
:1003F00008B501460020009003480090009808448A
:1004000000900098008808BD006C004008B50022EC
:100410000092044A0092009A02440092009A1160ED
:1004200008BD0000006C004000BFFEE7704700B54B
:10043000034603E04FF47A7000F005F8181EA3F1AC
:100440000103F7D100BD00EBC001C9004FF0E0226D
:100450005161002191610521116100BF4FF0E02140
:10046000096901F480310029F8D004214FF0E0221D
:10047000116170472DE9F041024600250026002059
:1004800000230024002791F803C00CF00F0591F819
:1004900003C00CF0100CBCF1000F03D091F802C0A7
:1004A0004CEA050591F800C0BCF1000F31D014688A
:1004B00000202BE04FF0010C0CFA00F3B1F800C063
:1004C0000CEA03069E4220D183004FF00F0C0CFA79
:1004D00003F7BC4305FA03FC4CEA040491F803C09B
:1004E000BCF1280F06D14FF0010C0CFA00FCC2F849
:1004F00014C00AE091F803C0BCF1480F05D14FF0D9
:10050000010C0CFA00FCC2F810C0401C0828D1D322
:100510001460B1F800C0BCF1FF0F34DD5468002056
:100520002EE000F1080C4FF0010808FA0CF3B1F8C6
:1005300000C00CEA03069E4221D183004FF00F0C4D
:100540000CFA03F7BC4305FA03FC4CEA040491F8E7
:1005500003C0BCF1280F05D100F1080C08FA0CF813
:10056000C2F8148091F803C0BCF1480F07D100F124
:10057000080C4FF0010808FA0CF8C2F81080401C73
:100580000828CED35460BDE8F0810000F0B50A46DB
:10059000002300240021002500F00046B6F1004FA2
:1005A00002D11D4EF16901E01B4E7168C0F3034595
:1005B00083B200F44016B6F5401F08D121F07061F7
:1005C000154E766826F07066134F7E6012E000F4D8
:1005D0008016B6F5801F06D1032606FA05F4A1435E
:1005E00041F0706106E0460D360103FA06F6B143AC
:1005F00041F0706122B1460D360103FA06F631432F
:1006000000F00046B6F1004F02D1034EF16101E067
:10061000014E7160F0BD0000000001400AB10161AF
:1006200000E04161704700BFFEE700BFFEE710B584
:100630000121080700F018FA0121C80600F014FA99
:10064000012000F0E9F90420FFF7D2FE4AF2A5519B
:10065000884220D0012000F045FA00BF412000F080
:1006600023FA0128FAD1000200F05CFA012000F020
:1006700053FA00F0BFFA00F0B3FA47F6FF7000F04B
:100680009FFA00F0ADFA00F00BF84AF2A5510420F1
:10069000FFF7BCFE03E000F0ADFA00F0A1FA10BDD8
:1006A00010B58CB010480088A0F26C7006900E480F
:1006B0004088401E05900C48808804900A48C088F5
:1006C000039009480089029007484089019001A8D9
:1006D000FFF799FDA0F5E144204600F063FA00F031
:1006E0007FFA0CB010BD000000000020704770B50C
:1006F00000240EE00021204600F0EDF8002504E083
:10070000002000F079F9681CC5B2802DF8DB601C70
:10071000C4B2082CEEDB70BD08B50121082000F042
:10072000B3F90121084600F0AFF901210D48FFF7A8
:100730002DFF10208DF8030003208DF802003020DB
:10074000ADF8000069460848FFF794FE0122202119
:100750000548FFF763FF012210210348FFF75EFF02
:1007600008BD000000023000000C014070B50546D5
:10077000002413E08020204100EA050210210E48E9
:10078000FFF74CFF012220210B48FFF747FF002213
:1007900020210948FFF742FF601CC4B2082CE9DBA6
:1007A000012220210448FFF739FF002220210248BE
:1007B000FFF734FF70BD0000000C014010B50122AE
:1007C00010210948FFF72AFF012220210648FFF7E0
:1007D00025FF002210210448FFF720FF00222021DE
:1007E0000148FFF71BFF10BD000C014010B50022AF
:1007F00010210748FFF712FF012220210448FFF7CC
:100800000DFF012210210248FFF708FF10BD000074
:10081000000C014070B5002406E0002500E06D1CCE
:10082000B5F57A7FFBD3641CB4F57A7FF5D3FFF777
:1008300073FFAE2000F0D0F8D52000F0CDF8802076
:1008400000F0CAF8A82000F0C7F83F2000F0C4F874
:10085000D32000F0C1F8002000F0BEF8402000F0E6
:10086000BBF8A12000F0B8F8C82000F0B5F8DA20F5
:1008700000F0B2F8122000F0AFF8812000F0ACF8E0
:10088000CF2000F0A9F8D92000F0A6F8F12000F060
:10089000A3F8DB2000F0A0F8302000F09DF8A420A1
:1008A00000F09AF8A62000F097F88D2000F094F858
:1008B000142000F091F8AF2000F08EF8FFF717FF3A
:1008C00070BD10B50246012000E050430B1EA1F19F
:1008D0000101FAD110BD70B505460C4645F0B000D7
:1008E00000F07AF8102141EA141000F075F804F0D5
:1008F0000F0000F071F870BD2DE9F04105460E467D
:100900001746721ED206110E6A1E5206100EFFF70F
:10091000E2FF002409E0A7F12001134A02EB0111D4
:10092000085D00F069F8601CC4B2082CF3DB721E8D
:10093000D206110E6A1E012303EB4202D0B2FFF76A
:10094000CAFF00240BE0A7F12001074A02EB0112C5
:1009500004F10801505C00F04FF8601CC4B2082C90
:10096000F1DBBDE8F0810000600E00082DE9F047E2
:1009700080460E4617461D46002415E0281B411EE2
:100980000A20FFF79EFFB7FBF0F00A21B0FBF1F25F
:1009900001FB120000F130093019C1B24A4640464D
:1009A000FFF7AAFF601CC4B2AC42E7DBBDE8F087EA
:1009B0002DE9F04107460E461546002407E02A5D62
:1009C0003019C1B23846FFF797FF601CC4B2285DEA
:1009D0000028F4D1BDE8F08110B50446FFF7EEFE23
:1009E0007820FFF7C3FE0020FFF7C0FE2046FFF788
:1009F000BDFEFFF7FBFE10BD10B50446FFF7DEFE9F
:100A00007820FFF7B3FE4020FFF7B0FE2046FFF747
:100A1000ADFEFFF7EBFE10BD014908627047000014
:100A200000000E420A48006840F0040008490860CF
:100A30000846006840F0020008600648006840F080
:100A400004000449086000BF00BF30BF70470000C9
:100A50000070004010ED00E00149086070470000A0
:100A6000A0000E427047000029B1064AD269024335
:100A7000044BDA6104E0034AD2698243014BDA6134
:100A8000704700000010024029B1064A92690243F3
:100A9000044B9A6104E0034A92698243014B9A61D4
:100AA000704700000010024010B5014600220023EC
:100AB00000204A11012A02D1094C236806E0022ACB
:100AC00002D1074C236A01E0054C636A01F01F0262
:100AD000012494401C400CB1012000E0002010BD16
:100AE0000010024000210B4A11700A4A203A82F895
:100AF0002010012802D0042808D103E00121054A72
:100B0000117004E00521034A117000E000BF00BF2E
:100B10007047000020100240014908607047000043
:100B20003C0442420249096A0143014A116270478A
:100B3000001002400348008840F01000014908807E
:100B40007047000004280040034800884FF6EF710A
:100B500008400149088070470428004000210348EC
:100B60000188001F008841EA004070471C280040AF
:100B700001460020034A12880A400AB1012000E021
:100B8000002070470428004000B50246FFF7D2FF5E
:100B9000100C03490880091D0A80FFF7D5FF00BD2E
:100BA0002028004000B50246FFF7C4FF100C03499F
:100BB0000880091D0A80FFF7C7FF00BD1828004004
:100BC00000B50246FFF7B6FFC2F3034003490880B1
:100BD000091D0A80FFF7B8FF00BD0000082800408B
:100BE00000BF0348008800F020000028F9D07047BB
:100BF00004280040074800884FF6F771084005496F
:100C0000088000BF0348008800F008000028F9D0E1
:100C10007047000004280040704710B500F002F84B
:100C200010BD00000CB50020019000903348006812
:100C300040F480303149086000BF3048006800F45B
:100C4000003000900198401C0190009818B901985C
:100C5000B0F5A06FF1D12948006800F4003010B160
:100C60000120009001E0002000900098012843D16D
:100C70002348006840F010002149086008460068D9
:100C800020F0030008600846006840F00200086099
:100C90001A48406819494860084640684860084654
:100CA000406840F4806048600846406820F47C104A
:100CB00048600846406840F4E8104860084600680C
:100CC00040F08070086000BF0C48006800F00070C1
:100CD0000028F9D00948406820F00300074948601F
:100CE0000846406840F00200486000BF0348406882
:100CF00000F00C000828F9D10CBD000000100240E3
:100D0000002002407047000010B51348006840F012
:100D100001001149086008464068104908400E4922
:100D20004860084600680E4908400B4908600846BC
:100D3000006820F4802008600846406820F4FE0027
:100D400048604FF41F008860FFF767FF4FF00060B6
:100D50000449086010BD0000001002400000FFF8C8
:100D6000FFFFF6FE08ED00E000BFFEE7FFF752FDD3
:100D7000FFF75DFC01210807FFF776FE2CA2012199
:100D80000846FFF715FE2CA201210220FFF710FEF6
:100D90002BA201210320FFF70BFE0120FFF75CFED1
:100DA000FFF7DCFE00F10A042046FFF7EDFE0A2300
:100DB000224606210220FFF7D9FD37E0FFF7CEFEDD
:100DC00005460A232A4606210120FFF7CFFD02200F
:100DD000FFF7CEFE054601232A4606210320FFF732
:100DE000C5FD19A201210420FFF7E2FD6420FFF7F1
:100DF0001EFB17A201210420FFF7DAFD6420FFF794
:100E000016FB15A209210420FFF7D2FD4FF47A70DA
:100E1000FFF70DFB0EA209210420FFF7C9FD642096
:100E2000FFF705FBFFF763FCFFF7FCFDC6E70000DB
:100E3000434E54203A000000414C52203A0000003A
:100E4000414C52463A00000052756E6E696E670062
:100E500020202020202020005354414E444259009D
:100E60000000000000000000000000000000000082
:100E7000000000F800000000000000333000000017
:100E800000100C06100C060000000000000000001E
:100E900040C07840C0784000043F04043F04040090
:100EA000007088FC08300000001820FF211E0000A0
:100EB000F008F000E018000000211C031E211E00B5
:100EC00000F00888700000001E212324192721103B
:100ED00010160E00000000000000000000000000DE
:100EE000000000E018040200000000071820400085
:100EF00000020418E0000000004020180700000075
:100F0000404080F0804040000202010F01020200D8
:100F1000000000F0000000000101011F01010100BC
:100F2000000000000000000080B070000000000021
:100F300000000000000000000001010101010101AA
:100F40000000000000000000003030000000000041
:100F50000000000080601804006018060100000016
:100F600000E010080810E000000F102020100F0013
:100F7000001010F8000000000020203F202000009A
:100F800000700808088870000030282422213000F2
:100F900000300888884830000018202020110E00FA
:100FA0000000C02010F8000000070424243F2400A3
:100FB00000F80888880808000019212020110E0078
:100FC00000E0108888180000000F112020110E008A
:100FD00000380808C83808000000003F0000000082
:100FE0000070880808887000001C222121221C0043
:100FF00000E010080810E0000000312222110F006C
:10100000000000C0C0000000000000303000000000
:101010000000008000000000000080600000000070
:101020000000804020100800000102040810200089
:1010300040404040404040000404040404040400D4
:101040000008102040800000002010080402010069
:10105000007048080808F000000000303601000069
:10106000C030C828E810E0000718272423140B001C
:101070000000C038E0000000203C23020227382096
:1010800008F8888888700000203F202020110E007A
:10109000C030080808083800071820202010080071
:1010A00008F808080810E000203F202020100F005A
:1010B00008F88888E8081000203F20202320180026
:1010C00008F88888E8081000203F2000030000008E
:1010D000C03008080838000007182020221E02002F
:1010E00008F808000008F808203F210101213F20EE
:1010F000000808F8080800000020203F2020000019
:1011000000000808F8080800C08080807F00000008
:1011100008F888C028180800203F20012638200041
:1011200008F8080000000000203F202020203000A8
:1011300008F8F800F8F80800203F003F003F2000C2
:1011400008F830C00008F808203F200007183F00CA
:10115000E01008080810E0000F10202020100F00F9
:1011600008F808080808F000203F210101010000EC
:10117000E01008080810E0000F18242438504F0031
:1011800008F8888888887000203F2000030C3020F1
:1011900000708808080838000038202121221C002F
:1011A000180808F8080818000000203F2000000078
:1011B00008F808000008F808001F202020201F0061
:1011C0000878880000C83808000007380E010000C1
:1011D000F80800F80008F800033C0700073C03008B
:1011E000081868808068180820302C03032C3020F1
:1011F0000838C800C83808000000203F2000000060
:1012000010080808C83808002038262120201800B7
:10121000000000FE020202000000007F404040008B
:10122000000C30C000000000000000010638C000C3
:1012300000020202FE000000004040407F0000006B
:101240000000040202020400000000000000000090
:10125000000000000000000080808080808080808E
:101260000002020400000000000000000000000076
:1012700000008080808000000019242222223F206C
:1012800008F8008080000000003F112020110E00AF
:101290000000008080800000000E1120202011003E
:1012A000000000808088F800000E112020103F20F0
:1012B0000000808080800000001F22222222130074
:1012C000008080F0888888180020203F20200000BF
:1012D0000000808080808000006B94949493600074
:1012E00008F8008080800000203F210000203F207F
:1012F00000809898000000000020203F202000007F
:10130000000000809898000000C08080807F00006E
:1013100008F8000080808000203F24022D3020004B
:10132000000808F8000000000020203F20200000F6
:101330008080808080808000203F20003F20003F10
:101340008080008080800000203F210000203F201E
:101350000000808080800000001F202020201F00CF
:10136000808000808000000080FFA12020110E00FE
:101370000000008080808000000E112020A0FF80EF
:10138000808080008080800020203F21200001009C
:1013900000008080808080000033242424241900F1
:1013A000008080E0808000000000001F20200000FE
:1013B0008080000000808000001F202020103F203F
:1013C000808080000080808000010E3008060100CF
:1013D00080800080008080800F300C030C300F0074
:1013E00000808000808080000020312E0E3120009F
:1013F000808080000080808080818E7018060100CF
:1014000000808080808080000021302C22213000EC
:1014100000000000807C020200000000003F40400D
:1014200000000000FF00000000000000FF000000BE
:101430000002027C800000000040403F00000000ED
:101440000006010102020404000000000000000088
:101450001F1D1F1E1F1E1F1F1E1F1E1F7C14000886
:10146000000000200C00000028010008881400087B
:101470000C0000206406000044010008E70701009A
:08148000010017003B003700DA
:04000005080000ED02
:00000001FF
