:020000040800F2
:10000000880E00202D02000831020008330200088B
:10001000350200083702000839020008000000001D
:100020000000000000000000000000003B0200088B
:100030003D020008000000003F02000841020008E5
:10004000430200084302000843020008430200087C
:10005000430200084302000843020008430200086C
:10006000430200084302000843020008430200085C
:10007000430200084302000843020008430200084C
:10008000430200084302000843020008430200083C
:10009000430200084302000843020008430200082C
:1000A000430200084302000843020008430200081C
:1000B0004302000843020008754F0008430200088D
:1000C00043020008430200084302000843020008FC
:1000D00043020008115000084302000843020008D0
:1000E00043020008430200084302000843020008DC
:1000F00043020008430200084302000843020008CC
:1001000043020008430200084302000843020008BB
:1001100043020008430200084302000843020008AB
:10012000430200084302000843020008430200089B
:1001300000F002F800F06BF80AA090E8000C82448E
:100140008344AAF10107DA4501D100F060F8AFF26B
:10015000090EBAE80F0013F0010F18BFFB1A43F0A5
:100160000103184730850000508500000A444FF015
:10017000000C10F8013B13F0070408BF10F8014B06
:100180001D1108BF10F8015B641E05D010F8016B4B
:10019000641E01F8016BF9D113F0080F1EBF10F8AF
:1001A000014BAD1C0C1B09D16D1E58BF01F801CBD2
:1001B000FAD505E014F8016B01F8016B6D1EF9D555
:1001C0009142D6D37047000000230024002500266A
:1001D000103A28BF78C1FBD8520728BF30C148BFAA
:1001E0000B607047642900F09980752900F09680B3
:1001F000782900F0CF80632900F02382732900F072
:100200002882002070471FB51FBD10B510BD00F03B
:1002100053FA1146FFF7F7FF04F0B0FF00F071FA50
:1002200003B4FFF7F2FF03BC04F03BFF08480047AC
:10023000FEE7FEE7FEE7FEE7FEE7FEE7FEE7FEE796
:10024000FEE7FEE703480449024A044B70470000FA
:1002500031010008880A0020880E0020880A00204A
:10026000704700000FB4044910B503AA029800F0CB
:10027000F5F910BC5DF814FB0400002070B50446CD
:1002800085690068C10601D5302600E02026C00738
:1002900007D070BDD4E9012130469047206A401C48
:1002A00020626D1EF6D570BD70B504468569007874
:1002B000C00707D170BDD4E9012120209047206AF2
:1002C000401C20626D1EF6D570BD70B50C4605460B
:1002D000012A05D02878800600D5EA69002302E0CB
:1002E000012305E05B1C934202D2E05C0028F9D1B7
:1002F000A869E618C01AA861286A18442862284626
:10030000FFF7BCFF04E0D5E9012114F8010B904789
:10031000B442F8D32846FFF7C7FF70BD2DE9F0417E
:100320000646002410687529314616A510D0AFF393
:100330000080002802DA404213A507E031688A07EE
:1003400001D512A502E0490704D511A5012401E059
:10035000AFF3008000210A2206F1240709E0B0FB78
:10036000F2FCB0FBF2F302FB1C003030785418466C
:10037000491C0028F3D123462A463046BDE8F04107
:1003800000F0FCB8000000002D0000002B00000071
:100390002000000070B504460D4621461068AFF3FA
:1003A00000802188090502D50F4A7A4402E00E4AEE
:1003B0007A440E32002104F1240305E000F00F0618
:1003C0000009965D5E54491C0028F7D1207800236F
:1003D000000704D5702D02D009B102231132204646
:1003E000BDE8704000F0CAB8C18100002DE9F05F9F
:1003F000894604464FF0000ADFF874B1FB44C0F8A8
:1004000020A02046E1688847002874D0252806D01F
:10041000D4E901219047206A401C2062F1E70026C0
:100420005F462046E16888472028054607DB312DD6
:1004300005D2781910F8200C08B10643F1E7B0078F
:1004400001D526F00406C4F81CA00027C4F818A0A3
:100450002A2D09D0284604F01DFE38B304EB870886
:10046000303DC8F8185019E059F8041B204604EB39
:1004700087029161E1688847012F054618D1E0693C
:10048000002820DA26F020061DE0D8F8180000EB3E
:10049000800005EB40003038C8F818002046E168BD
:1004A0008847054604F0F6FD0028EED1012F0AD05A
:1004B0002E2D08D12046E16888477F1C0546022F73
:1004C00046F02006C4DBA069002803DA404246F06B
:1004D0000106A061F00701D026F010066C2D0BD0AC
:1004E000682D09D04C2D39D06A2D35D0742D35D0DA
:1004F0007A2D33D016E038E0E1682F462046884751
:10050000B842054609D16C2F26D04FF48060E168CF
:10051000064320468847054604E06C2F1AD04FF466
:10052000807006430DB3A5F14100192802D820358B
:1005300046F400664A462946204626604E46FFF7A6
:1005400051FE80B101280BD0F61D26F0070000F106
:10055000080956E74020E4E78020D8E70020D6E7E6
:1005600006F104094DE7284652E7206ABDE8F09FEE
:100570009781000070477047704770472DE9F0473A
:100580000D4699469246044600F124080168880603
:1005900004D5E06921F01001216000E00120A842AB
:1005A00001DD471B00E00027A1697A1902EB090071
:1005B000081AA0612078C00602D42046FFF75EFE2C
:1005C000002608E0D4E901211AF806009047206AC5
:1005D000401C761C20624E45F4DB2078C0060AD50C
:1005E0002046FFF74BFE06E0D4E90121302090477A
:1005F000206A401C2062381EA7F10107F4DC07E0E6
:10060000D4E9012118F805009047206A401C2062B7
:10061000281EA5F10105F3DC2046FFF745FE2078F2
:10062000000602D50220BDE8F0870120FBE710B5E7
:10063000436913B1AFF3008001E0FFF746FE0120EC
:1006400010BD127800F124010A7000224A700122C4
:10065000EDE711684FF0FF32E9E70000074B70B596
:100660000D467B4400F011F80446284600F020F8BF
:1006700010B14FF0FF3070BD204670BDFB4A000046
:1006800001694A1C02610878704700B58FB0CDE956
:1006900001310021059105497944CDE90310114646
:1006A0006846FFF7A3FE0FB000BD0000E5FFFFFFA7
:1006B000007B00F080007047754600F029F8AE46D8
:1006C00005006946534620F00700854618B020B55E
:1006D000FFF7B8FDBDE820404FF000064FF00007DF
:1006E0004FF000084FF0000B21F00701AC46ACE8DA
:1006F000C009ACE8C009ACE8C009ACE8C0098D4647
:1007000070470446AFF300802046FFF789FD0000E4
:1007100000487047280A00201448806940F004000F
:10072000124988610846806940F04000886110489D
:10073000006820F00F000E4908600846006840F08D
:10074000080008600B48006820F47F200949086011
:100750000846006840F40820086006480C3000682D
:1007600040F0180003490C31086070470010024047
:10077000000801400018014010B5044614B10120E2
:100780001B4908701A48007808B31A48006838B145
:100790001848001F006818B117480068012816D1D2
:1007A0000A2004F0A1FC00201149087011480068DB
:1007B00008B9012010BD0F48001F006808B90220C9
:1007C000F8E70D480068012810D10320F2E7094836
:1007D000006801280AD10748001F0068012805D1D8
:1007E0000548006810B90120014908700020E1E7C0
:1007F0000E000020100123420001214270B5044682
:10080000002617480588408845431548808846F6E5
:100810000401884216D112488079012812D10020A3
:100820000F4988712A2048812B20888100210846A1
:1008300003F0B4FF01200A4988712B2048812A2047
:10084000888103E00021084603F0A8FF04F04EF978
:10085000002602E003480480761CAE42FAD370BD45
:10086000180200200008006C10B50446002C66D168
:100870006C498871F02008804FF4A07048800846C9
:10088000808849F2413188420BD06648808846F61C
:100890000401884205D06348808845F210318842BF
:1008A0001AD12C205F4908812A2048812B20888179
:1008B0000846808846F60401884205D05948808859
:1008C00045F21031884206D14FF4A0705549088096
:1008D0004FF4F0704880A1E05248808845F21051F2
:1008E000884210D14FF430504E4908814FF42850BF
:1008F00048814FF42C5088814FF4F07008804FF4F9
:10090000487048808AE04748808841F663118842F1
:100910000DD12C20434908812B2048812A20888131
:100920004FF4F07008804FF44870488076E0222041
:100930003C49088120204881212088816EE00120E7
:10094000384988714FF4A0700880F020488008462C
:10095000808849F24131884205D03248808845F28A
:100960001031884207D12C202E4908812A20488145
:100970002B2088813FE02B48808846F6040188427E
:1009800007D12C20274908812B2048812A208881E3
:1009900031E02448808845F21051884210D14FF44C
:1009A0003050204908814FF4285048814FF42C5092
:1009B00088814FF4487008804FF4F07048801AE046
:1009C0001848808841F6631188420DD12C201549C2
:1009D00008812A2048812B2088814FF448700880A4
:1009E0004FF4F070488006E022200E490881212053
:1009F0004881202088810B48808846F6040188427F
:100A000005D00848808845F21031884206D14FF45D
:100A1000F070044908804FF4A0704880002003F073
:100A200047FD10BD1802002030B503460C461546A0
:100A30005A48808849F24131884205D05748808819
:100A400045F21031884214D15449488904F048F8DD
:100A5000181204F03FF8D8B204F03CF84F498889E6
:100A600004F03EF8201204F035F8E0B204F032F859
:100A70008CE04A48808845F21051884220D147498D
:100A8000488904F02DF8181204F024F843494989E4
:100A9000491C88B204F024F8D8B204F01BF83F498E
:100AA000888904F01DF8201204F014F83B49898964
:100AB000491C88B204F014F8E0B204F00BF865E0C9
:100AC0003648808841F66311884228D133488079BE
:100AD00020B932480088401EC01A83B22F49488985
:100AE00003F0FEFF181203F0F5FFD8B203F0F2FF97
:100AF000181203F0EFFFD8B203F0ECFF2749888902
:100B000003F0EEFF201203F0E5FFE0B203F0E2FF96
:100B1000201203F0DFFFE0B203F0DCFF36E01F48F5
:100B2000808846F6040188421DD11C48807901283E
:100B300004D11A480088401EC01A83B21749488958
:100B400003F0CEFF181203F0C5FFD8B203F0C2FFC6
:100B50001249888903F0C4FF201203F0BBFFE0B202
:100B600003F0B8FF12E00D488079012804D10B484A
:100B70000088401EC01A83B208494889194603F00C
:100B8000BFFF06498889214603F0BAFF0348008960
:100B900003490880881C058030BD00001802002031
:100BA000FE07006C2DE9FC4F05460E461746984699
:100BB000DDF82C90002001902748808846F604013B
:100BC000884229D124488079012825D1AB46354671
:100BD00021480088C01B401E86B247461E48008838
:100BE000A0EB0B00401E1FFA80F800201A49887104
:100BF0002A2048812B20888143463A4631462846A0
:100C0000CDF80090FFF7CEFF0120134988712B200B
:100C100048812A2088811CE0781B401C80B201900A
:100C2000344614E02146284603F0B8FD03F05EFF89
:100C30004FF0000A06E00948A0F800900AF1010010
:100C40001FFA80FA01988245F5DB601C84B24445A6
:100C5000E8DDBDE8FC8F0000180200200008006CF1
:100C600010B5FD48406940F48070FB494861084672
:100C7000806940F0080088610846806940F02000E3
:100C800088610846806940F04000886108468069B4
:100C900040F480708861F148006820F00F00EF494F
:100CA00008600846006840F003000860EC480068EF
:100CB000EC490840EA49086008460068EA490843E8
:100CC000E7490860081F006800F0FF20091F08605E
:100CD0000846006840F0BB100860E4480068002047
:100CE000E24908600846006840F0BB300860081F11
:100CF000006820F07040091F08600846006840F056
:100D000030400860DA48406820F47020D8494860D4
:100D10000846406840F4302048600846006820F0EB
:100D20000F0008600846006840F00B0008600020D3
:100D30004FF020418861C861CE4908604FF02040E3
:100D4000806940F480504FF02041886108468069F6
:100D500040F4804088610846806940F01000886156
:100D60000846C069C8610846C06940F00100C86112
:100D70000846C06940F47060C861BE480068C1F8A8
:100D80001C01BC480068C1F81C010846D0F81C01D1
:100D900040F44070C1F81C010846806940F0010031
:100DA0008861322004F0A0F9002003F04BFBB24927
:100DB000888008468088FF280ADB084680884FF62E
:100DC000FF71884204D0AC488088B0F5134F7CD1C5
:100DD000D32003F085FE03F02BFBA749888003F0A6
:100DE00027FBA549888003F023FBA3498880084698
:100DF00080884FF6FF7101EA00209F49888003F048
:100E000017FB9D49898808439B498880084680884C
:100E100049F24131884258D0BF2003F061FE03F00F
:100E200007FB9549888003F003FB9349888003F012
:100E3000FFFA9149888003F0FBFA8F4988800846C1
:100E400080884FF6FF7101EA00208B49888003F00B
:100E5000EFFA89498988084387498880084680884D
:100E600046F6040188427AD0D42003F039FE03F01C
:100E7000DFFA8149888003F0DBFA7F49888003F03C
:100E8000D7FA7D498880084680884FF6FF7101EACD
:100E900000207949888003F0CBFA77498988084394
:100EA000754988800846808845F21031884256D0BE
:100EB0004FF45A4003F014FE03F0BAFA6E498880EA
:100EC0004FF45B4003F00CFE00E048E003F0B0FAA2
:100ED00069498880084680884FF6FF7101EA002042
:100EE000654988804FF45C4003F0FAFD03F0A0FAF6
:100EF0006149898808436049888008468088B0F540
:100F0000004F02D145F2105088805B48808845F23E
:100F10001051884223D0A12003F0E2FD03F088FAAB
:100F20005549888003F084FA5349888008468088B0
:100F30004FF6FF7101EA00204F49888003F078FAEC
:100F40004D49898808434C4988800846808845F285
:100F50006171884203D141F6631047498880464851
:100F6000818846A0FFF77EF94348808849F24131E5
:100F7000884270D1CF2003F0B3FD002003F0AAFD1A
:100F8000C12003F0A7FD302003F0A4FDED2003F005
:100F9000A7FD642003F09EFD032003F09BFD1220BB
:100FA00003F098FD812003F095FDE82003F098FD03
:100FB000852003F08FFD102003F08CFD7A2003F0D4
:100FC00089FDCB2003F08CFD392003F083FD2C201C
:100FD00003F080FD002003F07DFD342003F07AFD56
:100FE000022003F077FDF72003F07AFD202003F0C4
:100FF00071FDEA2003F074FD002003F06BFD00207A
:1010000003F068FDC02003F06BFD1B2003F062FDC0
:10101000C12003F065FD012003F05CFDC52003F055
:101020005FFD302003F056FD302003F053FDC72054
:1010300003F056FDB72003F04DFD362003F050FDC0
:10104000482003F047FD3A2003F04AFD552003F005
:1010500041FDB1201AE0BFE000100240000C014049
:101060000414014000F0FF00BB0B00BB041801405A
:10107000002001401C0100A018020020204C434425
:101080002049443A25780D0A0000000003F028FDAD
:10109000002003F01FFD1A2003F01CFDB62003F012
:1010A0001FFD0A2003F016FDA22003F013FDF2201D
:1010B00003F016FD002003F00DFD262003F010FDC7
:1010C000012003F007FDE02003F00AFD0F2003F0EC
:1010D00001FD2A2003F0FEFC282003F0FBFC082081
:1010E00003F0F8FC0E2003F0F5FC082003F0F2FCFE
:1010F000542003F0EFFCA92003F0ECFC432003F0A4
:10110000E9FC0A2003F0E6FC0F2003F0E3FC0020DA
:1011100003F0E0FC002003F0DDFC002003F0DAFC2B
:10112000002003F0D7FCE12003F0DAFC002003F0FC
:10113000D1FC152003F0CEFC172003F0CBFC0720D8
:1011400003F0C8FC112003F0C5FC062003F0C2FC2C
:101150002B2003F0BFFC562003F0BCFC3C2003F026
:10116000B9FC052003F0B6FC102003F0B3FC0F20FF
:1011700003F0B0FC3F2003F0ADFC3F2003F0AAFCDD
:101180000F2003F0A7FC2B2003F0AAFC002003F0A3
:10119000A1FC002003F09EFC012003F09BFC3F20FB
:1011A00003F098FC2A2003F09BFC002003F092FC43
:1011B000002003F08FFC002003F08CFCEF2003F0F4
:1011C00089FC112003F08CFC782003F08DFF29208E
:1011D00003F086FC03F01DB9FE48808846F6040142
:1011E00088427CD1112003F07BFC142003F07CFFAB
:1011F000D02003F075FC072003F06CFC422003F0C4
:1012000069FC1D2003F066FCD12003F069FC00207E
:1012100003F060FC1A2003F05DFC092003F05AFC87
:10122000D22003F05DFC012003F054FC222003F0E7
:1012300051FCC02003F054FC102003F04BFC3B2079
:1012400003F048FC002003F045FC022003F042FCC0
:10125000112003F03FFCC52003F042FC032003F003
:1012600039FCC82003F03CFC002003F033FC2520AF
:1012700003F030FC212003F02DFC052003F02AFCB4
:10128000002003F027FC0A2003F024FC652003F073
:1012900021FC252003F01EFC772003F01BFC5020CE
:1012A00003F018FC0F2003F015FC002003F012FCE3
:1012B000F82003F015FC012003F00CFCFE2003F0E5
:1012C0000FFC002003F006FC022003F003FC2020AA
:1012D00003F006FC362003F003FC082000E02CE0BD
:1012E00003F0F8FB3A2003F0FBFB552003F0F2FB80
:1012F0002B2003F0F5FB002003F0ECFB002003F0B3
:10130000E9FB012003F0E6FB3F2003F0E3FB2A208A
:1013100003F0E6FB002003F0DDFB002003F0DAFB26
:10132000012003F0D7FBDF2003F0D4FB782003F08B
:10133000DBFE292003F0D4FB4CE7A648808845F269
:101340001031884240F07C87ED2003F0C9FB01207A
:1013500003F0C0FBFE2003F0BDFBEE2003F0C0FB5A
:10136000DE2003F0B7FB212003F0B4FBF12003F0F3
:10137000B7FB012003F0AEFBDF2003F0B1FB102030
:1013800003F0A8FBC42003F0ABFB8F2003F0A2FB0B
:10139000C62003F0A5FB002003F09CFBE22003F035
:1013A00099FBE22003F096FBE22003F093FBBF20C1
:1013B00003F096FBAA2003F08DFBB02003F090FB16
:1013C0000D2003F087FB002003F084FB0D2003F0C9
:1013D00081FB002003F07EFB112003F07BFB00204B
:1013E00003F078FB192003F075FB002003F072FB7B
:1013F000212003F06FFB002003F06CFB2D2003F095
:1014000069FB002003F066FB3D2003F063FB002036
:1014100003F060FB5D2003F05DFB002003F05AFB4E
:101420005D2003F057FB002003F054FBB12003F0D4
:1014300057FB802003F04EFB002003F04BFB8B207A
:1014400003F048FB002003F045FB962003F042FB2D
:10145000002003F03FFBB22003F042FB002003F02A
:1014600039FB002003F036FB022003F033FB0020A1
:1014700003F030FB032003F02DFB002003F02AFBD8
:10148000B32003F02DFB002003F024FB002003F029
:1014900021FB002003F01EFB002003F01BFB0020BB
:1014A00003F018FB002003F015FB002003F012FBF3
:1014B000002003F00FFB002003F00CFB002003F0E2
:1014C00009FB002003F006FB002003F003FB0020D3
:1014D00003F000FB002003F0FDFA002003F0FAFA0D
:1014E000002003F0F7FA002003F0F4FA002003F0E4
:1014F000F1FA002003F0EEFA002003F0EBFA0020EE
:1015000003F0E8FA002003F0E5FA002003F0E2FA25
:10151000002003F0DFFAB42003F0E2FA8B2003F09E
:10152000D9FA002003F0D6FA962003F0D3FA00206F
:1015300003F0D0FAA12003F0CDFA002003F0CAFA9C
:10154000B52003F0CDFA022003F0C4FA002003F026
:10155000C1FA032003F0BEFA002003F0BBFA042016
:1015600003F0B8FA002003F0B5FAB62003F0B8FA99
:10157000002003F0AFFA002003F0ACFAB72003F02C
:10158000AFFA002003F0A6FA002003F0A3FA3F20F0
:1015900003F0A0FA002003F09DFA5E2003F09AFA0F
:1015A000002003F097FA642003F094FA002003F07F
:1015B00091FA8C2003F08EFA002003F08BFAAC2015
:1015C00003F088FA002003F085FADC2003F082FAA9
:1015D000002001E01802002003F07CFA702003F0E4
:1015E00079FA002003F076FA902003F073FA0020D5
:1015F00003F070FAEB2003F06DFA002003F06AFAB2
:10160000DC2003F067FA002003F064FAB82003F04E
:1016100067FA002003F05EFA002003F05BFA002076
:1016200003F058FA002003F055FA002003F052FAB4
:10163000002003F04FFA002003F04CFA002003F0E2
:1016400049FABA2003F04CFA242003F043FA0020B0
:1016500003F040FA002003F03DFA002003F03AFACC
:10166000C12003F03DFA202003F034FA002003F0FB
:1016700031FA542003F02EFA002003F02BFAFF2059
:1016800003F028FA002003F025FAC22003F028FA1C
:101690000A2003F01FFA002003F01CFA042003F0D4
:1016A00019FA002003F016FAC32003F019FA3C20BF
:1016B00003F010FA002003F00DFA3A2003F00AFAC2
:1016C000002003F007FA392003F004FA002003F0A9
:1016D00001FA372003F0FEF9002003F0FBF93C206B
:1016E00003F0F8F9002003F0F5F9362003F0F2F9E1
:1016F000002003F0EFF9322003F0ECF9002003F0B2
:10170000E9F92F2003F0E6F9002003F0E3F92C209B
:1017100003F0E0F9002003F0DDF9292003F0DAF905
:10172000002003F0D7F9262003F0D4F9002003F0BD
:10173000D1F9242003F0CEF9002003F0CBF92420C6
:1017400003F0C8F9002003F0C5F9232003F0C2F923
:10175000002003F0BFF93C2003F0BCF9002003F0A7
:10176000B9F9362003F0B6F9002003F0B3F93220BE
:1017700003F0B0F9002003F0ADF92F2003F0AAF92F
:10178000002003F0A7F92C2003F0A4F9002003F0B7
:10179000A1F9292003F09EF9002003F09BF92620EF
:1017A00003F098F9002003F095F9242003F092F952
:1017B000002003F08FF9242003F08CF9002003F0BF
:1017C00089F9232003F086F9002003F083F9C4206F
:1017D00003F086F9622003F07DF9002003F07AF926
:1017E000052003F077F9002003F074F9842003F05A
:1017F00071F9002003F06EF9F02003F06BF900207E
:1018000003F068F9182003F065F9002003F062F98D
:10181000A42003F05FF9002003F05CF9182003F026
:1018200059F9002003F056F9502003F053F9002035
:1018300003F050F90C2003F04DF9002003F04AF9B1
:10184000172003F047F9002003F044F9952003F036
:1018500041F9002003F03EF9F32003F03BF90020AA
:1018600003F038F9E62003F035F9002003F032F9EF
:10187000C52003F035F9322003F02CF9002003F0E5
:1018800029F9442003F026F9002003F023F965200C
:1018900003F020F9002003F01DF9762003F01AF977
:1018A000002003F017F9882003F014F9002003F05A
:1018B00011F9C62003F014F9202003F00BF90020E1
:1018C00003F008F9172003F005F9002003F002F9EE
:1018D000012003F0FFF8002003F0FCF8C72003F01C
:1018E000FFF8002003F0F6F8002003F0F3F80020E2
:1018F00003F0F0F8002003F0EDF8C82003F0F0F852
:10190000002003F0E7F8002003F0E4F8002003F0E3
:10191000E1F8002003F0DEF8C92003F0E1F8002030
:1019200003F0D8F8002003F0D5F8002003F0D2F837
:10193000002003F0CFF8002003F0CCF8002003F0E3
:10194000C9F8002003F0C6F8002003F0C3F8002017
:1019500003F0C0F8002003F0BDF8002003F0BAF84F
:10196000002003F0B7F8002003F0B4F8002003F0E3
:10197000B1F8002003F0AEF8002003F0ABF8E0204F
:1019800003F0AEF8162003F0A5F8002003F0A2F84B
:101990001C2003F09FF8002003F09CF8212003F0A6
:1019A00099F8002003F096F8362003F093F8002011
:1019B00003F090F8462003F08DF8002003F08AF839
:1019C000522003F087F8002003F084F8642003F02D
:1019D00081F8002003F07EF87A2003F07BF80020E5
:1019E00003F078F88B2003F075F8002003F072F80C
:1019F000992003F06FF8002003F06CF8A82003F0A2
:101A000069F8002003F066F8B92003F063F80020BD
:101A100003F060F8C42003F05DF8002003F05AF8EA
:101A2000CA2003F057F8002003F054F8D22003F046
:101A300051F8002003F04EF8D92003F04BF80020B5
:101A400003F048F8E02003F045F8002003F042F8E6
:101A5000F32003F03FF8002003F03CF8E12003F00E
:101A60003FF8162003F036F8002003F033F81C206E
:101A700003F030F8002003F02DF8222003F02AF8BC
:101A8000002003F027F8362003F024F8002003F0AC
:101A900021F8452003F01EF8002003F01BF8522027
:101AA00003F018F8002003F015F8642003F012F892
:101AB000002003F00FF87A2003F00CF8002003F068
:101AC00009F88B2003F006F8002003F003F89920B2
:101AD00003F000F8002002F0FDFFA82002F0FAFF5A
:101AE000002002F0F7FFB92002F0F4FF002002F01E
:101AF000F1FFC42002F0EEFF002002F0EBFFCA204D
:101B000002F0E8FF002002F0E5FFD22002F0E2FF41
:101B1000002002F0DFFFD82002F0DCFF002002F0FE
:101B2000D9FFE02002F0D6FF002002F0D3FFF3201F
:101B300002F0D0FF002002F0CDFFE22002F0D0FF43
:101B4000052002F0C7FF002002F0C4FF0B2002F0C6
:101B5000C1FF002002F0BEFF1B2002F0BBFF0020EF
:101B600002F0B8FF342002F0B5FF002002F0B2FF0F
:101B7000442002F0AFFF002002F0ACFF4F2002F043
:101B8000A9FF002002F0A6FF612002F0A3FF0020C1
:101B900002F0A0FF792002F09DFF002002F09AFFE2
:101BA000882002F097FF002002F094FF972002F0B7
:101BB00091FF002002F08EFFA62002F08BFF002094
:101BC00002F088FFB72002F085FF002002F082FFBC
:101BD000C22002F07FFF002002F07CFFC72002F04D
:101BE00079FF002002F076FFD12002F073FF002081
:101BF00002F070FFD62002F06DFF002002F06AFFB5
:101C0000DD2002F067FF002002F064FFF32002F005
:101C100061FF002002F05EFFE32002F061FF05207B
:101C200002F058FF002002F055FF0A2002F052FF98
:101C3000002002F04FFF1C2002F04CFF002002F0B9
:101C400049FF332002F046FF002002F043FF44200A
:101C500002F040FF002002F03DFF502002F03AFF6A
:101C6000002002F037FF622002F034FF002002F073
:101C700031FF782002F02EFF002002F02BFF882099
:101C800002F028FF002002F025FF972002F022FF3B
:101C9000002002F01FFFA62002F01CFF002002F02F
:101CA00019FFB72002F016FF002002F013FFC22038
:101CB00002F010FF002002F00DFFC72002F00AFF23
:101CC000002002F007FFD12002F004FF002002F004
:101CD00001FFD52002F0FEFE002002F0FBFEDD2019
:101CE00002F0F8FE002002F0F5FEF32002F0F2FE12
:101CF000002002F0EFFEE42002F0F2FE012002F0EC
:101D0000E9FE002002F0E6FE012002F0E3FE0020E2
:101D100002F0E0FE022002F0DDFE002002F0DAFE1A
:101D20002A2002F0D7FE002002F0D4FE3C2002F070
:101D3000D1FE002002F0CEFE4B2002F0CBFE0020B0
:101D400002F0C8FE5D2002F0C5FE002002F0C2FED7
:101D5000742002F0BFFE002002F0BCFE842002F0DE
:101D6000B9FE002002F0B6FE932002F0B3FE002080
:101D700002F0B0FEA22002F0ADFE002002F0AAFEAA
:101D8000B32002F0A7FE002002F0A4FEBE2002F065
:101D9000A1FE002002F09EFEC42002F09BFE002067
:101DA00002F098FECD2002F095FE002002F092FE97
:101DB000D32002F08FFE002002F08CFEDD2002F026
:101DC00089FE002002F086FEF32002F083FE002050
:101DD00002F080FEE52002F083FE002002F07AFE91
:101DE000002002F077FE002002F074FE002002F0D6
:101DF00071FE022002F06EFE002002F06BFE292030
:101E000002F068FE002002F065FE3C2002F062FE57
:101E1000002002F05FFE4B2002F05CFE002002F08A
:101E200059FE5D2002F056FE002002F053FE7420A1
:101E300002F050FE002002F04DFE842002F04AFE27
:101E4000002002F047FE932002F044FE002002F042
:101E500041FEA22002F03EFE002002F03BFEB32035
:101E600002F038FE002002F035FEBE2002F032FE05
:101E7000002002F02FFEC42002F02CFE002002F011
:101E800029FECD2002F026FE002002F023FED32002
:101E900002F020FE002002F01DFEDC2002F01AFEFF
:101EA000002002F017FEF32002F014FE002002F0E2
:101EB00011FEE62002F014FE112002F00BFE0020BD
:101EC00002F008FE342002F005FE002002F002FEBF
:101ED000562002F0FFFD002002F0FCFD762002F00B
:101EE000F9FD002002F0F6FD772002F0F3FD00205E
:101EF00002F0F0FD662002F0EDFD002002F0EAFDA8
:101F0000882002F0E7FD002002F0E4FD992002F0B5
:101F1000E1FD002002F0DEFDBB2002F0DBFD002031
:101F200002F0D8FD992002F0D5FD002002F0D2FD8C
:101F3000662002F0CFFD002002F0CCFD552002F01B
:101F4000C9FD002002F0C6FD552002F0C3FD0020AF
:101F500002F0C0FD452002F0BDFD002002F0BAFDF8
:101F6000432002F0B7FD002002F0B4FD442002F04F
:101F7000B1FD002002F0AEFDE72002F0B1FD3220FD
:101F800002F0A8FD002002F0A5FD552002F0A2FD00
:101F9000002002F09FFD762002F09CFD002002F060
:101FA00099FD662002F096FD002002F093FD672067
:101FB00002F090FD002002F08DFD672002F08AFD06
:101FC000002002F087FD872002F084FD002002F04F
:101FD00081FD992002F07EFD002002F07BFDBB20F8
:101FE00002F078FD002002F075FD992002F072FDEC
:101FF000002002F06FFD772002F06CFD002002F05F
:1020000069FD442002F066FD002002F063FD5620C9
:1020100002F060FD002002F05DFD232002F05AFD79
:10202000002002F057FD332002F054FD002002F0A2
:1020300051FD452002F04EFD002002F04BFDE8204E
:1020400002F04EFD002002F045FD002002F042FDAE
:10205000992002F03FFD002002F03CFD872002F0B5
:1020600039FD002002F036FD882002F033FD00200B
:1020700002F030FD772002F02DFD002002F02AFD55
:10208000662002F027FD002002F024FD882002F0E7
:1020900021FD002002F01EFDAA2002F01BFD002001
:1020A00002F018FDBB2002F015FD002002F012FD29
:1020B000992002F00FFD002002F00CFD662002F0D6
:1020C00009FD002002F006FD552002F003FD00206E
:1020D00002F000FD552002F0FDFC002002F0FAFCA9
:1020E000442002F0F7FC002002F0F4FC442002F04F
:1020F000F1FC002002F0EEFC552002F0EBFC002089
:1021000002F0E8FCE92002F0EBFCAA2002F0E2FC7D
:10211000002002F0DFFC002002F0DCFC002002F0D6
:10212000D9FC002002F0DCFCAA2002F0D3FCCF2076
:1021300002F0D6FC002002F0CDFC002002F0CAFC28
:10214000002002F0C7FC002002F0C4FC002002F0D6
:10215000C1FC002002F0BEFC002002F0BBFC00200D
:1021600002F0B8FC002002F0B5FC002002F0B2FC46
:10217000002002F0AFFC002002F0ACFC002002F0D6
:10218000A9FC002002F0A6FC002002F0A3FC002025
:1021900002F0A0FC002002F09DFCF02002F0A0FC68
:1021A000002002F097FC502002F094FC002002F086
:1021B00091FC002002F08EFC002002F08BFCF3204A
:1021C00002F08EFC002002F085FCF92002F088FC71
:1021D000062002F07FFC102002F07CFC292002F097
:1021E00079FC002002F076FC3A2002F079FC5520C0
:1021F00002F070FC112002F073FC642002F074FF06
:10220000292002F06DFC352002F06AFC002002F06B
:1022100061FC512002F064FCFF2002F05BFC5320C3
:1022200002F05EFC2C2002F055FC552002F058FC18
:10223000822002F04FFC2C2002F052FC02F0E9B8A0
:10224000FE48808845F2105188427DD155214FF4D7
:10225000704002F055FCAA214FF2010002F050FC40
:1022600052214FF2020002F04BFC08214FF2030012
:1022700002F046FC01214FF2040002F041FC0D2166
:102280004FF4304002F03CFC0D214BF2010002F013
:1022900037FC0D214BF2020002F032FC34214FF4E6
:1022A000364002F02DFC34214BF2016002F028FC94
:1022B00034214BF2026002F023FC0D214FF4314037
:1022C00002F01EFC0D214BF2011002F019FC0D2151
:1022D0004BF2021002F014FC34214FF4374002F0AC
:1022E0000FFC34214BF2017002F00AFC34214BF256
:1022F000027002F005FC00214FF4324002F000FCB5
:1023000000214BF2012002F0FBFB00214BF20220E6
:1023100002F0F6FB24214FF4384002F0F1FB2421B7
:102320004BF6010002F0ECFB24214BF6020002F018
:10233000E7FB01214FF43F4002F0E2FB0F214FF495
:10234000334002F0DDFB00E0FDE30F214BF20130F2
:1023500002F0D6FB0F214BF2023002F0D1FB342108
:102360004FF4394002F0CCFB34214BF6011002F05F
:10237000C7FB34214BF6021002F0C2FB08214FF4D8
:10238000354002F0BDFB08214BF2015002F0B8FBD2
:1023900008214BF2025002F0B3FB03214FF44240FC
:1023A00002F0AEFB24214FF43A4002F0A9FB2421B5
:1023B0004BF6012002F0A4FB24214BF6022002F090
:1023C0009FFB00214FF43C4002F09AFB78214BF632
:1023D000014002F095FB00214BF6024002F090FB19
:1023E00000214FF43D4002F08BFB78214BF6015069
:1023F00002F086FB00214BF6025002F081FB002127
:102400004FF43E4002F07CFB64214BF6016002F089
:1024100077FB00214FF4514002F072FB33214DF263
:10242000011002F06DFB00214DF2021002F068FB7A
:1024300034214DF2031002F063FB00214DF2041031
:1024400002F05EFB3A214DF2051002F059FB00212B
:102450004DF2061002F054FB4A214DF2071002F033
:102460004FFB00214DF2081002F04AFB5C214DF2B7
:10247000091002F045FB00214DF20A1002F040FB6A
:1024800081214DF20B1002F03BFB00214DF20C10AC
:1024900002F036FBA6214DF20D1002F031FB0021B7
:1024A0004DF20E1002F02CFBE5214DF20F1002F060
:1024B00027FB01214DF2101002F022FB13214DF2F7
:1024C000111002F01DFB01214DF2121002F018FB59
:1024D00054214DF2131002F013FB01214DF21410A0
:1024E00002F00EFB82214DF2151002F009FB0121D2
:1024F0004DF2161002F004FBCA214DF2171002F043
:10250000FFFA02214DF2181002F0FAFA00214DF202
:10251000191002F0F5FA02214DF21A1002F0F0FA49
:1025200001214DF21B1002F0EBFA02214DF21C10BA
:1025300002F0E6FA34214DF21D1002F0E1FA022118
:102540004DF21E1002F0DCFA67214DF21F1002F06E
:10255000D7FA02214DF2201002F0D2FA84214DF276
:10256000211002F0CDFA02214DF2221002F0C8FA39
:10257000A4214DF2231002F0C3FA02214DF22410DF
:1025800002F0BEFAB7214DF2251002F0B9FA02218D
:102590004DF2261002F0B4FACF214DF2271002F0CE
:1025A000AFFA02214DF2281002F0AAFADE214DF214
:1025B000291002F0A5FA02214DF22A1002F0A0FA29
:1025C000F2214DF22B1002F09BFA02214DF22C1059
:1025D00002F096FAFE214DF22D1002F091FA03213D
:1025E0004DF22E1002F08CFA10214DF22F1002F055
:1025F00087FA03214DF2301002F082FA33214DF2B6
:10260000311002F07DFA03214DF2321002F078FA17
:102610006D214DF2331002F073FA00214FF4524055
:1026200002F06EFA33214DF2012002F069FA002126
:102630004DF2022002F064FA342101E01802002079
:102640004DF2032002F05CFA00214DF2042002F06A
:1026500057FA3A214DF2052002F052FA00214DF2CC
:10266000062002F04DFA4A214DF2072002F048FA06
:1026700000214DF2082002F043FA5C214DF20920BE
:1026800002F03EFA00214DF20A2002F039FA8121CF
:102690004DF20B2002F034FA00214DF20C2002F032
:1026A0002FFAA6214DF20D2002F02AFA00214DF258
:1026B0000E2002F025FAE5214DF20F2002F020FA5B
:1026C00001214DF2102002F01BFA13214DF21120CE
:1026D00002F016FA01214DF2122002F011FA5421F3
:1026E0004DF2132002F00CFA01214DF2142002F0F9
:1026F00007FA82214DF2152002F002FA01214DF273
:10270000162002F0FDF9CA214DF2172002F0F8F967
:1027100002214DF2182002F0F3F900214DF21920A8
:1027200002F0EEF902214DF21A2002F0E9F901213E
:102730004DF21B2002F0E4F902214DF21C2002F0C0
:10274000DFF934214DF21D2002F0DAF902214DF2B9
:102750001E2002F0D5F967214DF21F2002F0D0F9BA
:1027600002214DF2202002F0CBF984214DF22120EC
:1027700002F0C6F902214DF2222002F0C1F9A42193
:102780004DF2232002F0BCF902214DF2242002F088
:10279000B7F9B7214DF2252002F0B2F902214DF22E
:1027A000262002F0ADF9CF214DF2272002F0A8F942
:1027B00002214DF2282002F0A3F9DE214DF229205A
:1027C00002F09EF902214DF22A2002F099F9F2213D
:1027D0004DF22B2002F094F902214DF22C2002F050
:1027E0008FF9FE214DF22D2002F08AF903214DF2DE
:1027F0002E2002F085F910214DF22F2002F080F9F1
:1028000003214DF2302002F07BF933214DF23120CB
:1028100002F076F903214DF2322002F071F96D21B8
:102820004DF2332002F06CF900214FF4534002F0D6
:1028300067F933214DF2013002F062F900214DF2C7
:10284000023002F05DF934214DF2033002F058F904
:1028500000214DF2043002F053F93A214DF20530D7
:1028600002F04EF900214DF2063002F049F94A21FA
:102870004DF2073002F044F900214DF2083002F029
:102880003FF95C214DF2093002F03AF900214DF296
:102890000A3002F035F981214DF20B3002F030F9A7
:1028A00000214DF20C3002F02BF9A6214DF20D3033
:1028B00002F026F900214DF20E3002F021F9E52157
:1028C0004DF20F3002F01CF901214DF2103002F0F0
:1028D00017F913214DF2113002F012F901214DF2D6
:1028E000123002F00DF954214DF2133002F008F9C4
:1028F00001214DF2143002F003F982214DF215301E
:1029000002F0FEF801214DF2163002F0F9F8CA216A
:102910004DF2173002F0F4F802214DF2183002F0B7
:10292000EFF800214DF2193002F0EAF802214DF2E1
:102930001A3002F0E5F801214DF21B3002F0E0F808
:1029400002214DF21C3002F0DBF834214DF21D3033
:1029500002F0D6F802214DF21E3002F0D1F86721C4
:102960004DF21F3002F0CCF802214DF2203002F07F
:10297000C7F884214DF2213002F0C2F802214DF255
:10298000223002F0BDF8A4214DF2233002F0B8F855
:1029900002214DF2243002F0B3F8B7214DF2253078
:1029A00002F0AEF802214DF2263002F0A9F8CF2154
:1029B0004DF2273002F0A4F802214DF2283002F047
:1029C0009FF8DE214DF2293002F09AF802214DF2F3
:1029D0002A3002F095F8F2214DF22B3002F090F8F7
:1029E00002214DF22C3002F08BF8FE214DF22D30F9
:1029F00002F086F803214DF22E3002F081F810210A
:102A00004DF22F3002F07CF803214DF2303002F00D
:102A100077F833214DF2313002F072F803214DF294
:102A2000323002F06DF86D214DF2333002F068F86B
:102A300000214FF4544002F063F833214DF201407D
:102A400002F05EF800214DF2024002F059F8342104
:102A50004DF2034002F054F800214DF2044002F020
:102A60004FF83A214DF2054002F04AF800214DF2AC
:102A7000064002F045F84A214DF2074002F040F8C6
:102A800000214DF2084002F03BF85C214DF2094074
:102A900002F036F800214DF20A4002F031F88121AF
:102AA0004DF20B4002F02CF800214DF20C4002F0E8
:102AB00027F8A6214DF20D4002F022F800214DF238
:102AC0000E4002F01DF8E5214DF20F4002F018F81B
:102AD00001214DF2104002F013F813214DF2114084
:102AE00002F00EF801214DF2124002F009F85421D3
:102AF0004DF2134002F004F801214DF2144001F0B0
:102B0000FFFF82214DF2154001F0FAFF01214DF245
:102B1000164001F0F5FFCA214DF2174001F0F0FF19
:102B200002214DF2184001F0EBFF00214DF2194057
:102B300001F0E6FF02214DF21A4001F0E1FF012110
:102B40004DF21B4000E006E301F0DAFF02214DF2F6
:102B50001C4001F0D5FF34214DF21D4001F0D0FFA3
:102B600002214DF21E4001F0CBFF67214DF21F40C4
:102B700001F0C6FF02214DF2204001F0C1FF842187
:102B80004DF2214001F0BCFF02214DF2224001F044
:102B9000B7FFA4214DF2234001F0B2FF02214DF214
:102BA000244001F0ADFFB7214DF2254001F0A8FF10
:102BB00002214DF2264001F0A3FFCF214DF2274024
:102BC00001F09EFF02214DF2284001F099FFDE2125
:102BD0004DF2294001F094FF02214DF22A4001F00C
:102BE0008FFFF2214DF22B4001F08AFF02214DF2BE
:102BF0002C4001F085FFFE214DF22D4001F080FFB9
:102C000003214DF22E4001F07BFF10214DF22F40A9
:102C100001F076FF03214DF2304001F071FF3321C6
:102C20004DF2314001F06CFF03214DF2324001F0D2
:102C300067FF6D214DF2334001F062FF00214FF438
:102C4000554001F05DFF33214DF2015001F058FF76
:102C500000214DF2025001F053FF34214DF2035098
:102C600001F04EFF00214DF2045001F049FF3A21DE
:102C70004DF2055001F044FF00214DF2065001F0E5
:102C80003FFF4A214DF2075001F03AFF00214DF27B
:102C9000085001F035FF5C214DF2095001F030FF82
:102CA00000214DF20A5001F02BFF81214DF20B5013
:102CB00001F026FF00214DF20C5001F021FFA6216A
:102CC0004DF20D5001F01CFF00214DF20E5001F0AD
:102CD00017FFE5214DF20F5001F012FF01214DF2D7
:102CE000105001F00DFF13214DF2115001F008FFBB
:102CF00001214DF2125001F003FF54214DF2135007
:102D000001F0FEFE01214DF2145001F0F9FE822186
:102D10004DF2155001F0F4FE01214DF2165001F074
:102D2000EFFECA214DF2175001F0EAFE02214DF2EA
:102D3000185001F0E5FE00214DF2195001F0E0FEBF
:102D400002214DF21A5001F0DBFE01214DF21B5021
:102D500001F0D6FE02214DF21C5001F0D1FE3421CB
:102D60004DF21D5001F0CCFE02214DF21E5001F03B
:102D7000C7FE67214DF21F5001F0C2FE02214DF245
:102D8000205001F0BDFE84214DF2215001F0B8FE2B
:102D900002214DF2225001F0B3FEA4214DF2235046
:102DA00001F0AEFE02214DF2245001F0A9FEB72140
:102DB0004DF2255001F0A4FE02214DF2265001F003
:102DC0009FFECF214DF2275001F09AFE02214DF2D5
:102DD000285001F095FEDE214DF2295001F090FEC1
:102DE00002214DF22A5001F08BFEF2214DF22B50C0
:102DF00001F086FE02214DF22C5001F081FEFE21F1
:102E00004DF22D5001F07CFE03214DF22E5001F0C9
:102E100077FE10214DF22F5001F072FE03214DF28A
:102E2000305001F06DFE33214DF2315001F068FE5B
:102E300003214DF2325001F063FE6D214DF233500B
:102E400001F05EFE00214FF4564001F059FE33219F
:102E50004DF2016001F054FE00214DF2026001F0DC
:102E60004FFE34214DF2036001F04AFE00214DF285
:102E7000046001F045FE3A214DF2056001F040FE8C
:102E800000214DF2066001F03BFE4A214DF2076041
:102E900001F036FE00214DF2086001F031FE5C21A8
:102EA0004DF2096001F02CFE00214DF20A6001F0A4
:102EB00027FE81214DF20B6001F022FE00214DF230
:102EC0000C6001F01DFEA6214DF20D6001F018FE10
:102ED00000214DF20E6001F013FEE5214DF20F606E
:102EE00001F00EFE01214DF2106001F009FE1321E8
:102EF0004DF2116001F004FE01214DF2126001F06B
:102F0000FFFD54214DF2136001F0FAFD01214DF255
:102F1000146001F0F5FD82214DF2156001F0F0FD25
:102F200001214DF2166001F0EBFDCA214DF2176050
:102F300001F0E6FD02214DF2186001F0E1FD0021F3
:102F40004DF2196001F0DCFD02214DF21A6001F032
:102F5000D7FD01214DF21B6001F0D2FD02214DF29F
:102F60001C6001F0CDFD34214DF21D6001F0C8FD63
:102F700002214DF21E6001F0C3FD67214DF21F607A
:102F800001F0BEFD02214DF2206001F0B9FD842167
:102F90004DF2216001F0B4FD02214DF2226001F0FA
:102FA000AFFDA4214DF2236001F0AAFD02214DF2F4
:102FB000246001F0A5FDB7214DF2256001F0A0FDD0
:102FC00002214DF2266001F09BFDCF214DF22760DA
:102FD00001F096FD02214DF2286001F091FDDE2105
:102FE0004DF2296001F08CFD02214DF22A6001F0C2
:102FF00087FDF2214DF22B6001F082FD02214DF29E
:103000002C6001F07DFDFE214DF22D6001F078FD78
:1030100003214DF22E6001F073FD10214DF22F605F
:1030200001F06EFD03214DF2306001F069FD3321A6
:103030004DF2316001F064FD03214DF2326001F088
:103040005FFD6D214DF2336001F05AFD55214FF4C3
:10305000704001F055FDAA214FF2010001F050FD32
:1030600052214FF2020001F04BFD08214FF2030004
:1030700001F046FD00214FF2040001F041FDCC219A
:103080004FF4314001F03CFD00214BF2011001F002
:1030900037FD05214FF4364001F032FD70214FF429
:1030A000374001F02DFD70214BF2017001F028FD39
:1030B00001214FF4384001F023FD03214BF60100BC
:1030C00001F01EFD03214BF6020001F019FD032162
:1030D0004BF6030001F014FD02214FF43C4001F0D7
:1030E0000FFD00214BF6014001F00AFD00214BF6D7
:1030F000024001F005FDD0214FF4494001F000FDF0
:1031000002214CF6011001F0FBFC50214CF602109C
:1031100001F0F6FC50214CF6031001F0F1FC5021B7
:103120004CF6041001F0ECFC00214FF4545001F077
:10313000E7FC55214FF4685001F0E2FC4FF4885051
:1031400001F0CEFC782001F0EDFF4FF4245001F0A7
:10315000C7FC01F05EB9FE48808849F225318842FB
:103160007ED147F6F001E52001F0CAFC4FF48071F2
:10317000012001F0C5FC4FF4E061022001F0C0FC29
:1031800041F23001032001F0BBFC0021042001F0DA
:10319000B7FC40F20221082001F0B2FC0021092016
:1031A00001F0AEFC00210A2001F0AAFC00210C2055
:1031B00001F0A6FC00210D2001F0A2FC00210F204F
:1031C00001F09EFC0021102001F09AFC0721112043
:1031D00001F096FC0021122001F092FC0021132046
:1031E00001F08EFC0021072001F08AFC41F2906181
:1031F000102001F085FC40F22721112001F080FC15
:103200009D21122001F07CFC4FF4C851132001F0E5
:1032100077FC2521292001F073FC0D212B2001F0E2
:103220006FFC0721302001F06BFC40F203313120AC
:1032300001F066FC0321322001F062FC40F206211D
:10324000352001F05DFC0821362001F059FC40F2E8
:103250000641372001F054FC4FF44171382000E062
:1032600057E001F04DFC0721392001F049FC40F204
:1032700002613C2001F044FC08213D2001F040FCAB
:103280000021502001F03CFCEF21512001F038FCDE
:103290000021522001F034FC40F23F11532001F094
:1032A0002FFC4FF42741602001F02AFC012161200E
:1032B00001F026FC00216A2001F022FC0021802080
:1032C00001F01EFC0021812001F01AFC0021822067
:1032D00001F016FC0021832001F012FC0021842063
:1032E00001F00EFC0021852001F00AFC1021902045
:1032F00001F006FC4FF4C061922001F001FC40F2A5
:103300003311072001F0FCFB2221002001F0F8FB23
:103310001FE78F48808849F2283188427ED141F2E8
:103320008F01EC2001F0ECFB41F23421EF2001F0A1
:10333000E7FB4FF48071012001F0E2FB4FF4E06104
:10334000022001F0DDFB41F23001032001F0D8FB47
:103350000021042001F0D4FB40F20221082001F0FA
:10336000CFFB0021092001F0CBFB00210A2001F056
:10337000C7FB01210C2001F0C3FB00210D2001F04F
:10338000BFFB00210F2001F0BBFB0021102001F04A
:10339000B7FB0721112001F0B3FB0021122001F03F
:1033A000AFFB0021132001F0ABFB0121072001F04E
:1033B000A7FB322001F098FE41F29041102001F06D
:1033C0009FFB40F22721112001F09AFB322001F0EF
:1033D0008BFE8A21122001F093FB322001F084FE43
:1033E0004FF4D051132001F08BFB0621292001F06E
:1033F00087FB0D212B2001F083FB322001F074FEAE
:103400000021202001F07CFB0021212001F078FB2D
:10341000322001F069FE0021302000E074E001F06C
:103420006FFB40F20461312001F06AFB40F205318C
:10343000322001F065FB0021352001F061FB40F6F0
:103440000941362001F05CFB4FF40171372001F097
:1034500057FB40F20131382001F052FB40F2077176
:10346000392001F04DFB00213C2001F049FB40F6E2
:103470000A213D2001F044FB322001F035FE0021FD
:10348000502001F03DFBEF21512001F039FB0021DC
:10349000522001F035FB40F23F11532001F030FB88
:1034A0004FF42741602001F02BFB0121612001F046
:1034B00027FB00216A2001F023FB0021802001F07E
:1034C0001FFB0021812001F01BFB0021822001F065
:1034D00017FB0021832001F013FB0021842001F061
:1034E0000FFB0021852001F00BFB1021902001F043
:1034F00007FB4FF4C061922001F002FB40F2331150
:10350000072001F0FDFA24E61148808849F22031B5
:1035100088427DD10021084601F0F2FA4FF4807113
:10352000012001F0EDFA4FF4E061022001F0E8FA29
:1035300041F23001032001F0E3FA0021042001F000
:10354000DFFA40F20221082001F0DAFA002101E05E
:1035500018020020092001F0D3FA00210A2001F00E
:10356000CFFA01210C2001F0CBFA00210D2001F04F
:10357000C7FA00210F2001F0C3FA322001F0B4FD98
:1035800040F20111072001F0BBFA322001F0ACFD3E
:103590004FF48651102001F0B3FA0721112001F0F9
:1035A000AFFA4FF48871122001F0AAFA4FF430619B
:1035B000132001F0A5FA0021292001F0A1FA44F21C
:1035C00010012B2001F09CFA0021502001F098FA04
:1035D000EF21512001F094FA0021522001F090FADD
:1035E00040F23F11532001F08BFA4FF41C51602040
:1035F00001F086FA0121612001F082FA00216A209F
:1036000001F07EFA0021802001F07AFA002100E02A
:1036100031E0812001F074FA0021822001F070FA7B
:103620000021832001F06CFA0021842001F068FA67
:103630000021852001F064FA1021902001F060FA49
:103640000021922001F05CFA0121932001F058FA48
:103650004FF48871952001F053FA0021972001F072
:103660004FFA0021982001F04BFA40F27311072025
:1036700001F046FA6DE5FE48808849F23131884212
:103680007DD141F21401E72001F03AFA4FF4807144
:10369000012001F035FA4FF40071022001F030FAF8
:1036A00041F23801032001F02BFA40F202210820F8
:1036B00001F026FA0021092001F022FA00210A2057
:1036C00001F01EFA00210C2001F01AFA00210D2051
:1036D00001F016FA00210F2001F012FA002110204B
:1036E00001F00EFA0721112001F00AFA0021122040
:1036F00001F006FA0021132001F002FAC82001F0BF
:10370000F3FC41F29061102001F0FAF940F2272118
:10371000112001F0F5F9322001F0E6FC0C21122015
:1037200001F0EEF9322001F0DFFC4FF400611320CC
:1037300001F0E6F91121292001F0E2F90B212B20FB
:1037400001F0DEF9322001F0CFFC0021202001F051
:10375000D7F940F23F11212001F0D2F900213020A9
:1037600001F0CEF94FF48371312001F0C9F9002145
:10377000322001F0C5F94FF40171352000E064E01A
:1037800001F0BEF941F20A61362001F0B9F940F2C8
:103790000771372001F0B4F94FF48371382001F03C
:1037A000AFF940F20771392001F0AAF940F2024165
:1037B0003C2001F0A5F940F60F413D2001F0A0F9B1
:1037C0000021502001F09CF9EF21512001F098F9DF
:1037D0000021522001F094F940F23F11532001F0F2
:1037E0008FF94FF41C51602001F08AF9012161200A
:1037F00001F086F900216A2001F082F90021802081
:1038000001F07EF90021812001F07AF90021822067
:1038100001F076F90021832001F072F90021842063
:1038200001F06EF90021852001F06AF91021902045
:1038300001F066F94FF4C061922001F061F940F2A5
:103840003311072001F05CF983E48948808845F250
:10385000084188427ED14FF48071012001F050F977
:103860004FF4E061022001F04BF941F230010320F6
:1038700001F046F90021042001F042F940F207214D
:10388000082001F03DF90021092001F039F900215B
:103890000A2001F035F900210C2001F031F9002156
:1038A0000D2001F02DF900210F2001F029F914203D
:1038B00001F01AFC41F2B061102001F021F9012160
:1038C000112001F01DF90121172001F019F94FF421
:1038D0009C71122001F014F94FF40061132001F0E3
:1038E0000FF90921292001F00BF909212A2001F003
:1038F00007F90021A42001F003F90021502001F074
:10390000FFF8EF21512001F0FBF80021522001F0D7
:10391000F7F840F23F11532001F0F2F84FF41C5138
:10392000602001F0EDF80121612001F0E9F80021AB
:103930006A2001F0E5F80021802001F0E1F8002183
:10394000812001F0DDF80021822001F0D9F800216A
:10395000832000E023E001F0D3F80021842001F06F
:10396000CFF80021852001F0CBF81321902001F041
:10397000C7F80021922001F0C3F80321932001F041
:10398000BFF84FF48871952001F0BAF840F2731136
:10399000072001F0B5F8322001F0A6FBB8E4344866
:1039A000808841F2055188427ED10021072001F034
:1039B000A7F8322001F098FB4FF48E71122001F02D
:1039C0009FF80121A42001F09BF80F21082001F0AD
:1039D00097F808210A2001F093F808210D2001F042
:1039E0008FF840F20771302001F08AF8072131206A
:1039F00001F086F840F20361322001F081F84FF4C3
:103A0000E061332001F07CF840F20221342001F023
:103A100077F80221352001F073F841F60F71362056
:103A200001F06EF840F20771372001F069F80021CB
:103A3000382001F065F80021392001F061F840F2EA
:103A400007713A2001F05CF800213B2001F058F8A2
:103A500007213C2001F054F800213D2001F050F8EE
:103A6000322001F041FB0121072001F049F801E07B
:103A7000180200200121172001F042F8322001F045
:103A800033FB4FF4BD51102001F03AF840F21721FA
:103A9000112001F035F84FF48F71122001F030F849
:103AA0004FF47061132000E097E001F029F8002145
:103AB0002A2001F025F80A21292001F021F84FF4ED
:103AC0009F71122001F01CF80021502001F018F81D
:103AD000EF21512001F014F80021522001F010F8DC
:103AE00040F23F11532001F00BF84FF41C516020BD
:103AF00001F006F80121612001F002F800216A209E
:103B000000F0FEFF0021802000F0FAFF002181205C
:103B100000F0F6FF0021822000F0F2FF0021832058
:103B200000F0EEFF0021842000F0EAFF0021852054
:103B300000F0E6FF1321902000F0E2FF4FF4407107
:103B4000922000F0DDFF0521932000F0D9FF002135
:103B5000952000F0D5FF0021972000F0D1FF002133
:103B6000982000F0CDFF4FF48071012000F0C8FFD5
:103B70004FF4E061022000F0C3FF41F2380103205E
:103B800000F0BEFF0021042000F0BAFF00210C204D
:103B900000F0B6FF00210F2000F0B2FF002120202E
:103BA00000F0AEFF0021212000F0AAFF2121072014
:103BB00000F0A6FF142001F097FA6121072000F021
:103BC0009FFF142001F090FA40F27311072000F0DB
:103BD00097FF142001F088FA95E4FE4880884BF2A4
:103BE000055188427ED10021084600F089FF00215E
:103BF000084600F085FF0021084600F081FF002103
:103C0000084600F07DFF0121A42000F079FF142078
:103C100001F06AFA4FF41C51602000F071FF40F28D
:103C20000221082000F06CFF4FF40571302000F0F5
:103C300067FF43F21571312000F062FF40F204612A
:103C4000322000F05DFF40F61661332000F058FF8F
:103C500042F21121342000F053FF4FF4A8513520D7
:103C600000F04EFF48F20751362000F049FF41F2C4
:103C70000741372000F044FF41F20341382000F0B3
:103C80003FFF2021392000F03BFF1A21902000F057
:103C900037FF0021102000F033FF0721112000F032
:103CA0002FFF0021122000F02BFF0021132000F035
:103CB00027FF142001F018FA4FF4E661102000F0FD
:103CC0001FFF40F23711112000F01AFF142001F0FD
:103CD0000BFA4FF4DC71122000F012FF142001F0F7
:103CE00003FA00E083E04FF47061132000F008FF56
:103CF00080212A2000F004FF4821292000F000FF45
:103D0000142001F0F1F94FF48071012000F0F8FE69
:103D10004FF4E061022000F0F3FE41F2380103208D
:103D200000F0EEFE40F20221082000F0E9FE002142
:103D30000A2000F0E5FE00210C2000F0E1FE002149
:103D40000D2000F0DDFE30210E2000F0D9FE002114
:103D5000502000F0D5FEEF21512000F0D1FE0021CF
:103D6000522000F0CDFE40F23F11532000F0C8FE7B
:103D70004FF41C51602000F0C3FE0121612000F0CF
:103D8000BFFE00216A2000F0BBFE1121902000F050
:103D9000B7FE4FF4C061922000F0B2FE40F2024143
:103DA000932000F0ADFE0221942000F0A9FE142023
:103DB00001F09AF90121072000F0A2FE142001F081
:103DC00093F96121072000F09BFE40F27311072058
:103DD00000F096FE0021202000F092FE002121201C
:103DE00000F08EFE2221002000F08AFE11E37948C7
:103DF00080884CF2055188427ED10021084600F0AF
:103E00007FFE0021084600F07BFE142001F06CF9D3
:103E10000021084600F074FE0021084600F070FE04
:103E20000021084600F06CFE0021084600F068FE04
:103E30000121A42000F064FE142001F055F94FF494
:103E40001C51602000F05CFE40F60601082000F0E6
:103E500057FE40F20371302000F052FE0121312064
:103E600000F04EFE0421322000F04AFE4FF4817132
:103E7000332000F045FE4FF44071342000F040FE46
:103E800040F20311352000F03BFE1F21362000F0E8
:103E900037FE40F20371372000F032FE0121382056
:103EA00000F02EFE0421392000F02AFE152190207A
:103EB00000F026FE4FF48261102000F021FE40F257
:103EC0004721112000F01CFE4FF4DE71122000F09B
:103ED00017FE4FF46061132000F012FE782001F00D
:103EE00003F94FF48071012000F00AFE4FF40071D5
:103EF000022000F005FE00E050E041F23001032016
:103F000000F0FEFD08210A2000F0FAFD00210C203F
:103F100000F0F6FD20210E2000F0F2FD00210F2020
:103F200000F0EEFD0021202000F0EAFD002121201C
:103F300000F0E6FD3D212A2000F0E2FD142001F012
:103F4000D3F82D21292000F0DBFD0021502000F0C6
:103F5000D7FD4DF2EF01512000F0D2FD002152209B
:103F600000F0CEFD40F23F11532000F0C9FD0021CA
:103F7000612000F0C5FD00216A2000F0C1FD4FF472
:103F80004071922000F0BCFD0521932000F0B8FDA7
:103F90004FF48071072000F0B3FD3AE20D488088AD
:103FA00044F2315188427CD10121002000F0A8FD6B
:103FB0000A2001F099F841F22861102000F0A0FDDC
:103FC0000E21122000F09CFD40F63921132000F054
:103FD00097FD01E0180200200A2001F085F8402139
:103FE000112000F08DFD5021152000F089FD0A20E0
:103FF00001F07AF81E21122000F082FD0A2001F063
:1040000073F84FF4B151102000F07AFD42F63921D7
:10401000132000F075FD0A2001F066F84FF480715E
:10402000012000F06DFD4FF44071022000F068FDAA
:1040300041F23801032000F063FD40F20221082024
:1040400000F05EFD08210A2000F05AFD002130201A
:1040500000F056FD40F20241312000F051FD4FF4D6
:104060008371322000F04CFD40F20351332000F008
:1040700047FD4FF48271342000F042FD40F20131DF
:10408000352000F03DFD40F20771362000F038FD8C
:1040900040F20531372000F033FD4FF40271382033
:1040A00000E040E000F02CFD40F60B71392000F0FC
:1040B00027FD0221412000F023FD4FF41C51602018
:1040C00000F01EFD0121612000F01AFD4FF4047183
:1040D000902000F015FD4FF48571922000F010FD46
:1040E0000421932000F00CFD4FF48071A02000F01B
:1040F00007FD0121072000F003FD2121072000F02A
:10410000FFFC2321072000F0FBFC3321072000F0F7
:10411000F7FC40F23311072000F0F2FC0021A02050
:1041200000F0EEFC75E1C048808844F235518842C9
:104130007ED13021152000F0E3FC10219A2000F000
:10414000DFFC2021112000F0DBFC43F2284110208D
:1041500000F0D6FC0221122000F0D2FC41F238011E
:10416000132000F0CDFC282000F0BEFF12210846ED
:1041700000F0C6FC282000F0B7FF43F220411020D9
:1041800000F0BEFC43F23801132000F0B9FC4620D9
:1041900000F0AAFF0021302000F0B2FC40F2024102
:1041A000312000F0ADFC40F20731322000F0A8FCD5
:1041B0004FF44171332000F0A3FC0421342000F0BF
:1041C0009FFC40F20141352000F09AFC40F207715B
:1041D000362000F095FC40F20531372000F090FCCD
:1041E0004FF4C261382000F08BFC4FF4C2613920DB
:1041F00000F086FC4FF48071012000F081FC4FF448
:104200004071022000F07CFC41F23001032000F0FC
:1042100077FC40F60801082000F072FC08210A2013
:1042200000F06EFC4FF41C51602000F069FC00E0CF
:1042300031E00121612000F063FC4FF49F71902078
:1042400000F05EFC4FF48071922000F059FC4FF4B6
:104250008071932000F054FC4FF44051A02000F0F6
:104260004FFC1021A32000F04BFC0121072000F09F
:1042700047FC2121072000F043FC2321072000F008
:104280003FFC3321072000F03BFC40F233110720B4
:1042900000F036FCBDE06448808841F66311884236
:1042A000F8D1E22000F01CFC1D2000F013FC0220DD
:1042B00000F010FC042000F00DFC642000F032FF40
:1042C000E02000F00DFC012000F004FC0A2000F0CA
:1042D0000BFFE02000F004FC032000F0FBFB0C20AF
:1042E00000F002FF012000F0FBFB0A2000F0FCFEC2
:1042F000E62000F0F5FB2F2000F0ECFBFF2000F0A3
:10430000E9FBFF2000F0E6FBB02000F0E9FB2020F5
:1043100000F0E0FB002000F0DDFB032000F0DAFB02
:1043200040F21F3000F0D6FB012000F0D3FB40F23A
:10433000DF1000F0CFFB002000F0CCFBB42000F039
:10434000CFFB042000F0C6FB40F21F4000F0C2FB90
:10435000002000F0BFFB2E2000F0BCFB002000F08E
:10436000B9FB002000F0B6FB002000F0B3FB0020FA
:1043700000F0B0FBB62000F0B3FB022000F0AAFB77
:104380004FF4037000F0A6FB002000F0A3FB172001
:1043900000F0A0FB152000F09DFB002000F09AFB30
:1043A000002000F097FBF02000F09AFB032000F0C3
:1043B00091FB292000F094FBD02000F091FB00201D
:1043C00000F088FBBE2000F08BFB052000F082FB94
:1043D000FE2000F07FFB012000F07CFB002000F0BD
:1043E00079FB002000F076FB002000F073FBB82082
:1043F00000F076FB032000F06DFB012000F06AFB6B
:10440000BA2000F06DFB012000F064FB642000F096
:1044100025F80020FCF728FA0120044908604FF62F
:10442000FF70FCF7EBF910BD1802002080812142DB
:1044300008B5034800880090BDF8000008BD0000E2
:104440000008006C10B50446204600F049FB05202A
:1044500000F068FEFFF7ECFF10BD00002DE9F0470B
:104460000446BE2000F03CFB052000F033FB204654
:1044700002F0DFF807464FF066320C4B02F0ECF822
:10448000054602F0A9F81FFA80F9484600F022FB21
:10449000012000F01FFBFF2000F01CFB002000F0BB
:1044A00019FB002000F016FBBDE8F08766660440AB
:1044B00070B5044600230026B748807901280BD147
:1044C000B548808846F60401884205D0B248808805
:1044D00041F66311884208D1AF488079F0B9AE48FF
:1044E000808841F66311884218D1082C15D2DFE884
:1044F00004F00406080A0C0E101206240DE007242E
:104500000BE0042409E0052407E0012405E0002471
:1045100003E0032401E0022400BF00BF9E4880881E
:1045200049F24131884217D09B48808846F6040101
:10453000884211D09848808845F2103188420BD0CB
:104540009548808845F21051884205D0924880886D
:1045500041F6631188427DD1082C1CD2DFE804F0BB
:104560000406090C0F12151800BF14E043F0800375
:1045700011E043F040030EE043F0C0030BE043F0D2
:10458000200308E043F0600305E043F0A00302E0ED
:1045900043F0E00300BF00BF7F48808845F2105120
:1045A000884202D14FF4585600E036267A48808877
:1045B00045F2103188420DD07748808845F210517D
:1045C000884207D07448808841F66311884201D040
:1045D00043F008037048808846F60401884201D100
:1045E00043F002031946304600F08AFA6A48808890
:1045F00041F6631188421DD003F0200068B166487F
:10460000008865494988884214DA634805884088EB
:1046100061490880084645800CE05F4800885E4993
:104620004988884206DD5C48058840885A490880E8
:10463000084645805848808845F21051884254D138
:104640005549488900F04CFA002000F043FA5249DD
:10465000498900E078E0491C88B200F041FA002066
:1046600000F038FA4C494989891C88B200F038FAC0
:1046700049490988491EC1F30F2000F02BFA464929
:104680004989C91C88B200F02BFA43490978491EB0
:10469000C8B200F01FFA4049888900F021FA0020D2
:1046A00000F018FA3C498989491C88B200F018FAD0
:1046B000002000F00FFA38498989891C88B200F07F
:1046C0000FFA35494988491EC1F30F2000F002FA5C
:1046D00031498989C91C88B200F002FA2E498978CB
:1046E000491EC8B200F0F6F955E02B49488900F0A0
:1046F000F7F9002000F0EEF9002000F0EBF9264970
:104700000988491EC1F30F2000F0E4F92249097815
:10471000491EC8B200F0DEF91F49888900F0E0F9AF
:10472000002000F0D7F9002000F0D4F91A49498898
:10473000491EC1F30F2000F0CDF917498978491EB1
:10474000C8B200F0C7F926E0082C1CD2DFE804F05C
:1047500004070A0D0F12151843F0300313E043F05D
:10476000100310E043F020030DE000BF0BE043F026
:10477000380308E043F0280305E043F0180302E0A3
:1047800043F0080300BF00BF032643F480531946DB
:10479000304600F0B5F970BD1802002010B5034690
:1047A0000C466748808849F24131884205D0644808
:1047B000808845F21031884214D16149488900F05F
:1047C0008FF9181200F086F9D8B200F083F95C492D
:1047D000888900F085F9201200F07CF9E0B200F041
:1047E00079F9ABE05648808846F6040188421DD12D
:1047F00053488079012804D151480088401EC01ACE
:1048000083B24F49488900F06BF9181200F062F941
:10481000D8B200F05FF94A49888900F061F92012A6
:1048200000F058F9E0B200F055F987E0444880887C
:1048300041F66311884247D141488079A8B9404880
:104840000088401EC01A83B23D49488900F048F9EB
:10485000002000F03FF9002000F03CF9181200F0B1
:1048600039F9D8B200F036F916E03549488900F038
:1048700037F9181200F02EF9D8B200F02BF93049B0
:104880000988491EC1F30F2000F024F92C4909784A
:10489000491EC8B200F01EF92949888900F020F9A4
:1048A000201200F017F9E0B200F014F92449498809
:1048B000491EC1F30F2000F00DF921498978491EE6
:1048C000C8B200F007F939E01D48808845F2105160
:1048D000884220D11A49488900F002F9181200F0E4
:1048E000F9F817494989491C88B200F0F9F8D8B29B
:1048F00000F0F0F81249888900F0F2F8201200F078
:10490000E9F80F498989491C88B200F0E9F8E0B25A
:1049100000F0E0F812E00A488079012804D1084844
:104920000088401EC01A83B205494889194600F024
:10493000E7F803498889214600F0E2F810BD00003D
:10494000180200202DE9F84F80460E4617461C46F7
:10495000B3462046E31704EB5373DB1021464FEABE
:10496000E47C04EB5C7C4FEAEC0CA4EBCC0CBCF1DB
:10497000000F02D04FF0010C01E04FF0000C634437
:10498000224604EBD27C4FEA6C0C03FB0CF3DBB247
:104990000093A7F12000C7B2002556E00C2C07D1E8
:1049A00007EB47002B4901EB800010F8059013E05E
:1049B000102C05D1284800EB071010F805900BE0EB
:1049C000182C07D107EBC700244901EB800010F831
:1049D000059001E0BDE8F88F4FF0000A2FE009F0E4
:1049E000800030B11E48028831464046FCF71CF872
:1049F00007E00A9828B91B48028831464046FCF770
:104A000013F84FEA49604FEA1069701C86B21648E5
:104A10004088B04200DCDDE7A6EB0B00A0420AD1E3
:104A20005E4608F101001FFA80F80F4800884045F3
:104A300000DCCFE706E00AF1010000F0FF0ABAF15E
:104A4000080FCCDB00BF681CC5B200988542A5DB0F
:104A500000BFBFE7AF6D000823720008137800089D
:104A60000A0000200C000020180200202DE9F84761
:104A700004460D4690469946DDE9096704F0FF0AB1
:104A800008EB04001FFA80F809EB05001FFA80F913
:104A900016E0444502DB5446A81985B24D4500DBBB
:104AA00014E0002000903A78334629462046FFF76C
:104AB00049FF304606EBD07104EB61018CB27F1CDC
:104AC00038787E2802DC38782028E2DA00BFBDE89A
:104AD000F887000001490880704700000008006C5A
:104AE0000149088070470000FE07006C02480089F9
:104AF000024908807047000018020020FE07006C81
:104B0000024A1080921C118070470000FE07006C62
:104B10001848806940F00800164988610846806995
:104B200040F0400088611448006820F47000124989
:104B300008600846006840F4401008600E480C30D9
:104B4000006840F020000C490C3108600B480068F8
:104B500020F47000094908600846006840F44010DD
:104B6000086006480C30006840F0200003490C3112
:104B70000860704700100240000C0140001801401E
:104B800000B5002015490861C86014204861002064
:104B90008861C8610846006840F001000860084666
:104BA00040680F4908400D494860084600680D49B3
:104BB00008400A4908600846006820F48020086020
:104BC0000846406820F4FE0048600020886000210C
:104BD0004FF0006000F058F800BD000000100240E7
:104BE0000000FFF8FFFFF6FE2DE9F041074688467A
:104BF00014461D46284600F033F8C5F1040007FAB4
:104C000000F60F20284100EA0800064306F00F06D0
:104C1000E21704EBD2625211920002F1E022D2F8C4
:104C200000212146E31704EBD3635B11A4EB431C83
:104C3000012303FA0CF31A432046E31704EBD36372
:104C40005B119B0003F1E023C3F800210348005DE2
:104C500040EA061001490855BDE8F08100E400E093
:104C60000146072323EA01021202054B18684FF69A
:104C7000FF031840034B18431043014B1860704763
:104C80000CED00E00000FA05024A0A400243024B24
:104C90001A60704780FFFF1F08ED00E070B5054601
:104CA000002445F6FF7000F05FF80446C4B90D48D3
:104CB000006940F002000B4908610846456100693F
:104CC00040F04000086145F6FF7000F04DF80446E2
:104CD000012C05D00348006920F002000149086159
:104CE000204670BD002002400948C16801F0010063
:104CF00008B10120704701F0040008B10220F9E773
:104D000001F0100008B10320F4E70020F2E70000F2
:104D1000002002400348006940F08000014908611A
:104D2000704700000020024030B503460C4615468F
:104D3000002207E0184600F008F824F812009B1C37
:104D4000501C82B2AA42F5DB30BD0146088870478C
:104D5000024803494860034848607047230167459B
:104D600000200240AB89EFCD70B5044600BFFFF7CD
:104D7000BBFF0546012D00D006E0012000F0D2F96E
:104D8000601E84B2002CF2D100BF04B9FF25284672
:104D900070BD00002DE9F05F80468A461746B8F1E5
:104DA000006F02D33348804501D3BDE8F09FFFF781
:104DB000CFFFA8F1006B4FEADB25CBF34909C9F51A
:104DC0008064A74200DC3C464EE04FF0006101EBFE
:104DD000C5204A142849FFF7A7FF00260BE009EB7E
:104DE0000600254931F810004FF6FF71884200D0C7
:104DF00003E0701C86B2A642F1DB00BFA6421BDABC
:104E00004FF0006101EBC520FFF748FF002608E0E6
:104E10003AF8160006EB0901174A22F81100701C37
:104E200086B2A642F4DB4FF0006101EBC5204A14C4
:104E3000114900F043F804E022465146404600F094
:104E40003DF8A74200D110E06D1C4FF000090AEBBD
:104E5000440A08EB4408381B87B2B7F5806F02DDBF
:104E60004FF4806400E03C46AFE700BFFFF752FF1D
:104E700000BF9AE7000008082602002070B505462A
:104E80000E46FF20FFF770FF044694B90A480069F8
:104E900040F00100084908612E80FF20FFF764FF01
:104EA0000446012C05D00448006920F001000249A5
:104EB0000861204670BD0000002002402DE9F0414D
:104EC00005460E461746002407E036F8141028461B
:104ED000FFF7D4FFAD1C601C84B2BC42F5DBBDE81B
:104EE000F081000030B504460025FFF749FE1F4859
:104EF000006840F480301D49086000BF1B4800680E
:104F0000400C0028FAD04FF4806018494860A01E79
:104F1000C4B20846406840EA844048600846406899
:104F200040F4803048601248006840F03200104978
:104F300008600E48006840F080700C49086000BFAF
:104F40000A480068400E0028FAD00848406840F03F
:104F500002000649486005E004484068C0F3870540
:104F600005F00305022DF7D130BD0000001002400E
:104F70000020024010B50C48008800F0010058B134
:104F80000A490869804700200749143108804FF416
:104F90007A7005491C3108800348008820F0010020
:104FA0000149088010BD0000100800405C0000208E
:104FB00013B50446012201A92046FFF7EBFE1CBDF4
:104FC00070B505460C461048C06940F004000E4913
:104FD000C8610E480580001F04800C4820380088F6
:104FE00040F0010009492039088008482C38008821
:104FF00040F0010005492C39088002231E220321BC
:105000000846FFF7F1FD70BD001002402C0800407B
:105010001D49098801F0200111B31B49091D0988A8
:10502000C8B21A49098801F40041C9B91749098869
:1050300001F4804161B10A2803D00021134A118094
:1050400020E01249098841F40041104A118019E01A
:105050000D2806D10D49098841F480410B4A118081
:1050600010E00A490988C1F30D01094A5054074963
:105070000988491C054A118011460988C72901DDA4
:105080000021118070470000003801400800002016
:105090005001002030380A2801D20120704700203A
:1050A0007047014600BF70474FF0E021096921F0C9
:1050B00004014FF0E0221161C21700EB5272C2F3FB
:1050C000C702074B1A701946097801EB4102C2EB7F
:1050D000C1114FF6FF7202EAC101024A1180704706
:1050E000000000200200002001460D4A12884A43B9
:1050F0004FF0E0235A6100229A6101221A6100BF39
:105100004FF0E022106900F001021AB100F4803281
:10511000002AF5D000224FF0E0231A619A6170470F
:105120000200002001460D4A12784A434FF0E02366
:105130005A6100229A6101221A6100BF4FF0E022F9
:10514000106900F001021AB100F48032002AF5D093
:1051500000224FF0E0231A619A617047000000209E
:1051600000BF054A128802F04002002AF9D0C2B2FC
:10517000014B1B1D1A8070470038014088B0002485
:1051800000250920FFF7AEFE4FF4E131482000F082
:105190000FF94820FFF788FF4F48416848208847AB
:1051A000FFF7B6FCFBF7B8FAFBF75AFD4FF478406F
:1051B0004A4908804AA010210B46C822CDE90010B8
:1051C00032211E20FFF752FC4AA010210B46C822B4
:1051D000CDE9001046211E20FFF748FC4AA010210F
:1051E0000B46C822CDE900105A211E20FFF73EFCD5
:1051F00049A010210B46C822CDE900106E211E20C7
:10520000FFF734FC47A010210B46C822CDE900105F
:1052100082211E20FFF72AFC5DE00020FBF7ACFA9C
:105220000446022C22D14FF6FF7040F23F13EF22CA
:10523000AA2100900020FBF7B5FC40A010210B46EE
:10524000C822CDE90010AA211E20FFF70FFC15226D
:1052500040494148FFF79EFD40A010210B46C8225F
:10526000CDE90010AA211E20FFF700FC012C22D15D
:1052700040A010210B46C822CDE90010AA211E2013
:10528000FFF7F4FB152202A93348FFF74DFD3FA0BD
:1052900010210B46C822CDE90010AA211E20FFF7DD
:1052A000E5FB02A810210B46C822CDE90010BE2163
:1052B0001E20FFF7DBFB681C85B20A20FFF714FFF6
:1052C000142D08D13748006808B9012000E00020FB
:1052D000344908600025A0E75C0000200A00002097
:1052E000454C4954452053544D33324631303320D8
:1052F0005E5F5E00464C41534820454550524F4D3D
:10530000205445535400000041544F4D40414C49F6
:10531000454E54454B000000323031352F312F318E
:10532000380000004B4559313A57726974652020A6
:105330004B4559303A526561640000005374617204
:105340007420577269746520464C4153482E2E2EA6
:105350002E0000009A6D000800000708464C4153DB
:10536000482057726974652046696E697368656480
:1053700021000000537461727420526561642046FC
:105380004C4153482E2E2E2E2000000054686520DC
:1053900044617461205265616465642049733A20F8
:1053A00020000000948121420146086870470000F7
:1053B0002DE9F05F05460E46300101F08FFB814676
:1053C0002E4905FB01F001F089FB8246494601F0B8
:1053D000A3FA0746384601F061FB84B2204601F08B
:1053E0007DFB8346394601F059FC82464FF08341EC
:1053F00001F088FB814601F051FB80464FF6FF70BB
:1054000000EA041404EB080084B21D48806940F0EF
:1054100004001B4988610846806940F48040886127
:105420001848006820F47F60164908600846006844
:1054300040F40B6008601248C06840F48040104996
:10544000C8600846C06820F48040C8600E480480E8
:10545000001D008842F20C0108430B49091D088019
:105460000846008840F020000880022325220321FE
:105470000846FFF7B9FBBDE8F09F000040420F006F
:1054800000100240040801400838014030B595B0D2
:10549000054613AB12AA09A9284600F03FFA0446B4
:1054A00014B1204615B030BD0020149026E02249EA
:1054B00009689DF8502001EBC20113AB11AA48689E
:1054C00001A900F02BFA04460CB12046EAE709A92D
:1054D00001A800F0DDFC60B99DF844009DF848107B
:1054E000884201DD0220DDE79DF8500012498875F1
:1054F0000AE09DF85000401CC0B214900E48007D98
:105500009DF850108842D2DC00BF0B48007D9DF80A
:105510005010884201D10420C4E714A9284600F0A5
:10552000DDFA04460CB12046BCE79DF85000024964
:1055300048750020B6E700005C0000202DE9F0412E
:105540009AB09C48847D007DA04202DC1AB0BDE880
:10555000F0819849096801EBC40106AB07AA4868C5
:1055600008A900F0DBF908A993A0FAF77BFE002652
:1055700044E09048008B0121B1400840D8B122217D
:105580008FA0FAF76FFE304600F02EFB89492431D8
:10559000471839468BA0FAF765FE222188A0FAF752
:1055A00061FE304600F020FB82492431084410A9F6
:1055B00041F8260018E0304600F016FB7D49243102
:1055C000085810A941F826007A48C07D30B910A8C3
:1055D00050F826107CA0FAF745FE05E010A850F818
:1055E00026107AA0FAF73EFE9DF81C00401EB0423D
:1055F00002D078A0FAF736FE701CC6B29DF81C00E7
:105600008642B6DB74A0FAF72DFE00F03DFB694838
:10561000407D0B280DD2DFE800F0060D151E273265
:105620003F4E5F7287006349096851F83400804734
:10563000054690E05F4A126852F834101098884787
:10564000054688E05B4B1B6853F83420DDE9100108
:10565000904705467FE0574F3F6857F8343010A811
:1056600007C89847054676E0DFF848C1DCF800C077
:105670005CF8347010A80FC8B84705466BE0149862
:10568000DFF830C10090DCF800C05CF8347010A87E
:105690000FC8B84705465EE0DDE91401DFF814C124
:1056A000CDE90001DCF800C05CF8347010A80FC828
:1056B000B84705464FE0DDE914121698DFF8F4C04C
:1056C000CDE900120290DCF800C05CF8347010A83C
:1056D0000FC8B84705463EE0DDE91423DDE91610A2
:1056E000DFF8D0C0CDE90023CDE90210DCF800C01E
:1056F0005CF8347010A80FC8B84705462BE0DDE908
:105700001523DDE91710CDE90123CDE90310149825
:10571000DFF8A0C00090DCF800C05CF8347010A87E
:105720000FC8B847054616E0DDE91623DDE9181075
:10573000CDE90223CDE90410DDE91401DFF874C0DE
:10574000CDE90001DCF800C05CF8347010A80FC887
:10575000B847054600BF00BF00F056FA9DF8180094
:1057600001280CD11348C07D20B929461BA0FAF7A7
:1057700079FD07E029461BA0FAF774FD02E018A0A6
:10578000FAF770FD0B4890F8EC0088B10948D0F8A2
:10579000F0000A21B0FBF1F201FB12070548D0F836
:1057A000F000B0FBF1F83A46414611A0FAF75AFD75
:1057B00000BFCBE65C0000200D0A25732800000026
:1057C0002563000025730000256C640030582558BF
:1057D000000000002C000000290000003D256C7531
:1057E0003B0D0A003D305825583B0D0A00000000D3
:1057F00046756E6374696F6E2052756E2054696DC4
:10580000653A25642E2531646D730D0A0000000091
:10581000F0B50346154600200022002600245BE078
:105820001F782C2F01D104B901221F78292F01D014
:105830001F780FB904B950E0002E3AD11F78302FED
:1058400002DB1F78392F17DD1F782D2F14D01F781A
:105850002B2F11D01F78612F02DB1F78662F0BDDF5
:105860001F78412F02DB1F78462F05DD1F78582F48
:1058700002D01F78782F0CD102B12EE01F78612F53
:1058800003DB1F78203F0F7001E01F780F70491C69
:105890001FE01F78222F04D102B11EE0012601244F
:1058A00017E01F78202F14D01F782C2F11D0FF263F
:1058B00013E01F78222F00D1002402B10DE044B183
:1058C0001F785C2F02D15B1C471CF8B21F780F7049
:1058D000491C471CF8B25B1CA2E700BF00270F70F1
:1058E0002E70F0BD10B50446002010700BE020783B
:1058F0000870641C491C1078401C10701078984285
:1059000001DB012010BD2078202802D0207800285B
:10591000EDD10020087000BFF4E700002DE9FF4F33
:1059200085B080468946002700200490039001201E
:1059300002904FF0000B002544461DE020782028FF
:1059400016D005F07F00052812DA0DB945F0800564
:1059500005F07F00042803D120782A2800D00EE02B
:10596000207805F07F010DF80100681CC5B202E047
:10597000852D00D103E0641C20780028DED100BF13
:105980008DB1002005F07F010DF8010051A168469E
:1059900000F07EFA18B900210898017002E0012198
:1059A0000898017000254FF0000A444614E0641C7A
:1059B0000AF1010000F0FF0A2078202802D02078A8
:1059C0002A2809D1204600F0D5F90646282E03D012
:1059D0002A2E01D0CDF810A02078282802D02078D7
:1059E0000028E4D14446049810B10498401C0444B3
:1059F0004FF0000A002654E0207810B94FF0010A59
:105A000050E02078282803D116B9781CC7B213E0DB
:105A10002078292808D13EB917B1781EC7B201E015
:105A20004FF0010A47B93DE02078222804D10EB991
:105A3000012000E00020064647B9207820282FD01A
:105A4000207889F8000009F1010929E020782C2844
:105A500004D101200290681CC5B214E020782028EF
:105A600011D0207828280ED04DB9BBF1050F06DAE9
:105A700020780DF80B000BF1010000F0FF0B0298ED
:105A8000401CC0B20290012F0AD10298022807D10F
:105A90000298401CC0B202900398401CC0B2039010
:105AA000641CA9E700BF0398012809D100200DF864
:105AB0000B0008A1684600F0EBF908B9002003903C
:105AC000079903980870002089F80000504609B033
:105AD000BDE8F08F766F6964000000002DE9F043A7
