:020000040800F2
:10000000E8070020D50100087D470008D718000840
:1000100079470008C1050008A54B00080000000052
:10002000000000000000000000000000A9470008D8
:10003000C5050008000000007F47000801480008CF
:10004000EF010008EF010008EF010008EF010008D0
:10005000EF010008EF010008EF010008EF010008C0
:10006000EF010008EF010008EF010008EF010008B0
:10007000EF010008EF010008EF010008EF010008A0
:10008000EF010008EF010008EF010008EF01000890
:10009000EF010008EF010008EF010008EF01000880
:1000A000EF010008EF010008EF010008EF01000870
:1000B000EF010008EF010008EF010008EF01000860
:1000C000EF010008EF010008EF010008EF01000850
:1000D000EF010008654B0008EF010008EF01000880
:1000E000EF010008EF010008EF010008EF01000830
:1000F000EF010008EF010008EF010008EF01000820
:10010000EF010008EF010008EF010008EF0100080F
:10011000EF010008EF010008EF010008EF010008FF
:10012000EF010008EF010008EF010008EF010008EF
:1001300000F002F800F03FF80AA090E8000C8244BA
:100140008344AAF10107DA4501D100F034F8AFF297
:10015000090EBAE80F0013F0010F18BFFB1A43F0A5
:10016000010318471097000030970000103A24BF91
:1001700078C878C1FAD8520724BF30C830C144BF0C
:1001800004680C607047000000230024002500264E
:10019000103A28BF78C1FBD8520728BF30C148BFEA
:1001A0000B607047782900F07F80002070471FB5F2
:1001B0001FBD10B510BD00F0D1F91146FFF7F7FFD4
:1001C00004F060FD00F0EFF903B4FFF7F2FF03BCA9
:1001D00004F00DFD0948804709480047FEE7FEE7A7
:1001E000FEE7FEE7FEE7FEE7FEE7FEE7FEE7FEE7E7
:1001F00004480549054A064B7047000009480008B5
:1002000031010008E8010020E8070020E803002091
:10021000E8030020704700000FB4044910B503AA9A
:10022000029800F085F910BC5DF814FB1400002062
:100230000FB41CB5074B06AA7B446946009005988D
:1002400000F05DF90020694600F06CF91CBC5DF817
:1002500014FB0000E902000070B5044685690068DF
:10026000C10601D5302600E02026C00707D070BDAA
:10027000D4E9012130469047206A401C20626D1E5F
:10028000F6D570BD70B5044685690078C00707D102
:1002900070BDD4E9012120209047206A401C2062D3
:1002A0006D1EF6D570BD000070B504460D462146A2
:1002B0001068AFF300802188090502D50F4A7A44FF
:1002C00002E00E4A7A440E32002104F1240305E0D4
:1002D00000F00F060009965D5E54491C0028F7D116
:1002E00020780023000704D5702D02D009B1022325
:1002F00011322046BDE8704000F0A2B876950000AB
:100300002DE9F05F894604464FF0000ADFF824B17A
:10031000FB44C0F820A02046E168884700287DD033
:10032000252806D0D4E901219047206A401C20628C
:10033000F1E700255F462046E16888472028064609
:1003400007DB312E05D2B81910F8200C08B105438F
:10035000F1E7A80701D525F00405C4F81CA0002783
:10036000C4F818A02A2E09D0304604F039FC38B35E
:1003700004EB8708303EC8F8186019E059F8041BF0
:10038000204604EB87029161E1688847012F064609
:1003900018D1E069002820DA25F020051DE0D8F802
:1003A000180000EB800006EB40003038C8F8180059
:1003B0002046E1688847064604F012FC0028EED18A
:1003C000012F0AD02E2E08D12046E16888477F1CD5
:1003D0000646022F45F02005C4DBA069002803DA99
:1003E000404245F00105A061E80701D025F0100565
:1003F000A6B1A6F14100192802D8203645F40065BF
:100400004A463146204625604D46FFF7CBFE60B197
:10041000012807D0ED1D25F0070000E007E000F1FE
:10042000080978E705F1040975E730467AE7206A9C
:10043000BDE8F09F4C9500007047704770477047CB
:100440002DE9F0470D4699469246044600F12408EE
:100450000168880604D5E06921F01001216000E000
:100460000120A84201DD471B00E00027A1697A199D
:1004700002EB0900081AA0612078C00602D42046C9
:10048000FFF7EAFE002608E0D4E901211AF8060089
:100490009047206A401C761C20624E45F4DB207891
:1004A000C0060AD52046FFF7D7FE06E0D4E90121B1
:1004B00030209047206A401C2062381EA7F10107B7
:1004C000F4DC07E0D4E9012118F805009047206A20
:1004D000401C2062281EA5F10105F3DC2046FFF731
:1004E000D1FE2078000602D50220BDE8F087012069
:1004F000FBE7000001694A1C02610878704700B5FB
:100500008FB0CDE901310021059105497944CDE94C
:10051000031011466846FFF7F3FE0FB000BD000060
:10052000E5FFFFFF0A6802F8010B0A607047000050
:10053000074B70B50D467B44FFF7E1FF04462846A4
:1005400000F008F810B14FF0FF3070BD204670BDCC
:100550002F470000007B00F080007047754600F0D8
:100560002BF8AE4605006946534620F00700854645
:1005700018B020B5FFF73CFEBDE820404FF0000664
:100580004FF000074FF000084FF0000B21F007017B
:10059000AC46ACE8C009ACE8C009ACE8C009ACE8BE
:1005A000C0098D46704710B50446AFF30080204661
:1005B000BDE81040FFF708BE0048704784010020E6
:1005C00000BFFEE77047000070B50446B3F5804FEA
:1005D00013D1D1E9000540EA05108D6840EA0520F5
:1005E0008D6928438D8940EA054054F82250064E13
:1005F0003540284344F8220003E06FF0704044F88F
:100600002200002070BD00000000F0CF30B502468F
:10061000086852F8200020F001000C6842F824001D
:100620008868082801D1402300E000234868184367
:100630008C682043CC6820430C6920434C692043DC
:100640008C692043CC6920430C6A20434C6A2043C8
:100650008C6A2043CC6A20430C6B20434C6B2043B4
:100660000C6852F82440044D2C4020430C6842F89A
:100670002400002030BD00008000F0FF10B50346CC
:10068000D1E9000440EA04108C6840EA04208C8917
:1006900040EA0444088A401E44EA0054087D801E53
:1006A00044EA00608C692043541C53F8244004F051
:1006B00040442043541C43F82400002010BD000097
:1006C00070B50446002594F82100022803D00420C8
:1006D000A0630125C1E02068006820F00E002168B9
:1006E00008602068006820F00100216808605C490B
:1006F0002068884252D95A4978392068884201D105
:10070000012047E0564964392068884201D1102011
:1007100040E0534950392068884201D1801539E0C2
:100720004F493C392068884201D1801432E04C495D
:1007300028392068884202D14FF480302AE04849A5
:1007400014392068884202D14FF4801022E04449D5
:100750002068884201D140041CE042492068884258
:1007600001D1012016E03F4914312068884201D1AF
:1007700010200FE03B4928312068884201D18015C4
:1007800008E038493C312068884201D1801401E0FA
:100790004FF480303349091F086051E030497839FF
:1007A0002068884201D1012047E02D496439206842
:1007B000884201D1102040E0294950392068884200
:1007C00001D1801539E026493C392068884201D1A1
:1007D000801432E0224928392068884202D14FF43F
:1007E00080302AE01E4914392068884202D14FF433
:1007F000801022E01A492068884201D140041CE0A0
:1008000018492068884201D1012016E015491431A9
:100810002068884201D110200FE012492831206859
:10082000884201D1801508E00E493C312068884299
:1008300001D1801401E04FF48030094980394860CB
:10084000012084F8210000BF002084F8200000BFB0
:10085000606B10B12046616B8847284670BD000070
:1008600080000240080402402DE9F84702460023B8
:100870009C467BE14FF0010808FA03F4D1F80080B0
:1008800008EA0400A0427DD1DFF8F4A2D1F8048088
:10089000A8EB0A09D0453AD014DCB8F1030F50D0C8
:1008A00009DCB8F1000F31D0B8F1010F1CD0B8F15C
:1008B000020F49D120E0B8F1110F18D0B8F1120F92
:1008C00042D11EE0B9F5881F25D006DCB9F5803F7E
:1008D00020D0B9F5801F37D11AE0B9F5001F18D024
:1008E000B9F5041F30D117E0D1F80CC02DE0D1F8D4
:1008F0000C8008F1040C28E0D1F80C8008F1080CF9
:1009000023E0D1F80C8008F10C0C1EE000BF00BF02
:1009100000BF00BF00BF00BFD1F80880B8F1000FD2
:1009200002D14FF0040C0BE0D1F80880B8F1010FB0
:1009300003D14FF0080C146102E04FF0080C546131
:1009400003E04FF0000C00E000BF00BFFF2801D81B
:10095000904601E002F104084646FF2802D84FEA1B
:10096000830803E0A3F108084FEA88084746D6F851
:1009700000804FF00F0909FA07F928EA09080CFA74
:1009800007F900E07AE048EA0908C6F80080D1F8E3
:10099000048008F08058B8F1805F6FD100BFDFF8A5
:1009A000E481D8F8188048F00108DFF8D891C9F838
:1009B0001880C846D8F8188008F00108CDF80080E3
:1009C00000BF00BF4FEAB9384FEA930958F82950E1
:1009D0004FEA83784FEA18794FF00F0808FA09F8C0
:1009E00025EA0805DFF8A081424502D14FF0000852
:1009F00024E0DFF89881424502D14FF001081DE064
:100A0000DFF88C81424502D14FF0020816E0DFF892
:100A10008481424502D14FF003080FE0DFF878816E
:100A2000424502D14FF0040808E0DFF870814245EA
:100A300002D14FF0050801E04FF006084FEA837934
:100A40004FEA197908FA09F848EA0505DFF85081F4
:100A50004FEA930948F82950D1F8048008F4803807
:100A6000B8F5803F0BD1DFF83C81D8F8008048EA28
:100A70000008DFF83091C9F800800AE075E0DFF87F
:100A80002481D8F8008028EA0008DFF81891C9F816
:100A90000080D1F8048008F40038B8F5003F0ED18A
:100AA000DFF8008108F10408D8F8008048EA00085F
:100AB000DFF8F09009F10409C9F800800DE0DFF8D3
:100AC000E48008F10408D8F8008028EA0008DFF87C
:100AD000D49009F10409C9F80080D1F8048008F421
:100AE0008018B8F5801F0ED1DFF8B88008F108082B
:100AF000D8F8008048EA0008DFF8A89009F1080952
:100B0000C9F800800DE0DFF89C8008F10808D8F8EB
:100B1000008028EA0008DFF88C9009F10809C9F87C
:100B20000080D1F8048008F40018B8F5001F0ED139
:100B3000DFF8708008F10C08D8F8008048EA000857
:100B4000DFF8609009F10C09C9F800800DE0DFF8CA
:100B5000548008F10C08D8F8008028EA0008DFF873
:100B6000449009F10C09C9F800805B1CD1F80080A1
:100B700028FA03F8B8F1000F7FF47CAEBDE8F887DF
:100B8000000011100010024000080140000C01405C
:100B9000001001400014014000180140001C0140F9
:100BA00008000140000401400AB1016101E00B04AA
:100BB000036170470148006870470000040000208E
:100BC00003480068034909780844014908607047F0
:100BD000040000200C00002010B50848006840F018
:100BE000100006490860052000F080F80F2000F092
:100BF00007F800F02BF8002010BD00000020024094
:100C000070B504460E4800784FF47A71B1FBF0F0ED
:100C10000C490968B1FBF0F5284600F085FC08B1E5
:100C2000012070BD102C07D200222146501E00F07A
:100C30001EF80548046001E00120F2E70020F0E71B
:100C40000C00002000000020080000207047014632
:100C50000846002809DB00F01F0301229A404309DF
:100C60009B0003F1E023C3F8002100BF70472DE98A
:100C7000F05F80460D461646002703F095FF0746B5
:100C800039462A46334601F00700C0F1070ABAF197
:100C9000040F02D94FF0040A01E0C0F1070AD1465F
:100CA00000F1040ABAF1070F02D24FF0000A01E086
:100CB000A0F1030AD4464FF0010A0AFA09FAAAF190
:100CC000010A0AEA020A0AFA0CFA4FF0010B0BFABF
:100CD0000CFBABF1010B0BEA030B4AEA0B042146B8
:100CE000404603F069FFBDE8F09F000000BF00F040
:100CF0000702064B19684FF6FF031940044B0B43DC
:100D000043EA0221014B196000BF70470CED00E07F
:100D10000000FA0570B504460D460CB9012070BDFF
:100D20005A48006800F00700A8420ED257480068F1
:100D300020F007002843554908600846006800F085
:100D40000700A84201D00120E9E7207800F0020066
:100D500002281DD1207800F00400042805D14C4859
:100D6000406840F4E0604A494860207800F008009C
:100D7000082805D14648406840F46050444948601E
:100D80004348406820F0F000A168084340494860AB
:100D9000207800F0010078B36068012806D13C4853
:100DA000006800F4003090B90120B8E760680228BC
:100DB00006D13748006800F0007040B90120AEE766
:100DC0003348006800F0020008B90120A7E7304866
:100DD000406820F00300616808432D494860FFF730
:100DE000E9FE064609E0FFF7E5FE801B41F2883187
:100DF000884202D9032092E707E02548406800F0C6
:100E00000C006168B0EB810FEDD12048006800F064
:100E10000700A8420ED91D48006820F007002843AB
:100E20001A4908600846006800F00700A84201D08F
:100E3000012074E7207800F00400042807D114484A
:100E4000406820F4E060E168084311494860207878
:100E500000F00800082808D10D48406820F46050D0
:100E6000216940EAC1000A49486000F03FF808499A
:100E70004968C1F30311074A515CC840064908603C
:100E800006480068FFF7BCFE002048E7002002404B
:100E900000100240E0500008000000200800002080
:100EA00001480068704700000000002000B5FFF70F
:100EB000F7FF04494968C1F30221034A515CC84065
:100EC00000BD000000100240F050000800B5FFF720
:100ED000E7FF04494968C1F3C221034A515CC84095
:100EE00000BD000000100240F0500008F0B585B0D1
:100EF0000FF26C0C9CE8E01001A8A0E8E0101CA523
:100F00002D68009500210022002300240020194DA7
:100F1000696801F00C05F5B1042D02D0082D19D136
:100F200001E0154819E001ADC1F38346AC5D01F461
:100F3000803555B10F4D6D68C5F340451DF805204E
:100F40000D4D6543B5FBF2F302E00C4D04FB05F3D8
:100F5000184602E000BF084800BF00BF05B0F0BD62
:100F600002030405060708090A0B0C0D0E0F1010EA
:100F7000010200000010024000127A0000093D004A
:100F8000F8B504460CB90120F8BD207800F0010046
:100F9000002878D0F848406800F00C0004280CD0F5
:100FA000F548406800F00C00082811D1F24840686C
:100FB00000F48030B0F5803F0AD1EF48006800F4BB
:100FC000003000285FD0606800285CD10120DBE79A
:100FD00000BF6068B0F5803F06D1E748006840F484
:100FE0008030E549086028E0606858B9E248006848
:100FF00020F48030E04908600846006820F4802032
:1010000008601AE06068B0F5A02F0BD1DA480068DC
:1010100040F48020D84908600846006840F48030D9
:1010200008600AE0D448006820F48030D2490860A3
:101030000846006820F48020086000BF606888B11E
:10104000FFF7B8FD054606E0FFF7B4FD401B642836
:1010500001D9032098E7C848006800F40030002850
:10106000F2D010E0FFF7A6FD054606E0FFF7A2FD6F
:10107000401B642801D9032086E7BF48006800F4BC
:1010800000300028F2D1207800F00200022857D169
:10109000B948406800F00C0050B1B748406800F013
:1010A0000C00082818D1B448406800F4803098B982
:1010B000B148006800F0020020B12069012801D089
:1010C000012061E7AC48006820F0F800616940EA5F
:1010D000C100A949086033E02069E8B10120A749AF
:1010E0000860FFF767FD054606E0FFF763FD401B5C
:1010F000022801D9032047E79F48006800F002005A
:101100000028F2D09C48006820F0F800616940EAAD
:10111000C1009949086013E0002098490860FFF772
:1011200049FD054606E0FFF745FD401B022801D9B1
:10113000032029E79048006800F002000028F2D15F
:10114000207800F0080008282DD1A069B8B101204E
:101150008B490860FFF72EFD054606E0FFF72AFDE4
:10116000401B022801D903200EE78348406A00F0A3
:1011700002000028F2D0012003F002FB13E000205F
:101180007F490860FFF716FD054606E0FFF712FDF0
:10119000401B022801D90320F6E67748406A00F098
:1011A00002000028F2D1207800F00400042873D156
:1011B00000277148C06900F0805070B900BF6E48C8
:1011C000C06940F080506C49C8610846C06900F0B1
:1011D0008050009000BF00BF01276A48006800F4FB
:1011E0008070B0B96748006840F480706549086055
:1011F000FFF7E0FC054606E0FFF7DCFC401B642837
:1012000001D90320C0E65F48006800F48070002820
:10121000F2D000BFE068012806D15748006A40F0CC
:1012200001005549086227E0E06858B95248006A51
:1012300020F00100504908620846006A20F00400CE
:10124000086219E0E06805280BD14B48006A40F0BD
:101250000400494908620846006A40F0010008623B
:101260000AE04548006A20F0010043490862084648
:10127000006A20F00400086200BFE068A0B1FFF738
:1012800099FC054609E0FFF795FC401B41F28831C7
:10129000884202D9032077E622E03748006A00F04E
:1012A00002000028EFD012E0FFF784FC054608E0BA
:1012B000FFF780FC401B41F28831884201D90320AE
:1012C00062E62D48006A00F002000028F0D1012FEC
:1012D00005D12948C06920F080502749C86100BF66
:1012E000E069C8B32448406800F00C00082860D0CA
:1012F000E069022848D1002020490866FFF75AFC1F
:10130000054606E0FFF756FC401B022801D90320E2
:101310003AE61948006800F000700028F2D1206A0F
:10132000B0F5803F07D11448406820F40030A16830
:10133000084311494860D4E9080108430E49496847
:1013400021F4741108430C49486001200B490866D8
:10135000FFF730FC054607E03DE0FFF72BFC401BA4
:10136000022801D903200FE60348006800F000704E
:101370000028F2D02FE0000000100240000042429E
:101380008004424200700040002014490866FFF7C4
:1013900011FC054606E0FFF70DFC401B022801D9B1
:1013A0000320F1E50E48006800F000700028F2D13B
:1013B00011E0E069012800D1E6E50948466806F435
:1013C0008031206A814204D106F47011606A814242
:1013D00001D00120D8E50020D6E5000000004242FF
:1013E0000010024070B504460E4615460CB90120A7
:1013F00070BD94F8410028B9002084F840002046D0
:1014000000F020F804F108012068FFF7FFF83146EA
:10141000A2682068FFF732F92946236BD4E901025C
:10142000FFF7D2F8A168206850F8210040F00100D1
:10143000A268216841F82200012084F841000020C0
:10144000D6E7000010B586B0044600BF28484069C2
:1014500040F48070264948610846406900F4807075
:10146000019000BF00BF00BF0846806940F0200027
:1014700088610846806900F02000019000BF00BF2D
:1014800000BF0846806940F04000886108468069D6
:1014900000F04000019000BF00BF00BF0846806917
:1014A00040F4807088610846806900F48070019083
:1014B00000BF00BF4CF23370029002200390012065
:1014C00004900320059002A90A48FFF7CDF94FF6D2
:1014D0008070029002A90848FFF7C6F941F20100A6
:1014E000029002A90548FFF7BFF906B010BD000041
:1014F000001002400014014000180140002001408B
:10150000042808D14FF0E021096941F004014FF0AF
:10151000E022116107E04FF0E021096921F00401A8
:101520004FF0E0221161704770B504462546681EF1
:10153000B0F1807F01D301200FE0681E4FF0E02161
:1015400048610F214FF0FF3003F036FB00204FF0D1
:10155000E021886107200861002070BD70470146C6
:101560000022002391F8392091F83A3042EA030032
:10157000704700002DE9F0470446206805682068A0
:10158000C668206847694FF00008C14605F00F089B
:10159000B8F1000F0AD105F0200038B106F02000A4
:1015A00020B1204603F086F9BDE8F087B8F1000FBE
:1015B0006DD007F0010018B906F49070002866D0CD
:1015C00005F0010030B106F4807018B1E06B40F016
:1015D0000100E06305F0040030B107F0010018B12C
:1015E000E06B40F00200E06305F0020030B107F06C
:1015F000010018B1E06B40F00400E06305F0080062
:1016000030B107F0010018B1E06B40F00800E06372
:10161000E06B68B305F0200028B106F0200010B19F
:10162000204603F047F920684069C0F38019E06B59
:1016300000F0080010B9B9F1000F22D0204603F0E5
:1016400019F92068406900F04000B0B12068406995
:1016500020F0400021684861606B50B11748616B11
:101660004863606BFFF72CF810B1606B416B8847E3
:101670000CE02046FFF772FF08E02046FFF76EFF00
:1016800004E02046FFF76AFF0020E0638CE705F0E6
:10169000800030B106F0800018B1204603F02EFA29
:1016A00082E705F0400030B106F0400018B1204656
:1016B00003F0F0F878E700BF76E700006148000823
:1016C00010B504460CB9012010BDA06900B100E0BE
:1016D00000BF94F8390028B9002084F8380020466B
:1016E00000F028F8242084F839002068C06820F42D
:1016F00000502168C860204603F030F92068006976
:1017000020F49040216808612068406920F02A0098
:10171000216848612068C06840F400502168C860B2
:101720000020E063202084F8390084F83A0000208B
:10173000CAE7000010B586B00446254920688842F3
:1017400044D100BF2348806940F0040021498861EA
:101750000846806900F00400019000BF00BF00BF90
:101760000846806940F4804088610846806900F43A
:101770008040019000BF00BF00BF0846806940F074
:10178000010088610846806900F00100019000BFF7
:1017900000BF48150290022003900120049003200E
:1017A000059002A90C48FFF75FF84FF480600290A3
:1017B0000020039002A90848FFF756F82520FFF7FC
:1017C00046FA032211462520FFF751FA06B010BD54
:1017D00000380140001002400008014010B50346E7
:1017E00093F83A0020282FD101B10AB9012010BD89
:1017F00000BF93F83800012801D10220F7E701204B
:1018000083F8380000BF99629A85DA850020D86392
:10181000222083F83A0000BF002083F8380000BF80
:101820001868C06840F480701C68E06018684069FF
:1018300040F001001C6860611868C06840F020003A
:101840001C68E0600020D2E70220D0E71D4A016852
:10185000914236D11C49098801F4004189BB1A49DB
:10186000098801F4804171B1184909780A2903D027
:101870000021154A118024E01349098841F40041F0
:10188000114A11801DE0114909780D2906D10E4930
:10189000098841F480410C4A118012E00B49097813
:1018A000094A1288C2F30D02094B99540649098866
:1018B000491C054A118011460988C72901DD00210C
:1018C0001180704700380140180000201A000020E5
:1018D00024000020704700BFFEE7000070B50446FA
:1018E000002609480588408845430021084602F043
:1018F0007FFD02F0EFFE00BF02E004480480761C8A
:10190000AE42FAD370BD0000740100200008006CE4
:1019100010B5044649488471002C45D1F020474950
:1019200008804FF4A07048800846808845F2105126
:10193000884210D14FF43050404908814FF428506C
:1019400048814FF42C5088814FF4F07008804FF498
:10195000487048801AE03948808841F6631188420F
:101960000DD12C20354908812B2048812A208881DF
:101970004FF4F07008804FF44870488006E02C2047
:101980002E4908812A2048812B2088812B48808875
:1019900045F2103188424CD14FF4A070274908809D
:1019A0004FF4F070488044E04FF4A0702349088061
:1019B000F02048800846808845F21051884210D1B6
:1019C0004FF430501D4908814FF4285048814FF49E
:1019D0002C5088814FF4487008804FF4F070488094
:1019E0001AE01648808841F6631188420DD12C20F8
:1019F000124908812A2048812B2088814FF44870A1
:101A000008804FF4F070488006E02C200B490881D4
:101A10002A2048812B2088810848808845F210318F
:101A2000884206D14FF4F070044908804FF4A0704A
:101A30004880002002F0C2FB10BD000074010020AD
:101A400030B504460D463848808845F2105188422A
:101A500020D13549488902F031FE201202F022FEE1
:101A600031494989491C88B202F028FEE0B202F0EF
:101A700019FE2D49888902F021FE281202F012FE7B
:101A800029498989491C88B202F018FEE8B202F09F
:101A900009FE42E02448808841F66311884228D13B
:101AA0002148807920B920480088401E001B84B25C
:101AB0001D49488902F002FE201202F0F3FDE0B257
:101AC00002F0F0FD201202F0EDFDE0B202F0EAFDBE
:101AD0001549888902F0F2FD281202F0E3FDE8B210
:101AE00002F0E0FD281202F0DDFDE8B202F0DAFDBE
:101AF00013E00D49488902F0E1FD201202F0D2FD09
:101B0000E0B202F0CFFD0849888902F0D7FD281223
:101B100002F0C8FDE8B202F0C5FD034800890349A0
:101B20000880881C028030BD74010020FE07006C14
:101B300000B593B000BFFE48806940F00800FC4942
:101B400088610846806900F00800009000BF00BF6F
:101B500001200F9010901190032012900FA9F548CA
:101B6000FEF782FE4FF02040F3490860F3484860DA
:101B7000062088600021F048C160016110214161A8
:101B800000218161C16141624FF480518162002175
:101B9000C1624FF4804101630021416381630620EB
:101BA0000890002009901A200A9000200E900490BE
:101BB000032001900020029006200390002007904F
:101BC00001AA08A9DC48FFF70DFC322003F01CF83D
:101BD000D32002F073FD02F0BDFAD949888002F0EB
:101BE000B9FAD749888002F0B5FAD5498880084605
:101BF00080884FF6FF7101EA0020D149888002F009
:101C0000A9FACF4989880843CD4988800846808849
:101C100049F2413188427DD0042002F04FFD02F0AC
:101C200099FAC749888002F095FAC549888002F080
:101C300091FAC3498880084680884FF6FF7101EA0F
:101C40000020BF49888002F085FABD498988084391
:101C5000BB4988800846808848F25251884203D1A7
:101C600047F28970B6498880B548808847F2897103
:101C70008842D0D0D42002F021FD02F06BFAB049A6
:101C8000888002F067FAAE49888002F063FAAC49B6
:101C90008880084680884FF6FF7101EA0020A84935
:101CA000888002F057FAA64989880843A4498880A9
:101CB0000846808845F2103188425FD055214FF4A4
:101CC000704002F011FDAA214FF2010002F00CFD5C
:101CD00052214FF2020002F007FD08214FF20300EB
:101CE00002F002FD01214FF2040002F0FDFC4FF46E
:101CF000454002F0E3FC02F02DFA91498880084645
:101D000080884FF6FF7101EA00208D4988804CF2EF
:101D1000015000E032E002F0D1FC02F01BFA8849E9
:101D200089880843864988800846808845F2105192
:101D3000884223D0A12002F0C1FC02F00BFA8049B6
:101D4000888002F007FA7E498880084680884FF62E
:101D5000FF7101EA00207A49888002F0FBF9784996
:101D600089880843764988800846808845F26171F1
:101D7000884203D141F66310714988807048818898
:101D800070A0FEF749FA6E48808849F241318842D6
:101D90007ED1CF2002F092FC002002F083FCC12013
:101DA00002F080FC302002F07DFCED2002F086FC89
:101DB000642002F077FC032002F074FC122002F091
:101DC00071FC812002F06EFCE82002F077FC852097
:101DD00002F068FC102002F065FC7A2002F062FC40
:101DE000CB2002F06BFC392002F05CFC2C2002F0CE
:101DF00059FC002002F056FC342002F053FC022073
:101E000002F050FCF72002F059FC202002F04AFCBE
:101E1000EA2002F053FC002002F044FC002002F013
:101E200041FCC02002F04AFC1B2002F03BFCC12018
:101E300002F044FC012002F035FCC52002F03EFC1B
:101E4000302002F02FFC302002F02CFCC72002F0E2
:101E500035FCB72002F026FC362002F02FFC48208B
:101E600002F020FC3A2002F029FC552002F01AFC76
:101E7000B12002F023FC002002F014FC1A2002F032
:101E800011FCB62002F01AFC0A2002F00BFC00E064
:101E9000AAE0A22002F006FCF22002F00FFC0020D3
:101EA00002F000FC262002F009FC012002F0FAFBFF
:101EB000E02002F003FC0F2002F0F4FB2A2002F0E5
:101EC000F1FB282002F0EEFB082002F0EBFB0E20D5
:101ED00002F0E8FB082002F0E5FB542002F0E2FBF0
:101EE000A92002F0DFFB432002F0DCFB0A2002F015
:101EF000D9FB0F2002F0D6FB002002F0D3FB00201C
:101F000002F0D0FB002002F0CDFB002002F0CAFB63
:101F1000E12002F0D3FB002002F0C4FB152002F008
:101F2000C1FB172002F0BEFB072002F0BBFB11E053
:101F300000100240000C01402C010020040100A010
:101F400074010020204C43442049443A25780D0A6E
:101F500000000000112002F0A5FB062002F0A2FB09
:101F60002B2002F09FFB562002F09CFB3C2002F04D
:101F700099FB052002F096FB102002F093FB0F2046
:101F800002F090FB3F2002F08DFB3F2002F08AFB25
:101F90000F2002F087FB2B2002F090FB002002F0C4
:101FA00081FB002002F07EFB012002F07BFB3F2042
:101FB00002F078FB2A2002F081FB002002F072FB85
:101FC000002002F06FFB002002F06CFBEF2002F01B
:101FD00069FB112002F072FB782002F015FE292027
:101FE00002F06CFB02F0A6B8FE48808847F28971C7
:101FF00088427CD1112002F061FB782002F004FEBF
:10200000362002F05BFB002002F04CFB3A2002F08D
:1020100055FB052002F046FBB22002F04FFB0C20DE
:1020200002F040FB0C2002F03DFB002002F03AFBE6
:10203000332002F037FB332002F034FBB72002F0EC
:102040003DFB352002F02EFBBB2002F037FB322097
:1020500002F028FBC02002F031FB0C2002F022FB32
:10206000C22002F02BFB012002F01CFBC32002F077
:1020700025FB102002F016FBC42002F01FFB2020DD
:1020800002F010FBC62002F019FB0F2002F00AFB41
:10209000D02002F013FBA42002F004FBA12002F0E8
:1020A00001FBE02002F00AFBD02002F0FBFA002046
:1020B00002F0F8FA022002F0F5FA072002F0F2FA34
:1020C0000A2002F0EFFA282002F0ECFA322002F0A7
:1020D000E9FA442002F0E6FA422002F0E3FA062090
:1020E00002F0E0FA0E2002F0DDFA122000E056E0E5
:1020F00002F0D8FA142002F0D5FA172002F0D2FA32
:10210000E12002F0DBFAD02002F0CCFA002002F04D
:10211000C9FA022002F0C6FA072002F0C3FA0A2028
:1021200002F0C0FA282002F0BDFA312002F0BAFA1B
:10213000542002F0B7FA472002F0B4FA0E2002F061
:10214000B1FA1C2002F0AEFA172002F0ABFA1B2005
:1021500002F0A8FA1E2002F0A5FA2A2002F0AEFA38
:10216000002002F09FFA002002F09CFA002002F00A
:1021700099FAEF2002F096FA2B2002F09FFA002045
:1021800002F090FA002002F08DFA012002F08AFAA3
:102190003F2002F087FA292002F090FA22E79148C6
:1021A000808845F21031884240F07C87ED2002F0B3
:1021B00085FA012002F076FAFE2002F073FAEE2092
:1021C00002F07CFADE2002F06DFA212002F06AFAB9
:1021D000F12002F073FA012002F064FADF2002F02D
:1021E0006DFA102002F05EFAC42002F067FA8F2028
:1021F00002F058FAC62002F061FA002002F052FA0A
:10220000E22002F04FFAE22002F04CFAE22002F063
:1022100049FABF2002F052FAAA2002F043FAB02095
:1022200002F04CFA0D2002F03DFA002002F03AFADA
:102230000D2002F037FA002002F034FA112002F0EB
:1022400031FA002002F02EFA192002F02BFA0020B9
:1022500002F028FA212002F025FA002002F022FAEA
:102260002D2002F01FFA002002F01CFA3D2002F09F
:1022700019FA002002F016FA5D2002F013FA00208D
:1022800002F010FA5D2002F00DFA002002F00AFAC6
:10229000B12002F013FA802002F004FA002002F0CC
:1022A00001FA8B2002F0FEF9002002F0FBF99620E3
:1022B00002F0F8F9002002F0F5F9B22002F0FEF980
:1022C000002002F0EFF9002002F0ECF9022002F009
:1022D000E9F9002002F0E6F9032002F0E3F900201A
:1022E00002F0E0F9B32002F0E9F9002002F0DAF997
:1022F000002002F0D7F9002002F0D4F9002002F00B
:10230000D1F9002002F0CEF9002002F0CBF9002034
:1023100002F0C8F9002002F0C5F9002002F0C2F96D
:10232000002002F0BFF9002002F0BCF9002002F00A
:10233000B9F9002002F0B6F9002002F0B3F900204C
:1023400002F0B0F9002002F0ADF9002002F0AAF985
:10235000002002F0A7F9002002F0A4F9002002F00A
:10236000A1F9002002F09EF9002002F09BF9002064
:1023700002F098F9002002F095F9B42002F09EF9DD
:102380008B2002F08FF9002002F08CF9962002F0E9
:1023900089F9002002F086F9A12002F083F90020DB
:1023A00002F080F9B52002F089F9022002F07AF9F2
:1023B000002002F077F9032002F074F9002002F007
:1023C00071F9042002F06EF9002002F06BF9B620DA
:1023D00002F074F9002002F065F9002002F062F9C1
:1023E000B72001E07401002002F068F9002002F03B
:1023F00059F9002002F056F93F2002F053F900206D
:1024000002F050F95E2002F04DF9002002F04AF986
:10241000642002F047F9002002F044F98C2002F019
:1024200041F9002002F03EF9AC2002F03BF9002017
:1024300002F038F9DC2002F035F9002002F032F920
:10244000702002F02FF9002002F02CF9902002F009
:1024500029F9002002F026F9EB2002F023F90020F0
:1024600002F020F9DC2002F01DF9002002F01AF938
:10247000B82002F023F9002002F014F9002002F045
:1024800011F9002002F00EF9002002F00BF90020F3
:1024900002F008F9002002F005F9002002F002F92C
:1024A000002002F0FFF8BA2002F008F9242002F020
:1024B000F9F8002002F0F6F8002002F0F3F800200E
:1024C00002F0F0F8C12002F0F9F8202002F0EAF85A
:1024D000002002F0E7F8542002F0E4F8002002F0B7
:1024E000E1F8FF2002F0DEF8002002F0DBF8C22065
:1024F00002F0E4F80A2002F0D5F8002002F0D2F849
:10250000042002F0CFF8002002F0CCF8C32002F043
:10251000D5F83C2002F0C6F8002002F0C3F83A20BB
:1025200002F0C0F8002002F0BDF8392002F0BAF83D
:10253000002002F0B7F8372002F0B4F8002002F0D3
:10254000B1F83C2002F0AEF8002002F0ABF83620E3
:1025500002F0A8F8002002F0A5F8322002F0A2F85C
:10256000002002F09FF82F2002F09CF8002002F0DB
:1025700099F82C2002F096F8002002F093F8292018
:1025800002F090F8002002F08DF8262002F08AF880
:10259000002002F087F8242002F084F8002002F0E6
:1025A00081F8242002F07EF8002002F07BF823203E
:1025B00002F078F8002002F075F83C2002F072F882
:1025C000002002F06FF8362002F06CF8002002F0D4
:1025D00069F8322002F066F8002002F063F82F203C
:1025E00002F060F8002002F05DF82C2002F05AF8AA
:1025F000002002F057F8292002F054F8002002F0E1
:1026000051F8262002F04EF8002002F04BF824206A
:1026100002F048F8002002F045F8242002F042F8C9
:10262000002002F03FF8232002F03CF8002002F0E6
:1026300039F8C42002F042F8622002F033F800209A
:1026400002F030F8052002F02DF8002002F02AF800
:10265000842002F027F8002002F024F8F02002F095
:1026600021F8002002F01EF8182002F01BF80020CC
:1026700002F018F8A42002F015F8002002F012F879
:10268000182002F00FF8002002F00CF8502002F0A1
:1026900009F8002002F006F80C2002F003F80020F0
:1026A00002F000F8172001F0FDFF002001F0FAFF12
:1026B000952001F0F7FF002001F0F4FFF32001F076
:1026C000F1FF002001F0EEFFE62001F0EBFF00201B
:1026D00001F0E8FFC52001F0F1FF322001F0E2FF38
:1026E000002001F0DFFF442001F0DCFF002001F0BA
:1026F000D9FF652001F0D6FF002001F0D3FF76203E
:1027000001F0D0FF002001F0CDFF882001F0CAFFCA
:10271000002001F0C7FFC62001F0D0FF202001F00B
:10272000C1FF002001F0BEFF172001F0BBFF002019
:1027300001F0B8FF012001F0B5FF002001F0B2FF69
:10274000C72001F0BBFF002001F0ACFF002001F02A
:10275000A9FF002001F0A6FF002001F0A3FFC82080
:1027600001F0ACFF002001F09DFF002001F09AFF76
:10277000002001F097FF002001F094FFC92001F034
:102780009DFF002001F08EFF002001F08BFF002054
:1027900001F088FF002001F085FF002001F082FF9A
:1027A000002001F07FFF002001F07CFF002001F0FD
:1027B00079FF002001F076FF002001F073FF002078
:1027C00001F070FF002001F06DFF002001F06AFFB2
:1027D000002001F067FF002001F064FF002001F0FD
:1027E00061FFE02001F06AFF162001F05BFF00208E
:1027F00001F058FF1C2001F055FF002001F052FFAE
:10280000212001F04FFF002001F04CFF362001F0A5
:1028100049FF002001F046FF462001F043FF002061
:1028200001F040FF522001F03DFF002001F03AFF8F
:10283000642001F037FF002001F034FF7A2001F01E
:1028400031FF002001F02EFF8B2001F02BFF002034
:1028500001F028FF992001F025FF002001F022FF60
:10286000A82001F01FFF002001F01CFFB92001F09B
:1028700019FF002001F016FFC42001F013FF002013
:1028800001F010FFCA2001F00DFF002001F00AFF47
:10289000D22001F007FF002001F004FFD92001F051
:1028A00001FF002001F0FEFEE02001F0FBFE002011
:1028B00001F0F8FEF32001F0F5FE002001F0F2FE39
:1028C000E12001F0FBFE162001F0ECFE002001F0FB
:1028D000E9FE1C2001F0E6FE002001F0E3FE2220CC
:1028E00001F0E0FE002001F0DDFE362001F0DAFE0E
:1028F000002001F0D7FE452001F0D4FE002001F0B9
:10290000D1FE522001F0CEFE002001F0CBFE64206B
:1029100001F0C8FE002001F0C5FE7A2001F0C2FEE1
:10292000002001F0BFFE8B2001F0BCFE002001F072
:10293000B9FE992001F0B6FE002001F0B3FEA820F8
:1029400001F0B0FE002001F0ADFEB92001F0AAFEBA
:10295000002001F0A7FEC42001F0A4FE002001F039
:10296000A1FECA2001F09EFE002001F09BFED220B5
:1029700001F098FE002001F095FED82001F092FEB3
:10298000002001F08FFEE02001F08CFE002001F01D
:1029900089FEF32001F086FE002001F083FEE22094
:1029A00001F08CFE052001F07DFE002001F07AFE92
:1029B0000B2001F077FE002001F074FE1B2001F0D7
:1029C00071FE002001F06EFE342001F06BFE00204D
:1029D00001F068FE442001F065FE002001F062FE77
:1029E0004F2001F05FFE002001F05CFE612001F04D
:1029F00059FE002001F056FE792001F053FE002020
:102A000001F050FE882001F04DFE002001F04AFE4A
:102A1000972001F047FE002001F044FEA62001F0BF
:102A200041FE002001F03EFEB72001F03BFE0020F9
:102A300001F038FEC22001F035FE002001F032FE28
:102A4000C72001F02FFE002001F02CFED12001F064
:102A500029FE002001F026FED62001F023FE0020F2
:102A600001F020FEDD2001F01DFE002001F01AFE25
:102A7000F32001F017FE002001F014FEE32001F026
:102A80001DFE052001F00EFE002001F00BFE0A20C5
:102A900001F008FE002001F005FE1C2001F002FEFE
:102AA000002001F0FFFD332001F0FCFD002001F0CB
:102AB000F9FD442001F0F6FD002001F0F3FD502067
:102AC00001F0F0FD002001F0EDFD622001F0EAFDD3
:102AD000002001F0E7FD782001F0E4FD002001F086
:102AE000E1FD882001F0DEFD002001F0DBFD9720F4
:102AF00001F0D8FD002001F0D5FDA62001F0D2FDA7
:102B0000002001F0CFFDB72001F0CCFD002001F046
:102B1000C9FDC22001F0C6FD002001F0C3FDC720A1
:102B200001F0C0FD002001F0BDFDD12001F0BAFD93
:102B3000002001F0B7FDD52001F0B4FD002001F028
:102B4000B1FDDD2001F0AEFD002001F0ABFDF32072
:102B500001F0A8FD002001F0A5FDE42001F0AEFD8C
:102B6000012001F09FFD002001F09CFD012001F0FB
:102B700099FD002001F096FD022001F093FD002058
:102B800001F090FD2A2001F08DFD002001F08AFD6A
:102B90003C2001F087FD002001F084FD4B2001F076
:102BA00081FD002001F07EFD5D2001F07BFD002015
:102BB00001F078FD742001F075FD002001F072FD38
:102BC000842001F06FFD002001F06CFD932001F0E6
:102BD00069FD002001F066FDA22001F063FD0020E8
:102BE00001F060FDB32001F05DFD002001F05AFD11
:102BF000BE2001F057FD002001F054FDC42001F07B
:102C000051FD002001F04EFDCD2001F04BFD0020D4
:102C100001F048FDD32001F045FD002001F042FD08
:102C2000DD2001F03FFD002001F03CFDF32001F02C
:102C300039FD002001F036FDE52001F03FFD0020C8
:102C400001F030FD002001F02DFD002001F02AFDF3
:102C5000002001F027FD022001F024FD002001F0FA
:102C600021FD292001F01EFD002001F01BFD3C206C
:102C700001F018FD002001F015FD4B2001F012FDC0
:102C8000002001F00FFD5D2001F00CFD002001F09F
:102C900009FD742001F006FD002001F003FD8420F1
:102CA00001F000FD002001F0FDFC932001F0FAFC92
:102CB000002001F0F7FCA22001F0F4FC002001F05C
:102CC000F1FCB32001F0EEFC002001F0EBFCBE2093
:102CD00001F0E8FC002001F0E5FCC42001F0E2FC7A
:102CE000002001F0DFFCCD2001F0DCFC002001F031
:102CF000D9FCD32001F0D6FC002001F0D3FCDC206D
:102D000001F0D0FC002001F0CDFCF32001F0CAFC62
:102D1000002001F0C7FCE62001F0D0FC112001F0FA
:102D2000C1FC002001F0BEFC342001F0BBFC0020FF
:102D300001F0B8FC562001F0B5FC002001F0B2FC17
:102D4000762001F0AFFC002001F0ACFC772001F010
:102D5000A9FC002001F0A6FC662001F0A3FC0020E5
:102D600001F0A0FC882001F09DFC002001F09AFCFD
:102D7000992001F097FC002001F094FCBB2001F0A9
:102D800091FC002001F08EFC992001F08BFC0020CA
:102D900001F088FC662001F085FC002001F082FC37
:102DA000552001F07FFC002001F07CFC552001F053
:102DB00079FC002001F076FC452001F073FC002036
:102DC00001F070FC432001F06DFC002001F06AFC72
:102DD000442001F067FC002001F064FCE72001F0D2
:102DE0006DFC322001F05EFC002001F05BFC552000
:102DF00001F058FC002001F055FC762001F052FC57
:102E0000002001F04FFC662001F04CFC002001F096
:102E100049FC672001F046FC002001F043FC6720DC
:102E200001F040FC002001F03DFC872001F03AFC5D
:102E3000002001F037FC992001F034FC002001F063
:102E400031FCBB2001F02EFC002001F02BFC99206E
:102E500001F028FC002001F025FC772001F022FC85
:102E6000002001F01FFC442001F01CFC002001F0B8
:102E700019FC562001F016FC002001F013FC232061
:102E800001F010FC002001F00DFC332001F00AFCE1
:102E9000002001F007FC452001F004FC002001F0B7
:102EA00001FCE82001F00AFC002001F0FBFB0020FF
:102EB00001F0F8FB992001F0F5FB002001F0F2FB96
:102EC000872001F0EFFB002001F0ECFB882001F0EF
:102ED000E9FB002001F0E6FB772001F0E3FB002096
:102EE00001F0E0FB662001F0DDFB002001F0DAFBE1
:102EF000882001F0D7FB002001F0D4FBAA2001F0CC
:102F0000D1FB002001F0CEFBBB2001F0CBFB002069
:102F100001F0C8FB992001F0C5FB002001F0C2FBC5
:102F2000662001F0BFFB002001F0BCFB552001F042
:102F3000B9FB002001F0B6FB552001F0B3FB0020E7
:102F400001F0B0FB442001F0ADFB002001F0AAFB32
:102F5000442001F0A7FB002001F0A4FB552001F064
:102F6000A1FB002001F09EFBE92001F0A7FBAA20B5
:102F700001F098FB002001F095FB002001F092FB8E
:102F8000002001F08FFB002001F098FBAA2001F047
:102F900089FBCF2001F092FB002001F083FB002091
:102FA00001F080FB002001F07DFB002001F07AFBA6
:102FB000002001F077FB002001F074FB002001F0FD
:102FC00071FB002001F06EFB002001F06BFB002084
:102FD00001F068FB002001F065FB002001F062FBBE
:102FE000002001F05FFB002001F05CFB002001F0FD
:102FF00059FB002001F056FB002001F053FBF020AC
:1030000001F05CFB002001F04DFB502001F04AFB79
:10301000002001F047FB002001F044FB002001F0FC
:1030200041FBF32001F04AFB002001F03BFBF920BB
:1030300001F044FB062001F035FB102001F032FBCB
:10304000292001F02FFB002001F02CFB3A2001F099
:1030500035FB552001F026FB112001F02FFB6420E9
:1030600001F0D2FD292001F029FB352001F026FBDB
:10307000002001F017FB512001F020FBFF2001F0A0
:1030800011FB532001F01AFB2C2001F00BFB552003
:1030900001F014FB822001F005FB2C2001F00EFB57
:1030A00001F048B8FE48808845F2105188427DD131
:1030B00055214FF4704001F017FBAA214FF2010097
:1030C00001F012FB52214FF2020001F00DFB08212A
:1030D0004FF2030001F008FB01214FF2040001F060
:1030E00003FB0D214FF4304001F0FEFA0D214BF2AD
:1030F000010001F0F9FA0D214BF2020001F0F4FA9F
:1031000034214FF4364001F0EFFA34214BF20160E4
:1031100001F0EAFA34214BF2026001F0E5FA0D21E8
:103120004FF4314001F0E0FA0D214BF2011001F0B3
:10313000DBFA0D214BF2021001F0D6FA34214FF4E4
:10314000374001F0D1FA34214BF2017001F0CCFA92
:1031500034214BF2027001F0C7FA00214FF43240E3
:1031600001F0C2FA00214BF2012001F0BDFA00216A
:103170004BF2022001F0B8FA24214FF4384001F05C
:10318000B3FA24214BF6010001F0AEFA24214BF6EC
:10319000020001F0A9FA01214FF43F4001F0A4FA26
:1031A0000F214FF4334001F09FFA00E0FDE30F21BF
:1031B0004BF2013001F098FA0F214BF2023001F08E
:1031C00093FA34214FF4394001F08EFA34214BF652
:1031D000011001F089FA34214BF6021001F084FA53
:1031E00008214FF4354001F07FFA08214BF20150DD
:1031F00001F07AFA08214BF2025001F075FA03212E
:103200004FF4424001F070FA24214FF43A4001F0AB
:103210006BFA24214BF6012001F066FA24214BF6CB
:10322000022001F061FA00214FF43C4001F05CFA09
:1032300078214BF6014001F057FA00214BF602408D
:1032400001F052FA00214FF43D4001F04DFA78218F
:103250004BF6015001F048FA00214BF6025001F004
:1032600043FA00214FF43E4001F03EFA64214BF650
:10327000016001F039FA00214FF4514001F034FAB5
:1032800033214DF2011001F02FFA00214DF202100E
:1032900001F02AFA34214DF2031001F025FA002141
:1032A0004DF2041001F020FA3A214DF2051001F020
:1032B0001BFA00214DF2061001F016FA4A214DF2D8
:1032C000071001F011FA00214DF2081001F00CFA7C
:1032D0005C214DF2091001F007FA00214DF20A10AD
:1032E00001F002FA81214DF20B1001F0FDF90021ED
:1032F0004DF20C1001F0F8F9A6214DF20D1001F07D
:10330000F3F900214DF20E1001F0EEF9E5214DF236
:103310000F1001F0E9F901214DF2101001F0E4F96C
:1033200013214DF2111001F0DFF901214DF21210BD
:1033300001F0DAF954214DF2131001F0D5F9012111
:103340004DF2141001F0D0F982214DF2151001F068
:10335000CBF901214DF2161001F0C6F9CA214DF248
:10336000171001F0C1F902214DF2181001F0BCF95B
:1033700000214DF2191001F0B7F902214DF21A1097
:1033800001F0B2F901214DF21B1001F0ADF902215B
:103390004DF21C1001F0A8F934214DF21D1001F07E
:1033A000A3F902214DF21E1001F09EF967214DF2A2
:1033B0001F1001F099F902214DF2201001F094F94B
:1033C00084214DF2211001F08FF902214DF22210DB
:1033D00001F08AF9A4214DF2231001F085F90221B0
:1033E0004DF2241001F080F9B7214DF2251001F0C3
:1033F0007BF902214DF2261001F076F9CF214DF232
:10340000271001F071F902214DF2281001F06CF93A
:10341000DE214DF2291001F067F902214DF22A1048
:1034200001F062F9F2214DF22B1001F05DF9022159
:103430004DF22C1001F058F9FE214DF22D1001F043
:1034400053F903214DF22E1001F04EF910214DF2E7
:103450002F1001F049F903214DF2301001F044F929
:1034600033214DF2311001F03FF903214DF23210BA
:1034700001F03AF96D214DF2331001F035F90021D8
:103480004FF4524001F030F933214DF2012001F0A8
:103490002BF900214DF2022001F026F9342101E040
:1034A000740100204DF2032001F01EF900214DF2BD
:1034B000042001F019F93A214DF2052001F014F928
:1034C00000214DF2062001F00FF94A214DF20720AC
:1034D00001F00AF900214DF2082001F005F95C2104
:1034E0004DF2092001F000F900214DF20A2001F00F
:1034F000FBF881214DF20B2001F0F6F800214DF28E
:103500000C2001F0F1F8A6214DF20D2001F0ECF8AD
:1035100000214DF20E2001F0E7F8E5214DF20F20D9
:1035200001F0E2F801214DF2102001F0DDF8132145
:103530004DF2112001F0D8F801214DF2122001F0D6
:10354000D3F854214DF2132001F0CEF801214DF2B1
:10355000142001F0C9F882214DF2152001F0C4F8C1
:1035600001214DF2162001F0BFF8CA214DF21720BB
:1035700001F0BAF802214DF2182001F0B5F800214F
:103580004DF2192001F0B0F802214DF21A2001F09D
:10359000ABF801214DF21B2001F0A6F802214DF2FB
:1035A0001C2001F0A1F834214DF21D2001F09CF8FF
:1035B00002214DF21E2001F097F867214DF21F20E5
:1035C00001F092F802214DF2202001F08DF88421C3
:1035D0004DF2212001F088F802214DF2222001F065
:1035E00083F8A4214DF2232001F07EF802214DF250
:1035F000242001F079F8B7214DF2252001F074F86C
:1036000002214DF2262001F06FF8CF214DF2272044
:1036100001F06AF802214DF2282001F065F8DE2160
:103620004DF2292001F060F802214DF22A2001F02C
:103630005BF8F2214DF22B2001F056F802214DF2F9
:103640002C2001F051F8FE214DF22D2001F04CF814
:1036500003214DF22E2001F047F810214DF22F20CA
:1036600001F042F803214DF2302001F03DF8332102
:103670004DF2312001F038F803214DF2322001F0F3
:1036800033F86D214DF2332001F02EF800214FF474
:10369000534001F029F833214DF2013001F024F8B4
:1036A00000214DF2023001F01FF834214DF20330B9
:1036B00001F01AF800214DF2043001F015F83A211A
:1036C0004DF2053001F010F800214DF2063001F006
:1036D0000BF84A214DF2073001F006F800214DF2B7
:1036E000083001F001F85C214DF2093000F0FCFFD8
:1036F00000214DF20A3000F0F7FF81214DF20B302E
:1037000000F0F2FF00214DF20C3000F0EDFFA62199
:103710004DF20D3000F0E8FF00214DF20E3000F0C8
:10372000E3FFE5214DF20F3000F0DEFF01214DF205
:10373000103000F0D9FF13214DF2113000F0D4FF0A
:1037400001214DF2123000F0CFFF54214DF2133021
:1037500000F0CAFF01214DF2143000F0C5FF8221B4
:103760004DF2153000F0C0FF01214DF2163000F08F
:10377000BBFFCA214DF2173000F0B6FF02214DF217
:10378000183000F0B1FF00214DF2193000F0ACFF0D
:1037900002214DF21A3000F0A7FF01214DF21B303B
:1037A00000F0A2FF02214DF21C3000F09DFF3421F9
:1037B0004DF21D3000F098FF02214DF21E3000F056
:1037C00093FF67214DF21F3000F08EFF02214DF272
:1037D000203000F089FF84214DF2213000F084FF79
:1037E00002214DF2223000F07FFFA4214DF2233060
:1037F00000F07AFF02214DF2243000F075FFB7216E
:103800004DF2253000F070FF02214DF2263000F01D
:103810006BFFCF214DF2273000F066FF02214DF201
:10382000283000F061FFDE214DF2293000F05CFF0E
:1038300002214DF22A3000F057FFF2214DF22B30D9
:1038400000F052FF02214DF22C3000F04DFFFE211E
:103850004DF22D3000F048FF03214DF22E3000F0E4
:1038600043FF10214DF22F3000F03EFF03214DF2B7
:10387000303000F039FF33214DF2313000F034FFA9
:1038800003214DF2323000F02FFF6D214DF2333025
:1038900000F02AFF00214FF4544000F025FF3321AF
:1038A0004DF2014000F020FF00214DF2024000F0F7
:1038B0001BFF34214DF2034000F016FF00214DF2B2
:1038C000044000F011FF3A214DF2054000F00CFFDA
:1038D00000214DF2064000F007FF4A214DF207405B
:1038E00000F002FF00214DF2084000F0FDFE5C21D7
:1038F0004DF2094000F0F8FE00214DF20A4000F0C0
:10390000F3FE81214DF20B4000F0EEFE00214DF25E
:103910000C4000F0E9FEA6214DF20D4000F0E4FE5F
:1039200000214DF20E4000F0DFFEE5214DF20F4088
:1039300000F0DAFE01214DF2104000F0D5FE132117
:103940004DF2114000F0D0FE01214DF2124000F086
:10395000CBFE54214DF2134000F0C6FE01214DF282
:10396000144000F0C1FE82214DF2154000F0BCFE73
:1039700001214DF2164000F0B7FECA214DF217406A
:1039800000F0B2FE02214DF2184000F0ADFE002121
:103990004DF2194000F0A8FE02214DF21A4000F04D
:1039A000A3FE01214DF21B4000E005E300F09CFE68
:1039B00002214DF21C4000F097FE34214DF21D40D3
:1039C00000F092FE02214DF21E4000F08DFE6721B4
:1039D0004DF21F4000F088FE02214DF2204000F021
:1039E00083FE84214DF2214000F07EFE02214DF243
:1039F000224000F079FEA4214DF2234000F074FE35
:103A000002214DF2244000F06FFEB7214DF2254017
:103A100000F06AFE02214DF2264000F065FECF2143
:103A20004DF2274000F060FE02214DF2284000F0E8
:103A30005BFEDE214DF2294000F056FE02214DF2E0
:103A40002A4000F051FEF2214DF22B4000F04CFED6
:103A500002214DF22C4000F047FEFE214DF22D4098
:103A600000F042FE03214DF22E4000F03DFE1021F9
:103A70004DF22F4000F038FE03214DF2304000F0AF
:103A800033FE33214DF2314000F02EFE03214DF282
:103A9000324000F029FE6D214DF2334000F024FE4B
:103AA00000214FF4554000F01FFE33214DF201502C
:103AB00000F01AFE00214DF2025000F015FE3421F4
:103AC0004DF2035000F010FE00214DF2045000F0C2
:103AD0000BFE3A214DF2055000F006FE00214DF29A
:103AE000065000F001FE4A214DF2075000F0FCFDA7
:103AF00000214DF2085000F0F7FD5C214DF2095015
:103B000000F0F2FD00214DF20A5000F0EDFD8121A0
:103B10004DF20B5000F0E8FD00214DF20C5000F08A
:103B2000E3FDA6214DF20D5000F0DEFD00214DF227
:103B30000E5000F0D9FDE5214DF20F5000F0D4FDFC
:103B400001214DF2105000F0CFFD13214DF2115024
:103B500000F0CAFD01214DF2125000F0C5FD5421C4
:103B60004DF2135000F0C0FD01214DF2145000F051
:103B7000BBFD82214DF2155000F0B6FD01214DF242
:103B8000165000F0B1FDCA214DF2175000F0ACFD07
:103B900002214DF2185000F0A7FD00214DF21950FE
:103BA00000F0A2FD02214DF21A5000F09DFD01210E
:103BB0004DF21B5000F098FD02214DF21C5000F018
:103BC00093FD34214DF21D5000F08EFD02214DF287
:103BD0001E5000F089FD67214DF21F5000F084FD5A
:103BE00002214DF2205000F07FFD84214DF2215042
:103BF00000F07AFD02214DF2225000F075FDA42163
:103C00004DF2235000F070FD02214DF2245000F0DF
:103C10006BFDB7214DF2255000F066FD02214DF2FB
:103C2000265000F061FDCF214DF2275000F05CFDE1
:103C300002214DF2285000F057FDDE214DF22950AF
:103C400000F052FD02214DF22A5000F04DFDF2210C
:103C50004DF22B5000F048FD02214DF22C5000F0A7
:103C600043FDFE214DF22D5000F03EFD03214DF2AB
:103C70002E5000F039FD10214DF22F5000F034FD90
:103C800003214DF2305000F02FFD33214DF2315021
:103C900000F02AFD03214DF2325000F025FD6D2188
:103CA0004DF2335000F020FD00214FF4564000F05B
:103CB0001BFD33214DF2016000F016FD00214DF295
:103CC000026000F011FD34214DF2036000F00CFDA4
:103CD00000214DF2046000F007FD3A214DF205602D
:103CE00000F002FD00214DF2066000F0FDFC4A21CB
:103CF0004DF2076000F0F8FC00214DF2086000F082
:103D0000F3FC5C214DF2096000F0EEFC00214DF265
:103D10000A6000F0E9FC81214DF20B6000F0E4FC48
:103D200000214DF20C6000F0DFFCA6214DF20D6089
:103D300000F0DAFC00214DF20E6000F0D5FCE52128
:103D40004DF20F6000F0D0FC01214DF2106000F048
:103D5000CBFC13214DF2116000F0C6FC01214DF2A5
:103D6000126000F0C1FC54214DF2136000F0BCFC65
:103D700001214DF2146000F0B7FC82214DF2156074
:103D800000F0B2FC01214DF2166000F0ADFCCA213A
:103D90004DF2176000F0A8FC02214DF2186000F00F
:103DA000A3FC00214DF2196000F09EFC02214DF2AF
:103DB0001A6000F099FC01214DF21B6000F094FCA8
:103DC00002214DF21C6000F08FFC34214DF21D6089
:103DD00000F08AFC02214DF21E6000F085FC672194
:103DE0004DF21F6000F080FC02214DF2206000F0D7
:103DF0007BFC84214DF2216000F076FC02214DF223
:103E0000226000F071FCA4214DF2236000F06CFCF4
:103E100002214DF2246000F067FCB7214DF22560CD
:103E200000F062FC02214DF2266000F05DFCCF2123
:103E30004DF2276000F058FC02214DF2286000F09E
:103E400053FCDE214DF2296000F04EFC02214DF2C0
:103E50002A6000F049FCF2214DF22B6000F044FC96
:103E600002214DF22C6000F03FFCFE214DF22D604E
:103E700000F03AFC03214DF22E6000F035FC1021D9
:103E80004DF22F6000F030FC03214DF2306000F065
:103E90002BFC33214DF2316000F026FC03214DF262
:103EA000326000F021FC6D214DF2336000F01CFC0B
:103EB00055214FF4704000F017FCAA214FF2010089
:103EC00000F012FC52214FF2020000F00DFC08211C
:103ED0004FF2030000F008FC00214FF2040000F054
:103EE00003FCCC214FF4314000F0FEFB00214BF2EB
:103EF000011000F0F9FB05214FF4364000F0F4FB0F
:103F000070214FF4374000F0EFFB70214BF201704D
:103F100000F0EAFB01214FF4384000F0E5FB0321FB
:103F20004BF6010000F0E0FB03214BF6020000F02D
:103F3000DBFB03214BF6030000F0D6FB02214FF41C
:103F40003C4000F0D1FB00214BF6014000F0CCFBDF
:103F500000214BF6024000F0C7FBD0214FF449404E
:103F600000F0C2FB02214CF6011000F0BDFB502115
:103F70004CF6021000F0B8FB50214CF6031000F094
:103F8000B3FB50214CF6041000F0AEFB00214FF4BF
:103F9000545000F0A9FB55214FF4685000F0A4FBE9
:103FA0004FF4885000F08AFB782000F039FE4FF47F
:103FB000245000F083FBBDE06448808841F6631123
:103FC0008842F8D1E22000F079FB1D2000F06AFB66
:103FD000022000F067FB042000F064FB642000F086
:103FE0001FFEE02000F06AFB012000F05BFB0A20CE
:103FF00000F00AFEE02000F061FB032000F052FB1D
:104000000C2000F001FE012000F058FB0A2000F017
:10401000FBFDE62000F052FB2F2000F043FBFF20C9
:1040200000F040FBFF2000F03DFBB02000F046FB1D
:10403000202000F037FB002000F034FB032000F0CC
:1040400031FB40F21F3000F02DFB012000F02AFB75
:1040500040F2DF1000F026FB002000F023FBB4202C
:1040600000F02CFB042000F01DFB40F21F4000F08C
:1040700019FB002000F016FB2E2000F013FB00209F
:1040800000F010FB002000F00DFB002000F00AFB08
:10409000002000F007FBB62000F010FB022000F02B
:1040A00001FB4FF4037000F0FDFA002000F0FAFA73
:1040B000172000F0F7FA152000F0F4FA002000F0C5
:1040C000F1FA002000F0EEFAF02000F0F7FA0320F9
:1040D00000F0E8FA292000F0F1FAD02000F0EEFA22
:1040E000002000F0DFFABE2000F0E8FA052000F022
:1040F000D9FAFE2000F0D6FA012000F0D3FA002011
:1041000000F0D0FA002000F0CDFA002000F0CAFA4A
:10411000B82000F0D3FA032000F0C4FA012000F028
:10412000C1FABA2000F0CAFA012000F0BBFA6420FC
:1041300000F01AF80020FDF7EBFB012004490860AD
:104140004FF6FF70FDF7CAFB13B000BD74010020ED
:104150008081214208B5034800880090BDF8000026
:1041600008BD00000008006C2DE9F0470446BE20A1
:1041700000F0A4FA052000F095FA204600F09FFE1A
:1041800007464FF066320C4B00F0ACFE054600F0DF
:1041900069FE1FFA80F9484600F084FA012000F019
:1041A00081FAFF2000F07EFA002000F07BFA002068
:1041B00000F078FABDE8F08766660440F0B5054681
:1041C0000024002789488079012805D18748808804
:1041D00041F66311884208D184488079F0B9834858
:1041E000808841F66311884218D1082D15D2DFE886
:1041F00005F00406080A0C0E101206250DE007252E
:104200000BE0042509E0052507E0012505E0002570
:1042100003E0032501E0022500BF00BF082D1CD2EA
:10422000DFE805F00406090C0F12151800BF14E0B2
:1042300044F0800411E044F040040EE044F0C00477
:104240000BE044F0200408E044F0600405E044F092
:10425000A00402E044F0E00400BF00BF634880888F
:1042600045F21051884202D14FF4585700E03627EA
:104270005E48808849F24131884205D05B48808899
:1042800047F28971884201D144F00804214638463A
:1042900000F02AFA5548808841F6631188421DD003
:1042A00004F0200068B1514800885049498888428C
:1042B00014DA4E48068840884C49088008464680F3
:1042C0000CE04A48008849494988884206DD474849
:1042D00006884088454908800846468043488088CB
:1042E00045F21051884252D14049488900F0E6F920
:1042F000002000F0D7F93D494989491C88B200F0F7
:10430000DDF9002000F0CEF938494989891C88B2CE
:1043100000F0D4F935490988491EC1F30F2000F097
:10432000C1F932494989C91C88B200F0C7F92F493F
:104330000978491EC8B200F0B5F92C49888900F007
:10434000BDF9002000F0AEF928498989491C88B2DE
:1043500000F0B4F9002000F0A5F924498989891CEE
:1043600088B200F0ABF921494988491EC1F30F20FA
:1043700000F098F91D498989C91C88B200F09EF99E
:104380001A498978491EC8B200F08CF92DE0174906
:10439000488900F093F9002000F084F9002000F033
:1043A00081F912490988491EC1F30F2000F07AF9FA
:1043B0000E490978491EC8B200F074F90B49888982
:1043C00000F07CF9002000F06DF9002000F06AF99F
:1043D00006494988491EC1F30F2000F063F90349DB
:1043E0008978491EC8B200F05DF9F0BD7401002063
:1043F00010B502460C464548808841F66311884254
:1044000047D142488079A8B940480088401E801AA8
:1044100082B23E49488900F051F9002000F042F98B
:10442000002000F03FF9101200F03CF9D0B200F08B
:1044300039F916E03549488900F040F9101200F0CA
:1044400031F9D0B200F02EF930490988491EC1F384
:104450000F2000F027F92D490978491EC8B200F055
:1044600021F92A49888900F029F9201200F01AF967
:10447000E0B200F017F925494988491EC1F30F2021
:1044800000F010F921498978491EC8B200F00AF9F4
:104490003AE01E48808845F21051884220D11B49DD
:1044A000488900F00BF9101200F0FCF8174949890F
:1044B000491C88B200F002F9D0B200F0F3F81349B9
:1044C000888900F0FBF8201200F0ECF80F49898988
:1044D000491C88B200F0F2F8E0B200F0E3F813E013
:1044E0000A49488900F0EAF8101200F0DBF8D0B26F
:1044F00000F0D8F80549888900F0E0F8201200F0B3
:10450000D1F8E0B200F0CEF810BD00007401002038
:104510002DE9F84F80460E4617461C46B346204606
:10452000E31704EB5373DB1021464FEAE47C04EB02
:104530005C7C4FEAEC0CA4EBCC0CBCF1000F02D07D
:104540004FF0010C01E04FF0000C6344224604EBF5
:10455000D27C4FEA6C0C03FB0CF3DBB20093A7F1A7
:104560002000C7B2002558E00C2C07D107EB47000C
:104570002C4901EB800010F8059013E0102C05D1B8
:10458000294800EB071010F805900BE0182C07D114
:1045900007EBC700254901EB800010F8059001E00A
:1045A000BDE8F88F4FF0000A31E009F0800038B123
:1045B0001F48008882B231464046FDF741FA08E0C4
:1045C0000A9830B91B48008882B231464046FDF750
:1045D00037FA4FEA49604FEA1069701C86B21648F4
:1045E0004088B04200DCDBE7A6EB0B00A0420AD11A
:1045F0005E4608F101001FFA80F80F480088404528
:1046000000DCCDE706E00AF1010000F0FF0ABAF194
:10461000080FCADB00BF681CC5B200988542A3DB47
:1046200000BFBDE7F85000086C5500085C5B00084F
:104630001C00002020000020740100202DE9F84714
:1046400004460D4690469946DDE9096704F0FF0AE5
:1046500008EB04001FFA80F809EB05001FFA80F947
:1046600016E0444502DB5446A81985B24D4500DBEF
:1046700014E0002000903A78334629462046FFF7A0
:1046800047FF304606EBD07104EB61018CB27F1C12
:1046900038787E2802DC38782028E2DA00BFBDE8CE
:1046A000F887000001B5BDF800000090BDF80000DB
:1046B0000149088008BD00000008006C01B5BDF884
:1046C00000000090BDF800000149088008BD00000E
:1046D000FE07006C0248008902490880704700000C
:1046E00074010020FE07006C024A1080921C1180A9
:1046F00070470000FE07006C00B585B000BF1B4886
:10470000806940F00800194988610846806900F016
:104710000800009000BF00BF00BF0846806940F05D
:10472000400088610846806900F04000009000BFAA
:1047300000BF2020019001200290039003200490EC
:1047400001A90B48FCF790F82020019001A9094825
:10475000FCF78AF8012220210548FCF725FA0122FE
:1047600020210448FCF720FA05B000BD00100240EB
:10477000000C01400018014000BFFEE77047704781
:1047800008B508490968C9084FF47A72B1FBF2F11B
:104790004143009100BF00BF00994A1E00920029CA
:1047A000F9D108BD00000020704730B58FB0054634
:1047B00000240120059000040690002007900220AC
:1047C0000C90C1030D910E9505A8FCF7D9FB04468A
:1047D0000CB100BFFEE70F200090022001900020E6
:1047E00002904FF4806003900020049002216846FC
:1047F000FCF790FA04460CB100BFFEE70FB030BDE5
:1048000010B5FCF7DDF910BD1148006840F001005B
:104810000F490860084640680E4908400C49486046
:10482000084600680C4908400949086008460068C5
:1048300020F4802008600846406820F4FE004860AC
:104840004FF41F008860C8030449086070470000E7
:10485000001002400000FFF8FFFFF6FE08ED00E048
:1048600070B505466C6A0020E085E0842046FCF7C0
:1048700075FE70BD0168C96821F490710268D1604D
:104880000168496921F0010102685161202180F825
:104890003A10704710B504462068C06820F0400008
:1048A0002168C860202084F839002046FDF712F8FE
:1048B000002010BD70B5044694F83A0022284AD171
:1048C000A068B0F5805F13D1A56A206940B920685F
:1048D0004068C0F308002880A06A801CA06219E02C
:1048E00020684068C0B22880A06A401CA06211E025
:1048F000206938B920684068C1B2A26A501CA06221
:10490000117007E02068406800F07F01A26A501C27
:10491000A0621170E08D401E80B2E085C8B92068A9
:10492000C06820F020002168C8602068C06820F4BA
:1049300080702168C8602068406920F0010021680B
:104940004861202084F83A002046FCF77FFF0020D1
:1049500070BD0020FCE70220FAE7000070B50446B5
:104960002168096921F44051E2681143226811610C
:104970002269A1681143626941EA02052168C96898
:1049800041F20C62914329432268D1602168496950
:1049900021F44071A269114322685161564A21688D
:1049A000914254D1FCF792FA00EBC00101EB0011E7
:1049B00062689200B1FBF2F100EBC00202EB001260
:1049C00063689B00B2FBF3F26423B2FBF3F202EBE9
:1049D000C20303EB0212A1EB8201322202EB0111AE
:1049E0006422B1FBF2F101F0F00100EBC00202EB36
:1049F000001263689B00B2FBF3F26423B2FBF3F294
:104A000001EB021200EBC00101EB001163689B0097
:104A1000B1FBF3F100EBC00303EB00136668B600D3
:104A2000B3FBF6F36426B3FBF6F303EBC30606EB26
:104A30000313A1EB8301322303EB01116423B1FBC8
:104A4000F3F101F00F0111442268916053E0FCF78B
:104A50002DFA00EBC00101EB001162689200B1FB7E
:104A6000F2F100EBC00202EB001263689B00B2FBA4
:104A7000F3F26423B2FBF3F202EBC20303EB021284
:104A8000A1EB8201322202EB01116422B1FBF2F1AF
:104A900001F0F00100EBC00202EB001263689B0022
:104AA000B2FBF3F26423B2FBF3F201EB021200EB70
:104AB000C00101EB001163689B00B1FBF3F100EB57
:104AC000C00303EB00136668B600B3FBF6F364267D
:104AD000B3FBF6F303EBC30606EB0313A1EB830171
:104AE000322303EB01116423B1FBF3F101F00F0159
:104AF00011442268916070BD00380140014691F870
:104B0000390021282CD18868B0F5805F0FD10A6A5E
:104B10001088C0F308000B685860086918B9086A63
:104B2000801C086209E0086A401C086205E00B6A04
:104B3000581C086218780B685860C88C401E80B2F8
:104B4000C88458B90868C06820F080000B68D86035
:104B50000868C06840F040000B68D86000207047CB
:104B60000220FCE710B500240C48FCF703FD00BF51
:104B700001E0641C00BF0948FCF7F1FC2028F8D1D3
:104B800000BF002401E0641C00BF01220449034867
:104B9000FCF724FE0028F6D100BF10BDEC00002079
:104BA0001A00002000BFFEE702480068C0F30220A0
:104BB000704700000CED00E010B5002804DB0A0788
:104BC000130E054A135406E00A07140E034A00F0B8
:104BD0000F031B1FD45410BD00E400E018ED00E0EB
:104BE00030380A2801D2012070470020704700BFEA
:104BF0007047000010B504460420FCF781FC014812
:104C0000046010BD1000002030B50446002504E00B
:104C10004FF47A7000F004F86D1CA542F8D330BD53
:104C200070B5034600224FF0E02675690D4E3668D8
:104C300003FB06F44FF0E026B16910E04FF0E026E8
:104C4000B06988420BD0884202D20E1A324402E088
:104C50002E1A0E4432440146A24200D300E0EDE792
:104C600000BF70BD1000002000BF054A126802F0AE
:104C70004002002AF9D0C2B2014B1B1D1A607047D6
:104C80000038014086B00024FBF7A6FF4FF4E01087
:104C9000FFF78BFD4820FFF7ADFF4FF4E13000F048
:104CA000C5F8FFF729FDFCF743FF4FF478404B4967
:104CB00008604B4882884BA103A8FBF7B9FA8BE048
:104CC0000C2C41D2DFE804F0060B0F13181D22272D
:104CD0002C31363B4FF6FF70FCF700FE34E000202D
:104CE000FCF7FCFD30E01F20FCF7F8FD2CE04FF452
:104CF0007840FCF7F3FD27E04FF61F00FCF7EEFDD0
:104D000022E04FF4FC60FCF7E9FD1DE047F6FF7080
:104D1000FCF7E4FD18E04FF6E070FCF7DFFD13E070
:104D20004FF60740FCF7DAFD0EE048F23040FCF7A2
:104D3000D5FD09E04CF21860FCF7D0FD04E04BF61D
:104D40004040FCF7CBFD00BF00BF4FF47840234943
:104D5000086027A018210B46D222CDE90010282197
:104D60001E20FFF76BFC26A010210B46C822CDE9C0
:104D7000001046211E20FFF761FC24A010210B46E5
:104D8000C822CDE900105A211E20FFF757FC03A8C6
:104D900010210B46C822CDE900106E211E20FFF71E
:104DA0004DFC1EA00C210B46C822CDE9001082212B
:104DB0001E20FFF743FC601CC4B20C2C00D1002461
:104DC0001948006808B9012000E000201649086071
:104DD0004FF47A70FFF718FF72E700001C00002004
:104DE000740100204C43442049443A253034580093
:104DF000454C4954452053544D3332205E5F5E008C
:104E00005446544C434420544553540041544F4D50
:104E100040414C49454E54454B0000003230313939
:104E20002F392F32370000009481214210B50446FB
:104E300009480A4908600846446000218160C16051
:104E4000016181610C214161FCF73AFC01220449B6
:104E50000248FCF7C3FC10BD00380140EC00002004
:104E60001A0000204FEA1153A3F58063D3F11E030B
:104E7000A8BFD3F1200C08DB4FF0004242EAC12268
:104E800052EA505232FA03F0704709420BD4102B09
:104E9000C4BF0020704703F5787CBCF1FF3F05D00C
:104EA0004FF0FF3070474FF00000704770B500F0D2
:104EB000C3F800BF4992248000207047F0E7B0FAA1
:104EC00080F310FA03F10AD0C3F11D0303F58063E8
:104ED0004FEA41504FEA035202EBD12170474FF0A5
:104EE00000007047DFF848C170B51CEA111E1EBFF4
:104EF0001CEA13159EEA0C0F95EA0C0F00F06F8068
:104F000081EA030423EA4C134EEAD47E21EA4C11D1
:104F100041F4801143F48013AE44A1FB024CA0FB8A
:104F20000365AEF17F7E361955EB0C05A1FB034CF2
:104F30004CF10003A0FB021C16EB0C06654153F17B
:104F40000003094218BF46F0010613F4007F0BD19D
:104F50004FEA03314FEA0530340341EA155140EA84
:104F600016506FF003020AE04FEAC3214FEAC52052
:104F7000F40241EA555140EA56506FF0020202EB4A
:104F80002E4201EB025585EACE710AD05FEA440C4D
:104F900018BF24F0004450F1000041F1000120EA64
:104FA000D47040F2FE7C624500D270BDA84214BFAE
:104FB0004FF080444FF04044002E08BF0024BEF163
:104FC000806FA8BFA1F1C041BDE8704080F282802F
:104FD0004FF0000001F1C04101F0004170479EEA2E
:104FE0000C0F0CEA131518BF95EA0C0F06D04FF002
:104FF000000081EA030E0EF0004170BD00F01CF8C5
:105000008900013E00F007B800F009B84FEA430CF0
:105010005FEA5C5C08D081EA030100F05BB84FEA0C
:10502000410C5FEA5C5CF6D14FF00000014970472B
:105030000000FF070000F87F0EF1020E2EF0030EB5
:105040005EF8046B364205D4012A43EB030515F5DF
:10505000001F12D8012841EB010C1CF5001F0CD8D1
:105060000ED14FEAD17C15F5001F0CEB4C0C0CF166
:10507000020C08BF4CEBD37C04E04FF0080C01E0BD
:105080004FEAD37C0CEB4C0526FA05F606F0070632
:10509000B6F1040C06D20EEB860CBDE870404CF065
:1050A000010C6047DFE80CF0090B02024FF00041F1
:1050B0004FF00000A1F5002170BD194610460128EF
:1050C00051EB010418BFD4F5001484BF002001F097
:1050D000004170BD0808A0F500114FEA310170478A
:1050E0000000000000000000010203040607080998
:1050F00000000000010203040000000000000000A6
:1051000000000000000000003F4000000000000020
:1051100000003000400030004000000009000BC0DB
:105120003D000BC03D00090018C024407FE0224034
:1051300031800000180024C01B000D803240018027
:1051400003801C4027401C80074000401000600086
:1051500000000000000000000000000000001F80B0
:10516000204040200000402020401F800000000020
:10517000090006001F80060009000000040004006A
:105180003F800400040000000010006000000000E8
:1051900000000000040004000400040004000000FB
:1051A000000000400000000000000000002001C0DE
:1051B00006003800400000001F80204020402040B2
:1051C0001F800000000010403FC0004000000000B1
:1051D00018C0214022402440184000001080204088
:1051E000244024401B80000002000D0011003FC03D
:1051F000014000003C8024402440244023800000E3
:105200001F802440244034400380000030002000F0
:1052100027C03800200000001B8024402440244088
:105220001B8000001C0022C0224022401F80000082
:105230000000000008400000000000000000000026
:105240000460000000000000000004000A001100DB
:105250002080404009000900090009000900000001
:1052600000004040208011000A00040018002000C7
:1052700023402400180000001F80204027402940C0
:105280001F400000004007C039000F0001C000406F
:1052900020403FC0244024401B8000001F8020404D
:1052A000204020403080000020403FC0204020406F
:1052B0001F80000020403FC024402E4030C000002E
:1052C00020403FC024402E00300000000F0010801E
:1052D000204022403380020020403FC004000400F0
:1052E0003FC02040204020403FC0204020400000E0
:1052F0000060202020203FC02000200020403FC030
:1053000024400B0030C0204020403FC020400040DF
:10531000004000C03FC03C0003C03C003FC0000054
:1053200020403FC00C4023003FC020001F80204091
:10533000204020401F80000020403FC02440240027
:10534000180000001F802140214020E01FA0000025
:1053500020403FC02440260019C0004018C024400F
:105360002440224031800000300020403FC02040D7
:105370003000000020003F80004000403F802000BF
:1053800020003E0001C0070038002000380007C0A0
:105390003C0007C038000000204039C0060039C07A
:1053A000204000002000384007C0384020000000A6
:1053B000304021C02640384020C0000000000000DE
:1053C0007FE0402040200000000070000C000380BF
:1053D000004000000000402040207FE0000000006E
:1053E000000020004000200000000000001000101D
:1053F000001000100010001000000000400000002D
:1054000000000000000002800540054003C000408D
:1054100020003FC0044004400380000000000380DF
:105420000440044006400000000003800440244083
:105430003FC00040000003800540054003400000DD
:10544000000004401FC0244024402000000002E06F
:10545000055005500650042020403FC00440040081
:1054600003C000400000044027C0004000000000CE
:1054700000100010041027E00000000020403FC092
:105480000140070004C00440204020403FC00040CD
:105490000040000007C0040007C0040003C0000073
:1054A000044007C00440040003C000400000038023
:1054B0000440044003800000041007F0045004403E
:1054C00003800000000003800440045007F0001037
:1054D000044007C002400400040000000000064031
:1054E0000540054004C00000000004001F80044087
:1054F00000400000040007800040044007C0004056
:105500000400070004C0018006000400060001C07A
:10551000070001C006000000044006C0010006C0EC
:10552000044000000410071004E00180060004009D
:105530000000044005C006400440000000000000D8
:1055400004007BE040200000000000000000FFF0AD
:1055500000000000000040207BE00400000000008C
:1055600040008000400020002000400000000000BB
:10557000000000000000000000000000000000002B
:1055800000001FCC000C000000000000000008001C
:10559000300060000800300060000000022003FCC2
:1055A0001E20022003FC1E200220000000000E1816
:1055B00011043FFF10840C78000000000F001084DD
:1055C0000F3800C0077818840078000000780F8436
:1055D00010C411240E9800E400840008080068003C
:1055E000700000000000000000000000000000004B
:1055F000000007E0181820044002000000004002EC
:105600002004181807E000000000000002400240DB
:1056100001800FF001800240024000000080008005
:1056200000800FF800800080008000000001000D65
:10563000000E0000000000000000000000000080DC
:105640000080008000800080008000800000000C4E
:10565000000C000000000000000000000000000638
:10566000001800600180060018002000000007F00C
:10567000080810041004080807F0000000000804DF
:1056800008041FFC000400040000000000000E0CD1
:1056900010141024104411840E0C000000000C188B
:1056A00010041104110412880C700000000000E0C6
:1056B0000320042408241FFC0024000000001F987D
:1056C000108411041104108810700000000007F00D
:1056D00008881104110418880070000000001C00E4
:1056E000100010FC13001C001000000000000E3819
:1056F00011441084108411440E380000000007008B
:10570000088C10441044088807F0000000000000D6
:105710000000030C030C000000000000000000006B
:1057200000010106000000000000000000000080F1
:10573000014002200410080810040000022002208A
:10574000022002200220022002200000000010049B
:1057500008080410022001400080000000000E0034
:105760001200100C106C10800F00000003E00C18E9
:1057700013E4142417C4082807D000000004003CD8
:1057800003C41C40074000E4001C000410041FFC7C
:105790001104110411040E880070000003E00C18BD
:1057A00010041004100410081C10000010041FFC4A
:1057B000100410041004080807F0000010041FFC77
:1057C0001104110417C410040818000010041FFC71
:1057D0001104110017C010000800000003E00C18AD
:1057E0001004100410441C780040000010041FFC3A
:1057F00010840080008010841FFC1004000010043E
:1058000010041FFC1004100400000000000300013D
:10581000100110011FFE10001000000010041FFCFA
:10582000110403801464181C1004000010041FFCF1
:105830001004000400040004000C000010041FFC0D
:105840001F0000FC1F001FFC1004000010041FFCC0
:105850000C04030000E010181FFC100007F00808FB
:10586000100410041004080807F0000010041FFCC6
:1058700010841080108010800F00000007F00818BE
:1058800010241024101C080A07F2000010041FFC4A
:105890001104110011C011300E0C000400000E1C88
:1058A00011041084108410441C38000018001000EB
:1058B00010041FFC100410001800000010001FF856
:1058C00010040004000410041FF8100010001E0053
:1058D00011E0001C007013801C0010001FC0103C61
:1058E00000E01F0000E0103C1FC000001004180C76
:1058F000163401C001C01634180C100410001C002E
:10590000130400FC13041C00100000000804101C09
:105910001064108413041C04101800000000000020
:1059200000007FFE40024002400200000000300004
:105930000C0003800060001C000300000000400217
:10594000400240027FFE0000000000000000000056
:105950002000400040004000200000000001000145
:1059600000010001000100010001000100004000F1
:10597000400020000000000000000000000000982F
:10598000012401440144014400FC000410001FFCF8
:10599000008801040104008800700000000000700D
:1059A0000088010401040104008800000000007068
:1059B00000880104010411081FFC0004000000F825
:1059C000014401440144014400C8000000000104F6
:1059D00001040FFC1104110411001800000000D68E
:1059E00001290129012901C90106000010041FFC39
:1059F000008401000100010400FC00040000010417
:105A0000190419FC00040004000000000000000359
:105A100000010101190119FE0000000010041FFC23
:105A20000024004001B4010C010400000000100437
:105A300010041FFC0004000400000000010401FC2D
:105A40000104010001FC0104010000FC010401FC4F
:105A5000008401000100010400FC0004000000F8C3
:105A6000010401040104010400F80000010101FF28
:105A7000008501040104008800700000000000702F
:105A8000008801040104010501FF00010104010473
:105A900001FC00840104010001800000000000CC32
:105AA00001240124012401240198000000000100C8
:105AB000010007F80104010400000000010001F8E2
:105AC000000400040004010801FC0004010001803E
:105AD0000170000C001001600180010001F0010C58
