:020000040800F2
:10000000A8C700202D0200081D5900084B29000830
:1000100019590008750800083D700008000000002C
:1000200000000000000000000000000079690008E6
:1000300079080008000000001F5900085D6B0008E7
:10004000470200084702000847020008470200086C
:10005000470200084702000847020008470200085C
:10006000470200084702000847020008470200084C
:10007000470200084702000847020008470200083C
:10008000470200084702000847020008470200082C
:10009000470200084702000847020008470200081C
:1000A000470200084702000847020008470200080C
:1000B0004702000847020008BD6B0008470200081D
:1000C00047020008470200084702000847020008EC
:1000D00047020008FD6F00084702000847020008B9
:1000E00047020008470200084702000847020008CC
:1000F00047020008470200084702000847020008BC
:1001000047020008470200084702000847020008AB
:10011000470200084702000847020008470200089B
:10012000470200084702000847020008470200088B
:1001300000F002F800F06BF80AA090E8000C82448E
:100140008344AAF10107DA4501D100F060F8AFF26B
:10015000090EBAE80F0013F0010F18BFFB1A43F0A5
:1001600001031847080D0100280D01000A444FF053
:10017000000C10F8013B13F0070408BF10F8014B06
:100180001D1108BF10F8015B641E05D010F8016B4B
:10019000641E01F8016BF9D113F0080F1EBF10F8AF
:1001A000014BAD1C0C1B09D16D1E58BF01F801CBD2
:1001B000FAD505E014F8016B01F8016B6D1EF9D555
:1001C0009142D6D37047000000230024002500266A
:1001D000103A28BF78C1FBD8520728BF30C148BFAA
:1001E0000B607047642900F01581752900F01281B9
:1001F000782900F04B81632900F0CF82732900F049
:10020000D482002070471FB51FBD10B510BD00F08F
:10021000FFFA1146FFF7F7FF09F0B6FA00F01DFBF1
:1002200003B4FFF7F2FF03BC07F0F1F80948804779
:1002300009480047FEE7FEE7FEE7FEE7FEE7FEE7C8
:10024000FEE7FEE7FEE7FEE704480549054A064BE0
:1002500070470000656B000831010008A8C100204C
:10026000A8C70020A8C30020A8C30020704753EAF5
:10027000020C00F069802DE9F04B4FF00006002BD6
:100280001FBFB3FA83F503FA05F424FA05F65E40BE
:1002900012BF1643B2FA82F502FA05F4C5F1200541
:1002A0001EBF22FA05FC44EA0C04203556EA044C31
:1002B0004FEA144418BF641C4FF000084FF00009C7
:1002C000904271EB030C39D3002919BFB1FA81F7C1
:1002D00001FA07F6B0FA80F700FA07F6C7F120072F
:1002E0001EBF20FA07FC46EA0C062037B6FBF4FCDA
:1002F000A7EB0507103F07F01F0BCBF120060CFA08
:100300000BFB2CFA06F644BFB3460026202FA4BFF1
:100310005E464FF0000B5BEA060C08BF4FF0010B86
:1003200019EB0B09ABFB027C48EB0608C01B06FB74
:1003300002CC0BFB03CC71EB0C01C1E70B46024670
:1003400041464846BDE8F08B13B54FF000004FF032
:100350000001AFF30080BDE81C4070470FB40449B2
:1003600010B503AA029800F025FA10BC5DF814FB42
:100370001400002070B5044685690068C10601D5E7
:10038000302600E02026C00707D070BDD4E9012147
:1003900030469047206A401C20626D1EF6D570BD25
:1003A00070B5044685690078C00707D170BDD4E9EF
:1003B000012120209047206A401C20626D1EF6D546
:1003C00070BD70B50C460546012A05D02878800618
:1003D00000D5EA69002302E0012305E05B1C93429B
:1003E00002D2E05C0028F9D1A869E618C01AA86119
:1003F000286A184428622846FFF7BCFF04E0D5E9C4
:10040000012114F8010B9047B442F8D32846FFF7B6
:10041000C7FF70BD2DE9F04106460024106875291C
:10042000314616A510D0AFF30080002802DA404212
:1004300013A507E031688A0701D512A502E0490734
:1004400004D511A5012401E0AFF3008000210A22A8
:1004500006F1240709E0B0FBF2FCB0FBF2F302FB6B
:100460001C00303078541846491C0028F3D123462C
:100470002A463046BDE8F04100F02CB900000000EB
:100480002D0000002B0000002000000070B5044685
:100490000D4621461068AFF300802188090502D57A
:1004A0000F4A7A4402E00E4A7A440E32002104F1E7
:1004B000240305E000F00F060009965D5E54491C18
:1004C0000028F7D120780023000704D5702D02D032
:1004D00009B1022311322046BDE8704000F0FAB89D
:1004E000960801002DE9F05F894604464FF0000AA6
:1004F000DFF874B1FB44C0F820A02046E1688847CB
:10050000002874D0252806D0D4E901219047206A1C
:10051000401C2062F1E700265F462046E1688847DC
:100520002028054607DB312D05D2781910F8200C5C
:1005300008B10643F1E7B00701D526F00406C4F878
:100540001CA00027C4F818A02A2D09D0284606F0C0
:1005500057FF38B304EB8708303DC8F8185019E04E
:1005600059F8041B204604EB87029161E168884733
:10057000012F054618D1E069002820DA26F0200670
:100580001DE0D8F8180000EB800005EB4000303883
:10059000C8F818002046E1688847054606F030FF95
:1005A0000028EED1012F0AD02E2D08D12046E16877
:1005B00088477F1C0546022F46F02006C4DBA06951
:1005C000002803DA404246F00106A061F00701D09E
:1005D00026F010066C2D0BD0682D09D04C2D39D08B
:1005E0006A2D35D0742D35D07A2D33D016E038E011
:1005F000E1682F4620468847B842054609D16C2F4E
:1006000026D04FF48060E1680643204688470546BF
:1006100004E06C2F1AD04FF4807006430DB3A5F19F
:100620004100192802D8203546F400664A4629467A
:10063000204626604E46FFF7D5FD80B101280BD03D
:10064000F61D26F0070000F1080956E74020E4E710
:100650008020D8E70020D6E706F104094DE72846B8
:1006600052E7206ABDE8F09F6C08010040EA0103F0
:10067000024630B59B0710D14FF0013400E008C2AC
:1006800008C91D1B9D4315EAC41FF8D013F0FF01D4
:1006900002F8011B0DD01B0AF8E711F8013B002BF3
:1006A00002F8013B05D011F8013B002B02F8013B99
:1006B000F3D130BD421E12F8013F002BFBD111F8DF
:1006C000013B002B02F8013BF9D17047704770479E
:1006D000704770472DE9F0470D469946924604460B
:1006E00000F124080168880604D5E06921F01001B2
:1006F000216000E00120A84201DD471B00E0002747
:10070000A1697A1902EB0900081AA0612078C006D5
:1007100002D42046FFF72EFE002608E0D4E901218E
:100720001AF806009047206A401C761C20624E454D
:10073000F4DB2078C0060AD52046FFF71BFE06E052
:10074000D4E9012130209047206A401C2062381EE5
:10075000A7F10107F4DC07E0D4E9012118F805004E
:100760009047206A401C2062281EA5F10105F3DC99
:100770002046FFF715FE2078000602D50220BDE8CE
:10078000F0870120FBE710B5436913B1AFF3008098
:1007900001E0FFF716FE012010BD127800F12401E0
:1007A0000A7000224A700122EDE711684FF0FF3213
:1007B000E9E70000074B70B50D467B4400F011F8E7
:1007C0000446284600F020F810B14FF0FF3070BD0D
:1007D000204670BDC78A000001694A1C0261087882
:1007E000704700B58FB0CDE9013100210591054971
:1007F0007944CDE9031011466846FFF773FE0FB048
:1008000000BD0000E5FFFFFF007B00F080007047A7
:10081000754600F02BF8AE4605006946534620F0B9
:100820000700854618B020B5FFF70EFDBDE8204053
:100830004FF000064FF000074FF000084FF0000B9C
:1008400021F00701AC46ACE8C009ACE8C009ACE84F
:10085000C009ACE8C0098D46704710B50446AFF337
:1008600000802046BDE81040FFF7DABC0048704722
:1008700044C1002000BFFEE77047000070B5044689
:10088000B3F5804F13D1D1E9000540EA05108D681A
:1008900040EA05208D6928438D8940EA054054F8D7
:1008A0002250064E3540284344F8220003E06FF002
:1008B000704044F82200002070BD00000000F0CF1E
:1008C00030B50246086852F8200020F001000C689C
:1008D00042F824008868082801D1402300E0002362
:1008E000486818438C682043CC6820430C69204337
:1008F0004C6920438C692043CC6920430C6A204317
:100900004C6A20438C6A2043CC6A20430C6B204302
:100910004C6B20430C6852F82440044D2C4020437B
:100920000C6842F82400002030BD00008000F0FF79
:1009300010B50346D1E9000440EA04108C6840EA8F
:1009400004208C8940EA0444088A401E44EA00548A
:10095000087D801E44EA00608C692043541C53F8D3
:10096000244004F040442043541C43F82400002059
:1009700010BD00002DE9F05F82460F461446204668
:10098000E21704EB5272D2102146E31704EB5373C3
:10099000DB10A4EBC3030BB1012300E000231A44D6
:1009A000624302F0FF099AF800600AF101008246F2
:1009B0000578812E05DB402D03DBFF2D01D0FF2EB6
:1009C0000DD14FF0000B06E0002007F8010B0BF1F2
:1009D000010000F0FF0BCB45F6DBBDE8F09F7F2D5B
:1009E00003DAA5F14000C5B202E0A5F14100C5B2AD
:1009F000A6F18100C6B2BE2000FB065000FB09F83C
:100A00000C2C04D0102C0CD0182C1ED113E0104844
:100A1000D0F8090000EB08014A46384606F086FB8C
:100A200013E00B48D0F8110000EB08014A463846A5
:100A300006F07CFB09E00648D0F8190000EB08013D
:100A40004A46384606F072FB00BF00BF00BFC4E74D
:100A5000E0C0002070B50446002594F8210002286B
:100A600003D00420A0630125C1E02068006820F0C5
:100A70000E00216808602068006820F001002168ED
:100A800008605C492068884252D95A497839206800
:100A9000884201D1012047E05649643920688842E4
:100AA00001D1102040E0534950392068884201D1DB
:100AB000801539E04F493C392068884201D18014C3
:100AC00032E04C4928392068884202D14FF4803006
:100AD0002AE0484914392068884202D14FF4801036
:100AE00022E044492068884201D140041CE0424988
:100AF0002068884201D1012016E03F491431206866
:100B0000884201D110200FE03B49283120688842FB
:100B100001D1801508E038493C312068884201D174
:100B2000801401E04FF480303349091F086051E020
:100B3000304978392068884201D1012047E02D49A9
:100B400064392068884201D1102040E02949503999
:100B50002068884201D1801539E026493C39206857
:100B6000884201D1801432E0224928392068884225
:100B700002D14FF480302AE01E491439206888429F
:100B800002D14FF4801022E01A492068884201D136
:100B900040041CE018492068884201D1012016E079
:100BA000154914312068884201D110200FE0124904
:100BB00028312068884201D1801508E00E493C3177
:100BC0002068884201D1801401E04FF48030094947
:100BD00080394860012084F8210000BF002084F89B
:100BE000200000BF606B10B12046616B884728462B
:100BF00070BD0000800002400804024070B5044649
:100C000000F0BEF906462546681C10B1044800787D
:100C1000054400BF00F0B4F9801BA842FAD370BDB0
:100C20000C0000202DE9F847024600239C467BE19A
:100C30004FF0010808FA03F4D1F8008008EA040034
:100C4000A0427DD1DFF8F4A2D1F80480A8EB0A0914
:100C5000D0453AD014DCB8F1030F50D009DCB8F11C
:100C6000000F31D0B8F1010F1CD0B8F1020F49D1FB
:100C700020E0B8F1110F18D0B8F1120F42D11EE0E8
:100C8000B9F5881F25D006DCB9F5803F20D0B9F52D
:100C9000801F37D11AE0B9F5001F18D0B9F5041F2D
:100CA00030D117E0D1F80CC02DE0D1F80C8008F15C
:100CB000040C28E0D1F80C8008F1080C23E0D1F8EE
:100CC0000C8008F10C0C1EE000BF00BF00BF00BF8D
:100CD00000BF00BFD1F80880B8F1000F02D14FF07B
:100CE000040C0BE0D1F80880B8F1010F03D14FF0EC
:100CF000080C146102E04FF0080C546103E04FF05F
:100D0000000C00E000BF00BFFF2801D8904601E0C2
:100D100002F104084646FF2802D84FEA830803E0A0
:100D2000A3F108084FEA88084746D6F800804FF03C
:100D30000F0909FA07F928EA09080CFA07F900E08F
:100D40007AE048EA0908C6F80080D1F8048008F083
:100D50008058B8F1805F6FD100BFDFF8E481D8F828
:100D6000188048F00108DFF8D891C9F81880C84603
:100D7000D8F8188008F00108CDF8008000BF00BF47
:100D80004FEAB9384FEA930958F829504FEA837867
:100D90004FEA18794FF00F0808FA09F825EA080514
:100DA000DFF8A081424502D14FF0000824E0DFF8CF
:100DB0009881424502D14FF001081DE0DFF88C8197
:100DC000424502D14FF0020816E0DFF88481424527
:100DD00002D14FF003080FE0DFF87881424502D1DD
:100DE0004FF0040808E0DFF87081424502D14FF06F
:100DF000050801E04FF006084FEA83794FEA1979B8
:100E000008FA09F848EA0505DFF850814FEA930926
:100E100048F82950D1F8048008F48038B8F5803FAC
:100E20000BD1DFF83C81D8F8008048EA0008DFF8F1
:100E30003091C9F800800AE075E0DFF82481D8F825
:100E4000008028EA0008DFF81891C9F80080D1F87E
:100E5000048008F40038B8F5003F0ED1DFF80081B7
:100E600008F10408D8F8008048EA0008DFF8F0909C
:100E700009F10409C9F800800DE0DFF8E48008F109
:100E80000408D8F8008028EA0008DFF8D49009F1B7
:100E90000409C9F80080D1F8048008F48018B8F576
:100EA000801F0ED1DFF8B88008F10808D8F800805C
:100EB00048EA0008DFF8A89009F10809C9F800809D
:100EC0000DE0DFF89C8008F10808D8F8008028EAD7
:100ED0000008DFF88C9009F10809C9F80080D1F802
:100EE000048008F40018B8F5001F0ED1DFF87080F8
:100EF00008F10C08D8F8008048EA0008DFF8609094
:100F000009F10C09C9F800800DE0DFF8548008F100
:100F10000C08D8F8008028EA0008DFF8449009F1AE
:100F20000C09C9F800805B1CD1F8008028FA03F88E
:100F3000B8F1000F7FF47CAEBDE8F8870000111017
:100F40000010024000080140000C01400010014068
:100F50000014014000180140001C0140080001403D
:100F600000040140024693680B400BB1012000E0F1
:100F7000002070470AB1016101E00B040361704772
:100F80000148006870470000040000200348006822
:100F900003490978084401490860704704000020AB
:100FA0000C00002010B50848006840F01000064909
:100FB0000860052000F080F80F2000F007F800F02E
:100FC0002BF8002010BD00000020024070B5044640
:100FD0000E4800784FF47A71B1FBF0F00C490968C3
:100FE000B1FBF0F5284601F0A9FA08B1012070BD67
:100FF000102C07D200222146501E00F01EF8054892
:10100000046001E00120F2E70020F0E70C0000207E
:101010000000002008000020704701460846002814
:1010200009DB00F01F0301229A4043099B0003F1F2
:10103000E023C3F8002100BF70472DE9F05F804630
:101040000D461646002706F0BFF9074639462A46E0
:10105000334601F00700C0F1070ABAF1040F02D9C4
:101060004FF0040A01E0C0F1070AD14600F1040A7A
:10107000BAF1070F02D24FF0000A01E0A0F1030A13
:10108000D4464FF0010A0AFA09FAAAF1010A0AEA5B
:10109000020A0AFA0CFA4FF0010B0BFA0CFBABF147
:1010A000010B0BEA030B4AEA0B042146404606F00B
:1010B00093F9BDE8F09F000000BF00F00702064B67
:1010C00019684FF6FF031940044B0B4343EA022112
:1010D000014B196000BF70470CED00E00000FA05FD
:1010E00070B504460D460CB9012070BD5A48006821
:1010F00000F00700A8420ED25748006820F0070011
:101100002843554908600846006800F00700A842D7
:1011100001D00120E9E7207800F0020002281DD16B
:10112000207800F00400042805D14C48406840F4C1
:10113000E0604A494860207800F00800082805D19E
:101140004648406840F4605044494860434840681D
:1011500020F0F000A168084340494860207800F082
:10116000010078B36068012806D13C48006800F4AB
:10117000003090B90120B8E76068022806D13748EE
:10118000006800F0007040B90120AEE73348006805
:1011900000F0020008B90120A7E73048406820F0BD
:1011A0000300616808432D494860FFF7E9FE0646E1
:1011B00009E0FFF7E5FE801B41F28831884202D941
:1011C000032092E707E02548406800F00C006168C2
:1011D000B0EB810FEDD12048006800F00700A84275
:1011E0000ED91D48006820F0070028431A490860FE
:1011F0000846006800F00700A84201D0012074E70B
:10120000207800F00400042807D11448406820F436
:10121000E060E168084311494860207800F0080068
:10122000082808D10D48406820F46050216940EA40
:10123000C1000A49486000F03FF808494968C1F315
:101240000311074A515CC840064908600648006817
:10125000FFF7BCFE002048E70020024000100240DB
:10126000B0C100080000002008000020014800680C
:10127000704700000000002000B5FFF7F7FF0449A9
:101280004968C1F30221034A515CC84000BD000017
:1012900000100240C0C1000800B5FFF7E7FF044995
:1012A0004968C1F3C221034A515CC84000BD000037
:1012B00000100240C0C10008F0B585B00FF26C0C00
:1012C0009CE8E01001A8A0E8E0101CA52D6800959E
:1012D00000210022002300240020194D696801F03C
:1012E0000C05F5B1042D02D0082D19D101E01548E7
:1012F00019E001ADC1F38346AC5D01F4803555B111
:101300000F4D6D68C5F340451DF805200D4D654333
:10131000B5FBF2F302E00C4D04FB05F3184602E0C6
:1013200000BF084800BF00BF05B0F0BD02030405C0
:10133000060708090A0B0C0D0E0F10100102000021
:101340000010024000127A0000093D00F8B5044682
:101350000CB90120F8BD207800F00100002878D0F9
:10136000F848406800F00C0004280CD0F5484068AC
:1013700000F00C00082811D1F248406800F48030D9
:10138000B0F5803F0AD1EF48006800F40030002833
:101390005FD0606800285CD10120DBE700BF606897
:1013A000B0F5803F06D1E748006840F48030E54959
:1013B000086028E0606858B9E248006820F480308E
:1013C000E04908600846006820F4802008601AE0C0
:1013D0006068B0F5A02F0BD1DA48006840F4802097
:1013E000D84908600846006840F4803008600AE088
:1013F000D448006820F48030D2490860084600686C
:1014000020F48020086000BF606888B1FFF7B8FD55
:10141000054606E0FFF7B4FD401B642801D9032010
:1014200098E7C848006800F400300028F2D010E0C7
:10143000FFF7A6FD054606E0FFF7A2FD401B642866
:1014400001D9032086E7BF48006800F40030002877
:10145000F2D1207800F00200022857D1B948406844
:1014600000F00C0050B1B748406800F00C000828AC
:1014700018D1B448406800F4803098B9B148006889
:1014800000F0020020B12069012801D0012061E7AD
:10149000AC48006820F0F800616940EAC100A94941
:1014A000086033E02069E8B10120A7490860FFF730
:1014B00067FD054606E0FFF763FD401B022801D9E2
:1014C000032047E79F48006800F002000028F2D0A0
:1014D0009C48006820F0F800616940EAC100994921
:1014E000086013E0002098490860FFF749FD0546B1
:1014F00006E0FFF745FD401B022801D9032029E73C
:101500009048006800F002000028F2D1207800F036
:10151000080008282DD1A069B8B101208B490860C6
:10152000FFF72EFD054606E0FFF72AFD401B0228C7
:1015300001D903200EE78348406A00F0020000282A
:10154000F2D0012004F0ECF913E000207F4908609C
:10155000FFF716FD054606E0FFF712FD401B0228C7
:1015600001D90320F6E67748406A00F0020000281F
:10157000F2D1207800F00400042873D100277148CC
:10158000C06900F0805070B900BF6E48C06940F07B
:1015900080506C49C8610846C06900F080500090D6
:1015A00000BF00BF01276A48006800F48070B0B92E
:1015B0006748006840F4807065490860FFF7E0FC08
:1015C000054606E0FFF7DCFC401B642801D9032038
:1015D000C0E65F48006800F480700028F2D000BFC9
:1015E000E068012806D15748006A40F001005549DB
:1015F000086227E0E06858B95248006A20F001000C
:10160000504908620846006A20F00400086219E0A8
:10161000E06805280BD14B48006A40F004004949B6
:1016200008620846006A40F0010008620AE0454886
:10163000006A20F00100434908620846006A20F071
:101640000400086200BFE068A0B1FFF799FC0546FE
:1016500009E0FFF795FC401B41F28831884202D92E
:10166000032077E622E03748006A00F002000028F5
:10167000EFD012E0FFF784FC054608E0FFF780FC9E
:10168000401B41F28831884201D9032062E62D488F
:10169000006A00F002000028F0D1012F05D129488E
:1016A000C06920F080502749C86100BFE069C8B315
:1016B0002448406800F00C00082860D0E069022847
:1016C00048D1002020490866FFF75AFC054606E08D
:1016D000FFF756FC401B022801D903203AE61948BF
:1016E000006800F000700028F2D1206AB0F5803F59
:1016F00007D11448406820F40030A168084311491C
:101700004860D4E9080108430E49496821F474117E
:1017100008430C49486001200B490866FFF730FC7C
:10172000054607E03DE0FFF72BFC401B022801D9EE
:1017300003200FE60348006800F000700028F2D094
:101740002FE00000001002400000424280044242AC
:1017500000700040002014490866FFF711FC0546A0
:1017600006E0FFF70DFC401B022801D90320F1E53C
:101770000E48006800F000700028F2D111E0E06926
:10178000012800D1E6E50948466806F48031206A60
:10179000814204D106F47011606A814201D00120B7
:1017A000D8E50020D6E500000000424200100240CB
:1017B00070B58AB004460D46032084F83400606C8E
:1017C000032820D0B5F5805F04D1A06B40F0805095
:1017D000A0631CE0B5F5006F07D1204604F004FFBC
:1017E0000646A06B3043A06311E03DB9204604F0EB
:1017F000C7FE0646A06B3043A06308E0A06B40F034
:101800000060A06303E0A06B40F08050A063A06B79
:1018100038B1104821688863012084F834000AB088
:1018200070BD60680490A0680590E0680690079518
:1018300060690890A069099007A807C88DE80700AB
:10184000206804A90EC904F0A4F8012084F834002B
:101850000020E4E7FF05400010B50246506E800FFF
:101860000870506EC0F383604870506EC0F3016022
:101870008870506E000CC870B2F86400000A0871DD
:1018800092F864004871906E000DC880906EC0F3AD
:10189000034008726820805AC0F3C0304872682044
:1018A000805AC0F3803088726820805AC0F340307C
:1018B000C8726820805AC0F3003008730020487353
:1018C000506C002836D16820805A8005030DD06EF8
:1018D00043EA90700861D06EC0F3C2600875D06EA4
:1018E000C0F302604875D06EC0F342508875D06E68
:1018F000C0F38240C875D06EC0F3C2300876086964
:10190000401C50650B7E506D03F007039B1C0124A7
:101910009C4060435065087A00F00F030120984016
:101920009065D2E915035B0A5843D0654FF4007304
:10193000136621E0506C012813D16820805C80067A
:10194000830AD06E43EA104008610869401C830294
:101950005365536DD3654FF400739365936D1366B0
:101960000AE02E4813689863906B40F080509063B3
:10197000012082F8340010BD6C20805AC0F3803002
:1019800001F8190F6C20805AC0F3C61048706C2003
:10199000805C00F07F008870106FC00FC870106FFF
:1019A000C0F341700871106FC0F382604871106F0E
:1019B000C0F383508871106FC0F34050C87100208D
:1019C0000872106FC0F3004048727020805AC0F354
:1019D000C03088727020805AC0F38030C872702086
:1019E000805AC0F3403008737020805AC0F3003032
:1019F00048737020805AC0F3812088737020805A09
:101A0000C0F30120C8737020805CC0F346000874E6
:101A10000120487419390020ADE70000FF0540009F
:101A20000246506C0860906C4860D06C8860106D05
:101A3000C860506D0861906D4861D06D8861106E0E
:101A4000C86100207047F8B5044600200090694640
:101A5000204604F07DFD054615B1A06B2843A06328
:101A60000098C0F343263046F8BD10B504460CB9C3
:101A7000012010BD94F8340020B9002020772046C2
:101A800000F054F8032084F83400204600F00CF8ED
:101A900008B10120EDE70020A0632063012084F855
:101AA00034000020E5E7000070B58AB0044600204D
:101AB000049005900690079008907620099007A85A
:101AC00007C88DE80700206804A90EC903F061FF6C
:101AD000064616B101200AB070BD00201249086008
:101AE000206803F070FF01200F49A039C1F8A00061
:101AF000204604F09DFC05463DB1012084F83400E9
:101B0000A06B2843A0630120E5E7204604F00EFC0B
:101B100005463DB1012084F83400A06B2843A06342
:101B20000120D8E70020D6E7A000304210B586B0EB
:101B3000044600BF2448406940F48060224948615F
:101B40000846406900F48060019000BF00BF00BFFC
:101B50000846406940F0020048610846406900F0CC
:101B60000200019000BF00BF00BF0846806940F03E
:101B7000100088610846806900F01000019000BFE5
:101B800000BF00BF0846806940F020008861084619
:101B9000806900F02000019000BF00BF4FF4F850B2
:101BA000029002200390012004900320059002A9D6
:101BB0000648FFF737F80420029002A90448FFF70F
:101BC00031F806B010BD00000010024000100140C6
:101BD000001401402DE9F04F87B004468A46904634
:101BE0001E46DDF840900025FFF7CAF90090AB468D
:101BF0005746BAF1000F07D1A06B40F00060A06318
:101C0000012007B0BDE8F08F94F8340001287DD1A1
:101C10000020A06308EB0601E06D814205D9A06BAE
:101C200040F00070A0630120EBE7032084F834004B
:101C300000202168C862606C012801D04FEA482862
:101C40004FF40071206803F01FFF05464DB1704846
:101C500021688863A06B2843A063012084F83400C6
:101C6000CFE74FF0FF300190700202909020039078
:101C700002200490002005900120069001A9206810
:101C800003F062FE012E07D902202063414620683E
:101C900003F062FF054606E001202063414620680C
:101CA00003F076FF05464DB1594821688863A06B63
:101CB0002843A063012084F83400A2E729E02068CB
:101CC000406B00F4004068B14FF0000B06E0206864
:101CD00003F082FE47F82B000BF1010BBBF1080F5C
:101CE000F5D32037B9F1000F05D0FFF749F9009976
:101CF000401A48450DD3464821688863A06B40F0E0
:101D00000040A063012084F8340000E079E0032063
:101D100077E72068406B40F22A3108400028CED097
:101D20002068406B00F4807098B1012E11D9606C6E
:101D300003280ED0206803F0EBFF05464DB1344870
:101D400021688863A06B2843A063012084F83400D5
:101D500057E72068406B00F0080050B12C4821681C
:101D60008863A06B40F00800A063012084F8340071
:101D700047E72068406B00F0020050B1244821681A
:101D80008863A06B40F00200A063012084F8340057
:101D900037E72068406B00F0200050B11C482168F4
:101DA0008863A06B40F02000A063012084F8340019
:101DB00027E718E0206803F00FFE38603F1DB9F1F7
:101DC000000F05D0FFF7DCF80099401A48450AD308
:101DD0000F4821688863A06B40F00040A063012099
:101DE00084F834000DE72068406B00F400100028F0
:101DF000E0D1074821688863012084F8340000207E
:101E0000FFE6A06B40F00050A0630120F9E600005F
:101E1000FF0540002DE9F04F87B00446884617467D
:101E20001E46DDF840B00025FFF7AAF80090A9464D
:101E3000C246B8F1000F07D1A06B40F00060A0636C
:101E4000012007B0BDE8F08F94F8340001287BD161
:101E50000020A063B919E06D814205D9A06B40F064
:101E60000070A0630120ECE7032084F83400002018
:101E70002168C862606C012800D07F024FF40071B5
:101E8000206803F001FE05464DB15F482168886374
:101E9000A06B2843A063012084F83400D1E7012E11
:101EA00007D9202020633946206803F04FFF0546FC
:101EB00006E0102020633946206803F063FF0546E2
:101EC0004DB1514821688863A06B2843A06301206D
:101ED00084F83400B5E74FF0FF30019070020290B3
:101EE000902003900020049005900120069001A905
:101EF000206803F029FD28E02068406B00F4804052
:101F000070B14FF0000906E00AEB8901206803F088
:101F10007BFD09F10109B9F1080FF5D30AF1200A97
:101F2000BBF1000F05D0FFF72BF80099401A584578
:101F30000BD3354821688863A06B2843A063012038
:101F400084F8340003207CE757E02068406B40F2BF
:101F50001A3108400028CFD02068406B00F4807010
:101F600098B1012E11D9606C03280ED0206803F0BF
:101F7000CFFE05464DB1244821688863A06B2843F5
:101F8000A063012084F834005BE72068406B00F018
:101F9000080050B11C4821688863A06B40F008001D
:101FA000A063012084F834004BE72068406B00F008
:101FB000020050B1144821688863A06B40F0020011
:101FC000A063012084F834003BE72068406B00F0F8
:101FD000100050B10C4821688863A06B40F01000DD
:101FE000A063012084F834002BE707482168886348
:101FF000012084F83400002023E7A06B40F000505B
:10200000A06301201DE70000FF05400010B5044655
:102010000CB9012010BD606A00B900BFA06AB0F51C
:10202000005F00D100BF94F8510028B9002084F867
:102030005000204600F038F8022084F85100206853
:10204000006820F0400021680860D4E901010843DD
:10205000E16808432169084361690843218B01F461
:1020600000710843E1690843216A0843A16A0843F3
:10207000216808600421A06901EA104021684860D5
:10208000A06AB0F5005F02D12168E06A08612068AB
:10209000C06920F400602168C861002060650120EB
:1020A00084F851000020B5E710B586B0044600BFA3
:1020B0001448806940F00800124988610846806928
:1020C00000F00800019000BF00BF00BF0846C069D3
:1020D00040F48040C8610846C06900F48040019027
:1020E00000BF00BF4FF46040029002200390012027
:1020F00004900320059002A90348FEF793FD06B063
:1021000010BD000000100240000C01402DE9FF5FEF
:102110000446884691461D460E9E012002900020EE
:10212000019000BF94F85000012803D1022004B0B0
:10213000BDE8F09F012084F8500000BFFEF720FFAB
:10214000074694F851B060680390AA46BBF1010FAE
:102150000BD00398B0F5827F04D1A06810B9BBF111
:10216000040F02D0022001903DE1B8F1000F03D02E
:10217000B9F1000F00D015B90120019033E194F8B6
:102180005100042802D0052084F851000020606529
:10219000C4F83890E587A587C4F83080E586A58621
:1021A00020646064A06AB0F5005F0DD100BF2068B4
:1021B000006820F40050216808602068006840F43E
:1021C00000502168086000BF2068006800F04000EF
:1021D000402805D02068006840F040002168086071
:1021E000E068B0F5006F56D1606810B1BAF1010F28
:1021F00009D1206B00882168C860206B801C206397
:10220000E08E401EE0863FE02068806800F002001B
:1022100002281CD1E08ED0B10298012817D1206B82
:1022200000882168C860206B801C2063E08E401EFF
:10223000E08600200290E08E48B9A06AB0F5005F09
:1022400005D12068006840F480502168086020684B
:10225000806800F0010068B1E08F58B12068C06864
:10226000A16B0880A06B801CA063E08F401EE087FC
:1022700001200290FEF784FEC01BB04204D3701C04
:1022800010B103200190AEE0E08E0028BCD1E08FB9
:102290000028B9D156E0606810B1BAF1010F09D138
:1022A000206B007821680873206B401C2063E08E4F
:1022B000401EE08640E02068806800F002000228AE
:1022C0001CD1E08ED0B10298012817D1206B007884
:1022D00021680873206B401C2063E08E401EE0865E
:1022E00000200290E08E48B9A06AB0F5005F05D1E9
:1022F0002068006840F48050216808602068806889
:1023000000F0010068B1E08F58B12068C068A16B8F
:102310000870A06B401CA063E08F401EE087012086
:102320000290FEF72DFEC01BB04201D3701C00B915
:1023300016B90320019056E0E08E0028BBD1E08F53
:102340000028B8D1A06AB0F5005F10D13346012251
:1023500011462046009704F01CFA30B1606D40F041
:1023600002006065032001903DE02068C06820689D
:102370008068C0F30010E8B1204604F007FA012895
:1023800014D1606D40F00200606500BF20680068F5
:1023900020F40050216808602068006840F4005074
:1023A0002168086000BF0120019003E04FF6EF7044
:1023B000216888603A463146204604F0D3F920B1BE
:1023C00001200190202060650DE0A06850B900BF99
:1023D000002000902068C06800902068806800900D
:1023E00000BF00BF00BF012084F8510000BF0020E3
:1023F00084F8500000BF019899E670B504460E4677
:1024000015460CB9012070BD94F8410028B9002090
:1024100084F84000204600F01FF804F1080120680D
:10242000FEF74EFA3146A2682068FEF781FA294687
:10243000236BD4E90102FEF721FAA168206850F865
:10244000210040F00100A268216841F8220001202B
:1024500084F841000020D6E710B586B0044600BFDE
:102460002848406940F48070264948610846406920
:1024700000F48070019000BF00BF00BF0846806973
:1024800040F0200088610846806900F0200001903B
:1024900000BF00BF00BF0846806940F0400088616F
:1024A0000846806900F04000019000BF00BF00BFF7
:1024B0000846806940F4807088610846806900F4AD
:1024C0008070019000BF00BF4CF233700290022078
:1024D0000390012004900320059002A90A48FEF70A
:1024E000A1FB4FF68070029002A90848FEF79AFB04
:1024F00041F20100029002A90548FEF793FB06B0E5
:1025000010BD0000001002400014014000180140FE
:1025100000200140042808D14FF0E021096941F072
:1025200004014FF0E022116107E04FF0E02109695A
:1025300021F004014FF0E0221161704770B50446AC
:102540002546681EB0F1807F01D301200FE0681E90
:102550004FF0E02148610F214FF0FF3004F03CFFC5
:1025600000204FF0E021886107200861002070BD45
:1025700010B504460CB9012010BD94F83D0028B9EF
:10258000002084F83C00204600F00CF8022084F87B
:102590003D00211D206804F033FB012084F83D003C
:1025A0000020E9E7704701460868C06840F0010074
:1025B0000B68D8600868806800F00702062A05D01A
:1025C0000868006840F001000B6818600020704740
:1025D000704701460022002391F8392091F83A30E3
:1025E00042EA0300704700002DE9F04704462068E6
:1025F00005682068C668206847694FF00008C14632
:1026000005F00F08B8F1000F0AD105F0200038B12D
:1026100006F0200020B1204604F098FBBDE8F087CA
:10262000B8F1000F6DD007F0010018B906F49070F2
:10263000002866D005F0010030B106F4807018B1B2
:10264000E06B40F00100E06305F0040030B107F0FA
:10265000010018B1E06B40F00200E06305F00200F9
:1026600030B107F0010018B1E06B40F00400E06306
:1026700005F0080030B107F0010018B1E06B40F040
:102680000800E063E06B68B305F0200028B106F0B5
:10269000200010B1204604F059FB20684069C0F3C7
:1026A0008019E06B00F0080010B9B9F1000F22D0DA
:1026B000204604F02BFB2068406900F04000B0B1D8
:1026C0002068406920F0400021684861606B50B18B
:1026D0001748616B4863606BFEF7BCF910B1606B23
:1026E000416B88470CE02046FFF772FF08E0204668
:1026F000FFF76EFF04E02046FFF76AFF0020E0636B
:102700008CE705F0800030B106F0800018B120465B
:1027100004F040FC82E705F0400030B106F04000D4
:1027200018B1204604F002FB78E700BF76E700000E
:10273000F96C000810B504460CB9012010BDA06961
:1027400000B100E000BF94F8390028B9002084F8F7
:102750003800204600F028F8242084F8390020684A
:10276000C06820F400502168C860204604F042FB95
:102770002068006920F49040216808612068406961
:1027800020F02A00216848612068C06840F40050A9
:102790002168C8600020E063202084F8390084F8B4
:1027A0003A000020CAE7000010B586B0044625496B
:1027B0002068884244D100BF2348806940F004006B
:1027C000214988610846806900F00400019000BF3B
:1027D00000BF00BF0846806940F480408861084619
:1027E000806900F48040019000BF00BF00BF084630
:1027F000806940F0010088610846806900F00100AE
:10280000019000BF00BF48150290022003900120F4
:1028100004900320059002A90C48FEF703FA4FF438
:10282000806002900020039002A90848FEF7FAF9A0
:102830002520FEF7F2FB032211462520FEF7FDFBC3
:1028400006B010BD003801400010024000080140F1
:1028500010B5034693F83A0020282FD101B10AB9E8
:10286000012010BD00BF93F83800012801D10220DB
:10287000F7E7012083F8380000BF99629A85DA856E
:102880000020D863222083F83A0000BF002083F89C
:10289000380000BF1868C06840F480701C68E060B1
:1028A0001868406940F001001C6860611868C068E1
:1028B00040F020001C68E0600020D2E70220D0E752
:1028C0001D4A0168914236D11C49098801F4004132
:1028D00089BB1A49098801F4804171B11849097806
:1028E0000A2903D00021154A118024E013490988E0
:1028F00041F40041114A11801DE0114909780D2968
:1029000006D10E49098841F480410C4A118012E039
:102910000B490978094A1288C2F30D02094B9954F0
:1029200006490988491C054A118011460988C729AA
:1029300001DD00211180704700380140180000209F
:102940001A0000209C010020704700BFFEE772B60D
:10295000704762B67047000000B585B000BF1A48E6
:10296000806940F00400184988610846806900F0D9
:102970000400009000BF00BF00BF0846806940F01F
:10298000400088610846806900F04000009000BF68
:1029900000BF01200190002002900220039003203C
:1029A000049001A90948FEF73DF918200190002084
:1029B0000290012003900320049001A90448FEF72F
:1029C00031F905B000BD00000010024000080140D0
:1029D0000018014010B50446012C01D126490870A9
:1029E0002548007880B310212448FEF7BBFA78B15F
:1029F00008212248FEF7B6FA50B104211F48FEF71D
:102A0000B1FA28B101211E48FEF7ACFA01281CD109
:102A10000A2005F053F800201749087010211748C4
:102A2000FEF7A0FA08B9012010BD08211348FEF7EF
:102A300099FA08B90220F7E701211148FEF792FA46
:102A4000012816D10420EFE7FFE710210B48FEF71D
:102A500089FA01280DD108210848FEF783FA0128D8
:102A600007D101210648FEF77DFA10B9012002497D
:102A700008700020D8E70000240000200018014062
:102A80000008014070B504460026094805884088C2
:102A900045430021084602F01DFD02F0EBFE00BF99
:102AA00002E004490C80761CAE42FAD370BD0000EF
:102AB000EC0200200008006C10B5044655488471F3
:102AC000002C51D1F020534908804FF4A070488069
:102AD0000846808849F24131884205D04D488088B7
:102AE00045F21031884214D12C204A4908812A200D
:102AF00048812B2088810846808845F21031884221
:102B000006D14FF4A070434908804FF4F07048801C
:102B10007BE04048808845F21051884210D14FF444
:102B200030503C4908814FF4285048814FF42C50D4
:102B300088814FF4F07008804FF44870488064E05A
:102B40003448808841F6631188425ED12C20314997
:102B500008812B2048812A2088814FF4F07008805A
:102B60004FF44870488050E04FF4A0702949088025
:102B7000F02048800846808849F24131884205D0DB
:102B80002448808845F21031884207D12C20214901
:102B900008812A2048812B20888129E01D488088CF
:102BA00045F21051884210D14FF430501949088134
:102BB0004FF4285048814FF42C5088814FF44870CE
:102BC00008804FF4F070488012E01248808841F687
:102BD000631188420CD12C200E4908812A2048819B
:102BE0002B2088814FF4487008804FF4F0704880A3
:102BF0000848808845F21031884206D14FF4F070C1
:102C0000044908804FF4A0704880002002F028FB9F
:102C100010BD0000EC02002030B504460D463E48D1
:102C2000808849F24131884205D03B48808845F28E
:102C30001031884214D13849488902F00FFE201221
:102C400002F000FEE0B202F0FDFD3349888902F097
:102C500005FE281202F0F6FDE8B202F0F3FD54E0A2
:102C60002D48808845F21051884220D12A49488950
:102C700002F0F4FD201202F0E5FD27494989491CC4
:102C800088B202F0EBFDE0B202F0DCFD2249888957
:102C900002F0E4FD281202F0D5FD1F498989491C84
:102CA00088B202F0DBFDE8B202F0CCFD2DE01A485C
:102CB000808841F66311884227D11748807920B96E
:102CC00015480088401E001B84B21349488902F051
:102CD000C5FD201202F0B6FDE0B202F0B3FD2012F5
:102CE00002F0B0FDE0B202F0ADFD0B49888902F0C0
:102CF000B5FD281202F0A6FDE8B202F0A3FD2812ED
:102D000002F0A0FDE8B202F09DFD034800890349EE
:102D10000880891C0A8030BDEC020020FE07006C90
:102D20002DE9F04F05460E4617469846DDF824A0DB
:102D30004FF0000B781B401C1FFA80FB344613E059
:102D40002146284602F0C6FB02F094FD4FF0000930
:102D500006E00749A1F800A009F101001FFA80F977
:102D6000D945F6DB601C84B24445E9DDBDE8F08F4F
:102D70000008006C00B593B000BFFE48806940F0C9
:102D80000800FC4988610846806900F0080000904E
:102D900000BF00BF01200F901090119003201290EF
:102DA0000FA9F548FDF73EFF4FF02040F3490860BA
:102DB000F3484860062088600021F048C160016146
:102DC0001021416100218161C16141624FF4805154
:102DD00081620021C1624FF480410163002141639F
:102DE000816306200890002009901A200A90002094
:102DF0000E90049003200190002002900620039082
:102E00000020079001AA08A9DC48FFF7F6FA322053
:102E100004F054FED32002F021FD02F0EDF9D9496F
:102E2000888002F0E9F9D749888002F0E5F9D549B0
:102E30008880084680884FF6FF7101EA0020D1495A
:102E4000888002F0D9F9CF4989880843CD49888024
:102E50000846808849F24131884278D0D42002F077
:102E6000FDFC02F0C9F9C749888002F0C5F9C549DF
:102E7000888002F0C1F9C3498880084680884FF6EF
:102E8000FF7101EA0020BF49888002F0B5F9BD4911
:102E900089880843BB4988800846808845F21031FC
:102EA000884254D04FF45A4002F0D8FC02F0A4F902
:102EB000B44988804FF45B4002F0D0FC02F09CF9EA
:102EC000B0498880084680884FF6FF7101EA0020EB
:102ED000AC4988804FF45C4002F0C0FC02F08CF9F1
:102EE000A84989880843A749888008468088B0F5A2
:102EF000004F02D145F210508880A248808845F2E8
:102F00001051884223D0A12002F0A8FC02F074F9ED
:102F10009C49888002F070F99A4988800846808828
:102F20004FF6FF7101EA00209649888002F064F9AB
:102F3000944989880843934988800846808845F2E7
:102F40006171884203D141F663108E4988808D48B3
:102F500081888DA0FDF702FA8A48808849F24131C4
:102F600088427CD1CF2002F079FC002002F06AFC7C
:102F7000C12002F067FC302002F064FCED2002F07A
:102F80006DFC642002F05EFC032002F05BFC12206A
:102F900002F058FC812002F055FCE82002F05EFCB3
:102FA000852002F04FFC102002F04CFC7A2002F049
:102FB00049FCCB2002F052FC392002F043FC2C20CB
:102FC00002F040FC002002F03DFC342002F03AFC0C
:102FD000022002F037FCF72002F040FC202002F033
:102FE00031FCEA2002F03AFC002002F02BFC002029
:102FF00002F028FCC02002F031FC1B2002F022FC71
:10300000C12002F02BFC012002F01CFCC52002F0C4
:1030100025FC302002F016FC302002F013FCC72003
:1030200002F01CFCB72002F00DFC362002F016FC6A
:10303000482002F007FC3A2002F010FC552002F074
:1030400001FCB12002F00AFC002002F0FBFB1A2078
:1030500002F0F8FBB62002F001FC0A2000E0ACE030
:1030600002F0F0FBA22002F0EDFBF22002F0F6FBF2
:10307000002002F0E7FB262002F0F0FB012002F026
:10308000E1FBE02002F0EAFB0F2002F0DBFB2A204C
:1030900002F0D8FB282002F0D5FB082002F0D2FB7A
:1030A0000E2002F0CFFB082002F0CCFB542002F0EF
:1030B000C9FBA92002F0C6FB432002F0C3FB0A2093
:1030C00002F0C0FB0F2002F0BDFB002002F0BAFBB3
:1030D000002002F0B7FB002002F0B4FB002002F059
:1030E000B1FBE12002F0BAFB002002F0ABFB15209F
:1030F00002F0A8FB172002F0A5FB072002F0A2FBBC
:10310000112002F09FFB062002F09CFB2B2002F016
:1031100099FB562002F096FB3C2002F093FB052021
:1031200002F090FB102002F08DFB0F2002F08AFBD2
:103130003F2002F087FB3F2002F084FB0F2002F0CB
:1031400081FB2B2002F08AFB002002F07BFB002099
:1031500002F078FB012002F075FB3F2002F072FBC9
:103160002A2002F07BFB002002F06CFB002002F022
:1031700069FB11E000100240000C0140A402002095
:10318000040100A0EC020020204C43442049443AB2
:1031900025780D0A00000000002002F053FBEF200C
:1031A00002F050FB112002F059FB782004F086FC5D
:1031B000292002F053FB01F0CBBFFE48808845F286
:1031C0001031884240F07C87ED2002F047FB01205F
:1031D00002F038FBFE2002F035FBEE2002F03EFB51
:1031E000DE2002F02FFB212002F02CFBF12002F068
:1031F00035FB012002F026FBDF2002F02FFB102020
:1032000002F020FBC42002F029FB8F2002F01AFB01
:10321000C62002F023FB002002F014FBE22002F0A3
:1032200011FBE22002F00EFBE22002F00BFBBF20BC
:1032300002F014FBAA2002F005FBB02002F00EFB06
:103240000D2002F0FFFA002002F0FCFA0D2002F03F
:10325000F9FA002002F0F6FA112002F0F3FA002049
:1032600002F0F0FA192002F0EDFA002002F0EAFA7A
:10327000212002F0E7FA002002F0E4FA2D2002F00B
:10328000E1FA002002F0DEFA3D2002F0DBFA002035
:1032900002F0D8FA5D2002F0D5FA002002F0D2FA4E
:1032A0005D2002F0CFFA002002F0CCFAB12002F04B
:1032B000D5FA802002F0C6FA002002F0C3FA8B2073
:1032C00002F0C0FA002002F0BDFA962002F0BAFA2D
:1032D000002002F0B7FAB22002F0C0FA002002F09B
:1032E000B1FA002002F0AEFA022002F0ABFA0020A0
:1032F00002F0A8FA032002F0A5FA002002F0A2FAD8
:10330000B32002F0ABFA002002F09CFA002002F099
:1033100099FA002002F096FA002002F093FA0020B9
:1033200002F090FA002002F08DFA002002F08AFAF2
:10333000002002F087FA002002F084FA002002F058
:1033400081FA002002F07EFA002002F07BFA0020D1
:1033500002F078FA002002F075FA002002F072FA0A
:10336000002002F06FFA002002F06CFA002002F058
:1033700069FA002002F066FA002002F063FA0020E9
:1033800002F060FA002002F05DFA002002F05AFA22
:10339000002002F057FAB42002F060FA8B2002F00D
:1033A00051FA002002F04EFA962002F04BFA00206B
:1033B00002F048FAA12002F045FA002002F042FA99
:1033C000B52002F04BFA022002F03CFA002002F095
:1033D00039FA032002F036FA002002F033FA042012
:1033E00002F030FA002002F02DFAB62002F036FA90
:1033F000002002F027FA002002F024FAB72002F0A1
:103400002DFA002002F01EFA002002F01BFA3F20E5
:1034100002F018FA002002F015FA5E2002F012FA0B
:10342000002002F00FFA642002F00CFA002002F0F3
:1034300009FA8C2002F006FA002002F003FAAC2010
:1034400002F000FA002002F0FDF9DC2002F0FAF9A7
:10345000002002F0F7F9702002F0F4F9002002F0E9
:10346000F1F9902002F0EEF9002002F0EBF9EB20E8
:1034700002F0E8F9002002F0E5F9DC2002F0E2F9C0
:10348000002002F0DFF9B82002F0E8F9002002F095
:10349000D9F9002002F0D6F9002002F0D3F900207B
:1034A00002F0D0F9002002F0CDF9002002F0CAF9B4
:1034B000002002F0C7F9002002F0C4F9BA2002F09F
:1034C000CDF9242002F0BEF9002002F0BBF9002063
:1034D00002F0B8F9002002F0B5F9C12002F0BEF9FF
:1034E000202002F0AFF9002002F0ACF9542002F0E5
:1034F000A9F9002002F0A6F9FF2002F0A3F90020AC
:1035000002F0A0F9C22002F0A9F90A2002F09AF90B
:10351000002002F097F9042002F094F9002002F054
:1035200091F9C32002F09AF93C2002F08BF90020B7
:1035300002F088F93A2002F085F9002002F082F9C1
:10354000392002F07FF9002002F07CF9372002F0E8
:1035500079F9002002F076F93C2002F073F900209E
:1035600002F070F9362002F06DF9002002F06AF9DD
:10357000322002F067F9002002F064F92F2002F0F7
:1035800061F9002002F05EF92C2002F05BF90020C6
:1035900002F058F9292002F055F9002002F052F902
:1035A000262002F04FF9002002F04CF9242002F00E
:1035B00049F901E0EC020020002002F043F9242048
:1035C00002F040F9002002F03DF9232002F03AF920
:1035D000002002F037F93C2002F034F9002002F01C
:1035E00031F9362002F02EF9002002F02BF93220BA
:1035F00002F028F9002002F025F92F2002F022F92C
:10360000002002F01FF92C2002F01CF9002002F02B
:1036100019F9292002F016F9002002F013F92620EA
:1036200002F010F9002002F00DF9242002F00AF94E
:10363000002002F007F9242002F004F9002002F033
:1036400001F9232002F0FEF8002002F0FBF8C4206C
:1036500002F004F9622002F0F5F8002002F0F2F81E
:10366000052002F0EFF8002002F0ECF8842002F0D0
:10367000E9F8002002F0E6F8F02002F0E3F800207C
:1036800002F0E0F8182002F0DDF8002002F0DAF88D
:10369000A42002F0D7F8002002F0D4F8182002F09D
:1036A000D1F8002002F0CEF8502002F0CBF8002034
:1036B00002F0C8F80C2002F0C5F8002002F0C2F8B1
:1036C000172002F0BFF8002002F0BCF8952002F0AD
:1036D000B9F8002002F0B6F8F32002F0B3F80020A9
:1036E00002F0B0F8E62002F0ADF8002002F0AAF8EF
:1036F000C52002F0B3F8322002F0A4F8002002F056
:10370000A1F8442002F09EF8002002F09BF865200A
:1037100002F098F8002002F095F8762002F092F876
:10372000002002F08FF8882002F08CF8002002F0D0
:1037300089F8C62002F092F8202002F083F80020D9
:1037400002F080F8172002F07DF8002002F07AF8ED
:10375000012002F077F8002002F074F8C72002F090
:103760007DF8002002F06EF8002002F06BF80020D7
:1037700002F068F8002002F065F8C82002F06EF848
:10378000002002F05FF8002002F05CF8002002F058
:1037900059F8002002F056F8C92002F05FF8002026
:1037A00002F050F8002002F04DF8002002F04AF834
:1037B000002002F047F8002002F044F8002002F058
:1037C00041F8002002F03EF8002002F03BF8002013
:1037D00002F038F8002002F035F8002002F032F84C
:1037E000002002F02FF8002002F02CF8002002F058
:1037F00029F8002002F026F8002002F023F8E0204B
:1038000002F02CF8162002F01DF8002002F01AF841
:103810001C2002F017F8002002F014F8212002F01A
:1038200011F8002002F00EF8362002F00BF800200C
:1038300002F008F8462002F005F8002002F002F835
:10384000522001F0FFFF002001F0FCFF642001F096
:10385000F9FF002001F0F6FF7A2001F0F3FF0020CD
:1038600001F0F0FF8B2001F0EDFF002001F0EAFFF6
:10387000992001F0E7FF002001F0E4FFA82001F00B
:10388000E1FF002001F0DEFFB92001F0DBFF0020A6
:1038900001F0D8FFC42001F0D5FF002001F0D2FFD5
:1038A000CA2001F0CFFF002001F0CCFFD22001F0B0
:1038B000C9FF002001F0C6FFD92001F0C3FF00209E
:1038C00001F0C0FFE02001F0BDFF002001F0BAFFD1
:1038D000F32001F0B7FF002001F0B4FFE12001F078
:1038E000BDFF162001F0AEFF002001F0ABFF1C2051
:1038F00001F0A8FF002001F0A5FF222001F0A2FFA7
:10390000002001F09FFF362001F09CFF002001F015
:1039100099FF452001F096FF002001F093FF52200F
:1039200001F090FF002001F08DFF642001F08AFF7C
:10393000002001F087FF7A2001F084FF002001F0D1
:1039400081FF8B2001F07EFF002001F07BFF99209A
:1039500001F078FF002001F075FFA82001F072FF50
:10396000002001F06FFFB92001F06CFF002001F092
:1039700069FFC42001F066FF002001F063FFCA2048
:1039800001F060FF002001F05DFFD22001F05AFF3E
:10399000002001F057FFD82001F054FF002001F073
:1039A00051FFE02001F04EFF002001F04BFFF3201B
:1039B00001F048FF002001F045FFE22001F04EFF3A
:1039C000052001F03FFF002001F03CFF0B2001F03B
:1039D00039FF002001F036FF1B2001F033FF0020EB
:1039E00001F030FF342001F02DFF002001F02AFF0C
:1039F000442001F027FF002001F024FF4F2001F0B8
:103A000021FF002001F01EFF612001F01BFF0020BC
:103A100001F018FF792001F015FF002001F012FFDE
:103A2000882001F00FFF002001F00CFF972001F02B
:103A300009FF002001F006FFA62001F003FF00208F
:103A400001F000FFB72001F0FDFE002001F0FAFEBA
:103A5000C22001F0F7FE002001F0F4FEC72001F0C3
:103A6000F1FE002001F0EEFED12001F0EBFE00207F
:103A700001F0E8FED62001F0E5FE002001F0E2FEB4
:103A8000DD2001F0DFFE002001F0DCFEF32001F07C
:103A9000D9FE002001F0D6FEE32001F0DFFE052074
:103AA00001F0D0FE002001F0CDFE0A2001F0CAFE98
:103AB000002001F0C7FE1C2001F0C4FE002001F030
:103AC000C1FE332001F0BEFE002001F0BBFE442009
:103AD00001F0B8FE002001F0B5FE502001F0B2FE6A
:103AE000002001F0AFFE622001F0ACFE002001F0EA
:103AF000A9FE782001F0A6FE002001F0A3FE882098
:103B000001F0A0FE002001F09DFE972001F09AFE3A
:103B1000002001F097FEA62001F094FE002001F0A5
:103B200091FEB72001F08EFE002001F08BFEC22036
:103B300001F088FE002001F085FEC72001F082FE22
:103B4000002001F07FFED12001F07CFE002001F07A
:103B500079FED52001F076FE002001F073FEDD2015
:103B600001F070FE002001F06DFEF32001F06AFE0E
:103B7000002001F067FEE42001F070FE012001F05A
:103B800061FE002001F05EFE012001F05BFE0020DE
:103B900001F058FE022001F055FE002001F052FE17
:103BA0002A2001F04FFE002001F04CFE3C2001F0E5
:103BB00049FE002001F046FE4B2001F043FE0020AC
:103BC00001F040FE5D2001F03DFE002001F03AFED4
:103BD000742001F037FE002001F034FE842001F053
:103BE00031FE002001F02EFE932001F02BFE00207C
:103BF00001F028FEA22001F025FE002001F022FEA7
:103C0000B32001F01FFE002001F01CFEBE2001F0D9
:103C100019FE002001F016FEC42001F013FE002062
:103C200001F010FECD2001F00DFE002001F00AFE93
:103C3000D32001F007FE002001F004FEDD2001F09A
:103C400001FE002001F0FEFDF32001F0FBFD00204D
:103C500001F0F8FDE52001F001FE002001F0F2FD89
:103C6000002001F0EFFD002001F0ECFD002001F04C
:103C7000E9FD022001F0E6FD002001F0E3FD29202E
:103C800001F0E0FD002001F0DDFD3C2001F0DAFD57
:103C9000002001F0D7FD4B2001F0D4FD002001F001
:103CA000D1FD5D2001F0CEFD002001F0CBFD7420A0
:103CB00001F0C8FD002001F0C5FD842001F0C2FD27
:103CC000002001F0BFFD932001F0BCFD002001F0B9
:103CD000B9FDA22001F0B6FD002001F0B3FDB32034
:103CE00001F0B0FD002001F0ADFDBE2001F0AAFD05
:103CF000002001F0A7FDC42001F0A4FD002001F088
:103D0000A1FDCD2001F09EFD002001F09BFDD32000
:103D100001F098FD002001F095FDDC2001F092FDFE
:103D2000002001F08FFDF32001F08CFD002001F058
:103D300089FDE62001F092FD112001F083FD0020B5
:103D400001F080FD342001F07DFD002001F07AFDBE
:103D5000562001F077FD002001F074FD762001F07F
:103D600071FD002001F06EFD772001F06BFD002059
:103D700001F068FD662001F065FD002001F062FDA4
:103D8000882001F05FFD002001F05CFD992001F02A
:103D900059FD002001F056FDBB2001F053FD00202D
:103DA00001F050FD992001F04DFD002001F04AFD89
:103DB000662001F047FD002001F044FD552001F090
:103DC00041FD002001F03EFD552001F03BFD0020AB
:103DD00001F038FD452001F035FD002001F032FDF5
:103DE000432001F02FFD002001F02CFD442001F0C4
:103DF00029FD002001F026FDE72001F02FFD3220F3
:103E000001F020FD002001F01DFD552001F01AFDFC
:103E1000002001F017FD762001F014FD002001F0D4
:103E200011FD662001F00EFD002001F00BFD672062
:103E300001F008FD002001F005FD672001F002FD02
:103E4000002001F0FFFC872001F0FCFC002001F0C5
:103E5000F9FC992001F0F6FC002001F0F3FCBB20F6
:103E600001F0F0FC002001F0EDFC992001F0EAFCEB
:103E7000002001F0E7FC772001F0E4FC002001F0D5
:103E8000E1FC442001F0DEFC002001F0DBFC5620C8
:103E900001F0D8FC002001F0D5FC232001F0D2FC79
:103EA000002001F0CFFC332001F0CCFC002001F019
:103EB000C9FC452001F0C6FC002001F0C3FCE8204D
:103EC00001F0CCFC002001F0BDFC002001F0BAFCA8
:103ED000992001F0B7FC002001F0B4FC872001F02C
:103EE000B1FC002001F0AEFC882001F0ABFC00200A
:103EF00001F0A8FC772001F0A5FC002001F0A2FC55
:103F0000662001F09FFC002001F09CFC882001F05D
:103F100099FC002001F096FCAA2001F093FC0020FF
:103F200001F090FCBB2001F08DFC002001F08AFC28
:103F3000992001F087FC002001F084FC662001F04C
:103F400081FC002001F07EFC552001F07BFC00206C
:103F500001F078FC552001F075FC002001F072FCA6
:103F6000442001F06FFC002001F06CFC442001F0C3
:103F700069FC002001F066FC552001F063FC002084
:103F800001F060FCE92001F069FCAA2001F05AFC74
:103F9000002001F057FC002001F054FC002001F04B
:103FA00051FC002001F05AFCAA2001F04BFCCF206C
:103FB00001F054FC002001F045FC002001F042FC1F
:103FC000002001F03FFC002001F03CFC002001F04B
:103FD00039FC002001F036FC002001F033FC002009
:103FE00001F030FC002001F02DFC002001F02AFC43
:103FF000002001F027FC002001F024FC002001F04B
:1040000021FC002001F01EFC002001F01BFC002020
:1040100001F018FC002001F015FCF02001F01EFC5E
:10402000002001F00FFC502001F00CFC002001F0FA
:1040300009FC002001F006FC002001F003FCF32045
:1040400001F00CFC002001F0FDFBF92001F006FC62
:10405000062001F0F7FB102001F0F4FB292001F00D
:10406000F1FB002001F0EEFB3A2001F0F7FB5520B8
:1040700001F0E8FB112001F0F1FB642003F01EFDCC
:10408000292001F0EBFB352001F0E8FB002001F0D6
:10409000D9FB512001F0E2FBFF2001F0D3FB5320BC
:1040A00001F0DCFB2C2001F0CDFB552001F0D6FB0C
:1040B000822001F0C7FB2C2001F0D0FB01F048B8B2
:1040C000FE48808845F2105188427DD155214FF439
:1040D000704001F0D9FBAA214FF2010001F0D4FB9E
:1040E00052214FF2020001F0CFFB08214FF20300F2
:1040F00001F0CAFB01214FF2040001F0C5FB0D21C4
:104100004FF4304001F0C0FB0D214BF2010001F0F3
:10411000BBFB0D214BF2020001F0B6FB34214FF442
:10412000364001F0B1FB34214BF2016001F0ACFBF1
:1041300034214BF2026001F0A7FB0D214FF4314016
:1041400001F0A2FB0D214BF2011001F09DFB0D21AE
:104150004BF2021001F098FB34214FF4374001F08C
:1041600093FB34214BF2017001F08EFB34214BF2B2
:10417000027001F089FB00214FF4324001F084FB12
:1041800000214BF2012001F07FFB00214BF20220C5
:1041900001F07AFB24214FF4384001F075FB242113
:1041A0004BF6010001F070FB24214BF6020001F0F8
:1041B0006BFB01214FF43F4001F066FB0F214FF4F0
:1041C000334001F061FB00E0FDE30F214BF20130D1
:1041D00001F05AFB0F214BF2023001F055FB342164
:1041E0004FF4394001F050FB34214BF6011001F03F
:1041F0004BFB34214BF6021001F046FB08214FF433
:10420000354001F041FB08214BF2015001F03CFB2D
:1042100008214BF2025001F037FB03214FF44240DA
:1042200001F032FB24214FF43A4001F02DFB242110
:104230004BF6012001F028FB24214BF6022001F06F
:1042400023FB00214FF43C4001F01EFB78214BF68C
:10425000014001F019FB00214BF6024001F014FB74
:1042600000214FF43D4001F00FFB78214BF6015047
:1042700001F00AFB00214BF6025001F005FB002182
:104280004FF43E4001F000FB64214BF6016001F069
:10429000FBFA00214FF4514001F0F6FA33214DF2C0
:1042A000011001F0F1FA00214DF2021001F0ECFAD8
:1042B00034214DF2031001F0E7FA00214DF2041011
:1042C00001F0E2FA3A214DF2051001F0DDFA002189
:1042D0004DF2061001F0D8FA4A214DF2071001F014
:1042E000D3FA00214DF2081001F0CEFA5C214DF214
:1042F000091001F0C9FA00214DF20A1001F0C4FAC8
:1043000081214DF20B1001F0BFFA00214DF20C108B
:1043100001F0BAFAA6214DF20D1001F0B5FA002114
:104320004DF20E1001F0B0FAE5214DF20F1001F040
:10433000ABFA01214DF2101001F0A6FA13214DF253
:10434000111001F0A1FA01214DF2121001F09CFAB6
:1043500054214DF2131001F097FA01214DF214107F
:1043600001F092FA82214DF2151001F08DFA01212F
:104370004DF2161001F088FACA214DF2171001F023
:1043800083FA02214DF2181001F07EFA00214DF25D
:10439000191001F079FA02214DF21A1001F074FAA5
:1043A00001214DF21B1001F06FFA02214DF21C1099
:1043B00001F06AFA34214DF21D1001F065FA022174
:1043C0004DF21E1001F060FA67214DF21F1001F04E
:1043D0005BFA02214DF2201001F056FA84214DF2D1
:1043E000211001F051FA02214DF2221001F04CFA95
:1043F000A4214DF2231001F047FA02214DF22410BE
:1044000001F042FAB7214DF2251001F03DFA0221E8
:104410004DF2261001F038FACF214DF2271001F0AD
:1044200033FA02214DF2281001F02EFADE214DF26E
:10443000291001F029FA02214DF22A1001F024FA84
:10444000F2214DF22B1001F01FFA02214DF22C1037
:1044500001F01AFAFE214DF22D1001F015FA032198
:104460004DF22E1001F010FA10214DF22F1001F034
:104470000BFA03214DF2301001F006FA33214DF210
:10448000311001F001FA03214DF2321001F0FCF974
:104490006D214DF2331001F0F7F900214FF4524035
:1044A00001F0F2F933214DF2012001F0EDF9002184
:1044B0004DF2022001F0E8F9342101E0EC02002085
:1044C0004DF2032001F0E0F900214DF2042001F04B
:1044D000DBF93A214DF2052001F0D6F900214DF229
:1044E000062001F0D1F94A214DF2072001F0CCF964
:1044F00000214DF2082001F0C7F95C214DF209209E
:1045000001F0C2F900214DF20A2001F0BDF981212C
:104510004DF20B2001F0B8F900214DF20C2001F012
:10452000B3F9A6214DF20D2001F0AEF900214DF2B4
:104530000E2001F0A9F9E5214DF20F2001F0A4F9B8
:1045400001214DF2102001F09FF913214DF21120AD
:1045500001F09AF901214DF2122001F095F9542150
:104560004DF2132001F090F901214DF2142001F0D9
:104570008BF982214DF2152001F086F901214DF2CF
:10458000162001F081F9CA214DF2172001F07CF9C3
:1045900002214DF2182001F077F900214DF2192087
:1045A00001F072F902214DF21A2001F06DF901219A
:1045B0004DF21B2001F068F902214DF21C2001F0A0
:1045C00063F934214DF21D2001F05EF902214DF214
:1045D0001E2001F059F967214DF21F2001F054F916
:1045E00002214DF2202001F04FF984214DF22120CB
:1045F00001F04AF902214DF2222001F045F9A421EF
:104600004DF2232001F040F902214DF2242001F067
:104610003BF9B7214DF2252001F036F902214DF288
:10462000262001F031F9CF214DF2272001F02CF99D
:1046300002214DF2282001F027F9DE214DF2292038
:1046400001F022F902214DF22A2001F01DF9F22198
:104650004DF22B2001F018F902214DF22C2001F02F
:1046600013F9FE214DF22D2001F00EF903214DF238
:104670002E2001F009F910214DF22F2001F004F94C
:1046800003214DF2302001F0FFF833214DF23120AB
:1046900001F0FAF803214DF2322001F0F5F86D2116
:1046A0004DF2332001F0F0F800214FF4534001F0B7
:1046B000EBF833214DF2013001F0E6F800214DF224
:1046C000023001F0E1F834214DF2033001F0DCF862
:1046D00000214DF2043001F0D7F83A214DF20530B7
:1046E00001F0D2F800214DF2063001F0CDF84A2158
:1046F0004DF2073001F0C8F800214DF2083001F00A
:10470000C3F85C214DF2093001F0BEF800214DF2F2
:104710000A3001F0B9F881214DF20B3001F0B4F804
:1047200000214DF20C3001F0AFF8A6214DF20D3012
:1047300001F0AAF800214DF20E3001F0A5F8E521B4
:104740004DF20F3001F0A0F801214DF2103001F0D0
:104750009BF813214DF2113001F096F801214DF232
:10476000123001F091F854214DF2133001F08CF821
:1047700001214DF2143001F087F882214DF21530FD
:1047800001F082F801214DF2163001F07DF8CA21C6
:104790004DF2173001F078F802214DF2183001F097
:1047A00073F800214DF2193001F06EF802214DF23C
:1047B0001A3001F069F801214DF21B3001F064F864
:1047C00002214DF21C3001F05FF834214DF21D3012
:1047D00001F05AF802214DF21E3001F055F8672120
:1047E0004DF21F3001F050F802214DF2203001F05F
:1047F0004BF884214DF2213001F046F802214DF2B0
:10480000223001F041F8A4214DF2233001F03CF8B0
:1048100002214DF2243001F037F8B7214DF2253056
:1048200001F032F802214DF2263001F02DF8CF21AF
:104830004DF2273001F028F802214DF2283001F026
:1048400023F8DE214DF2293001F01EF802214DF24D
:104850002A3001F019F8F2214DF22B3001F014F852
:1048600002214DF22C3001F00FF8FE214DF22D30D7
:1048700001F00AF803214DF22E3001F005F8102165
:104880004DF22F3001F000F803214DF2303000F0EE
:10489000FBFF33214DF2313000F0F6FF03214DF2E2
:1048A000323000F0F1FF6D214DF2333000F0ECFFBB
:1048B00000214FF4544000F0E7FF33214DF2014056
:1048C00000F0E2FF00214DF2024000F0DDFF342154
:1048D0004DF2034000F0D8FF00214DF2044000F0FB
:1048E000D3FF3A214DF2054000F0CEFF00214DF2FA
:1048F000064000F0C9FF4A214DF2074000F0C4FF16
:1049000000214DF2084000F0BFFF5C214DF209404C
:1049100000F0BAFF00214DF20A4000F0B5FF8121FE
:104920004DF20B4000F0B0FF00214DF20C4000F0C2
:10493000ABFFA6214DF20D4000F0A6FF00214DF285
:104940000E4000F0A1FFE5214DF20F4000F09CFF6A
:1049500001214DF2104000F097FF13214DF211405C
:1049600000F092FF01214DF2124000F08DFF542122
:104970004DF2134000F088FF01214DF2144000F089
:1049800083FF82214DF2154000F07EFF01214DF2A0
:10499000164000F079FFCA214DF2174000F074FF75
:1049A00002214DF2184000F06FFF00214DF2194036
:1049B00000F06AFF02214DF21A4000F065FF01216C
:1049C0004DF21B4000E005E300F05EFF02214DF2D6
:1049D0001C4000F059FF34214DF21D4000F054FFFF
:1049E00002214DF21E4000F04FFF67214DF21F40A3
:1049F00000F04AFF02214DF2204000F045FF8421E3
:104A00004DF2214000F040FF02214DF2224000F023
:104A10003BFFA4214DF2234000F036FF02214DF26E
:104A2000244000F031FFB7214DF2254000F02CFF6B
:104A300002214DF2264000F027FFCF214DF2274002
:104A400000F022FF02214DF2284000F01DFFDE2180
:104A50004DF2294000F018FF02214DF22A4000F0EB
:104A600013FFF2214DF22B4000F00EFF02214DF218
:104A70002C4000F009FFFE214DF22D4000F004FF14
:104A800003214DF22E4000F0FFFE10214DF22F4089
:104A900000F0FAFE03214DF2304000F0F5FE332124
:104AA0004DF2314000F0F0FE03214DF2324000F0B3
:104AB000EBFE6D214DF2334000F0E6FE00214FF495
:104AC000554000F0E1FE33214DF2015000F0DCFED4
:104AD00000214DF2025000F0D7FE34214DF2035078
:104AE00000F0D2FE00214DF2045000F0CDFE3A213C
:104AF0004DF2055000F0C8FE00214DF2065000F0C6
:104B0000C3FE4A214DF2075000F0BEFE00214DF2D7
:104B1000085000F0B9FE5C214DF2095000F0B4FEDF
:104B200000214DF20A5000F0AFFE81214DF20B50F2
:104B300000F0AAFE00214DF20C5000F0A5FEA621C7
:104B40004DF20D5000F0A0FE00214DF20E5000F08D
:104B50009BFEE5214DF20F5000F096FE01214DF233
:104B6000105000F091FE13214DF2115000F08CFE18
:104B700001214DF2125000F087FE54214DF21350E6
:104B800000F082FE01214DF2145000F07DFE8221E2
:104B90004DF2155000F078FE01214DF2165000F054
:104BA00073FECA214DF2175000F06EFE02214DF245
:104BB000185000F069FE00214DF2195000F064FE1B
:104BC00002214DF21A5000F05FFE01214DF21B5000
:104BD00000F05AFE02214DF21C5000F055FE342127
:104BE0004DF21D5000F050FE02214DF21E5000F01B
:104BF0004BFE67214DF21F5000F046FE02214DF2A0
:104C0000205000F041FE84214DF2215000F03CFE86
:104C100002214DF2225000F037FEA4214DF2235024
:104C200000F032FE02214DF2245000F02DFEB7219B
:104C30004DF2255000F028FE02214DF2265000F0E2
:104C400023FECF214DF2275000F01EFE02214DF22F
:104C5000285000F019FEDE214DF2295000F014FE1C
:104C600002214DF22A5000F00FFEF2214DF22B509E
:104C700000F00AFE02214DF22C5000F005FEFE214C
:104C80004DF22D5000F000FE03214DF22E5000F0A9
:104C9000FBFD10214DF22F5000F0F6FD03214DF2E7
:104CA000305000F0F1FD33214DF2315000F0ECFDB9
:104CB00003214DF2325000F0E7FD6D214DF23350EB
:104CC00000F0E2FD00214FF4564000F0DDFD3321FD
:104CD0004DF2016000F0D8FD00214DF2026000F0BD
:104CE000D3FD34214DF2036000F0CEFD00214DF2E2
:104CF000046000F0C9FD3A214DF2056000F0C4FDEA
:104D000000214DF2066000F0BFFD4A214DF2076020
:104D100000F0BAFD00214DF2086000F0B5FD5C2105
:104D20004DF2096000F0B0FD00214DF20A6000F084
:104D3000ABFD81214DF20B6000F0A6FD00214DF28C
:104D40000C6000F0A1FDA6214DF20D6000F09CFD6D
:104D500000214DF20E6000F097FDE5214DF20F604D
:104D600000F092FD01214DF2106000F08DFD132145
:104D70004DF2116000F088FD01214DF2126000F04B
:104D800083FD54214DF2136000F07EFD01214DF2B0
:104D9000146000F079FD82214DF2156000F074FD81
:104DA00001214DF2166000F06FFDCA214DF217602F
:104DB00000F06AFD02214DF2186000F065FD00214F
:104DC0004DF2196000F060FD02214DF21A6000F012
:104DD0005BFD01214DF21B6000F056FD02214DF2FA
:104DE0001C6000F051FD34214DF21D6000F04CFDBF
:104DF00002214DF21E6000F047FD67214DF21F6059
:104E000000F042FD02214DF2206000F03DFD8421C2
:104E10004DF2216000F038FD02214DF2226000F0D9
:104E200033FDA4214DF2236000F02EFD02214DF24E
:104E3000246000F029FDB7214DF2256000F024FD2B
:104E400002214DF2266000F01FFDCF214DF22760B8
:104E500000F01AFD02214DF2286000F015FDDE2160
:104E60004DF2296000F010FD02214DF22A6000F0A1
:104E70000BFDF2214DF22B6000F006FD02214DF2F8
:104E80002C6000F001FDFE214DF22D6000F0FCFCD5
:104E900003214DF22E6000F0F7FC10214DF22F603F
:104EA00000F0F2FC03214DF2306000F0EDFC332104
:104EB0004DF2316000F0E8FC03214DF2326000F069
:104EC000E3FC6D214DF2336000F0DEFC55214FF420
:104ED000704000F0D9FCAA214FF2010000F0D4FC90
:104EE00052214FF2020000F0CFFC08214FF20300E4
:104EF00000F0CAFC00214FF2040000F0C5FCCC21F8
:104F00004FF4314000F0C0FC00214BF2011000F0E2
:104F1000BBFC05214FF4364000F0B6FC70214FF485
:104F2000374000F0B1FC70214BF2017000F0ACFC96
:104F300001214FF4384000F0A7FC03214BF601009B
:104F400000F0A2FC03214BF6020000F09DFC0321BF
:104F50004BF6030000F098FC02214FF43C4000F0B7
:104F600093FC00214BF6014000F08EFC00214BF633
:104F7000024000F089FCD0214FF4494000F084FC4D
:104F800002214CF6011000F07FFC50214CF602107B
:104F900000F07AFC50214CF6031000F075FC502113
:104FA0004CF6041000F070FC00214FF4545000F057
:104FB0006BFC55214FF4685000F066FC4FF48850AC
:104FC00000F04CFC782002F085FD4FF4245000F0F6
:104FD00045FCBDE07F48808841F663118842F8D1E6
:104FE000E22000F03BFC1D2000F02CFC022000F031
:104FF00029FC042000F026FC642002F06BFDE02078
:1050000000F02CFC012000F01DFC0A2002F056FDEF
:10501000E02000F023FC032000F014FC0C2002F040
:105020004DFD012000F01AFC0A2002F047FDE620A9
:1050300000F014FC2F2000F005FCFF2000F002FC23
:10504000FF2000F0FFFBB02000F008FC202000F063
:10505000F9FB002000F0F6FB032000F0F3FB40F228
:105060001F3000F0EFFB012000F0ECFB40F2DF10FE
:1050700000F0E8FB002000F0E5FBB42000F0EEFBC0
:10508000042000F0DFFB40F21F4000F0DBFB0020BB
:1050900000F0D8FB2E2000F0D5FB002000F0D2FB62
:1050A000002000F0CFFB002000F0CCFB002000F03F
:1050B000C9FBB62000F0D2FB022000F0C3FB4FF486
:1050C000037000F0BFFB002000F0BCFB172000F0D5
:1050D000B9FB152000F0B6FB002000F0B3FB002068
:1050E00000F0B0FBF02000F0B9FB032000F0AAFBB9
:1050F000292000F0B3FBD02000F0B0FB002000F02E
:10510000A1FBBE2000F0AAFB052000F09BFBFE20C7
:1051100000F098FB012000F095FB002000F092FBCE
:10512000002000F08FFB002000F08CFBB82000F086
:1051300095FB032000F086FB012000F083FBBA20E2
:1051400000F08CFB012000F07DFB642000F05EF895
:105150002048808849F24131884211D01D4880881A
:1051600045F2103188420BD01A48808845F2105120
:10517000884205D01748808841F6631188421CD1C7
:105180001548006820F00F004FF02041C1F81C01C5
:105190000846D0F81C0120F47060C1F81C010846D4
:1051A000D0F81C0140F00100C1F81C010846D0F8FD
:1051B0001C0140F48070C1F81C010020FDF77CFC4C
:1051C0000120064908604FF6FF70FDF75BFC13B045
:1051D00000BD0000EC0200201C0100A080812142E3
:1051E00010B50246012000E050430B1EA1F101045E
:1051F000E1B2F9D110BD000008B503480088009065
:10520000BDF8000008BD00000008006C2DE9F04763
:105210000446BE2000F022FB052000F013FB2046D0
:1052200006F0B3FC07464FF066320C4B06F0C0FCAC
:10523000054606F07DFC1FFA80F9484600F002FBA7
:10524000012000F0FFFAFF2000F0FCFA002000F03F
:10525000F9FA002000F0F6FABDE8F087666604402F
:10526000F0B505460024002799488079012805D12A
:105270009748808841F66311884208D19448807924
:10528000F0B99348808841F66311884218D1082DFF
:1052900015D2DFE805F00406080A0C0E10120625E8
:1052A0000DE007250BE0042509E0052507E00125B1
:1052B00005E0002503E0032501E0022500BF00BF53
:1052C0008348808849F24131884211D080488088E3
:1052D00045F2103188420BD07D48808845F210514C
:1052E000884205D07A48808841F6631188427DD192
:1052F000082D1CD2DFE805F00406090C0F12151862
:1053000000BF14E044F0800411E044F040040EE0DB
:1053100044F0C0040BE044F0200408E044F06004D2
:1053200005E044F0A00402E044F0E00400BF00BF48
:105330006748808845F21051884202D14FF458578F
:1053400000E036276248808845F2103188420DD04F
:105350005F48808845F21051884207D05C488088B9
:1053600041F66311884201D044F0080421463846D2
:1053700000F08AFA5648808841F6631188421DD0B1
:1053800004F0200068B15248008851494988884299
:1053900014DA4F48068840884D4908800846468000
:1053A0000CE04B4800884A494988884206DD484855
:1053B00006884088464908800846468044488088D8
:1053C00045F21051884254D14149488900F046FACB
:1053D000002000F037FA3E494989491C88B200F0A4
:1053E0003DFA002000F02EFA394900E06FE04989CB
:1053F000891C88B200F032FA35490988491EC1F388
:105400000F2000F01FFA32494989C91C88B200F008
:1054100025FA2F490978491EC8B200F013FA2C4921
:10542000888900F01BFA002000F00CFA28498989CD
:10543000491C88B200F012FA002000F003FA244957
:105440008989891C88B200F009FA21494988491ED6
:10545000C1F30F2000F0F6F91D498989C91C88B2F3
:1054600000F0FCF91A498978491EC8B200F0EAF93F
:105470002DE01749488900F0F1F9002000F0E2F929
:10548000002000F0DFF912490988491EC1F30F20FE
:1054900000F0D8F90E490978491EC8B200F0D2F9D7
:1054A0000B49888900F0DAF9002000F0CBF90020E0
:1054B00000F0C8F906494988491EC1F30F2000F0E1
:1054C000C1F903498978491EC8B200F0BBF9F0BDA3
:1054D000EC02002010B502460C464B48808849F289
:1054E0004131884205D04848808845F210318842D1
:1054F00014D14549488900F0B1F9101200F0A2F921
:10550000D0B200F09FF94049888900F0A7F9201235
:1055100000F098F9E0B200F095F973E03A4880881D
:1055200041F66311884247D137488079A8B9364897
:105530000088401E801A82B23349488900F08EF9F3
:10554000002000F07FF9002000F07CF9101200F03C
:1055500079F9D0B200F076F916E02B49488900F0CD
:105560007DF9101200F06EF9D0B200F06BF9264907
:105570000988491EC1F30F2000F064F92249097817
:10558000491EC8B200F05EF91F49888900F066F92B
:10559000201200F057F9E0B200F054F91A49498896
:1055A000491EC1F30F2000F04DF917498978491EB3
:1055B000C8B200F047F925E01348808845F2105141
:1055C00088421FD11049488900F048F9101200F0B4
:1055D00039F90D494989491C88B200F03FF9D0B228
:1055E00000F030F90849888900F038F9201200F0FD
:1055F00029F905498989491C88B200F02FF9E0B2E0
:1056000000F020F910BD0000EC0200202DE9F84F59
:1056100080460F4616461C46BB462046E31704EB61
:105620005373DB1021464FEAE47C04EB5C7C4FEAC9
:10563000EC0CA4EBCC0CBCF1000F02D04FF0010C31
:1056400001E04FF0000C6344224604EBD27C4FEAA9
:105650006C0C03FB0CF3DBB20093A6F12000C6B286
:1056600000255EE00C2C07D106EB46002F4901EB2C
:10567000800010F805901BE0102C05D12C4800EBA1
:10568000061010F8059013E0182C07D106EBC600A1
:10569000284901EB800010F8059009E0202C05D185
:1056A000254800EBC61010F8059001E0BDE8F88F22
:1056B0004FF0000A2FE009F0800030B11F48394652
:1056C00002684046FDF7A8FA07E00A9828B91C4886
:1056D000394602684046FDF79FFA4FEA49604FEAB3
:1056E0001069781C87B217484088B84200DCDDE7B3
:1056F000A7EB0B00A0420AD15F4608F101001FFA98
:1057000080F810480088404500DCCFE706E00AF149
:10571000010000F0FF0ABAF1080FCCDB00BF681CE3
:10572000C5B2009885429DDB00BFBFE7C8C1000835
:105730003CC600082CCC000888D900081C000020BA
:1057400020000020EC0200202DE9FF4F81B0074629
:1057500091461E460E9D4FF0000A002439E0301B92
:10576000401EC1B20A20FFF73BFDB9FBF0F00A2151
:10577000B0FBF1F201FB1208BAF1000F16D1701E56
:10578000A04213DDB8F1000F0ED10020AB4605EBAF
:10579000DB71491001FB0471009088B22B46202276
:1057A0000299FFF733FF12E04FF0010A0020AB46E9
:1057B00005EBDB71491001FB0471009088B208F120
:1057C0003001CAB22B460299FFF720FF00BF601CD0
:1057D000C4B2B442C3DB05B0BDE8F08F2DE9F84791
:1057E00004460D4690469946DDE9096704F0FF0A34
:1057F00008EB04001FFA80F809EB05001FFA80F996
:1058000016E0444502DB5446A81985B24D4500DB3D
:1058100014E0002000903A78334629462046FFF7EE
:10582000F5FE304606EBD07104EB61018CB27F1CB3
:1058300038787E2802DC38782028E2DA00BFBDE81C
:10584000F887000001B5BDF800000090BDF8000029
:105850000149088008BD00000008006C01B5BDF8D2
:1058600000000090BDF800000149088008BD00005C
:10587000FE07006C0248008902490880704700005A
:10588000EC020020FE07006C024A1080921C11807E
:1058900070470000FE07006C00B585B000BF1B48D4
:1058A000806940F00800194988610846806900F065
:1058B0000800009000BF00BF00BF0846806940F0AC
:1058C000400088610846806900F04000009000BFF9
:1058D00000BF20200190012002900390032004903B
:1058E00001A90B48FBF79EF92020019001A9094866
:1058F000FBF798F9012220210548FBF73BFB012229
:1059000020210448FBF736FB05B000BD0010024023
:10591000000C01400018014000BFFEE770477047CF
:1059200008B508490968C9084FF47A72B1FBF2F169
:105930004143009100BF00BF00994A1E0092002918
:10594000F9D108BD0000002010B502460023086808
:10595000506248689062D1E9020420430C692043F8
:105960004C6920430343D06A20F0F7001843D0620B
:10597000002010BD01460869C0B2704701460868A2
:1059800000F003007047024602F114004318186843
:1059900070470FB410B504460021DDE9030210433F
:1059A000059A1043069A1043079A1043089A104329
:1059B0000143606847F6FF6290430843606000203F
:1059C00010BC5DF814FB10B50446032020600220D3
:1059D000FBF714F9002010BD0146D1F88000704794
:1059E00010B50246002308689060D1E90104204305
:1059F000CC6820430C6920430343D0686FF30B004D
:105A00001843D060002010BD02460868C2F880002C
:105A10000020704770B586B005460C4601943720CB
:105A2000029040200390002004904FF48060059085
:105A300001A92846FFF7D4FF41F2883237212846D2
:105A400000F0DCF90646304606B070BD70B586B091
:105A500005460C460B482043019029200290402027
:105A60000390002004904FF48060059001A928461F
:105A7000FFF7B6FF284600F0C9FA0646304606B0E2
:105A800070BD00000000108070B586B005460C4661
:105A900001941020029040200390002004904FF4C5
:105AA0008060059001A92846FFF79AFF41F28832ED
:105AB0001021284600F0A2F90646304606B070BD17
:105AC00070B586B005460C46019406200290402031
:105AD0000390002004904FF48060059001A92846AF
